{
  "contractName": "Optimistic_Roll_In",
  "abi": [
    {
      "inputs": [
        {
          "internalType": "address",
          "name": "_logic_address",
          "type": "address"
        },
        {
          "internalType": "bytes4",
          "name": "_initializer",
          "type": "bytes4"
        },
        {
          "internalType": "uint256",
          "name": "_lock_time",
          "type": "uint256"
        },
        {
          "internalType": "uint256",
          "name": "_min_bond",
          "type": "uint256"
        }
      ],
      "stateMutability": "nonpayable",
      "type": "constructor"
    },
    {
      "anonymous": false,
      "inputs": [
        {
          "indexed": true,
          "internalType": "address",
          "name": "accuser",
          "type": "address"
        },
        {
          "indexed": true,
          "internalType": "address",
          "name": "suspect",
          "type": "address"
        },
        {
          "indexed": true,
          "internalType": "uint256",
          "name": "transition_index",
          "type": "uint256"
        },
        {
          "indexed": false,
          "internalType": "uint256",
          "name": "amount",
          "type": "uint256"
        }
      ],
      "name": "ORI_Fraud_Proven",
      "type": "event"
    },
    {
      "anonymous": false,
      "inputs": [
        {
          "indexed": true,
          "internalType": "address",
          "name": "suspect",
          "type": "address"
        },
        {
          "indexed": true,
          "internalType": "address",
          "name": "accuser",
          "type": "address"
        }
      ],
      "name": "ORI_Locked",
      "type": "event"
    },
    {
      "anonymous": false,
      "inputs": [
        {
          "indexed": true,
          "internalType": "address",
          "name": "user",
          "type": "address"
        },
        {
          "indexed": true,
          "internalType": "uint256",
          "name": "block_time",
          "type": "uint256"
        }
      ],
      "name": "ORI_New_Optimistic_State",
      "type": "event"
    },
    {
      "anonymous": false,
      "inputs": [
        {
          "indexed": true,
          "internalType": "address",
          "name": "user",
          "type": "address"
        },
        {
          "indexed": true,
          "internalType": "uint256",
          "name": "block_time",
          "type": "uint256"
        }
      ],
      "name": "ORI_New_Optimistic_States",
      "type": "event"
    },
    {
      "anonymous": false,
      "inputs": [
        {
          "indexed": true,
          "internalType": "address",
          "name": "user",
          "type": "address"
        },
        {
          "indexed": true,
          "internalType": "bytes32",
          "name": "new_state",
          "type": "bytes32"
        }
      ],
      "name": "ORI_New_State",
      "type": "event"
    },
    {
      "anonymous": false,
      "inputs": [
        {
          "indexed": true,
          "internalType": "address",
          "name": "user",
          "type": "address"
        },
        {
          "indexed": true,
          "internalType": "uint256",
          "name": "tree_size",
          "type": "uint256"
        },
        {
          "indexed": true,
          "internalType": "uint256",
          "name": "block_time",
          "type": "uint256"
        }
      ],
      "name": "ORI_Rolled_Back",
      "type": "event"
    },
    {
      "anonymous": false,
      "inputs": [
        {
          "indexed": true,
          "internalType": "address",
          "name": "suspect",
          "type": "address"
        },
        {
          "indexed": true,
          "internalType": "address",
          "name": "accuser",
          "type": "address"
        }
      ],
      "name": "ORI_Unlocked",
      "type": "event"
    },
    {
      "inputs": [
        {
          "internalType": "address",
          "name": "",
          "type": "address"
        }
      ],
      "name": "account_states",
      "outputs": [
        {
          "internalType": "bytes32",
          "name": "",
          "type": "bytes32"
        }
      ],
      "stateMutability": "view",
      "type": "function",
      "constant": true
    },
    {
      "inputs": [
        {
          "internalType": "address",
          "name": "",
          "type": "address"
        }
      ],
      "name": "balances",
      "outputs": [
        {
          "internalType": "uint256",
          "name": "",
          "type": "uint256"
        }
      ],
      "stateMutability": "view",
      "type": "function",
      "constant": true
    },
    {
      "inputs": [],
      "name": "initializer",
      "outputs": [
        {
          "internalType": "bytes4",
          "name": "",
          "type": "bytes4"
        }
      ],
      "stateMutability": "view",
      "type": "function",
      "constant": true
    },
    {
      "inputs": [],
      "name": "lock_time",
      "outputs": [
        {
          "internalType": "uint256",
          "name": "",
          "type": "uint256"
        }
      ],
      "stateMutability": "view",
      "type": "function",
      "constant": true
    },
    {
      "inputs": [
        {
          "internalType": "address",
          "name": "",
          "type": "address"
        }
      ],
      "name": "locked_times",
      "outputs": [
        {
          "internalType": "uint256",
          "name": "",
          "type": "uint256"
        }
      ],
      "stateMutability": "view",
      "type": "function",
      "constant": true
    },
    {
      "inputs": [
        {
          "internalType": "address",
          "name": "",
          "type": "address"
        }
      ],
      "name": "lockers",
      "outputs": [
        {
          "internalType": "address",
          "name": "",
          "type": "address"
        }
      ],
      "stateMutability": "view",
      "type": "function",
      "constant": true
    },
    {
      "inputs": [],
      "name": "logic_address",
      "outputs": [
        {
          "internalType": "address",
          "name": "",
          "type": "address"
        }
      ],
      "stateMutability": "view",
      "type": "function",
      "constant": true
    },
    {
      "inputs": [],
      "name": "min_bond",
      "outputs": [
        {
          "internalType": "uint256",
          "name": "",
          "type": "uint256"
        }
      ],
      "stateMutability": "view",
      "type": "function",
      "constant": true
    },
    {
      "inputs": [
        {
          "internalType": "address",
          "name": "",
          "type": "address"
        }
      ],
      "name": "rollback_sizes",
      "outputs": [
        {
          "internalType": "uint256",
          "name": "",
          "type": "uint256"
        }
      ],
      "stateMutability": "view",
      "type": "function",
      "constant": true
    },
    {
      "stateMutability": "payable",
      "type": "receive",
      "payable": true
    },
    {
      "inputs": [
        {
          "internalType": "address",
          "name": "user",
          "type": "address"
        }
      ],
      "name": "bond",
      "outputs": [],
      "stateMutability": "payable",
      "type": "function",
      "payable": true
    },
    {
      "inputs": [],
      "name": "initialize",
      "outputs": [],
      "stateMutability": "payable",
      "type": "function",
      "payable": true
    },
    {
      "inputs": [
        {
          "internalType": "address payable",
          "name": "destination",
          "type": "address"
        }
      ],
      "name": "withdraw",
      "outputs": [],
      "stateMutability": "nonpayable",
      "type": "function"
    },
    {
      "inputs": [
        {
          "internalType": "bytes",
          "name": "call_data",
          "type": "bytes"
        }
      ],
      "name": "perform",
      "outputs": [],
      "stateMutability": "payable",
      "type": "function",
      "payable": true
    },
    {
      "inputs": [
        {
          "internalType": "bytes",
          "name": "call_data",
          "type": "bytes"
        },
        {
          "internalType": "bytes32",
          "name": "call_data_root",
          "type": "bytes32"
        },
        {
          "internalType": "uint256",
          "name": "last_time",
          "type": "uint256"
        }
      ],
      "name": "perform_and_exit",
      "outputs": [],
      "stateMutability": "payable",
      "type": "function",
      "payable": true
    },
    {
      "inputs": [
        {
          "internalType": "bytes",
          "name": "call_data",
          "type": "bytes"
        },
        {
          "internalType": "bytes32",
          "name": "new_state",
          "type": "bytes32"
        },
        {
          "internalType": "bytes32[]",
          "name": "proof",
          "type": "bytes32[]"
        }
      ],
      "name": "perform_optimistically_and_enter",
      "outputs": [],
      "stateMutability": "nonpayable",
      "type": "function"
    },
    {
      "inputs": [
        {
          "internalType": "bytes",
          "name": "call_data",
          "type": "bytes"
        },
        {
          "internalType": "bytes32",
          "name": "new_state",
          "type": "bytes32"
        },
        {
          "internalType": "bytes32",
          "name": "call_data_root",
          "type": "bytes32"
        },
        {
          "internalType": "bytes32[]",
          "name": "proof",
          "type": "bytes32[]"
        },
        {
          "internalType": "uint256",
          "name": "last_time",
          "type": "uint256"
        }
      ],
      "name": "perform_optimistically",
      "outputs": [],
      "stateMutability": "nonpayable",
      "type": "function"
    },
    {
      "inputs": [
        {
          "internalType": "bytes[]",
          "name": "call_data",
          "type": "bytes[]"
        },
        {
          "internalType": "bytes32",
          "name": "new_state",
          "type": "bytes32"
        },
        {
          "internalType": "bytes32[]",
          "name": "proof",
          "type": "bytes32[]"
        }
      ],
      "name": "perform_many_optimistically_and_enter",
      "outputs": [],
      "stateMutability": "nonpayable",
      "type": "function"
    },
    {
      "inputs": [
        {
          "internalType": "bytes[]",
          "name": "call_data",
          "type": "bytes[]"
        },
        {
          "internalType": "bytes32",
          "name": "new_state",
          "type": "bytes32"
        },
        {
          "internalType": "bytes32",
          "name": "call_data_root",
          "type": "bytes32"
        },
        {
          "internalType": "bytes32[]",
          "name": "proof",
          "type": "bytes32[]"
        },
        {
          "internalType": "uint256",
          "name": "last_time",
          "type": "uint256"
        }
      ],
      "name": "perform_many_optimistically",
      "outputs": [],
      "stateMutability": "nonpayable",
      "type": "function"
    },
    {
      "inputs": [
        {
          "internalType": "address",
          "name": "suspect",
          "type": "address"
        }
      ],
      "name": "lock_user",
      "outputs": [],
      "stateMutability": "payable",
      "type": "function",
      "payable": true
    },
    {
      "inputs": [
        {
          "internalType": "address",
          "name": "suspect",
          "type": "address"
        },
        {
          "internalType": "bytes32",
          "name": "state",
          "type": "bytes32"
        },
        {
          "internalType": "bytes32",
          "name": "call_data_root",
          "type": "bytes32"
        },
        {
          "internalType": "uint256",
          "name": "last_time",
          "type": "uint256"
        }
      ],
      "name": "unlock",
      "outputs": [],
      "stateMutability": "nonpayable",
      "type": "function"
    },
    {
      "inputs": [
        {
          "internalType": "address",
          "name": "suspect",
          "type": "address"
        },
        {
          "internalType": "bytes[]",
          "name": "call_data",
          "type": "bytes[]"
        },
        {
          "internalType": "bytes32",
          "name": "state",
          "type": "bytes32"
        },
        {
          "internalType": "bytes32",
          "name": "call_data_root",
          "type": "bytes32"
        },
        {
          "internalType": "bytes32[]",
          "name": "proof",
          "type": "bytes32[]"
        },
        {
          "internalType": "uint256",
          "name": "last_time",
          "type": "uint256"
        }
      ],
      "name": "prove_fraud",
      "outputs": [],
      "stateMutability": "nonpayable",
      "type": "function"
    },
    {
      "inputs": [
        {
          "internalType": "bytes32",
          "name": "rolled_back_call_data_root",
          "type": "bytes32"
        },
        {
          "internalType": "bytes[]",
          "name": "rolled_back_call_data",
          "type": "bytes[]"
        },
        {
          "internalType": "bytes32[]",
          "name": "roll_back_proof",
          "type": "bytes32[]"
        },
        {
          "internalType": "uint256",
          "name": "current_size",
          "type": "uint256"
        },
        {
          "internalType": "bytes32",
          "name": "current_size_proof",
          "type": "bytes32"
        },
        {
          "internalType": "bytes32",
          "name": "call_data_root",
          "type": "bytes32"
        },
        {
          "internalType": "bytes32",
          "name": "state",
          "type": "bytes32"
        },
        {
          "internalType": "uint256",
          "name": "last_time",
          "type": "uint256"
        }
      ],
      "name": "rollback",
      "outputs": [],
      "stateMutability": "payable",
      "type": "function",
      "payable": true
    }
  ],
  "bytecode": "0x6101006040523480156200001257600080fd5b506040516200387f3803806200387f83398101604081905262000035916200007c565b60609390931b6001600160601b0319166080527fffffffff000000000000000000000000000000000000000000000000000000009190911660a05260c05260e052620000f5565b6000806000806080858703121562000092578384fd5b84516001600160a01b0381168114620000a9578485fd5b60208601519094507fffffffff0000000000000000000000000000000000000000000000000000000081168114620000df578384fd5b6040860151606090960151949790965092505050565b60805160601c60a05160e01c60e01b60c05160e0516137236200015c6000398061042752806104bc52806105325250806105db52806106725280610bb252508061098b5280610e2a52508061095352806112145280611aab5280611cb952506137236000f3fe6080604052600436106101795760003560e01c80636a8dddef116100cb578063af7b5a411161007f578063c45481bb11610059578063c45481bb146103a6578063e1124200146103c6578063e426ed80146103d957610189565b8063af7b5a411461035e578063bb6ae2cb1461037e578063c0c452671461039157610189565b80638ee16d13116100b05780638ee16d13146102fc5780639ce110d71461031c578063a68f59131461033e57610189565b80636a8dddef146102d45780638129fc1c146102f457610189565b806327e235e31161012d578063480bb7c411610107578063480bb7c41461028c57806351cff8d9146102a15780635b1db142146102c157610189565b806327e235e31461022c5780632a4154541461024c5780632c8e7a211461025f57610189565b80631646d0511161015e5780631646d051146101d9578063177f15c5146101f9578063247ce85b1461021957610189565b806308542bb11461018e5780630a09d5c4146101ae57610189565b3661018957610187336103f9565b005b600080fd5b34801561019a57600080fd5b506101876101a9366004612d6b565b610518565b3480156101ba57600080fd5b506101c3610530565b6040516101d09190613150565b60405180910390f35b3480156101e557600080fd5b506101876101f4366004612fb5565b610554565b34801561020557600080fd5b50610187610214366004612f7b565b61056d565b610187610227366004612c7b565b6103f9565b34801561023857600080fd5b506101c3610247366004612c7b565b61057e565b61018761025a366004613018565b610590565b34801561026b57600080fd5b5061027f61027a366004612c7b565b610648565b6040516101d0919061312f565b34801561029857600080fd5b506101c3610670565b3480156102ad57600080fd5b506101876102bc366004612c7b565b610694565b6101876102cf366004612c7b565b61074a565b3480156102e057600080fd5b506101876102ef366004612de2565b6108ec565b6101876108fc565b34801561030857600080fd5b50610187610317366004612d31565b610b27565b34801561032857600080fd5b50610331610e28565b6040516101d09190613159565b34801561034a57600080fd5b50610187610359366004612c97565b610e4c565b34801561036a57600080fd5b506101c3610379366004612c7b565b6111f2565b61018761038c366004612f3b565b611204565b34801561039d57600080fd5b5061027f611212565b3480156103b257600080fd5b506101c36103c1366004612c7b565b611236565b6101876103d4366004612e9b565b611248565b3480156103e557600080fd5b506101c36103f4366004612c7b565b611594565b348061048d5773ffffffffffffffffffffffffffffffffffffffff82166000908152602081905260409020547f00000000000000000000000000000000000000000000000000000000000000001115610487576040517f08c379a000000000000000000000000000000000000000000000000000000000815260040161047e906135d2565b60405180910390fd5b50610515565b73ffffffffffffffffffffffffffffffffffffffff8216600090815260208190526040902080548201908190557f00000000000000000000000000000000000000000000000000000000000000001115610513576040517f08c379a000000000000000000000000000000000000000000000000000000000815260040161047e906135d2565b505b50565b6105293386868660008787826115a6565b5050505050565b7f000000000000000000000000000000000000000000000000000000000000000081565b61056433888888888888886117dd565b50505050505050565b6105293386868660008787826117dd565b60006020819052908152604090205481565b33600081815260046020526040902054156105d7576040517f08c379a000000000000000000000000000000000000000000000000000000000815260040161047e906131f4565b81427f0000000000000000000000000000000000000000000000000000000000000000820110610633576040517f08c379a000000000000000000000000000000000000000000000000000000000815260040161047e9061359b565b610640338787878761199a565b505050505050565b60026020526000908152604090205473ffffffffffffffffffffffffffffffffffffffff1681565b7f000000000000000000000000000000000000000000000000000000000000000081565b3360008181526002602052604090205473ffffffffffffffffffffffffffffffffffffffff16156106f1576040517f08c379a000000000000000000000000000000000000000000000000000000000815260040161047e90613564565b336000818152602081905260408082208054908390559051909173ffffffffffffffffffffffffffffffffffffffff86169183156108fc0291849190818181858888f19350505050158015610529573d6000803e3d6000fd5b3360008181526002602052604090205473ffffffffffffffffffffffffffffffffffffffff16156107a7576040517f08c379a000000000000000000000000000000000000000000000000000000000815260040161047e90613564565b73ffffffffffffffffffffffffffffffffffffffff80831660009081526002602052604090205483911615610808576040517f08c379a000000000000000000000000000000000000000000000000000000000815260040161047e90613564565b73ffffffffffffffffffffffffffffffffffffffff831660009081526002602081815260408084208054337fffffffffffffffffffffffff0000000000000000000000000000000000000000918216811790925560038085528387204290819055838852958552838720805490921683179091559092529092205561088c816103f9565b8073ffffffffffffffffffffffffffffffffffffffff168473ffffffffffffffffffffffffffffffffffffffff167f8773bde6581ad6ddd421210de867340039fb65ce3df41edba7b5de6d24ae7a5160405160405180910390a350505050565b61056433888888888888886115a6565b3360008181526001602052604090205415610943576040517f08c379a000000000000000000000000000000000000000000000000000000000815260040161047e90613262565b3361094d816103f9565b600060607f000000000000000000000000000000000000000000000000000000000000000073ffffffffffffffffffffffffffffffffffffffff16347f00000000000000000000000000000000000000000000000000000000000000006040516020016109ba91906130b9565b604080517fffffffffffffffffffffffffffffffffffffffffffffffffffffffffffffffe0818403018152908290526109f2916130f6565b60006040518083038185875af1925050503d8060008114610a2f576040519150601f19603f3d011682016040523d82523d6000602084013e610a34565b606091505b509150915081610a70576040517f08c379a000000000000000000000000000000000000000000000000000000000815260040161047e906134f6565b600081806020019051810190610a869190612e83565b604051909150610a9f90600090839082906020016130a3565b604080517fffffffffffffffffffffffffffffffffffffffffffffffffffffffffffffffe0818403018152828252805160209182012073ffffffffffffffffffffffffffffffffffffffff8816600081815260019093529282205583927f0f5025cc4f20aa47a346d1b7d9da6ba8c68cc8e83b75e813da4b4490d55365ae9190a35050505050565b73ffffffffffffffffffffffffffffffffffffffff808516600090815260026020526040902054859116610b87576040517f08c379a000000000000000000000000000000000000000000000000000000000815260040161047e906133e3565b73ffffffffffffffffffffffffffffffffffffffff85166000908152600360205260409020548590427f00000000000000000000000000000000000000000000000000000000000000009091011115610c0c576040517f08c379a000000000000000000000000000000000000000000000000000000000815260040161047e906134bf565b73ffffffffffffffffffffffffffffffffffffffff8616600090815260046020526040902054869015610c6b576040517f08c379a000000000000000000000000000000000000000000000000000000000815260040161047e906131f4565b73ffffffffffffffffffffffffffffffffffffffff8716600090815260016020908152604091829020549151610ca79188918a918991016130a3565b6040516020818303038152906040528051906020012014610cf4576040517f08c379a000000000000000000000000000000000000000000000000000000000815260040161047e90613375565b73ffffffffffffffffffffffffffffffffffffffff808816600081815260026020818152604080842080547fffffffffffffffffffffffff00000000000000000000000000000000000000008082169092556003808552838720879055971680865293835281852080549091169055948152848320839055828152848320805490849055938352918490208054840190559251610d979189918b914291016130a3565b604080517fffffffffffffffffffffffffffffffffffffffffffffffffffffffffffffffe0818403018152828252805160209182012073ffffffffffffffffffffffffffffffffffffffff808e1660008181526001909452938320919091558516927f524512344e535e9bda79e916c2ea8c7b9e5d23d83e1b95181d7622b4ac3d42939190a3505050505050505050565b7f000000000000000000000000000000000000000000000000000000000000000081565b73ffffffffffffffffffffffffffffffffffffffff8881166000908152600260205260409020543391168114610eae576040517f08c379a000000000000000000000000000000000000000000000000000000000815260040161047e90613186565b73ffffffffffffffffffffffffffffffffffffffff8916600090815260016020908152604091829020549151610eea9188918a918791016130a3565b6040516020818303038152906040528051906020012014610f37576040517f08c379a000000000000000000000000000000000000000000000000000000000815260040161047e90613375565b610f448589898787611c28565b610f7a576040517f08c379a000000000000000000000000000000000000000000000000000000000815260040161047e9061322b565b6060610f8889898787611c60565b9050600081600081518110610f9957fe5b6020026020010151905089899050600114156110655785856000818110610fbc57fe5b9050602002013560001c8160010114611001576040517f08c379a000000000000000000000000000000000000000000000000000000000815260040161047e90613299565b6110298a8a600081811061101157fe5b90506020028101906110239190613640565b8a611cb2565b15611060576040517f08c379a000000000000000000000000000000000000000000000000000000000815260040161047e90613307565b61110b565b8160018151811061107257fe5b6020026020010151816001011461108857600080fd5b8989600181811061109557fe5b90506020028101906110a79190613640565b6110b59160049082906136a3565b8101906110c29190612e6b565b97506110d48a8a600081811061101157fe5b1561110b576040517f08c379a000000000000000000000000000000000000000000000000000000000815260040161047e90613307565b73ffffffffffffffffffffffffffffffffffffffff808c16600081815260208181526040808320805490849055948816808452818420805487019055600280845282852080547fffffffffffffffffffffffff00000000000000000000000000000000000000009081169091556003808652848720879055878752600486528487208a905591855283862080549091168717905590925280832092909255905192965083927fa66290bc21cee2ba1a3c6ba2cac21d24511cea1f9ed7efe453736f24fd894886906111dd908990613150565b60405180910390a45050505050505050505050565b60016020526000908152604090205481565b61051333838360008061199a565b7f000000000000000000000000000000000000000000000000000000000000000081565b60046020526000908152604090205481565b336000818152600460205260409020548061128f576040517f08c379a000000000000000000000000000000000000000000000000000000000815260040161047e9061341a565b73ffffffffffffffffffffffffffffffffffffffff82166000908152600160209081526040918290205491516112cb91889188918891016130a3565b6040516020818303038152906040528051906020012014611318576040517f08c379a000000000000000000000000000000000000000000000000000000000815260040161047e90613375565b611323858888611d7a565b611359576040517f08c379a000000000000000000000000000000000000000000000000000000000815260040161047e906133ac565b60008989600081811061136857fe5b9050602002013560001c90508781106113ad576040517f08c379a000000000000000000000000000000000000000000000000000000000815260040161047e906131bd565b818110156113e7576040517f08c379a000000000000000000000000000000000000000000000000000000000815260040161047e90613488565b856113f58e8e8e8e8e611da9565b1461142c576040517f08c379a000000000000000000000000000000000000000000000000000000000815260040161047e9061352d565b8b8b600081811061143957fe5b905060200281019061144b9190613640565b6114599160049082906136a3565b8101906114669190612e6b565b60405190955061147e908e90879042906020016130a3565b604080517fffffffffffffffffffffffffffffffffffffffffffffffffffffffffffffffe0818403018152918152815160209283012073ffffffffffffffffffffffffffffffffffffffff861660009081526001909352912055808214156115375773ffffffffffffffffffffffffffffffffffffffff8316600090815260026020908152604080832080547fffffffffffffffffffffffff000000000000000000000000000000000000000016905560049091528120555b611540836103f9565b42818473ffffffffffffffffffffffffffffffffffffffff167f4d7ed8c49e6b03daee23a18f4bd14bd7e4628e5ed54c57bf84407a693867eca960405160405180910390a450505050505050505050505050565b60036020526000908152604090205481565b73ffffffffffffffffffffffffffffffffffffffff80891660009081526002602052604090205489911615611607576040517f08c379a000000000000000000000000000000000000000000000000000000000815260040161047e90613564565b878760018111611643576040517f08c379a000000000000000000000000000000000000000000000000000000000815260040161047e90613451565b60008a8a600081811061165257fe5b90506020028101906116649190613640565b6116729160049082906136a3565b81019061167f9190612e6b565b73ffffffffffffffffffffffffffffffffffffffff8d1660009081526001602090815260409182902054915192935090916116c0918b9185918a91016130a3565b604051602081830303815290604052805190602001201461170d576040517f08c379a000000000000000000000000000000000000000000000000000000000815260040161047e90613375565b61171a888c8c8a8a611da9565b6040519091506117329082908b9042906020016130a3565b60405160208183030381529060405280519060200120600160008e73ffffffffffffffffffffffffffffffffffffffff1673ffffffffffffffffffffffffffffffffffffffff16815260200190815260200160002081905550428c73ffffffffffffffffffffffffffffffffffffffff167f0b87b136840d19f5f25329273082c00833265a189b70137e06df6315ddc7839e60405160405180910390a3505050505050505050505050565b73ffffffffffffffffffffffffffffffffffffffff8089166000908152600260205260409020548991161561183e576040517f08c379a000000000000000000000000000000000000000000000000000000000815260040161047e90613564565b600061184d886004818c6136a3565b81019061185a9190612e6b565b73ffffffffffffffffffffffffffffffffffffffff8b16600090815260016020908152604091829020549151929350909161189b91899185918891016130a3565b60405160208183030381529060405280519060200120146118e8576040517f08c379a000000000000000000000000000000000000000000000000000000000815260040161047e90613375565b6118f5868a8a8888611e86565b60405190915061190d908290899042906020016130a3565b604080517fffffffffffffffffffffffffffffffffffffffffffffffffffffffffffffffe0818403018152828252805160209182012073ffffffffffffffffffffffffffffffffffffffff8e16600081815260019093529282205542927f4779c4b07abff82b16061ec9a47d081e7f4981c29088395cdb7ff87e322cbbc69190a350505050505050505050565b73ffffffffffffffffffffffffffffffffffffffff808616600090815260026020526040902054869116156119fb576040517f08c379a000000000000000000000000000000000000000000000000000000000815260040161047e90613564565b6000611a0a85600481896136a3565b810190611a179190612e6b565b73ffffffffffffffffffffffffffffffffffffffff88166000908152600160209081526040918290205491519293509091611a5891879185918891016130a3565b6040516020818303038152906040528051906020012014611aa5576040517f08c379a000000000000000000000000000000000000000000000000000000000815260040161047e90613375565b600060607f000000000000000000000000000000000000000000000000000000000000000073ffffffffffffffffffffffffffffffffffffffff16348989604051611af19291906130e6565b60006040518083038185875af1925050503d8060008114611b2e576040519150601f19603f3d011682016040523d82523d6000602084013e611b33565b606091505b509150915081611b6f576040517f08c379a000000000000000000000000000000000000000000000000000000000815260040161047e90613609565b80806020019051810190611b839190612e83565b604051909350611b9c90600090859082906020016130a3565b604080517fffffffffffffffffffffffffffffffffffffffffffffffffffffffffffffffe0818403018152828252805160209182012073ffffffffffffffffffffffffffffffffffffffff8d16600081815260019093529282205585927f0f5025cc4f20aa47a346d1b7d9da6ba8c68cc8e83b75e813da4b4490d55365ae9190a3505050505050505050565b600085611c5384846000818110611c3b57fe5b90506020020135611c4e88888888611f51565b6120f4565b1490505b95945050505050565b6060611ca78484846001818110611c7357fe5b9050602002013585856002818110611c8757fe5b9050602002013586866003818110611c9b57fe5b90506020020135612103565b90505b949350505050565b60008060607f000000000000000000000000000000000000000000000000000000000000000073ffffffffffffffffffffffffffffffffffffffff168686604051611cfe9291906130e6565b6000604051808303816000865af19150503d8060008114611d3b576040519150601f19603f3d011682016040523d82523d6000602084013e611d40565b606091505b509150915081611d5557600092505050611d73565b600081806020019051810190611d6b9190612e83565b851493505050505b9392505050565b600083158015611d88575082155b15611d9557506001611d73565b83611da084846120f4565b14949350505050565b60008083836000818110611db957fe5b60200291909101359150508615811514611dff576040517f08c379a000000000000000000000000000000000000000000000000000000000815260040161047e9061333e565b86611e1a57611e1285611c4e8882612423565b915050611c57565b6000611e2887878787612539565b9350905087611e3783836120f4565b14611e6e576040517f08c379a000000000000000000000000000000000000000000000000000000000815260040161047e906132d0565b611e7a828701846120f4565b98975050505050505050565b60008083836000818110611e9657fe5b60200291909101359150508615811514611edc576040517f08c379a000000000000000000000000000000000000000000000000000000000815260040161047e9061333e565b86611ef057611e126001611c4e8888612749565b6000611efe8787878761277f565b9350905087611f0d83836120f4565b14611f44576040517f08c379a000000000000000000000000000000000000000000000000000000000815260040161047e906132d0565b611e7a60018301846120f4565b6000806060611f608787612849565b90925090506000806004600182898983818110611f7957fe5b90506020020135905060008a8a6002818110611f9157fe5b90506020020135905060008b8b6003818110611fa957fe5b9050602002013590505b83848316141561205157838484161415611ffb578760018715611fd65787611fd8565b8a5b0381518110611fe357fe5b60200260200101519950505050505050505050611caa565b87878151811061200757fe5b602002602001015188878151811061201b57fe5b60200260200101818152505088876001018161203357fe5b06965088866001018161204257fe5b069550600184901b9350611fb3565b8384841614612078578b8b8680600101975081811061206c57fe5b90506020020135612092565b875160018801978991811061208957fe5b60200260200101515b995088878161209d57fe5b06965083848216146120cb576120c68a8989815181106120b957fe5b60200260200101516120f4565b6120e8565b6120e88888815181106120da57fe5b60200260200101518b6120f4565b88878151811061201b57fe5b60009182526020526040902090565b60608467ffffffffffffffff8111801561211c57600080fd5b50604051908082528060200260200182016040528015612146578160200160208202803683370190505b50905060608567ffffffffffffffff8111801561216257600080fd5b5060405190808252806020026020018201604052801561218c578160200160208202803683370190505b50905060608667ffffffffffffffff811180156121a857600080fd5b506040519080825280602002602001820160405280156121d2578160200160208202803683370190505b507fffffffffffffffffffffffffffffffffffffffffffffffffffffffffffffffff90970196905086600160008080805b848c169350848b169250848a16915087868151811061221e57fe5b60200260200101516001901b9050848314156122c55784841415612249575050505050505050611caa565b87868151811061225557fe5b602090810291909101018051600101905285612273578c95506122b9565b86517fffffffffffffffffffffffffffffffffffffffffffffffffffffffffffffffff870196889181106122a357fe5b60200260200101516122b4576122b9565b612249565b600185901b9450612203565b8484141561238c575b848214156122f657808987815181106122e357fe5b6020026020010181815117915081815250505b87868151811061230257fe5b602090810291909101018051600101905285612320578c955061238c565b86868151811061232c57fe5b60200260200101516123625760018787806001900398508151811061234d57fe5b9115156020928302919091019091015261238c565b60018787806001900398508151811061237757fe5b911515602092830291909101909101526122ce565b8482146123b357808987815181106123a057fe5b6020026020010181815117915081815250505b8786815181106123bf57fe5b6020908102919091010180516001019052856123dd578c95506122b9565b86517fffffffffffffffffffffffffffffffffffffffffffffffffffffffffffffffff8701968891811061240d57fe5b602002602001015161241e576122b9565b61238c565b60008060606124328585612953565b915091506000805b60018411156125185750600181901b7fffffffffffffffffffffffffffffffffffffffffffffffffffffffffffffffff84018114156124b45782818151811061247f57fe5b602002602001015183838151811061249357fe5b6020026020010181815250506000915083600116600185901c01935061243a565b8381106124d0576000915083600116600185901c01935061243a565b6124f68382815181106124df57fe5b60200260200101518483600101815181106120b957fe5b835160018401938591811061250757fe5b60200260200101818152505061243a565b8260008151811061252557fe5b602002602001015194505050505092915050565b6000806000606061254a8888612af3565b9150915060008060008888600081811061256057fe5b60200291909101359586017fffffffffffffffffffffffffffffffffffffffffffffffffffffffffffffffff01959150819050600061259e82612bb4565b63ffffffff1690508a8a828181106125b257fe5b9050602002013598505b861561271f57841580156125d35750816001166001145b1561266d576125fa8b8b838181106125e757fe5b905060200201358786815181106120b957fe5b8660008151811061260757fe5b6020908102919091010152600193909301927fffffffffffffffffffffffffffffffffffffffffffffffffffffffffffffffff0180156126605761265d8b8b8381811061265057fe5b905060200201358a6120f4565b98505b60019450908401906126c8565b868210156126c85761269e86858060010196508151811061268a57fe5b60200260200101518786815181106120b957fe5b86516001870196889181106126af57fe5b6020026020010181815250506001840193506002820191505b86821061271a5786821415612704578584815181106126e357fe5b60200260200101518686815181106126f757fe5b6020026020010181815250505b600196871c96600095508594509290921c918291505b6125bc565b888660008151811061272d57fe5b6020026020010151985098505050505050505094509492505050565b60405160009061276190829085908590602001613067565b60405160208183030381529060405280519060200120905092915050565b60008060006127a38585600081811061279457fe5b9050602002013560001c612bb4565b63ffffffff1690508484828181106127b757fe5b9050602002013592506127f883600060f81b89896040516020016127dd93929190613067565b604051602081830303815290604052805190602001206120f4565b915060005b600182111561283e5760018203915085858381811061281857fe5b90506020020135905061282b81846120f4565b925061283781856120f4565b93506127fd565b505094509492505050565b8060608167ffffffffffffffff8111801561286357600080fd5b5060405190808252806020026020018201604052801561288d578160200160208202803683370190505b5090507fffffffffffffffffffffffffffffffffffffffffffffffffffffffffffffffff820160005b8381101561294a5760008686848181106128cc57fe5b90506020028101906128de9190613640565b6040516020016128f093929190613067565b6040516020818303038152906040528051906020012083828151811061291257fe5b60209081029190910101527fffffffffffffffffffffffffffffffffffffffffffffffffffffffffffffffff909101906001016128b6565b50509250929050565b600181811c908216016060828267ffffffffffffffff8111801561297657600080fd5b506040519080825280602002602001820160405280156129a0578160200160208202803683370190505b5091506000805b84821015612ae95750600181901b7fffffffffffffffffffffffffffffffffffffffffffffffffffffffffffffffff8301811415612a445760008787838181106129ed57fe5b90506020028101906129ff9190613640565b604051602001612a1193929190613067565b60405160208183030381529060405280519060200120848381518110612a3357fe5b602002602001018181525050612ae9565b612ac76000888884818110612a5557fe5b9050602002810190612a679190613640565b604051602001612a7993929190613067565b60405160208183030381529060405280519060200120600060f81b898985600101818110612aa357fe5b9050602002810190612ab59190613640565b6040516020016127dd93929190613067565b8451600184019386918110612ad857fe5b6020026020010181815250506129a7565b5050509250929050565b8060608167ffffffffffffffff81118015612b0d57600080fd5b50604051908082528060200260200182016040528015612b37578160200160208202803683370190505b50905060005b82811015612bac576000858583818110612b5357fe5b9050602002810190612b659190613640565b604051602001612b7793929190613067565b60405160208183030381529060405280519060200120828281518110612b9957fe5b6020908102919091010152600101612b3d565b509250929050565b600181901c6355555555169003600281901c6333333333908116911601600481901c630fffffff1601630f0f0f0f1663010101010260181c60ff1690565b60008083601f840112612c03578182fd5b50813567ffffffffffffffff811115612c1a578182fd5b6020830191508360208083028501011115612c3457600080fd5b9250929050565b60008083601f840112612c4c578182fd5b50813567ffffffffffffffff811115612c63578182fd5b602083019150836020828501011115612c3457600080fd5b600060208284031215612c8c578081fd5b8135611d73816136cb565b60008060008060008060008060c0898b031215612cb2578384fd5b8835612cbd816136cb565b9750602089013567ffffffffffffffff80821115612cd9578586fd5b612ce58c838d01612bf2565b909950975060408b0135965060608b0135955060808b0135915080821115612d0b578485fd5b50612d188b828c01612bf2565b999c989b50969995989497949560a00135949350505050565b60008060008060808587031215612d46578384fd5b8435612d51816136cb565b966020860135965060408601359560600135945092505050565b600080600080600060608688031215612d82578081fd5b853567ffffffffffffffff80821115612d99578283fd5b612da589838a01612bf2565b9097509550602088013594506040880135915080821115612dc4578283fd5b50612dd188828901612bf2565b969995985093965092949392505050565b600080600080600080600060a0888a031215612dfc578283fd5b873567ffffffffffffffff80821115612e13578485fd5b612e1f8b838c01612bf2565b909950975060208a0135965060408a0135955060608a0135915080821115612e45578485fd5b50612e528a828b01612bf2565b989b979a50959894979596608090950135949350505050565b600060208284031215612e7c578081fd5b5035919050565b600060208284031215612e94578081fd5b5051919050565b6000806000806000806000806000806101008b8d031215612eba578182fd5b8a35995060208b013567ffffffffffffffff80821115612ed8578384fd5b612ee48e838f01612bf2565b909b50995060408d0135915080821115612efc578384fd5b50612f098d828e01612bf2565b9b9e9a9d50989b989a9960608a0135996080810135995060a0810135985060c0810135975060e0013595509350505050565b60008060208385031215612f4d578081fd5b823567ffffffffffffffff811115612f63578182fd5b612f6f85828601612c3b565b90969095509350505050565b600080600080600060608688031215612f92578283fd5b853567ffffffffffffffff80821115612fa9578485fd5b612da589838a01612c3b565b600080600080600080600060a0888a031215612fcf578081fd5b873567ffffffffffffffff80821115612fe6578283fd5b612ff28b838c01612c3b565b909950975060208a0135965060408a0135955060608a0135915080821115612e45578283fd5b6000806000806060858703121561302d578182fd5b843567ffffffffffffffff811115613043578283fd5b61304f87828801612c3b565b90989097506020870135966040013595509350505050565b60007fff000000000000000000000000000000000000000000000000000000000000008516825282846001840137910160010190815292915050565b9283526020830191909152604082015260600190565b7fffffffff0000000000000000000000000000000000000000000000000000000091909116815260040190565b6000828483379101908152919050565b60008251815b8181101561311657602081860181015185830152016130fc565b818111156131245782828501525b509190910192915050565b73ffffffffffffffffffffffffffffffffffffffff91909116815260200190565b90815260200190565b7fffffffff0000000000000000000000000000000000000000000000000000000091909116815260200190565b6020808252600a908201527f4e4f545f4c4f434b455200000000000000000000000000000000000000000000604082015260600190565b60208082526015908201527f494e53554646494349454e545f524f4c4c4241434b0000000000000000000000604082015260600190565b60208082526011908201527f524f4c4c4241434b5f5245515549524544000000000000000000000000000000604082015260600190565b60208082526010908201527f494e56414c49445f43414c4c4441544100000000000000000000000000000000604082015260600190565b60208082526013908201527f414c52454144595f494e495449414c495a454400000000000000000000000000604082015260600190565b60208082526012908201527f494e434f52524543545f43414c4c444154410000000000000000000000000000604082015260600190565b6020808252600d908201527f494e56414c49445f50524f4f4600000000000000000000000000000000000000604082015260600190565b60208082526010908201527f56414c49445f5452414e534954494f4e00000000000000000000000000000000604082015260600190565b6020808252600c908201527f494e56414c49445f545245450000000000000000000000000000000000000000604082015260600190565b6020808252600d908201527f494e56414c49445f524f4f545300000000000000000000000000000000000000604082015260600190565b6020808252600c908201527f494e56414c49445f53495a450000000000000000000000000000000000000000604082015260600190565b60208082526010908201527f4143434f554e545f554e4c4f434b454400000000000000000000000000000000604082015260600190565b60208082526014908201527f524f4c4c4241434b5f554e4e4543455353415259000000000000000000000000604082015260600190565b60208082526015908201527f494e53554646494349454e545f43414c4c444154410000000000000000000000604082015260600190565b60208082526011908201527f524f4c4c4241434b5f544f4f5f44454550000000000000000000000000000000604082015260600190565b60208082526013908201527f494e53554646494349454e545f57494e444f5700000000000000000000000000604082015260600190565b60208082526011908201527f494e495449414c495a455f4641494c4544000000000000000000000000000000604082015260600190565b60208082526010908201527f494e56414c49445f524f4c4c4241434b00000000000000000000000000000000604082015260600190565b6020808252600e908201527f4143434f554e545f4c4f434b4544000000000000000000000000000000000000604082015260600190565b60208082526011908201527f494e53554646494349454e545f54494d45000000000000000000000000000000604082015260600190565b60208082526011908201527f494e53554646494349454e545f424f4e44000000000000000000000000000000604082015260600190565b6020808252600b908201527f43414c4c5f4641494c4544000000000000000000000000000000000000000000604082015260600190565b60008083357fffffffffffffffffffffffffffffffffffffffffffffffffffffffffffffffe1843603018112613674578283fd5b83018035915067ffffffffffffffff82111561368e578283fd5b602001915036819003821315612c3457600080fd5b600080858511156136b2578182fd5b838611156136be578182fd5b5050820193919092039150565b73ffffffffffffffffffffffffffffffffffffffff8116811461051557600080fdfea264697066735822122050601883e1f2d0d4c144da5c487992f0423e9872b8f68d80dbb180a710f9dfb264736f6c63430007030033",
  "immutableReferences": {
    "90": [
      {
        "length": 32,
        "start": 2387
      },
      {
        "length": 32,
        "start": 4628
      },
      {
        "length": 32,
        "start": 6827
      },
      {
        "length": 32,
        "start": 7353
      }
    ],
    "92": [
      {
        "length": 32,
        "start": 2443
      },
      {
        "length": 32,
        "start": 3626
      }
    ],
    "94": [
      {
        "length": 32,
        "start": 1499
      },
      {
        "length": 32,
        "start": 1650
      },
      {
        "length": 32,
        "start": 2994
      }
    ],
    "96": [
      {
        "length": 32,
        "start": 1063
      },
      {
        "length": 32,
        "start": 1212
      },
      {
        "length": 32,
        "start": 1330
      }
    ]
  },
  "source": "// SPDX-License-Identifier: MIT\n\npragma solidity >=0.6.0 <=0.7.3;\npragma experimental ABIEncoderV2;\n\nimport \"merkle-trees/eth/contracts/libraries/calldata/bytes/standard/merkle-library.sol\";\n\n// TODO: perhaps a owner-controlled sighash whitelist for optimistically performing, and therefore a non-performing exit method\n// TODO: consider verifying being view, or some kind of forced \"come up for air\" mechanism\n// TODO: make required bond queryable\n\ncontract Optimistic_Roll_In {\n  event ORI_New_State(address indexed user, bytes32 indexed new_state);\n  event ORI_New_Optimistic_State(address indexed user, uint256 indexed block_time);\n  event ORI_New_Optimistic_States(address indexed user, uint256 indexed block_time);\n  event ORI_Locked(address indexed suspect, address indexed accuser);\n  event ORI_Unlocked(address indexed suspect, address indexed accuser);\n  event ORI_Fraud_Proven(\n    address indexed accuser,\n    address indexed suspect,\n    uint256 indexed transition_index,\n    uint256 amount\n  );\n  event ORI_Rolled_Back(address indexed user, uint256 indexed tree_size, uint256 indexed block_time);\n\n  address public immutable logic_address;\n  bytes4 public immutable initializer;\n  uint256 public immutable lock_time;\n  uint256 public immutable min_bond;\n\n  mapping(address => uint256) public balances;\n  mapping(address => bytes32) public account_states;\n  mapping(address => address) public lockers;\n  mapping(address => uint256) public locked_times;\n  mapping(address => uint256) public rollback_sizes;\n\n  constructor(\n    address _logic_address,\n    bytes4 _initializer,\n    uint256 _lock_time,\n    uint256 _min_bond\n  ) {\n    logic_address = _logic_address;\n    initializer = _initializer;\n    lock_time = _lock_time;\n    min_bond = _min_bond;\n  }\n\n  modifier not_initialized(address user) {\n    require(account_states[user] == bytes32(0), \"ALREADY_INITIALIZED\");\n    _;\n  }\n\n  modifier not_locked(address user) {\n    require(lockers[user] == address(0), \"ACCOUNT_LOCKED\");\n    _;\n  }\n\n  modifier is_locked(address user) {\n    require(lockers[user] != address(0), \"ACCOUNT_UNLOCKED\");\n    _;\n  }\n\n  modifier no_rollback_required(address user) {\n    require(rollback_sizes[user] == 0, \"ROLLBACK_REQUIRED\");\n    _;\n  }\n\n  modifier can_exit_optimism(uint256 last_time) {\n    // Check that enough time has elapsed for potential fraud proofs (10 minutes)\n    require(last_time + lock_time < block.timestamp, \"INSUFFICIENT_TIME\");\n    _;\n  }\n\n  modifier sufficient_calldata(bytes[] calldata call_data) {\n    // Check that there is more than 1 call data (if not, user should have called perform_optimistically)\n    require(call_data.length > 1, \"INSUFFICIENT_CALLDATA\");\n    _;\n  }\n\n  modifier lock_expired(address user) {\n    require(locked_times[user] + lock_time <= block.timestamp, \"INSUFFICIENT_WINDOW\");\n    _;\n  }\n\n  receive() external payable {\n    bond(msg.sender);\n  }\n\n  // Bonds msg.value, and reverts if resulting balance less than 1 ETH\n  function bond(address user) public payable {\n    uint256 amount = msg.value;\n\n    if (amount == 0) {\n      require(balances[user] >= min_bond, \"INSUFFICIENT_BOND\");\n      return;\n    }\n\n    balances[user] += amount;\n    require(balances[user] >= min_bond, \"INSUFFICIENT_BOND\");\n  }\n\n  // Sets user's account state to starting point, and bonds msg.value\n  function initialize() external payable not_initialized(msg.sender) {\n    address user = msg.sender;\n    bond(user);\n\n    (bool success, bytes memory return_bytes) = logic_address.call{ value: msg.value }(abi.encodePacked(initializer));\n    require(success, \"INITIALIZE_FAILED\");\n\n    // Decode initial state (S_0) from returned bytes\n    bytes32 initial_state = abi.decode(return_bytes, (bytes32));\n\n    // Set account state to combination of empty call data tree, initial state (S_0), and last time of 0 (not in optimism)\n    account_states[user] = keccak256(abi.encodePacked(bytes32(0), initial_state, bytes32(0)));\n\n    emit ORI_New_State(user, initial_state);\n  }\n\n  // Allows unbonding of ETH if account not locked\n  function withdraw(address payable destination) public not_locked(msg.sender) {\n    address user = msg.sender;\n    uint256 amount = balances[user];\n    balances[user] = 0;\n    destination.transfer(amount);\n  }\n\n  // Returns true if calling the logic contract with the call data results in new state\n  function verify_transition(bytes calldata call_data, bytes32 new_state) internal returns (bool) {\n    // Compute a new state\n    (bool success, bytes memory state_bytes) = logic_address.call(call_data);\n\n    if (!success) return false;\n\n    // Decode new state from returns bytes, reusing the state variable\n    bytes32 state = abi.decode(state_bytes, (bytes32));\n\n    return state == new_state;\n  }\n\n  // Calls logic contract and updates account state\n  function normal_perform(\n    address user,\n    bytes calldata call_data,\n    bytes32 call_data_root,\n    uint256 last_time\n  ) internal not_locked(user) {\n    // Extract current state (S_n or S_0) from calldata (32 bytes starting after the function signature)\n    bytes32 state = abi.decode(call_data[4:], (bytes32));\n\n    // Check that the user it not in an optimistic state, which means that their account state is\n    // an empty call data tree, current state (S_n or S_0), and the last block is 0\n    require(\n      keccak256(abi.encodePacked(call_data_root, state, bytes32(last_time))) == account_states[user],\n      \"INVALID_ROOTS\"\n    );\n\n    // Compute a new state (S_n+1 or S_1)\n    (bool success, bytes memory state_bytes) = logic_address.call{ value: msg.value }(call_data);\n    require(success, \"CALL_FAILED\");\n\n    // Decode new state (S_n+1 or S_1) from returned bytes, reusing the state variable\n    state = abi.decode(state_bytes, (bytes32));\n\n    // Set the account state to an empty call data tree, the new state (S_n+1 or S_1), and last time 0\n    account_states[user] = keccak256(abi.encodePacked(bytes32(0), state, bytes32(0)));\n\n    emit ORI_New_State(user, state);\n  }\n\n  // Set the account state to the on-chain computed new state, if the account is not locked\n  function perform(bytes calldata call_data) external payable {\n    normal_perform(msg.sender, call_data, bytes32(0), 0);\n  }\n\n  // Exits optimism by setting the account state to the on-chain computed new state, if the account is not locked\n  function perform_and_exit(\n    bytes calldata call_data,\n    bytes32 call_data_root,\n    uint256 last_time\n  ) external payable no_rollback_required(msg.sender) can_exit_optimism(last_time) {\n    normal_perform(msg.sender, call_data, call_data_root, last_time);\n  }\n\n  // Updates account state with optimistic transition data\n  function optimistic_perform(\n    address user,\n    bytes calldata call_data,\n    bytes32 new_state,\n    bytes32 call_data_root,\n    bytes32[] calldata proof,\n    uint256 last_time\n  ) internal not_locked(user) {\n    // Extract current state (S_0) from call data (32 bytes starting after the function signature)\n    bytes32 state = abi.decode(call_data[4:], (bytes32));\n\n    // Check that the user it not in an optimistic state, which means that their account state is\n    // an empty call data tree, current state (S_0), and the last block is 0\n    require(\n      keccak256(abi.encodePacked(call_data_root, state, bytes32(last_time))) == account_states[user],\n      \"INVALID_ROOTS\"\n    );\n\n    // Get root of new merkle tree with 1 call data element (CD_0), reusing state as call_data_root\n    state = Merkle_Library_CBS.try_append_one(call_data_root, call_data, proof);\n\n    // Combine call data root, new state (S_1), and current time into account state\n    account_states[user] = keccak256(abi.encodePacked(state, new_state, bytes32(block.timestamp)));\n\n    emit ORI_New_Optimistic_State(user, block.timestamp);\n  }\n\n  // Enters optimism by updating the account state optimistically with call data and a new state, if the account is not locked\n  function perform_optimistically_and_enter(\n    bytes calldata call_data,\n    bytes32 new_state,\n    bytes32[] calldata proof\n  ) external {\n    optimistic_perform(msg.sender, call_data, new_state, bytes32(0), proof, 0);\n  }\n\n  // Updates the account state optimistically with call data and a new state, if the account is not locked\n  function perform_optimistically(\n    bytes calldata call_data,\n    bytes32 new_state,\n    bytes32 call_data_root,\n    bytes32[] calldata proof,\n    uint256 last_time\n  ) external {\n    optimistic_perform(msg.sender, call_data, new_state, call_data_root, proof, last_time);\n  }\n\n  // Updates account state with optimistic batch transition data\n  function optimistic_perform_many(\n    address user,\n    bytes[] calldata call_data,\n    bytes32 new_state,\n    bytes32 call_data_root,\n    bytes32[] calldata proof,\n    uint256 last_time\n  ) internal not_locked(user) sufficient_calldata(call_data) {\n    // Extract current state (S_n) from first call data (32 bytes starting after the function signature)\n    bytes32 state = abi.decode(call_data[0][4:], (bytes32));\n\n    // Check that the call data root, current state (S_n), and last time are valid for this user\n    require(\n      keccak256(abi.encodePacked(call_data_root, state, bytes32(last_time))) == account_states[user],\n      \"INVALID_ROOTS\"\n    );\n\n    // Get new merkle root of call data tree, appending several call data (CD_n - CD_n+m), reusing state as call_data_root\n    state = Merkle_Library_CBS.try_append_many(call_data_root, call_data, proof);\n\n    // Combine call data root, new state (S_n+m), and current time into account state\n    account_states[user] = keccak256(abi.encodePacked(state, new_state, bytes32(block.timestamp)));\n\n    emit ORI_New_Optimistic_States(user, block.timestamp);\n  }\n\n  // Enters optimism by updating the account state optimistically with several call data and final state, if the account is not locked\n  function perform_many_optimistically_and_enter(\n    bytes[] calldata call_data,\n    bytes32 new_state,\n    bytes32[] calldata proof\n  ) external {\n    optimistic_perform_many(msg.sender, call_data, new_state, bytes32(0), proof, 0);\n  }\n\n  // Updates the account state optimistically with several call data and final state, if the account is not locked\n  function perform_many_optimistically(\n    bytes[] calldata call_data,\n    bytes32 new_state,\n    bytes32 call_data_root,\n    bytes32[] calldata proof,\n    uint256 last_time\n  ) external {\n    optimistic_perform_many(msg.sender, call_data, new_state, call_data_root, proof, last_time);\n  }\n\n  // Lock two users (suspect and accuser)\n  // Note: accuser and suspect cannot already be locked, but this might have to change so a single accuser isn't overwhelmed with fraud\n  function lock_user(address suspect) external payable not_locked(msg.sender) not_locked(suspect) {\n    address accuser = msg.sender;\n\n    // Lock both the accuser and the suspect\n    lockers[suspect] = accuser;\n    locked_times[suspect] = block.timestamp;\n    lockers[accuser] = accuser;\n    locked_times[accuser] = block.timestamp;\n\n    // The accuser may be trying to bond at the same time (this also check that have enough bonded)\n    bond(accuser);\n\n    emit ORI_Locked(suspect, accuser);\n  }\n\n  // Unlock two users (suspect and accuser)\n  function unlock(\n    address suspect,\n    bytes32 state,\n    bytes32 call_data_root,\n    uint256 last_time\n  ) external is_locked(suspect) lock_expired(suspect) no_rollback_required(suspect) {\n    // Check that the call data root, current state (S_n), and last time are valid for this user\n    require(\n      keccak256(abi.encodePacked(call_data_root, state, bytes32(last_time))) == account_states[suspect],\n      \"INVALID_ROOTS\"\n    );\n\n    // Unlock both accounts\n    address accuser = lockers[suspect];\n    lockers[suspect] = address(0);\n    locked_times[suspect] = 0;\n    lockers[accuser] = address(0);\n    locked_times[accuser] = 0;\n\n    // Give the suspect the accuser's bond for having not proven fraud within a reasonable time frame\n    // TODO: consider burning some here to prevent self-reporting breakeven\n    uint256 amount = balances[accuser];\n    balances[accuser] = 0;\n    balances[suspect] += amount;\n\n    // Combine call data root, current state (S_n), and current time into account state\n    // Note: updating last time is important, to prevent user blocking fraud proofs by locking themselves\n    account_states[suspect] = keccak256(abi.encodePacked(call_data_root, state, bytes32(block.timestamp)));\n\n    emit ORI_Unlocked(suspect, accuser);\n  }\n\n  // Reward accuser for proving fraud in a suspect's transition, and track the expected rolled back account state size\n  function prove_fraud(\n    address suspect,\n    bytes[] calldata call_data,\n    bytes32 state,\n    bytes32 call_data_root,\n    bytes32[] calldata proof,\n    uint256 last_time\n  ) external {\n    address accuser = msg.sender;\n\n    // Only the user that flagged/locked the suspect can prove fraud\n    require(lockers[suspect] == accuser, \"NOT_LOCKER\");\n\n    // Check that the call data root, current state (S_n), and last time are valid for this user\n    require(\n      keccak256(abi.encodePacked(call_data_root, state, bytes32(last_time))) == account_states[suspect],\n      \"INVALID_ROOTS\"\n    );\n\n    // Check that the call data exist\n    require(Merkle_Library_CBS.elements_exist(call_data_root, call_data, proof), \"INVALID_CALLDATA\");\n\n    // get the indices of the call data in the call data tre\n    uint256[] memory call_data_indices = Merkle_Library_CBS.get_indices(call_data, proof);\n\n    // The transition index is the index of the starting call data of the fraud proof\n    uint256 transition_index = call_data_indices[0];\n\n    // If only one call data is provided, the fraud involves the last call data and current state\n    if (call_data.length == 1) {\n      // Check that the call data index is the last (call data tree size minus 1)\n      require(transition_index + 1 == uint256(proof[0]), \"INCORRECT_CALLDATA\");\n\n      // Fail if the state transition was valid\n      require(verify_transition(call_data[0], state) == false, \"VALID_TRANSITION\");\n    } else {\n      // Check that call data provided are consecutive\n      require(transition_index + 1 == call_data_indices[1]);\n\n      // Extract new state from second call data (32 bytes starting after the function signature), reusing state var\n      state = abi.decode(call_data[1][4:], (bytes32));\n\n      // Fail if the state transition was valid\n      require(verify_transition(call_data[0], state) == false, \"VALID_TRANSITION\");\n    }\n\n    // Take the suspect's bond and give it to the accuser, reusing last_time var\n    // TODO: consider burning some here to prevent self-reporting breakeven\n    last_time = balances[suspect];\n    balances[suspect] = 0;\n    balances[accuser] += last_time;\n\n    // Unlock the accuser's account\n    lockers[accuser] = address(0);\n    locked_times[accuser] = 0;\n\n    // Set the rollback size to the amount of elements that should be in the call data tree once rolled back\n    rollback_sizes[suspect] = transition_index;\n\n    // Set the suspect as the reason for their account's lock\n    lockers[suspect] = suspect;\n    locked_times[suspect] = 0;\n\n    emit ORI_Fraud_Proven(accuser, suspect, transition_index, last_time);\n  }\n\n  // Rolls a user back, given the current roots, old roots, and a proof of the optimistic transitions between them\n  function rollback(\n    bytes32 rolled_back_call_data_root,\n    bytes[] calldata rolled_back_call_data,\n    bytes32[] calldata roll_back_proof,\n    uint256 current_size,\n    bytes32 current_size_proof,\n    bytes32 call_data_root,\n    bytes32 state,\n    uint256 last_time\n  ) external payable {\n    address user = msg.sender;\n    uint256 expected_size = rollback_sizes[user];\n    require(expected_size != 0, \"ROLLBACK_UNNECESSARY\");\n\n    // Check that the call data root, current state (S_n), and last time are valid for this user\n    require(\n      keccak256(abi.encodePacked(call_data_root, state, bytes32(last_time))) == account_states[user],\n      \"INVALID_ROOTS\"\n    );\n\n    // Check that the provided size of the current call data tree is correct\n    require(Merkle_Library_CBS.verify_size(call_data_root, current_size, current_size_proof), \"INVALID_SIZE\");\n\n    // Allow incremental roll back by checking that the rolled back call data tree is smaller than the current tree\n    uint256 rolled_back_size = uint256(roll_back_proof[0]);\n    require(rolled_back_size < current_size, \"INSUFFICIENT_ROLLBACK\");\n\n    // Check that this is not rolling back too far, though\n    require(rolled_back_size >= expected_size, \"ROLLBACK_TOO_DEEP\");\n\n    // Check that the current call data root is derived by appending the rolled back call data to the rolled back call data root\n    require(\n      Merkle_Library_CBS.try_append_many(rolled_back_call_data_root, rolled_back_call_data, roll_back_proof) ==\n        call_data_root,\n      \"INVALID_ROLLBACK\"\n    );\n\n    // Extract new state from first rolled back call data (32 bytes starting after the function signature), reusing state var\n    state = abi.decode(rolled_back_call_data[0][4:], (bytes32));\n\n    // Combine rolled back call data root, new state (S_n-m), and current time into account state\n    account_states[user] = keccak256(abi.encodePacked(rolled_back_call_data_root, state, bytes32(block.timestamp)));\n\n    // Unlock the user and clear the rollback flag, if roll back is complete\n    if (rolled_back_size == expected_size) {\n      lockers[user] = address(0);\n      rollback_sizes[user] = 0;\n    }\n\n    // The user may be trying to bond at the same time (this also check that have enough bonded)\n    bond(user);\n\n    emit ORI_Rolled_Back(user, rolled_back_size, block.timestamp);\n  }\n}\n",
  "sourcePath": "/Users/michaeldeluca/Projects/optimistic-roll-in/eth/contracts/optimistic-roll-in.sol",
  "compiler": {
    "name": "solc",
    "version": "0.7.3+commit.9bfce1f6.Emscripten.clang"
  },
  "schemaVersion": "3.3.1",
  "updatedAt": "2020-10-22T07:03:23.269Z",
  "networkType": "ethereum",
  "devdoc": {
    "kind": "dev",
    "methods": {},
    "version": 1
  },
  "userdoc": {
    "kind": "user",
    "methods": {},
    "version": 1
  }
}