{
  "contractName": "Optimistic_Roll_In",
  "abi": [
    {
      "inputs": [
        {
          "internalType": "address",
          "name": "_logic_address",
          "type": "address"
        },
        {
          "internalType": "bytes4",
          "name": "_initializer",
          "type": "bytes4"
        },
        {
          "internalType": "uint256",
          "name": "_lock_time",
          "type": "uint256"
        },
        {
          "internalType": "uint256",
          "name": "_min_bond",
          "type": "uint256"
        }
      ],
      "stateMutability": "nonpayable",
      "type": "constructor"
    },
    {
      "anonymous": false,
      "inputs": [
        {
          "indexed": true,
          "internalType": "address",
          "name": "accuser",
          "type": "address"
        },
        {
          "indexed": true,
          "internalType": "address",
          "name": "suspect",
          "type": "address"
        },
        {
          "indexed": true,
          "internalType": "uint256",
          "name": "transition_index",
          "type": "uint256"
        },
        {
          "indexed": false,
          "internalType": "uint256",
          "name": "amount",
          "type": "uint256"
        }
      ],
      "name": "ORI_Fraud_Proven",
      "type": "event"
    },
    {
      "anonymous": false,
      "inputs": [
        {
          "indexed": true,
          "internalType": "address",
          "name": "suspect",
          "type": "address"
        },
        {
          "indexed": true,
          "internalType": "address",
          "name": "accuser",
          "type": "address"
        }
      ],
      "name": "ORI_Locked",
      "type": "event"
    },
    {
      "anonymous": false,
      "inputs": [
        {
          "indexed": true,
          "internalType": "address",
          "name": "user",
          "type": "address"
        },
        {
          "indexed": true,
          "internalType": "uint256",
          "name": "block_time",
          "type": "uint256"
        }
      ],
      "name": "ORI_New_Optimistic_State",
      "type": "event"
    },
    {
      "anonymous": false,
      "inputs": [
        {
          "indexed": true,
          "internalType": "address",
          "name": "user",
          "type": "address"
        },
        {
          "indexed": true,
          "internalType": "uint256",
          "name": "block_time",
          "type": "uint256"
        }
      ],
      "name": "ORI_New_Optimistic_States",
      "type": "event"
    },
    {
      "anonymous": false,
      "inputs": [
        {
          "indexed": true,
          "internalType": "address",
          "name": "user",
          "type": "address"
        },
        {
          "indexed": true,
          "internalType": "bytes32",
          "name": "new_state",
          "type": "bytes32"
        }
      ],
      "name": "ORI_New_State",
      "type": "event"
    },
    {
      "anonymous": false,
      "inputs": [
        {
          "indexed": true,
          "internalType": "address",
          "name": "user",
          "type": "address"
        },
        {
          "indexed": true,
          "internalType": "uint256",
          "name": "tree_size",
          "type": "uint256"
        },
        {
          "indexed": true,
          "internalType": "uint256",
          "name": "block_time",
          "type": "uint256"
        }
      ],
      "name": "ORI_Rolled_Back",
      "type": "event"
    },
    {
      "anonymous": false,
      "inputs": [
        {
          "indexed": true,
          "internalType": "address",
          "name": "suspect",
          "type": "address"
        },
        {
          "indexed": true,
          "internalType": "address",
          "name": "accuser",
          "type": "address"
        }
      ],
      "name": "ORI_Unlocked",
      "type": "event"
    },
    {
      "inputs": [
        {
          "internalType": "address",
          "name": "",
          "type": "address"
        }
      ],
      "name": "account_states",
      "outputs": [
        {
          "internalType": "bytes32",
          "name": "",
          "type": "bytes32"
        }
      ],
      "stateMutability": "view",
      "type": "function",
      "constant": true
    },
    {
      "inputs": [
        {
          "internalType": "address",
          "name": "",
          "type": "address"
        }
      ],
      "name": "balances",
      "outputs": [
        {
          "internalType": "uint256",
          "name": "",
          "type": "uint256"
        }
      ],
      "stateMutability": "view",
      "type": "function",
      "constant": true
    },
    {
      "inputs": [],
      "name": "initializer",
      "outputs": [
        {
          "internalType": "bytes4",
          "name": "",
          "type": "bytes4"
        }
      ],
      "stateMutability": "view",
      "type": "function",
      "constant": true
    },
    {
      "inputs": [],
      "name": "lock_time",
      "outputs": [
        {
          "internalType": "uint256",
          "name": "",
          "type": "uint256"
        }
      ],
      "stateMutability": "view",
      "type": "function",
      "constant": true
    },
    {
      "inputs": [
        {
          "internalType": "address",
          "name": "",
          "type": "address"
        }
      ],
      "name": "locked_times",
      "outputs": [
        {
          "internalType": "uint256",
          "name": "",
          "type": "uint256"
        }
      ],
      "stateMutability": "view",
      "type": "function",
      "constant": true
    },
    {
      "inputs": [
        {
          "internalType": "address",
          "name": "",
          "type": "address"
        }
      ],
      "name": "lockers",
      "outputs": [
        {
          "internalType": "address",
          "name": "",
          "type": "address"
        }
      ],
      "stateMutability": "view",
      "type": "function",
      "constant": true
    },
    {
      "inputs": [],
      "name": "logic_address",
      "outputs": [
        {
          "internalType": "address",
          "name": "",
          "type": "address"
        }
      ],
      "stateMutability": "view",
      "type": "function",
      "constant": true
    },
    {
      "inputs": [],
      "name": "min_bond",
      "outputs": [
        {
          "internalType": "uint256",
          "name": "",
          "type": "uint256"
        }
      ],
      "stateMutability": "view",
      "type": "function",
      "constant": true
    },
    {
      "inputs": [
        {
          "internalType": "address",
          "name": "",
          "type": "address"
        }
      ],
      "name": "rollback_sizes",
      "outputs": [
        {
          "internalType": "uint256",
          "name": "",
          "type": "uint256"
        }
      ],
      "stateMutability": "view",
      "type": "function",
      "constant": true
    },
    {
      "stateMutability": "payable",
      "type": "receive",
      "payable": true
    },
    {
      "inputs": [
        {
          "internalType": "address",
          "name": "user",
          "type": "address"
        }
      ],
      "name": "bond",
      "outputs": [],
      "stateMutability": "payable",
      "type": "function",
      "payable": true
    },
    {
      "inputs": [
        {
          "internalType": "uint256",
          "name": "bond_amount",
          "type": "uint256"
        }
      ],
      "name": "initialize",
      "outputs": [],
      "stateMutability": "payable",
      "type": "function",
      "payable": true
    },
    {
      "inputs": [
        {
          "internalType": "address payable",
          "name": "destination",
          "type": "address"
        }
      ],
      "name": "unbond",
      "outputs": [],
      "stateMutability": "nonpayable",
      "type": "function"
    },
    {
      "inputs": [
        {
          "internalType": "bytes",
          "name": "call_data",
          "type": "bytes"
        }
      ],
      "name": "perform",
      "outputs": [],
      "stateMutability": "payable",
      "type": "function",
      "payable": true
    },
    {
      "inputs": [
        {
          "internalType": "bytes",
          "name": "call_data",
          "type": "bytes"
        },
        {
          "internalType": "bytes32",
          "name": "call_data_root",
          "type": "bytes32"
        },
        {
          "internalType": "uint256",
          "name": "last_time",
          "type": "uint256"
        }
      ],
      "name": "perform_and_exit",
      "outputs": [],
      "stateMutability": "payable",
      "type": "function",
      "payable": true
    },
    {
      "inputs": [
        {
          "internalType": "bytes",
          "name": "call_data",
          "type": "bytes"
        },
        {
          "internalType": "bytes32",
          "name": "new_state",
          "type": "bytes32"
        },
        {
          "internalType": "bytes32[]",
          "name": "proof",
          "type": "bytes32[]"
        }
      ],
      "name": "perform_optimistically_and_enter",
      "outputs": [],
      "stateMutability": "nonpayable",
      "type": "function"
    },
    {
      "inputs": [
        {
          "internalType": "bytes",
          "name": "call_data",
          "type": "bytes"
        },
        {
          "internalType": "bytes32",
          "name": "new_state",
          "type": "bytes32"
        },
        {
          "internalType": "bytes32",
          "name": "call_data_root",
          "type": "bytes32"
        },
        {
          "internalType": "bytes32[]",
          "name": "proof",
          "type": "bytes32[]"
        },
        {
          "internalType": "uint256",
          "name": "last_time",
          "type": "uint256"
        }
      ],
      "name": "perform_optimistically",
      "outputs": [],
      "stateMutability": "nonpayable",
      "type": "function"
    },
    {
      "inputs": [
        {
          "internalType": "bytes[]",
          "name": "call_data",
          "type": "bytes[]"
        },
        {
          "internalType": "bytes32",
          "name": "new_state",
          "type": "bytes32"
        },
        {
          "internalType": "bytes32[]",
          "name": "proof",
          "type": "bytes32[]"
        }
      ],
      "name": "perform_many_optimistically_and_enter",
      "outputs": [],
      "stateMutability": "nonpayable",
      "type": "function"
    },
    {
      "inputs": [
        {
          "internalType": "bytes[]",
          "name": "call_data",
          "type": "bytes[]"
        },
        {
          "internalType": "bytes32",
          "name": "new_state",
          "type": "bytes32"
        },
        {
          "internalType": "bytes32",
          "name": "call_data_root",
          "type": "bytes32"
        },
        {
          "internalType": "bytes32[]",
          "name": "proof",
          "type": "bytes32[]"
        },
        {
          "internalType": "uint256",
          "name": "last_time",
          "type": "uint256"
        }
      ],
      "name": "perform_many_optimistically",
      "outputs": [],
      "stateMutability": "nonpayable",
      "type": "function"
    },
    {
      "inputs": [
        {
          "internalType": "address",
          "name": "suspect",
          "type": "address"
        }
      ],
      "name": "lock_user",
      "outputs": [],
      "stateMutability": "payable",
      "type": "function",
      "payable": true
    },
    {
      "inputs": [
        {
          "internalType": "address",
          "name": "suspect",
          "type": "address"
        },
        {
          "internalType": "bytes32",
          "name": "state",
          "type": "bytes32"
        },
        {
          "internalType": "bytes32",
          "name": "call_data_root",
          "type": "bytes32"
        },
        {
          "internalType": "uint256",
          "name": "last_time",
          "type": "uint256"
        }
      ],
      "name": "unlock",
      "outputs": [],
      "stateMutability": "nonpayable",
      "type": "function"
    },
    {
      "inputs": [
        {
          "internalType": "address",
          "name": "suspect",
          "type": "address"
        },
        {
          "internalType": "bytes[]",
          "name": "call_data",
          "type": "bytes[]"
        },
        {
          "internalType": "bytes32",
          "name": "state",
          "type": "bytes32"
        },
        {
          "internalType": "bytes32",
          "name": "call_data_root",
          "type": "bytes32"
        },
        {
          "internalType": "bytes32[]",
          "name": "proof",
          "type": "bytes32[]"
        },
        {
          "internalType": "uint256",
          "name": "last_time",
          "type": "uint256"
        }
      ],
      "name": "prove_fraud",
      "outputs": [],
      "stateMutability": "nonpayable",
      "type": "function"
    },
    {
      "inputs": [
        {
          "internalType": "bytes32",
          "name": "rolled_back_call_data_root",
          "type": "bytes32"
        },
        {
          "internalType": "bytes[]",
          "name": "rolled_back_call_data",
          "type": "bytes[]"
        },
        {
          "internalType": "bytes32[]",
          "name": "roll_back_proof",
          "type": "bytes32[]"
        },
        {
          "internalType": "uint256",
          "name": "current_size",
          "type": "uint256"
        },
        {
          "internalType": "bytes32",
          "name": "current_size_proof",
          "type": "bytes32"
        },
        {
          "internalType": "bytes32",
          "name": "call_data_root",
          "type": "bytes32"
        },
        {
          "internalType": "bytes32",
          "name": "state",
          "type": "bytes32"
        },
        {
          "internalType": "uint256",
          "name": "last_time",
          "type": "uint256"
        }
      ],
      "name": "rollback",
      "outputs": [],
      "stateMutability": "payable",
      "type": "function",
      "payable": true
    }
  ],
  "bytecode": "0x6101006040523480156200001257600080fd5b5060405162003a8038038062003a8083398101604081905262000035916200007c565b60609390931b6001600160601b0319166080527fffffffff000000000000000000000000000000000000000000000000000000009190911660a05260c05260e052620000f5565b6000806000806080858703121562000092578384fd5b84516001600160a01b0381168114620000a9578485fd5b60208601519094507fffffffff0000000000000000000000000000000000000000000000000000000081168114620000df578384fd5b6040860151606090960151949790965092505050565b60805160601c60a05160e01c60e01b60c05160e0516139246200015c600039806104325280610505528061057a52508061063052806106c75280610927525080610b9f52806114a3525080610f8b528061146b5280611c155280611e7852506139246000f3fe6080604052600436106101795760003560e01c80638ee16d13116100cb578063c0c452671161007f578063e426ed8011610059578063e426ed80146103b2578063e4da61ab146103d2578063fe4b84df146103f25761018a565b8063c0c452671461036a578063c45481bb1461037f578063e11242001461039f5761018a565b8063a68f5913116100b0578063a68f591314610317578063af7b5a4114610337578063bb6ae2cb146103575761018a565b80638ee16d13146102d55780639ce110d7146102f55761018a565b806327e235e31161012d578063480bb7c411610107578063480bb7c41461028d5780635b1db142146102a25780636a8dddef146102b55761018a565b806327e235e31461022d5780632a4154541461024d5780632c8e7a21146102605761018a565b80631646d0511161015e5780631646d051146101da578063177f15c5146101fa578063247ce85b1461021a5761018a565b806308542bb11461018f5780630a09d5c4146101af5761018a565b3661018a576101883334610405565b005b600080fd5b34801561019b57600080fd5b506101886101aa366004612f2b565b610560565b3480156101bb57600080fd5b506101c4610578565b6040516101d191906132e3565b60405180910390f35b3480156101e657600080fd5b506101886101f5366004613175565b61059c565b34801561020657600080fd5b5061018861021536600461313b565b6105b5565b610188610228366004612e3b565b6105c6565b34801561023957600080fd5b506101c4610248366004612e3b565b6105d3565b61018861025b3660046131d8565b6105e5565b34801561026c57600080fd5b5061028061027b366004612e3b565b61069d565b6040516101d191906132c2565b34801561029957600080fd5b506101c46106c5565b6101886102b0366004612e3b565b6106e9565b3480156102c157600080fd5b506101886102d0366004612fa2565b61088c565b3480156102e157600080fd5b506101886102f0366004612ef1565b61089c565b34801561030157600080fd5b5061030a610b9d565b6040516101d191906132ec565b34801561032357600080fd5b50610188610332366004612e57565b610bc1565b34801561034357600080fd5b506101c4610352366004612e3b565b610f69565b6101886103653660046130fb565b610f7b565b34801561037657600080fd5b50610280610f89565b34801561038b57600080fd5b506101c461039a366004612e3b565b610fad565b6101886103ad36600461305b565b610fbf565b3480156103be57600080fd5b506101c46103cd366004612e3b565b61130c565b3480156103de57600080fd5b506101886103ed366004612e3b565b61131e565b61018861040036600461302b565b6113d4565b806104975773ffffffffffffffffffffffffffffffffffffffff82166000908152602081905260409020547f00000000000000000000000000000000000000000000000000000000000000001115610492576040517f08c379a0000000000000000000000000000000000000000000000000000000008152600401610489906137d3565b60405180910390fd5b61055c565b670de0b6b3a764000081106104d65773ffffffffffffffffffffffffffffffffffffffff8216600090815260208190526040902080548201905561055c565b73ffffffffffffffffffffffffffffffffffffffff8216600090815260208190526040902080548201908190557f0000000000000000000000000000000000000000000000000000000000000000111561055c576040517f08c379a0000000000000000000000000000000000000000000000000000000008152600401610489906137d3565b5050565b610571338686866000878782611692565b5050505050565b7f000000000000000000000000000000000000000000000000000000000000000081565b6105ac33888888888888886118c9565b50505050505050565b6105713386868660008787826118c9565b6105d08134610405565b50565b60006020819052908152604090205481565b336000818152600460205260409020541561062c576040517f08c379a000000000000000000000000000000000000000000000000000000000815260040161048990613387565b81427f0000000000000000000000000000000000000000000000000000000000000000820110610688576040517f08c379a00000000000000000000000000000000000000000000000000000000081526004016104899061372e565b6106953387878787611a86565b505050505050565b60026020526000908152604090205473ffffffffffffffffffffffffffffffffffffffff1681565b7f000000000000000000000000000000000000000000000000000000000000000081565b3360008181526002602052604090205473ffffffffffffffffffffffffffffffffffffffff1615610746576040517f08c379a0000000000000000000000000000000000000000000000000000000008152600401610489906136f7565b73ffffffffffffffffffffffffffffffffffffffff808316600090815260026020526040902054839116156107a7576040517f08c379a0000000000000000000000000000000000000000000000000000000008152600401610489906136f7565b73ffffffffffffffffffffffffffffffffffffffff831660009081526002602081815260408084208054337fffffffffffffffffffffffff0000000000000000000000000000000000000000918216811790925560038085528387204290819055838852958552838720805490921683179091559092529092205561082c8134610405565b8073ffffffffffffffffffffffffffffffffffffffff168473ffffffffffffffffffffffffffffffffffffffff167f8773bde6581ad6ddd421210de867340039fb65ce3df41edba7b5de6d24ae7a5160405160405180910390a350505050565b6105ac3388888888888888611692565b73ffffffffffffffffffffffffffffffffffffffff8085166000908152600260205260409020548591166108fc576040517f08c379a000000000000000000000000000000000000000000000000000000000815260040161048990613576565b73ffffffffffffffffffffffffffffffffffffffff85166000908152600360205260409020548590427f00000000000000000000000000000000000000000000000000000000000000009091011115610981576040517f08c379a000000000000000000000000000000000000000000000000000000000815260040161048990613652565b73ffffffffffffffffffffffffffffffffffffffff86166000908152600460205260409020548690156109e0576040517f08c379a000000000000000000000000000000000000000000000000000000000815260040161048990613387565b73ffffffffffffffffffffffffffffffffffffffff8716600090815260016020908152604091829020549151610a1c9188918a91899101613263565b6040516020818303038152906040528051906020012014610a69576040517f08c379a000000000000000000000000000000000000000000000000000000000815260040161048990613508565b73ffffffffffffffffffffffffffffffffffffffff808816600081815260026020818152604080842080547fffffffffffffffffffffffff00000000000000000000000000000000000000008082169092556003808552838720879055971680865293835281852080549091169055948152848320839055828152848320805490849055938352918490208054840190559251610b0c9189918b91429101613263565b604080517fffffffffffffffffffffffffffffffffffffffffffffffffffffffffffffffe0818403018152828252805160209182012073ffffffffffffffffffffffffffffffffffffffff808e1660008181526001909452938320919091558516927f524512344e535e9bda79e916c2ea8c7b9e5d23d83e1b95181d7622b4ac3d42939190a3505050505050505050565b7f000000000000000000000000000000000000000000000000000000000000000081565b73ffffffffffffffffffffffffffffffffffffffff8881166000908152600260205260409020543391168114610c23576040517f08c379a000000000000000000000000000000000000000000000000000000000815260040161048990613319565b73ffffffffffffffffffffffffffffffffffffffff8916600090815260016020908152604091829020549151610c5f9188918a91879101613263565b6040516020818303038152906040528051906020012014610cac576040517f08c379a000000000000000000000000000000000000000000000000000000000815260040161048990613508565b610cb98589898787611d92565b610cef576040517f08c379a0000000000000000000000000000000000000000000000000000000008152600401610489906133be565b6060610cfd89898787611dca565b9050600081600081518110610d0e57fe5b602002602001015190508989905060011415610ddb5785856000818110610d3157fe5b9050602002013560001c8160010114610d76576040517f08c379a00000000000000000000000000000000000000000000000000000000081526004016104899061342c565b610d9f8b8b8b6000818110610d8757fe5b9050602002810190610d999190613841565b8b611e1c565b15610dd6576040517f08c379a00000000000000000000000000000000000000000000000000000000081526004016104899061349a565b610e82565b81600181518110610de857fe5b60200260200101518160010114610dfe57600080fd5b89896001818110610e0b57fe5b9050602002810190610e1d9190613841565b610e2b9160249082906138a4565b810190610e38919061302b565b9750610e4b8b8b8b6000818110610d8757fe5b15610e82576040517f08c379a00000000000000000000000000000000000000000000000000000000081526004016104899061349a565b73ffffffffffffffffffffffffffffffffffffffff808c16600081815260208181526040808320805490849055948816808452818420805487019055600280845282852080547fffffffffffffffffffffffff00000000000000000000000000000000000000009081169091556003808652848720879055878752600486528487208a905591855283862080549091168717905590925280832092909255905192965083927fa66290bc21cee2ba1a3c6ba2cac21d24511cea1f9ed7efe453736f24fd89488690610f549089906132e3565b60405180910390a45050505050505050505050565b60016020526000908152604090205481565b61055c338383600080611a86565b7f000000000000000000000000000000000000000000000000000000000000000081565b60046020526000908152604090205481565b3360008181526004602052604090205480611006576040517f08c379a0000000000000000000000000000000000000000000000000000000008152600401610489906135ad565b73ffffffffffffffffffffffffffffffffffffffff82166000908152600160209081526040918290205491516110429188918891889101613263565b604051602081830303815290604052805190602001201461108f576040517f08c379a000000000000000000000000000000000000000000000000000000000815260040161048990613508565b61109a858888611f38565b6110d0576040517f08c379a00000000000000000000000000000000000000000000000000000000081526004016104899061353f565b6000898960008181106110df57fe5b9050602002013560001c9050878110611124576040517f08c379a000000000000000000000000000000000000000000000000000000000815260040161048990613350565b8181101561115e576040517f08c379a00000000000000000000000000000000000000000000000000000000081526004016104899061361b565b8561116c8e8e8e8e8e611f69565b146111a3576040517f08c379a0000000000000000000000000000000000000000000000000000000008152600401610489906136c0565b8b8b60008181106111b057fe5b90506020028101906111c29190613841565b6111d09160249082906138a4565b8101906111dd919061302b565b6040519095506111f5908e9087904290602001613263565b604080517fffffffffffffffffffffffffffffffffffffffffffffffffffffffffffffffe0818403018152918152815160209283012073ffffffffffffffffffffffffffffffffffffffff861660009081526001909352912055808214156112ae5773ffffffffffffffffffffffffffffffffffffffff8316600090815260026020908152604080832080547fffffffffffffffffffffffff000000000000000000000000000000000000000016905560049091528120555b6112b88334610405565b42818473ffffffffffffffffffffffffffffffffffffffff167f4d7ed8c49e6b03daee23a18f4bd14bd7e4628e5ed54c57bf84407a693867eca960405160405180910390a450505050505050505050505050565b60036020526000908152604090205481565b3360008181526002602052604090205473ffffffffffffffffffffffffffffffffffffffff161561137b576040517f08c379a0000000000000000000000000000000000000000000000000000000008152600401610489906136f7565b336000818152602081905260408082208054908390559051909173ffffffffffffffffffffffffffffffffffffffff86169183156108fc0291849190818181858888f19350505050158015610571573d6000803e3d6000fd5b336000818152600160205260409020541561141b576040517f08c379a0000000000000000000000000000000000000000000000000000000008152600401610489906133f5565b34821115611455576040517f08c379a00000000000000000000000000000000000000000000000000000000081526004016104899061379c565b336114608184610405565b8234039250600060607f000000000000000000000000000000000000000000000000000000000000000073ffffffffffffffffffffffffffffffffffffffff16857f0000000000000000000000000000000000000000000000000000000000000000856040516024016114d391906132c2565b604080517fffffffffffffffffffffffffffffffffffffffffffffffffffffffffffffffe08184030181529181526020820180517bffffffffffffffffffffffffffffffffffffffffffffffffffffffff167fffffffff0000000000000000000000000000000000000000000000000000000090941693909317909252905161155c9190613289565b60006040518083038185875af1925050503d8060008114611599576040519150601f19603f3d011682016040523d82523d6000602084013e61159e565b606091505b5091509150816115da576040517f08c379a000000000000000000000000000000000000000000000000000000000815260040161048990613689565b6000818060200190518101906115f09190613043565b6040519091506116099060009083908290602001613263565b604080517fffffffffffffffffffffffffffffffffffffffffffffffffffffffffffffffe0818403018152828252805160209182012073ffffffffffffffffffffffffffffffffffffffff8816600081815260019093529282205583927f0f5025cc4f20aa47a346d1b7d9da6ba8c68cc8e83b75e813da4b4490d55365ae9190a3505050505050565b73ffffffffffffffffffffffffffffffffffffffff808916600090815260026020526040902054899116156116f3576040517f08c379a0000000000000000000000000000000000000000000000000000000008152600401610489906136f7565b87876001811161172f576040517f08c379a0000000000000000000000000000000000000000000000000000000008152600401610489906135e4565b60008a8a600081811061173e57fe5b90506020028101906117509190613841565b61175e9160249082906138a4565b81019061176b919061302b565b73ffffffffffffffffffffffffffffffffffffffff8d1660009081526001602090815260409182902054915192935090916117ac918b9185918a9101613263565b60405160208183030381529060405280519060200120146117f9576040517f08c379a000000000000000000000000000000000000000000000000000000000815260040161048990613508565b611806888c8c8a8a611f69565b60405190915061181e9082908b904290602001613263565b60405160208183030381529060405280519060200120600160008e73ffffffffffffffffffffffffffffffffffffffff1673ffffffffffffffffffffffffffffffffffffffff16815260200190815260200160002081905550428c73ffffffffffffffffffffffffffffffffffffffff167f0b87b136840d19f5f25329273082c00833265a189b70137e06df6315ddc7839e60405160405180910390a3505050505050505050505050565b73ffffffffffffffffffffffffffffffffffffffff8089166000908152600260205260409020548991161561192a576040517f08c379a0000000000000000000000000000000000000000000000000000000008152600401610489906136f7565b6000611939886024818c6138a4565b810190611946919061302b565b73ffffffffffffffffffffffffffffffffffffffff8b1660009081526001602090815260409182902054915192935090916119879189918591889101613263565b60405160208183030381529060405280519060200120146119d4576040517f08c379a000000000000000000000000000000000000000000000000000000000815260040161048990613508565b6119e1868a8a8888612046565b6040519091506119f990829089904290602001613263565b604080517fffffffffffffffffffffffffffffffffffffffffffffffffffffffffffffffe0818403018152828252805160209182012073ffffffffffffffffffffffffffffffffffffffff8e16600081815260019093529282205542927f4779c4b07abff82b16061ec9a47d081e7f4981c29088395cdb7ff87e322cbbc69190a350505050505050505050565b73ffffffffffffffffffffffffffffffffffffffff80861660009081526002602052604090205486911615611ae7576040517f08c379a0000000000000000000000000000000000000000000000000000000008152600401610489906136f7565b611af484600481886138a4565b810190611b019190612e3b565b73ffffffffffffffffffffffffffffffffffffffff168673ffffffffffffffffffffffffffffffffffffffff1614611b65576040517f08c379a000000000000000000000000000000000000000000000000000000000815260040161048990613765565b6000611b7485602481896138a4565b810190611b81919061302b565b73ffffffffffffffffffffffffffffffffffffffff88166000908152600160209081526040918290205491519293509091611bc29187918591889101613263565b6040516020818303038152906040528051906020012014611c0f576040517f08c379a000000000000000000000000000000000000000000000000000000000815260040161048990613508565b600060607f000000000000000000000000000000000000000000000000000000000000000073ffffffffffffffffffffffffffffffffffffffff16348989604051611c5b929190613279565b60006040518083038185875af1925050503d8060008114611c98576040519150601f19603f3d011682016040523d82523d6000602084013e611c9d565b606091505b509150915081611cd9576040517f08c379a00000000000000000000000000000000000000000000000000000000081526004016104899061380a565b80806020019051810190611ced9190613043565b604051909350611d069060009085908290602001613263565b604080517fffffffffffffffffffffffffffffffffffffffffffffffffffffffffffffffe0818403018152828252805160209182012073ffffffffffffffffffffffffffffffffffffffff8d16600081815260019093529282205585927f0f5025cc4f20aa47a346d1b7d9da6ba8c68cc8e83b75e813da4b4490d55365ae9190a3505050505050505050565b600085611dbd84846000818110611da557fe5b90506020020135611db888888888612111565b6122b4565b1490505b95945050505050565b6060611e118484846001818110611ddd57fe5b9050602002013585856002818110611df157fe5b9050602002013586866003818110611e0557fe5b905060200201356122c3565b90505b949350505050565b6000611e2b83600481876138a4565b810190611e389190612e3b565b73ffffffffffffffffffffffffffffffffffffffff168573ffffffffffffffffffffffffffffffffffffffff1614611e7257506000611e14565b600060607f000000000000000000000000000000000000000000000000000000000000000073ffffffffffffffffffffffffffffffffffffffff168686604051611ebd929190613279565b6000604051808303816000865af19150503d8060008114611efa576040519150601f19603f3d011682016040523d82523d6000602084013e611eff565b606091505b509150915081611f1457600092505050611e14565b600081806020019051810190611f2a9190613043565b909414979650505050505050565b600083158015611f46575082155b15611f5357506001611f62565b83611f5e84846122b4565b1490505b9392505050565b60008083836000818110611f7957fe5b60200291909101359150508615811514611fbf576040517f08c379a0000000000000000000000000000000000000000000000000000000008152600401610489906134d1565b86611fda57611fd285611db888826125e3565b915050611dc1565b6000611fe8878787876126f9565b9350905087611ff783836122b4565b1461202e576040517f08c379a000000000000000000000000000000000000000000000000000000000815260040161048990613463565b61203a828701846122b4565b98975050505050505050565b6000808383600081811061205657fe5b6020029190910135915050861581151461209c576040517f08c379a0000000000000000000000000000000000000000000000000000000008152600401610489906134d1565b866120b057611fd26001611db88888612909565b60006120be8787878761293f565b93509050876120cd83836122b4565b14612104576040517f08c379a000000000000000000000000000000000000000000000000000000000815260040161048990613463565b61203a60018301846122b4565b60008060606121208787612a09565b9092509050600080600460018289898381811061213957fe5b90506020020135905060008a8a600281811061215157fe5b90506020020135905060008b8b600381811061216957fe5b9050602002013590505b838483161415612211578384841614156121bb5787600187156121965787612198565b8a5b03815181106121a357fe5b60200260200101519950505050505050505050611e14565b8787815181106121c757fe5b60200260200101518887815181106121db57fe5b6020026020010181815250508887600101816121f357fe5b06965088866001018161220257fe5b069550600184901b9350612173565b8384841614612238578b8b8680600101975081811061222c57fe5b90506020020135612252565b875160018801978991811061224957fe5b60200260200101515b995088878161225d57fe5b069650838482161461228b576122868a89898151811061227957fe5b60200260200101516122b4565b6122a8565b6122a888888151811061229a57fe5b60200260200101518b6122b4565b8887815181106121db57fe5b60009182526020526040902090565b60608467ffffffffffffffff811180156122dc57600080fd5b50604051908082528060200260200182016040528015612306578160200160208202803683370190505b50905060608567ffffffffffffffff8111801561232257600080fd5b5060405190808252806020026020018201604052801561234c578160200160208202803683370190505b50905060608667ffffffffffffffff8111801561236857600080fd5b50604051908082528060200260200182016040528015612392578160200160208202803683370190505b507fffffffffffffffffffffffffffffffffffffffffffffffffffffffffffffffff90970196905086600160008080805b848c169350848b169250848a1691508786815181106123de57fe5b60200260200101516001901b9050848314156124855784841415612409575050505050505050611e14565b87868151811061241557fe5b602090810291909101018051600101905285612433578c9550612479565b86517fffffffffffffffffffffffffffffffffffffffffffffffffffffffffffffffff8701968891811061246357fe5b602002602001015161247457612479565b612409565b600185901b94506123c3565b8484141561254c575b848214156124b657808987815181106124a357fe5b6020026020010181815117915081815250505b8786815181106124c257fe5b6020908102919091010180516001019052856124e0578c955061254c565b8686815181106124ec57fe5b60200260200101516125225760018787806001900398508151811061250d57fe5b9115156020928302919091019091015261254c565b60018787806001900398508151811061253757fe5b9115156020928302919091019091015261248e565b848214612573578089878151811061256057fe5b6020026020010181815117915081815250505b87868151811061257f57fe5b60209081029190910101805160010190528561259d578c9550612479565b86517fffffffffffffffffffffffffffffffffffffffffffffffffffffffffffffffff870196889181106125cd57fe5b60200260200101516125de57612479565b61254c565b60008060606125f28585612b13565b915091506000805b60018411156126d85750600181901b7fffffffffffffffffffffffffffffffffffffffffffffffffffffffffffffffff84018114156126745782818151811061263f57fe5b602002602001015183838151811061265357fe5b6020026020010181815250506000915083600116600185901c0193506125fa565b838110612690576000915083600116600185901c0193506125fa565b6126b683828151811061269f57fe5b602002602001015184836001018151811061227957fe5b83516001840193859181106126c757fe5b6020026020010181815250506125fa565b826000815181106126e557fe5b602002602001015194505050505092915050565b6000806000606061270a8888612cb3565b9150915060008060008888600081811061272057fe5b60200291909101359586017fffffffffffffffffffffffffffffffffffffffffffffffffffffffffffffffff01959150819050600061275e82612d74565b63ffffffff1690508a8a8281811061277257fe5b9050602002013598505b86156128df57841580156127935750816001166001145b1561282d576127ba8b8b838181106127a757fe5b9050602002013587868151811061227957fe5b866000815181106127c757fe5b6020908102919091010152600193909301927fffffffffffffffffffffffffffffffffffffffffffffffffffffffffffffffff0180156128205761281d8b8b8381811061281057fe5b905060200201358a6122b4565b98505b6001945090840190612888565b868210156128885761285e86858060010196508151811061284a57fe5b602002602001015187868151811061227957fe5b865160018701968891811061286f57fe5b6020026020010181815250506001840193506002820191505b8682106128da57868214156128c4578584815181106128a357fe5b60200260200101518686815181106128b757fe5b6020026020010181815250505b600196871c96600095508594509290921c918291505b61277c565b88866000815181106128ed57fe5b6020026020010151985098505050505050505094509492505050565b60405160009061292190829085908590602001613227565b60405160208183030381529060405280519060200120905092915050565b60008060006129638585600081811061295457fe5b9050602002013560001c612d74565b63ffffffff16905084848281811061297757fe5b9050602002013592506129b883600060f81b898960405160200161299d93929190613227565b604051602081830303815290604052805190602001206122b4565b915060005b60018211156129fe576001820391508585838181106129d857fe5b9050602002013590506129eb81846122b4565b92506129f781856122b4565b93506129bd565b505094509492505050565b8060608167ffffffffffffffff81118015612a2357600080fd5b50604051908082528060200260200182016040528015612a4d578160200160208202803683370190505b5090507fffffffffffffffffffffffffffffffffffffffffffffffffffffffffffffffff820160005b83811015612b0a576000868684818110612a8c57fe5b9050602002810190612a9e9190613841565b604051602001612ab093929190613227565b60405160208183030381529060405280519060200120838281518110612ad257fe5b60209081029190910101527fffffffffffffffffffffffffffffffffffffffffffffffffffffffffffffffff90910190600101612a76565b50509250929050565b600181811c908216016060828267ffffffffffffffff81118015612b3657600080fd5b50604051908082528060200260200182016040528015612b60578160200160208202803683370190505b5091506000805b84821015612ca95750600181901b7fffffffffffffffffffffffffffffffffffffffffffffffffffffffffffffffff8301811415612c04576000878783818110612bad57fe5b9050602002810190612bbf9190613841565b604051602001612bd193929190613227565b60405160208183030381529060405280519060200120848381518110612bf357fe5b602002602001018181525050612ca9565b612c876000888884818110612c1557fe5b9050602002810190612c279190613841565b604051602001612c3993929190613227565b60405160208183030381529060405280519060200120600060f81b898985600101818110612c6357fe5b9050602002810190612c759190613841565b60405160200161299d93929190613227565b8451600184019386918110612c9857fe5b602002602001018181525050612b67565b5050509250929050565b8060608167ffffffffffffffff81118015612ccd57600080fd5b50604051908082528060200260200182016040528015612cf7578160200160208202803683370190505b50905060005b82811015612d6c576000858583818110612d1357fe5b9050602002810190612d259190613841565b604051602001612d3793929190613227565b60405160208183030381529060405280519060200120828281518110612d5957fe5b6020908102919091010152600101612cfd565b509250929050565b600181901c6355555555169003600281901c6333333333908116911601600481901c630fffffff1601630f0f0f0f1663010101010260181c60ff1690565b60008083601f840112612dc3578182fd5b50813567ffffffffffffffff811115612dda578182fd5b6020830191508360208083028501011115612df457600080fd5b9250929050565b60008083601f840112612e0c578182fd5b50813567ffffffffffffffff811115612e23578182fd5b602083019150836020828501011115612df457600080fd5b600060208284031215612e4c578081fd5b8135611f62816138cc565b60008060008060008060008060c0898b031215612e72578384fd5b8835612e7d816138cc565b9750602089013567ffffffffffffffff80821115612e99578586fd5b612ea58c838d01612db2565b909950975060408b0135965060608b0135955060808b0135915080821115612ecb578485fd5b50612ed88b828c01612db2565b999c989b50969995989497949560a00135949350505050565b60008060008060808587031215612f06578384fd5b8435612f11816138cc565b966020860135965060408601359560600135945092505050565b600080600080600060608688031215612f42578081fd5b853567ffffffffffffffff80821115612f59578283fd5b612f6589838a01612db2565b9097509550602088013594506040880135915080821115612f84578283fd5b50612f9188828901612db2565b969995985093965092949392505050565b600080600080600080600060a0888a031215612fbc578283fd5b873567ffffffffffffffff80821115612fd3578485fd5b612fdf8b838c01612db2565b909950975060208a0135965060408a0135955060608a0135915080821115613005578485fd5b506130128a828b01612db2565b989b979a50959894979596608090950135949350505050565b60006020828403121561303c578081fd5b5035919050565b600060208284031215613054578081fd5b5051919050565b6000806000806000806000806000806101008b8d03121561307a578182fd5b8a35995060208b013567ffffffffffffffff80821115613098578384fd5b6130a48e838f01612db2565b909b50995060408d01359150808211156130bc578384fd5b506130c98d828e01612db2565b9b9e9a9d50989b989a9960608a0135996080810135995060a0810135985060c0810135975060e0013595509350505050565b6000806020838503121561310d578081fd5b823567ffffffffffffffff811115613123578182fd5b61312f85828601612dfb565b90969095509350505050565b600080600080600060608688031215613152578283fd5b853567ffffffffffffffff80821115613169578485fd5b612f6589838a01612dfb565b600080600080600080600060a0888a03121561318f578081fd5b873567ffffffffffffffff808211156131a6578283fd5b6131b28b838c01612dfb565b909950975060208a0135965060408a0135955060608a0135915080821115613005578283fd5b600080600080606085870312156131ed578182fd5b843567ffffffffffffffff811115613203578283fd5b61320f87828801612dfb565b90989097506020870135966040013595509350505050565b60007fff000000000000000000000000000000000000000000000000000000000000008516825282846001840137910160010190815292915050565b9283526020830191909152604082015260600190565b6000828483379101908152919050565b60008251815b818110156132a9576020818601810151858301520161328f565b818111156132b75782828501525b509190910192915050565b73ffffffffffffffffffffffffffffffffffffffff91909116815260200190565b90815260200190565b7fffffffff0000000000000000000000000000000000000000000000000000000091909116815260200190565b6020808252600a908201527f4e4f545f4c4f434b455200000000000000000000000000000000000000000000604082015260600190565b60208082526015908201527f494e53554646494349454e545f524f4c4c4241434b0000000000000000000000604082015260600190565b60208082526011908201527f524f4c4c4241434b5f5245515549524544000000000000000000000000000000604082015260600190565b60208082526010908201527f494e56414c49445f43414c4c4441544100000000000000000000000000000000604082015260600190565b60208082526013908201527f414c52454144595f494e495449414c495a454400000000000000000000000000604082015260600190565b60208082526012908201527f494e434f52524543545f43414c4c444154410000000000000000000000000000604082015260600190565b6020808252600d908201527f494e56414c49445f50524f4f4600000000000000000000000000000000000000604082015260600190565b60208082526010908201527f56414c49445f5452414e534954494f4e00000000000000000000000000000000604082015260600190565b6020808252600c908201527f494e56414c49445f545245450000000000000000000000000000000000000000604082015260600190565b6020808252600d908201527f494e56414c49445f524f4f545300000000000000000000000000000000000000604082015260600190565b6020808252600c908201527f494e56414c49445f53495a450000000000000000000000000000000000000000604082015260600190565b60208082526010908201527f4143434f554e545f554e4c4f434b454400000000000000000000000000000000604082015260600190565b60208082526014908201527f524f4c4c4241434b5f554e4e4543455353415259000000000000000000000000604082015260600190565b60208082526015908201527f494e53554646494349454e545f43414c4c444154410000000000000000000000604082015260600190565b60208082526011908201527f524f4c4c4241434b5f544f4f5f44454550000000000000000000000000000000604082015260600190565b60208082526013908201527f494e53554646494349454e545f57494e444f5700000000000000000000000000604082015260600190565b60208082526011908201527f494e495449414c495a455f4641494c4544000000000000000000000000000000604082015260600190565b60208082526010908201527f494e56414c49445f524f4c4c4241434b00000000000000000000000000000000604082015260600190565b6020808252600e908201527f4143434f554e545f4c4f434b4544000000000000000000000000000000000000604082015260600190565b60208082526011908201527f494e53554646494349454e545f54494d45000000000000000000000000000000604082015260600190565b60208082526014908201527f43414c4c45525f555345525f4d49534d41544348000000000000000000000000604082015260600190565b6020808252600c908201527f494e56414c49445f424f4e440000000000000000000000000000000000000000604082015260600190565b60208082526011908201527f494e53554646494349454e545f424f4e44000000000000000000000000000000604082015260600190565b6020808252600b908201527f43414c4c5f4641494c4544000000000000000000000000000000000000000000604082015260600190565b60008083357fffffffffffffffffffffffffffffffffffffffffffffffffffffffffffffffe1843603018112613875578283fd5b83018035915067ffffffffffffffff82111561388f578283fd5b602001915036819003821315612df457600080fd5b600080858511156138b3578182fd5b838611156138bf578182fd5b5050820193919092039150565b73ffffffffffffffffffffffffffffffffffffffff811681146105d057600080fdfea264697066735822122021c1ad59bc6a647e5ee433fc7c518282905395f9e92dab2ab3885a4bc445dd4f64736f6c63430007030033",
  "immutableReferences": {
    "90": [
      {
        "length": 32,
        "start": 3979
      },
      {
        "length": 32,
        "start": 5227
      },
      {
        "length": 32,
        "start": 7189
      },
      {
        "length": 32,
        "start": 7800
      }
    ],
    "92": [
      {
        "length": 32,
        "start": 2975
      },
      {
        "length": 32,
        "start": 5283
      }
    ],
    "94": [
      {
        "length": 32,
        "start": 1584
      },
      {
        "length": 32,
        "start": 1735
      },
      {
        "length": 32,
        "start": 2343
      }
    ],
    "96": [
      {
        "length": 32,
        "start": 1074
      },
      {
        "length": 32,
        "start": 1285
      },
      {
        "length": 32,
        "start": 1402
      }
    ]
  },
  "source": "// SPDX-License-Identifier: MIT\n\npragma solidity >=0.6.0 <=0.7.3;\npragma experimental ABIEncoderV2;\n\nimport \"merkle-trees/eth/contracts/libraries/calldata/bytes/standard/merkle-library.sol\";\n\n// TODO: perhaps a owner-controlled sighash whitelist for optimistically performing, and therefore a non-performing exit method\n// TODO: consider verifying being view, or some kind of forced \"come up for air\" mechanism\n// TODO: make required bond queryable\n// TODO: logic_address cannot be immutable if it will be upgradeable\n// TODO: initializer cannot be immutable if it will be upgradeable\n\ncontract Optimistic_Roll_In {\n  event ORI_New_State(address indexed user, bytes32 indexed new_state);\n  event ORI_New_Optimistic_State(address indexed user, uint256 indexed block_time);\n  event ORI_New_Optimistic_States(address indexed user, uint256 indexed block_time);\n  event ORI_Locked(address indexed suspect, address indexed accuser);\n  event ORI_Unlocked(address indexed suspect, address indexed accuser);\n  event ORI_Fraud_Proven(\n    address indexed accuser,\n    address indexed suspect,\n    uint256 indexed transition_index,\n    uint256 amount\n  );\n  event ORI_Rolled_Back(address indexed user, uint256 indexed tree_size, uint256 indexed block_time);\n\n  address public immutable logic_address;\n  bytes4 public immutable initializer;\n  uint256 public immutable lock_time;\n  uint256 public immutable min_bond;\n\n  mapping(address => uint256) public balances;\n  mapping(address => bytes32) public account_states;\n  mapping(address => address) public lockers;\n  mapping(address => uint256) public locked_times;\n  mapping(address => uint256) public rollback_sizes;\n\n  constructor(\n    address _logic_address,\n    bytes4 _initializer,\n    uint256 _lock_time,\n    uint256 _min_bond\n  ) {\n    logic_address = _logic_address;\n    initializer = _initializer;\n    lock_time = _lock_time;\n    min_bond = _min_bond;\n  }\n\n  modifier not_initialized(address user) {\n    require(account_states[user] == bytes32(0), \"ALREADY_INITIALIZED\");\n    _;\n  }\n\n  modifier not_locked(address user) {\n    require(lockers[user] == address(0), \"ACCOUNT_LOCKED\");\n    _;\n  }\n\n  modifier is_locked(address user) {\n    require(lockers[user] != address(0), \"ACCOUNT_UNLOCKED\");\n    _;\n  }\n\n  modifier no_rollback_required(address user) {\n    require(rollback_sizes[user] == 0, \"ROLLBACK_REQUIRED\");\n    _;\n  }\n\n  modifier can_exit_optimism(uint256 last_time) {\n    // Check that enough time has elapsed for potential fraud proofs (10 minutes)\n    require(last_time + lock_time < block.timestamp, \"INSUFFICIENT_TIME\");\n    _;\n  }\n\n  modifier sufficient_calldata(bytes[] calldata call_data) {\n    // Check that there is more than 1 call data (if not, user should have called perform_optimistically)\n    require(call_data.length > 1, \"INSUFFICIENT_CALLDATA\");\n    _;\n  }\n\n  modifier lock_expired(address user) {\n    require(locked_times[user] + lock_time <= block.timestamp, \"INSUFFICIENT_WINDOW\");\n    _;\n  }\n\n  // Fallback to receive ETH and bond msg.value for msg.sender\n  receive() external payable {\n    apply_bond(msg.sender, msg.value);\n  }\n\n  // Bonds amount for user, and reverts if resulting balance less than 1 ETH\n  function apply_bond(address user, uint256 amount) internal {\n    if (amount == 0) {\n      require(balances[user] >= min_bond, \"INSUFFICIENT_BOND\");\n      return;\n    }\n\n    if (amount >= 1000000000000000000) {\n      balances[user] += amount;\n      return;\n    }\n\n    balances[user] += amount;\n    require(balances[user] >= min_bond, \"INSUFFICIENT_BOND\");\n  }\n\n  // Bonds msg.value for user\n  function bond(address user) public payable {\n    apply_bond(user, msg.value);\n  }\n\n  // Sets user's account state to starting point, and bonds msg.value\n  function initialize(uint256 bond_amount) external payable not_initialized(msg.sender) {\n    require(bond_amount <= msg.value, \"INVALID_BOND\");\n\n    address user = msg.sender;\n    apply_bond(user, bond_amount);\n\n    // reuse bond_amount as value being sent to initializer\n    bond_amount = msg.value - bond_amount;\n\n    // call the initializer, passing any remaining amount\n    (bool success, bytes memory return_bytes) = logic_address.call{ value: bond_amount }(\n      abi.encodeWithSelector(initializer, user)\n    );\n\n    require(success, \"INITIALIZE_FAILED\");\n\n    // Decode initial state (S_0) from returned bytes\n    bytes32 initial_state = abi.decode(return_bytes, (bytes32));\n\n    // Set account state to combination of empty call data tree, initial state (S_0), and last time of 0 (not in optimism)\n    account_states[user] = keccak256(abi.encodePacked(bytes32(0), initial_state, bytes32(0)));\n\n    emit ORI_New_State(user, initial_state);\n  }\n\n  // Allows unbonding of ETH if account not locked\n  function unbond(address payable destination) public not_locked(msg.sender) {\n    address user = msg.sender;\n    uint256 amount = balances[user];\n    balances[user] = 0;\n    destination.transfer(amount);\n  }\n\n  // Returns true if calling the logic contract with the call data results in new state\n  function verify_transition(\n    address user,\n    bytes calldata call_data,\n    bytes32 new_state\n  ) internal returns (bool) {\n    // Check that the user is the user extracted from calldata (20 bytes starting after the function signature)\n    if (user != abi.decode(call_data[4:], (address))) return false;\n\n    // Compute a new state\n    (bool success, bytes memory state_bytes) = logic_address.call(call_data);\n\n    if (!success) return false;\n\n    // Decode new state from returns bytes, reusing the state variable\n    bytes32 state = abi.decode(state_bytes, (bytes32));\n\n    return state == new_state;\n  }\n\n  // Calls logic contract and updates account state\n  function normal_perform(\n    address caller,\n    bytes calldata call_data,\n    bytes32 call_data_root,\n    uint256 last_time\n  ) internal not_locked(caller) {\n    // Check that the caller is the user extracted from calldata (20 bytes starting after the function signature)\n    require(caller == abi.decode(call_data[4:], (address)), \"CALLER_USER_MISMATCH\");\n\n    // Extract current state (S_n or S_0) from calldata (32 bytes starting after the sig and user)\n    bytes32 state = abi.decode(call_data[36:], (bytes32));\n\n    // Check that the user it not in an optimistic state, which means that their account state is\n    // an empty call data tree, current state (S_n or S_0), and the last block is 0\n    require(\n      keccak256(abi.encodePacked(call_data_root, state, bytes32(last_time))) == account_states[caller],\n      \"INVALID_ROOTS\"\n    );\n\n    // Compute a new state (S_n+1 or S_1)\n    (bool success, bytes memory state_bytes) = logic_address.call{ value: msg.value }(call_data);\n    require(success, \"CALL_FAILED\");\n\n    // Decode new state (S_n+1 or S_1) from returned bytes, reusing the state variable\n    state = abi.decode(state_bytes, (bytes32));\n\n    // Set the account state to an empty call data tree, the new state (S_n+1 or S_1), and last time 0\n    account_states[caller] = keccak256(abi.encodePacked(bytes32(0), state, bytes32(0)));\n\n    emit ORI_New_State(caller, state);\n  }\n\n  // Set the account state to the on-chain computed new state, if the account is not locked\n  function perform(bytes calldata call_data) external payable {\n    normal_perform(msg.sender, call_data, bytes32(0), 0);\n  }\n\n  // Exits optimism by setting the account state to the on-chain computed new state, if the account is not locked\n  function perform_and_exit(\n    bytes calldata call_data,\n    bytes32 call_data_root,\n    uint256 last_time\n  ) external payable no_rollback_required(msg.sender) can_exit_optimism(last_time) {\n    normal_perform(msg.sender, call_data, call_data_root, last_time);\n  }\n\n  // Updates account state with optimistic transition data\n  function optimistic_perform(\n    address caller,\n    bytes calldata call_data,\n    bytes32 new_state,\n    bytes32 call_data_root,\n    bytes32[] calldata proof,\n    uint256 last_time\n  ) internal not_locked(caller) {\n    // Extract current state (S_0) from call data (32 bytes starting after sig and user)\n    bytes32 state = abi.decode(call_data[36:], (bytes32));\n\n    // Check that the user it not in an optimistic state, which means that their account state is\n    // an empty call data tree, current state (S_0), and the last block is 0\n    require(\n      keccak256(abi.encodePacked(call_data_root, state, bytes32(last_time))) == account_states[caller],\n      \"INVALID_ROOTS\"\n    );\n\n    // Get root of new merkle tree with 1 call data element (CD_0), reusing state as call_data_root\n    state = Merkle_Library_CBS.try_append_one(call_data_root, call_data, proof);\n\n    // Combine call data root, new state (S_1), and current time into account state\n    account_states[caller] = keccak256(abi.encodePacked(state, new_state, bytes32(block.timestamp)));\n\n    emit ORI_New_Optimistic_State(caller, block.timestamp);\n  }\n\n  // Enters optimism by updating the account state optimistically with call data and a new state, if the account is not locked\n  function perform_optimistically_and_enter(\n    bytes calldata call_data,\n    bytes32 new_state,\n    bytes32[] calldata proof\n  ) external {\n    optimistic_perform(msg.sender, call_data, new_state, bytes32(0), proof, 0);\n  }\n\n  // Updates the account state optimistically with call data and a new state, if the account is not locked\n  function perform_optimistically(\n    bytes calldata call_data,\n    bytes32 new_state,\n    bytes32 call_data_root,\n    bytes32[] calldata proof,\n    uint256 last_time\n  ) external {\n    optimistic_perform(msg.sender, call_data, new_state, call_data_root, proof, last_time);\n  }\n\n  // Updates account state with optimistic batch transition data\n  function optimistic_perform_many(\n    address user,\n    bytes[] calldata call_data,\n    bytes32 new_state,\n    bytes32 call_data_root,\n    bytes32[] calldata proof,\n    uint256 last_time\n  ) internal not_locked(user) sufficient_calldata(call_data) {\n    // Extract current state (S_n) from first call data (32 bytes starting after sig and user)\n    bytes32 state = abi.decode(call_data[0][36:], (bytes32));\n\n    // Check that the call data root, current state (S_n), and last time are valid for this user\n    require(\n      keccak256(abi.encodePacked(call_data_root, state, bytes32(last_time))) == account_states[user],\n      \"INVALID_ROOTS\"\n    );\n\n    // Get new merkle root of call data tree, appending several call data (CD_n - CD_n+m), reusing state as call_data_root\n    state = Merkle_Library_CBS.try_append_many(call_data_root, call_data, proof);\n\n    // Combine call data root, new state (S_n+m), and current time into account state\n    account_states[user] = keccak256(abi.encodePacked(state, new_state, bytes32(block.timestamp)));\n\n    emit ORI_New_Optimistic_States(user, block.timestamp);\n  }\n\n  // Enters optimism by updating the account state optimistically with several call data and final state, if the account is not locked\n  function perform_many_optimistically_and_enter(\n    bytes[] calldata call_data,\n    bytes32 new_state,\n    bytes32[] calldata proof\n  ) external {\n    optimistic_perform_many(msg.sender, call_data, new_state, bytes32(0), proof, 0);\n  }\n\n  // Updates the account state optimistically with several call data and final state, if the account is not locked\n  function perform_many_optimistically(\n    bytes[] calldata call_data,\n    bytes32 new_state,\n    bytes32 call_data_root,\n    bytes32[] calldata proof,\n    uint256 last_time\n  ) external {\n    optimistic_perform_many(msg.sender, call_data, new_state, call_data_root, proof, last_time);\n  }\n\n  // Lock two users (suspect and accuser)\n  // Note: accuser and suspect cannot already be locked, but this might have to change so a single accuser isn't overwhelmed with fraud\n  function lock_user(address suspect) external payable not_locked(msg.sender) not_locked(suspect) {\n    address accuser = msg.sender;\n\n    // Lock both the accuser and the suspect\n    lockers[suspect] = accuser;\n    locked_times[suspect] = block.timestamp;\n    lockers[accuser] = accuser;\n    locked_times[accuser] = block.timestamp;\n\n    // The accuser may be trying to bond at the same time (this also check that have enough bonded)\n    apply_bond(accuser, msg.value);\n\n    emit ORI_Locked(suspect, accuser);\n  }\n\n  // Unlock two users (suspect and accuser)\n  function unlock(\n    address suspect,\n    bytes32 state,\n    bytes32 call_data_root,\n    uint256 last_time\n  ) external is_locked(suspect) lock_expired(suspect) no_rollback_required(suspect) {\n    // Check that the call data root, current state (S_n), and last time are valid for this user\n    require(\n      keccak256(abi.encodePacked(call_data_root, state, bytes32(last_time))) == account_states[suspect],\n      \"INVALID_ROOTS\"\n    );\n\n    // Unlock both accounts\n    address accuser = lockers[suspect];\n    lockers[suspect] = address(0);\n    locked_times[suspect] = 0;\n    lockers[accuser] = address(0);\n    locked_times[accuser] = 0;\n\n    // Give the suspect the accuser's bond for having not proven fraud within a reasonable time frame\n    // TODO: consider burning some here to prevent self-reporting breakeven\n    uint256 amount = balances[accuser];\n    balances[accuser] = 0;\n    balances[suspect] += amount;\n\n    // Combine call data root, current state (S_n), and current time into account state\n    // Note: updating last time is important, to prevent user blocking fraud proofs by locking themselves\n    account_states[suspect] = keccak256(abi.encodePacked(call_data_root, state, bytes32(block.timestamp)));\n\n    emit ORI_Unlocked(suspect, accuser);\n  }\n\n  // Reward accuser for proving fraud in a suspect's transition, and track the expected rolled back account state size\n  function prove_fraud(\n    address suspect,\n    bytes[] calldata call_data,\n    bytes32 state,\n    bytes32 call_data_root,\n    bytes32[] calldata proof,\n    uint256 last_time\n  ) external {\n    address accuser = msg.sender;\n\n    // Only the user that flagged/locked the suspect can prove fraud\n    require(lockers[suspect] == accuser, \"NOT_LOCKER\");\n\n    // Check that the call data root, current state (S_n), and last time are valid for this user\n    require(\n      keccak256(abi.encodePacked(call_data_root, state, bytes32(last_time))) == account_states[suspect],\n      \"INVALID_ROOTS\"\n    );\n\n    // Check that the call data exist\n    require(Merkle_Library_CBS.elements_exist(call_data_root, call_data, proof), \"INVALID_CALLDATA\");\n\n    // get the indices of the call data in the call data tre\n    uint256[] memory call_data_indices = Merkle_Library_CBS.get_indices(call_data, proof);\n\n    // The transition index is the index of the starting call data of the fraud proof\n    uint256 transition_index = call_data_indices[0];\n\n    // If only one call data is provided, the fraud involves the last call data and current state\n    if (call_data.length == 1) {\n      // Check that the call data index is the last (call data tree size minus 1)\n      require(transition_index + 1 == uint256(proof[0]), \"INCORRECT_CALLDATA\");\n\n      // Fail if the state transition was valid\n      require(verify_transition(suspect, call_data[0], state) == false, \"VALID_TRANSITION\");\n    } else {\n      // Check that call data provided are consecutive\n      require(transition_index + 1 == call_data_indices[1]);\n\n      // Extract new state from second call data (32 bytes starting after the sig and user), reusing state var\n      state = abi.decode(call_data[1][36:], (bytes32));\n\n      // Fail if the state transition was valid\n      require(verify_transition(suspect, call_data[0], state) == false, \"VALID_TRANSITION\");\n    }\n\n    // Take the suspect's bond and give it to the accuser, reusing last_time var\n    // TODO: consider burning some here to prevent self-reporting breakeven\n    last_time = balances[suspect];\n    balances[suspect] = 0;\n    balances[accuser] += last_time;\n\n    // Unlock the accuser's account\n    lockers[accuser] = address(0);\n    locked_times[accuser] = 0;\n\n    // Set the rollback size to the amount of elements that should be in the call data tree once rolled back\n    rollback_sizes[suspect] = transition_index;\n\n    // Set the suspect as the reason for their account's lock\n    lockers[suspect] = suspect;\n    locked_times[suspect] = 0;\n\n    emit ORI_Fraud_Proven(accuser, suspect, transition_index, last_time);\n  }\n\n  // Rolls a user back, given the current roots, old roots, and a proof of the optimistic transitions between them\n  function rollback(\n    bytes32 rolled_back_call_data_root,\n    bytes[] calldata rolled_back_call_data,\n    bytes32[] calldata roll_back_proof,\n    uint256 current_size,\n    bytes32 current_size_proof,\n    bytes32 call_data_root,\n    bytes32 state,\n    uint256 last_time\n  ) external payable {\n    address user = msg.sender;\n    uint256 expected_size = rollback_sizes[user];\n    require(expected_size != 0, \"ROLLBACK_UNNECESSARY\");\n\n    // Check that the call data root, current state (S_n), and last time are valid for this user\n    require(\n      keccak256(abi.encodePacked(call_data_root, state, bytes32(last_time))) == account_states[user],\n      \"INVALID_ROOTS\"\n    );\n\n    // Check that the provided size of the current call data tree is correct\n    require(Merkle_Library_CBS.verify_size(call_data_root, current_size, current_size_proof), \"INVALID_SIZE\");\n\n    // Allow incremental roll back by checking that the rolled back call data tree is smaller than the current tree\n    uint256 rolled_back_size = uint256(roll_back_proof[0]);\n    require(rolled_back_size < current_size, \"INSUFFICIENT_ROLLBACK\");\n\n    // Check that this is not rolling back too far, though\n    require(rolled_back_size >= expected_size, \"ROLLBACK_TOO_DEEP\");\n\n    // Check that the current call data root is derived by appending the rolled back call data to the rolled back call data root\n    require(\n      Merkle_Library_CBS.try_append_many(rolled_back_call_data_root, rolled_back_call_data, roll_back_proof) ==\n        call_data_root,\n      \"INVALID_ROLLBACK\"\n    );\n\n    // Extract new state from first rolled back call data (32 bytes starting after the sig and user), reusing state var\n    state = abi.decode(rolled_back_call_data[0][36:], (bytes32));\n\n    // Combine rolled back call data root, new state (S_n-m), and current time into account state\n    account_states[user] = keccak256(abi.encodePacked(rolled_back_call_data_root, state, bytes32(block.timestamp)));\n\n    // Unlock the user and clear the rollback flag, if roll back is complete\n    if (rolled_back_size == expected_size) {\n      lockers[user] = address(0);\n      rollback_sizes[user] = 0;\n    }\n\n    // The user may be trying to bond at the same time (this also check that have enough bonded)\n    apply_bond(user, msg.value);\n\n    emit ORI_Rolled_Back(user, rolled_back_size, block.timestamp);\n  }\n}\n",
  "sourcePath": "/Users/michaeldeluca/Projects/optimistic-roll-in/eth/contracts/optimistic-roll-in.sol",
  "compiler": {
    "name": "solc",
    "version": "0.7.3+commit.9bfce1f6.Emscripten.clang"
  },
  "schemaVersion": "3.3.1",
  "updatedAt": "2020-10-22T19:33:22.883Z",
  "networkType": "ethereum",
  "devdoc": {
    "kind": "dev",
    "methods": {},
    "version": 1
  },
  "userdoc": {
    "kind": "user",
    "methods": {},
    "version": 1
  }
}