{
  "contractName": "Optimistic_Roll_In",
  "abi": [
    {
      "inputs": [
        {
          "internalType": "address",
          "name": "_logic_address",
          "type": "address"
        },
        {
          "internalType": "bytes4",
          "name": "_initializer",
          "type": "bytes4"
        }
      ],
      "stateMutability": "nonpayable",
      "type": "constructor"
    },
    {
      "anonymous": false,
      "inputs": [
        {
          "indexed": true,
          "internalType": "address",
          "name": "accuser",
          "type": "address"
        },
        {
          "indexed": true,
          "internalType": "address",
          "name": "suspect",
          "type": "address"
        },
        {
          "indexed": true,
          "internalType": "uint256",
          "name": "transition_index",
          "type": "uint256"
        },
        {
          "indexed": false,
          "internalType": "uint256",
          "name": "amount",
          "type": "uint256"
        }
      ],
      "name": "ORI_Fraud_Proven",
      "type": "event"
    },
    {
      "anonymous": false,
      "inputs": [
        {
          "indexed": true,
          "internalType": "address",
          "name": "suspect",
          "type": "address"
        },
        {
          "indexed": true,
          "internalType": "address",
          "name": "accuser",
          "type": "address"
        }
      ],
      "name": "ORI_Locked",
      "type": "event"
    },
    {
      "anonymous": false,
      "inputs": [
        {
          "indexed": true,
          "internalType": "address",
          "name": "user",
          "type": "address"
        },
        {
          "indexed": true,
          "internalType": "uint256",
          "name": "block_time",
          "type": "uint256"
        }
      ],
      "name": "ORI_New_Optimistic_State",
      "type": "event"
    },
    {
      "anonymous": false,
      "inputs": [
        {
          "indexed": true,
          "internalType": "address",
          "name": "user",
          "type": "address"
        },
        {
          "indexed": true,
          "internalType": "uint256",
          "name": "block_time",
          "type": "uint256"
        }
      ],
      "name": "ORI_New_Optimistic_States",
      "type": "event"
    },
    {
      "anonymous": false,
      "inputs": [
        {
          "indexed": true,
          "internalType": "address",
          "name": "user",
          "type": "address"
        },
        {
          "indexed": true,
          "internalType": "bytes32",
          "name": "new_state",
          "type": "bytes32"
        }
      ],
      "name": "ORI_New_State",
      "type": "event"
    },
    {
      "anonymous": false,
      "inputs": [
        {
          "indexed": true,
          "internalType": "address",
          "name": "user",
          "type": "address"
        },
        {
          "indexed": true,
          "internalType": "uint256",
          "name": "tree_size",
          "type": "uint256"
        },
        {
          "indexed": true,
          "internalType": "uint256",
          "name": "block_time",
          "type": "uint256"
        }
      ],
      "name": "ORI_Rolled_Back",
      "type": "event"
    },
    {
      "anonymous": false,
      "inputs": [
        {
          "indexed": true,
          "internalType": "address",
          "name": "suspect",
          "type": "address"
        },
        {
          "indexed": true,
          "internalType": "address",
          "name": "accuser",
          "type": "address"
        }
      ],
      "name": "ORI_Unlocked",
      "type": "event"
    },
    {
      "inputs": [
        {
          "internalType": "address",
          "name": "",
          "type": "address"
        }
      ],
      "name": "account_states",
      "outputs": [
        {
          "internalType": "bytes32",
          "name": "",
          "type": "bytes32"
        }
      ],
      "stateMutability": "view",
      "type": "function"
    },
    {
      "inputs": [
        {
          "internalType": "address",
          "name": "",
          "type": "address"
        }
      ],
      "name": "balances",
      "outputs": [
        {
          "internalType": "uint256",
          "name": "",
          "type": "uint256"
        }
      ],
      "stateMutability": "view",
      "type": "function"
    },
    {
      "inputs": [],
      "name": "initializer",
      "outputs": [
        {
          "internalType": "bytes4",
          "name": "",
          "type": "bytes4"
        }
      ],
      "stateMutability": "view",
      "type": "function"
    },
    {
      "inputs": [
        {
          "internalType": "address",
          "name": "",
          "type": "address"
        }
      ],
      "name": "locked_times",
      "outputs": [
        {
          "internalType": "uint256",
          "name": "",
          "type": "uint256"
        }
      ],
      "stateMutability": "view",
      "type": "function"
    },
    {
      "inputs": [
        {
          "internalType": "address",
          "name": "",
          "type": "address"
        }
      ],
      "name": "lockers",
      "outputs": [
        {
          "internalType": "address",
          "name": "",
          "type": "address"
        }
      ],
      "stateMutability": "view",
      "type": "function"
    },
    {
      "inputs": [],
      "name": "logic_address",
      "outputs": [
        {
          "internalType": "address",
          "name": "",
          "type": "address"
        }
      ],
      "stateMutability": "view",
      "type": "function"
    },
    {
      "inputs": [
        {
          "internalType": "address",
          "name": "",
          "type": "address"
        }
      ],
      "name": "rollback_sizes",
      "outputs": [
        {
          "internalType": "uint256",
          "name": "",
          "type": "uint256"
        }
      ],
      "stateMutability": "view",
      "type": "function"
    },
    {
      "stateMutability": "payable",
      "type": "receive"
    },
    {
      "inputs": [
        {
          "internalType": "address",
          "name": "user",
          "type": "address"
        }
      ],
      "name": "bond",
      "outputs": [],
      "stateMutability": "payable",
      "type": "function"
    },
    {
      "inputs": [
        {
          "internalType": "uint256",
          "name": "bond_amount",
          "type": "uint256"
        }
      ],
      "name": "initialize",
      "outputs": [],
      "stateMutability": "payable",
      "type": "function"
    },
    {
      "inputs": [
        {
          "internalType": "address payable",
          "name": "destination",
          "type": "address"
        }
      ],
      "name": "unbond",
      "outputs": [],
      "stateMutability": "nonpayable",
      "type": "function"
    },
    {
      "inputs": [
        {
          "internalType": "bytes",
          "name": "call_data",
          "type": "bytes"
        }
      ],
      "name": "perform",
      "outputs": [],
      "stateMutability": "payable",
      "type": "function"
    },
    {
      "inputs": [
        {
          "internalType": "bytes",
          "name": "call_data",
          "type": "bytes"
        },
        {
          "internalType": "bytes32",
          "name": "call_data_root",
          "type": "bytes32"
        },
        {
          "internalType": "uint256",
          "name": "last_time",
          "type": "uint256"
        }
      ],
      "name": "perform_and_exit",
      "outputs": [],
      "stateMutability": "payable",
      "type": "function"
    },
    {
      "inputs": [
        {
          "internalType": "bytes",
          "name": "call_data",
          "type": "bytes"
        },
        {
          "internalType": "bytes32",
          "name": "new_state",
          "type": "bytes32"
        },
        {
          "internalType": "bytes32[]",
          "name": "proof",
          "type": "bytes32[]"
        }
      ],
      "name": "perform_optimistically_and_enter",
      "outputs": [],
      "stateMutability": "nonpayable",
      "type": "function"
    },
    {
      "inputs": [
        {
          "internalType": "bytes",
          "name": "call_data",
          "type": "bytes"
        },
        {
          "internalType": "bytes32",
          "name": "new_state",
          "type": "bytes32"
        },
        {
          "internalType": "bytes32",
          "name": "call_data_root",
          "type": "bytes32"
        },
        {
          "internalType": "bytes32[]",
          "name": "proof",
          "type": "bytes32[]"
        },
        {
          "internalType": "uint256",
          "name": "last_time",
          "type": "uint256"
        }
      ],
      "name": "perform_optimistically",
      "outputs": [],
      "stateMutability": "nonpayable",
      "type": "function"
    },
    {
      "inputs": [
        {
          "internalType": "bytes[]",
          "name": "call_data",
          "type": "bytes[]"
        },
        {
          "internalType": "bytes32",
          "name": "new_state",
          "type": "bytes32"
        },
        {
          "internalType": "bytes32[]",
          "name": "proof",
          "type": "bytes32[]"
        }
      ],
      "name": "perform_many_optimistically_and_enter",
      "outputs": [],
      "stateMutability": "nonpayable",
      "type": "function"
    },
    {
      "inputs": [
        {
          "internalType": "bytes[]",
          "name": "call_data",
          "type": "bytes[]"
        },
        {
          "internalType": "bytes32",
          "name": "new_state",
          "type": "bytes32"
        },
        {
          "internalType": "bytes32",
          "name": "call_data_root",
          "type": "bytes32"
        },
        {
          "internalType": "bytes32[]",
          "name": "proof",
          "type": "bytes32[]"
        },
        {
          "internalType": "uint256",
          "name": "last_time",
          "type": "uint256"
        }
      ],
      "name": "perform_many_optimistically",
      "outputs": [],
      "stateMutability": "nonpayable",
      "type": "function"
    },
    {
      "inputs": [
        {
          "internalType": "address",
          "name": "suspect",
          "type": "address"
        }
      ],
      "name": "lock_user",
      "outputs": [],
      "stateMutability": "payable",
      "type": "function"
    },
    {
      "inputs": [
        {
          "internalType": "address",
          "name": "suspect",
          "type": "address"
        },
        {
          "internalType": "bytes32",
          "name": "state",
          "type": "bytes32"
        },
        {
          "internalType": "bytes32",
          "name": "call_data_root",
          "type": "bytes32"
        },
        {
          "internalType": "uint256",
          "name": "last_time",
          "type": "uint256"
        }
      ],
      "name": "unlock",
      "outputs": [],
      "stateMutability": "nonpayable",
      "type": "function"
    },
    {
      "inputs": [
        {
          "internalType": "address",
          "name": "suspect",
          "type": "address"
        },
        {
          "internalType": "bytes[]",
          "name": "call_data",
          "type": "bytes[]"
        },
        {
          "internalType": "bytes32",
          "name": "state",
          "type": "bytes32"
        },
        {
          "internalType": "bytes32",
          "name": "call_data_root",
          "type": "bytes32"
        },
        {
          "internalType": "bytes32[]",
          "name": "proof",
          "type": "bytes32[]"
        },
        {
          "internalType": "uint256",
          "name": "last_time",
          "type": "uint256"
        }
      ],
      "name": "prove_fraud",
      "outputs": [],
      "stateMutability": "nonpayable",
      "type": "function"
    },
    {
      "inputs": [
        {
          "internalType": "bytes32",
          "name": "rolled_back_call_data_root",
          "type": "bytes32"
        },
        {
          "internalType": "bytes[]",
          "name": "rolled_back_call_data",
          "type": "bytes[]"
        },
        {
          "internalType": "bytes32[]",
          "name": "roll_back_proof",
          "type": "bytes32[]"
        },
        {
          "internalType": "uint256",
          "name": "current_size",
          "type": "uint256"
        },
        {
          "internalType": "bytes32",
          "name": "current_size_proof",
          "type": "bytes32"
        },
        {
          "internalType": "bytes32",
          "name": "call_data_root",
          "type": "bytes32"
        },
        {
          "internalType": "bytes32",
          "name": "state",
          "type": "bytes32"
        },
        {
          "internalType": "uint256",
          "name": "last_time",
          "type": "uint256"
        }
      ],
      "name": "rollback",
      "outputs": [],
      "stateMutability": "payable",
      "type": "function"
    }
  ],
  "bytecode": "0x60c06040523480156200001157600080fd5b506040516200394e3803806200394e833981016040819052620000349162000072565b60609190911b6001600160601b0319166080527fffffffff000000000000000000000000000000000000000000000000000000001660a052620000dd565b6000806040838503121562000085578182fd5b82516001600160a01b03811681146200009c578283fd5b60208401519092507fffffffff0000000000000000000000000000000000000000000000000000000081168114620000d2578182fd5b809150509250929050565b60805160601c60a05160e01c60e01b6138306200011e60003980610aab52806113af525080610e9752806113775280611b215280611d8452506138306000f3fe6080604052600436106101635760003560e01c80639ce110d7116100c0578063c45481bb11610074578063e426ed8011610059578063e426ed8014610372578063e4da61ab14610392578063fe4b84df146103b257610174565b8063c45481bb1461033f578063e11242001461035f57610174565b8063af7b5a41116100a5578063af7b5a41146102f7578063bb6ae2cb14610317578063c0c452671461032a57610174565b80639ce110d7146102b5578063a68f5913146102d757610174565b80632a415454116101175780635b1db142116100fc5780635b1db142146102625780636a8dddef146102755780638ee16d131461029557610174565b80632a415454146102225780632c8e7a211461023557610174565b8063177f15c511610148578063177f15c5146101b9578063247ce85b146101d957806327e235e3146101ec57610174565b806308542bb1146101795780631646d0511461019957610174565b366101745761017233346103c5565b005b600080fd5b34801561018557600080fd5b50610172610194366004612e37565b6104f0565b3480156101a557600080fd5b506101726101b4366004613081565b610508565b3480156101c557600080fd5b506101726101d4366004613047565b610521565b6101726101e7366004612d47565b610532565b3480156101f857600080fd5b5061020c610207366004612d47565b61053f565b60405161021991906131ef565b60405180910390f35b6101726102303660046130e4565b610551565b34801561024157600080fd5b50610255610250366004612d47565b6105eb565b60405161021991906131ce565b610172610270366004612d47565b610613565b34801561028157600080fd5b50610172610290366004612eae565b6107b6565b3480156102a157600080fd5b506101726102b0366004612dfd565b6107c6565b3480156102c157600080fd5b506102ca610aa9565b60405161021991906131f8565b3480156102e357600080fd5b506101726102f2366004612d63565b610acd565b34801561030357600080fd5b5061020c610312366004612d47565b610e75565b610172610325366004613007565b610e87565b34801561033657600080fd5b50610255610e95565b34801561034b57600080fd5b5061020c61035a366004612d47565b610eb9565b61017261036d366004612f67565b610ecb565b34801561037e57600080fd5b5061020c61038d366004612d47565b611218565b34801561039e57600080fd5b506101726103ad366004612d47565b61122a565b6101726103c0366004612f37565b6112e0565b8061043f5773ffffffffffffffffffffffffffffffffffffffff8216600090815260208190526040902054670de0b6b3a7640000111561043a576040517f08c379a0000000000000000000000000000000000000000000000000000000008152600401610431906136df565b60405180910390fd5b6104ec565b670de0b6b3a7640000811061047e5773ffffffffffffffffffffffffffffffffffffffff821660009081526020819052604090208054820190556104ec565b73ffffffffffffffffffffffffffffffffffffffff821660009081526020819052604090208054820190819055670de0b6b3a764000011156104ec576040517f08c379a0000000000000000000000000000000000000000000000000000000008152600401610431906136df565b5050565b61050133868686600087878261159e565b5050505050565b61051833888888888888886117d5565b50505050505050565b6105013386868660008787826117d5565b61053c81346103c5565b50565b60006020819052908152604090205481565b3360008181526004602052604090205415610598576040517f08c379a000000000000000000000000000000000000000000000000000000000815260040161043190613293565b81428161025801106105d6576040517f08c379a00000000000000000000000000000000000000000000000000000000081526004016104319061363a565b6105e33387878787611992565b505050505050565b60026020526000908152604090205473ffffffffffffffffffffffffffffffffffffffff1681565b3360008181526002602052604090205473ffffffffffffffffffffffffffffffffffffffff1615610670576040517f08c379a000000000000000000000000000000000000000000000000000000000815260040161043190613603565b73ffffffffffffffffffffffffffffffffffffffff808316600090815260026020526040902054839116156106d1576040517f08c379a000000000000000000000000000000000000000000000000000000000815260040161043190613603565b73ffffffffffffffffffffffffffffffffffffffff831660009081526002602081815260408084208054337fffffffffffffffffffffffff0000000000000000000000000000000000000000918216811790925560038085528387204290819055838852958552838720805490921683179091559092529092205561075681346103c5565b8073ffffffffffffffffffffffffffffffffffffffff168473ffffffffffffffffffffffffffffffffffffffff167f8773bde6581ad6ddd421210de867340039fb65ce3df41edba7b5de6d24ae7a5160405160405180910390a350505050565b610518338888888888888861159e565b73ffffffffffffffffffffffffffffffffffffffff808516600090815260026020526040902054859116610826576040517f08c379a000000000000000000000000000000000000000000000000000000000815260040161043190613482565b73ffffffffffffffffffffffffffffffffffffffff8516600090815260036020526040902054859042610258909101111561088d576040517f08c379a00000000000000000000000000000000000000000000000000000000081526004016104319061355e565b73ffffffffffffffffffffffffffffffffffffffff86166000908152600460205260409020548690156108ec576040517f08c379a000000000000000000000000000000000000000000000000000000000815260040161043190613293565b73ffffffffffffffffffffffffffffffffffffffff87166000908152600160209081526040918290205491516109289188918a9189910161316f565b6040516020818303038152906040528051906020012014610975576040517f08c379a000000000000000000000000000000000000000000000000000000000815260040161043190613414565b73ffffffffffffffffffffffffffffffffffffffff808816600081815260026020818152604080842080547fffffffffffffffffffffffff00000000000000000000000000000000000000008082169092556003808552838720879055971680865293835281852080549091169055948152848320839055828152848320805490849055938352918490208054840190559251610a189189918b9142910161316f565b604080517fffffffffffffffffffffffffffffffffffffffffffffffffffffffffffffffe0818403018152828252805160209182012073ffffffffffffffffffffffffffffffffffffffff808e1660008181526001909452938320919091558516927f524512344e535e9bda79e916c2ea8c7b9e5d23d83e1b95181d7622b4ac3d42939190a3505050505050505050565b7f000000000000000000000000000000000000000000000000000000000000000081565b73ffffffffffffffffffffffffffffffffffffffff8881166000908152600260205260409020543391168114610b2f576040517f08c379a000000000000000000000000000000000000000000000000000000000815260040161043190613225565b73ffffffffffffffffffffffffffffffffffffffff8916600090815260016020908152604091829020549151610b6b9188918a9187910161316f565b6040516020818303038152906040528051906020012014610bb8576040517f08c379a000000000000000000000000000000000000000000000000000000000815260040161043190613414565b610bc58589898787611c9e565b610bfb576040517f08c379a0000000000000000000000000000000000000000000000000000000008152600401610431906132ca565b6060610c0989898787611cd6565b9050600081600081518110610c1a57fe5b602002602001015190508989905060011415610ce75785856000818110610c3d57fe5b9050602002013560001c8160010114610c82576040517f08c379a000000000000000000000000000000000000000000000000000000000815260040161043190613338565b610cab8b8b8b6000818110610c9357fe5b9050602002810190610ca5919061374d565b8b611d28565b15610ce2576040517f08c379a0000000000000000000000000000000000000000000000000000000008152600401610431906133a6565b610d8e565b81600181518110610cf457fe5b60200260200101518160010114610d0a57600080fd5b89896001818110610d1757fe5b9050602002810190610d29919061374d565b610d379160249082906137b0565b810190610d449190612f37565b9750610d578b8b8b6000818110610c9357fe5b15610d8e576040517f08c379a0000000000000000000000000000000000000000000000000000000008152600401610431906133a6565b73ffffffffffffffffffffffffffffffffffffffff808c16600081815260208181526040808320805490849055948816808452818420805487019055600280845282852080547fffffffffffffffffffffffff00000000000000000000000000000000000000009081169091556003808652848720879055878752600486528487208a905591855283862080549091168717905590925280832092909255905192965083927fa66290bc21cee2ba1a3c6ba2cac21d24511cea1f9ed7efe453736f24fd89488690610e609089906131ef565b60405180910390a45050505050505050505050565b60016020526000908152604090205481565b6104ec338383600080611992565b7f000000000000000000000000000000000000000000000000000000000000000081565b60046020526000908152604090205481565b3360008181526004602052604090205480610f12576040517f08c379a0000000000000000000000000000000000000000000000000000000008152600401610431906134b9565b73ffffffffffffffffffffffffffffffffffffffff8216600090815260016020908152604091829020549151610f4e918891889188910161316f565b6040516020818303038152906040528051906020012014610f9b576040517f08c379a000000000000000000000000000000000000000000000000000000000815260040161043190613414565b610fa6858888611e44565b610fdc576040517f08c379a00000000000000000000000000000000000000000000000000000000081526004016104319061344b565b600089896000818110610feb57fe5b9050602002013560001c9050878110611030576040517f08c379a00000000000000000000000000000000000000000000000000000000081526004016104319061325c565b8181101561106a576040517f08c379a000000000000000000000000000000000000000000000000000000000815260040161043190613527565b856110788e8e8e8e8e611e75565b146110af576040517f08c379a0000000000000000000000000000000000000000000000000000000008152600401610431906135cc565b8b8b60008181106110bc57fe5b90506020028101906110ce919061374d565b6110dc9160249082906137b0565b8101906110e99190612f37565b604051909550611101908e908790429060200161316f565b604080517fffffffffffffffffffffffffffffffffffffffffffffffffffffffffffffffe0818403018152918152815160209283012073ffffffffffffffffffffffffffffffffffffffff861660009081526001909352912055808214156111ba5773ffffffffffffffffffffffffffffffffffffffff8316600090815260026020908152604080832080547fffffffffffffffffffffffff000000000000000000000000000000000000000016905560049091528120555b6111c483346103c5565b42818473ffffffffffffffffffffffffffffffffffffffff167f4d7ed8c49e6b03daee23a18f4bd14bd7e4628e5ed54c57bf84407a693867eca960405160405180910390a450505050505050505050505050565b60036020526000908152604090205481565b3360008181526002602052604090205473ffffffffffffffffffffffffffffffffffffffff1615611287576040517f08c379a000000000000000000000000000000000000000000000000000000000815260040161043190613603565b336000818152602081905260408082208054908390559051909173ffffffffffffffffffffffffffffffffffffffff86169183156108fc0291849190818181858888f19350505050158015610501573d6000803e3d6000fd5b3360008181526001602052604090205415611327576040517f08c379a000000000000000000000000000000000000000000000000000000000815260040161043190613301565b34821115611361576040517f08c379a0000000000000000000000000000000000000000000000000000000008152600401610431906136a8565b3361136c81846103c5565b8234039250600060607f000000000000000000000000000000000000000000000000000000000000000073ffffffffffffffffffffffffffffffffffffffff16857f0000000000000000000000000000000000000000000000000000000000000000856040516024016113df91906131ce565b604080517fffffffffffffffffffffffffffffffffffffffffffffffffffffffffffffffe08184030181529181526020820180517bffffffffffffffffffffffffffffffffffffffffffffffffffffffff167fffffffff000000000000000000000000000000000000000000000000000000009094169390931790925290516114689190613195565b60006040518083038185875af1925050503d80600081146114a5576040519150601f19603f3d011682016040523d82523d6000602084013e6114aa565b606091505b5091509150816114e6576040517f08c379a000000000000000000000000000000000000000000000000000000000815260040161043190613595565b6000818060200190518101906114fc9190612f4f565b604051909150611515906000908390829060200161316f565b604080517fffffffffffffffffffffffffffffffffffffffffffffffffffffffffffffffe0818403018152828252805160209182012073ffffffffffffffffffffffffffffffffffffffff8816600081815260019093529282205583927f0f5025cc4f20aa47a346d1b7d9da6ba8c68cc8e83b75e813da4b4490d55365ae9190a3505050505050565b73ffffffffffffffffffffffffffffffffffffffff808916600090815260026020526040902054899116156115ff576040517f08c379a000000000000000000000000000000000000000000000000000000000815260040161043190613603565b87876001811161163b576040517f08c379a0000000000000000000000000000000000000000000000000000000008152600401610431906134f0565b60008a8a600081811061164a57fe5b905060200281019061165c919061374d565b61166a9160249082906137b0565b8101906116779190612f37565b73ffffffffffffffffffffffffffffffffffffffff8d1660009081526001602090815260409182902054915192935090916116b8918b9185918a910161316f565b6040516020818303038152906040528051906020012014611705576040517f08c379a000000000000000000000000000000000000000000000000000000000815260040161043190613414565b611712888c8c8a8a611e75565b60405190915061172a9082908b90429060200161316f565b60405160208183030381529060405280519060200120600160008e73ffffffffffffffffffffffffffffffffffffffff1673ffffffffffffffffffffffffffffffffffffffff16815260200190815260200160002081905550428c73ffffffffffffffffffffffffffffffffffffffff167f0b87b136840d19f5f25329273082c00833265a189b70137e06df6315ddc7839e60405160405180910390a3505050505050505050505050565b73ffffffffffffffffffffffffffffffffffffffff80891660009081526002602052604090205489911615611836576040517f08c379a000000000000000000000000000000000000000000000000000000000815260040161043190613603565b6000611845886024818c6137b0565b8101906118529190612f37565b73ffffffffffffffffffffffffffffffffffffffff8b166000908152600160209081526040918290205491519293509091611893918991859188910161316f565b60405160208183030381529060405280519060200120146118e0576040517f08c379a000000000000000000000000000000000000000000000000000000000815260040161043190613414565b6118ed868a8a8888611f52565b6040519091506119059082908990429060200161316f565b604080517fffffffffffffffffffffffffffffffffffffffffffffffffffffffffffffffe0818403018152828252805160209182012073ffffffffffffffffffffffffffffffffffffffff8e16600081815260019093529282205542927f4779c4b07abff82b16061ec9a47d081e7f4981c29088395cdb7ff87e322cbbc69190a350505050505050505050565b73ffffffffffffffffffffffffffffffffffffffff808616600090815260026020526040902054869116156119f3576040517f08c379a000000000000000000000000000000000000000000000000000000000815260040161043190613603565b611a0084600481886137b0565b810190611a0d9190612d47565b73ffffffffffffffffffffffffffffffffffffffff168673ffffffffffffffffffffffffffffffffffffffff1614611a71576040517f08c379a000000000000000000000000000000000000000000000000000000000815260040161043190613671565b6000611a8085602481896137b0565b810190611a8d9190612f37565b73ffffffffffffffffffffffffffffffffffffffff88166000908152600160209081526040918290205491519293509091611ace918791859188910161316f565b6040516020818303038152906040528051906020012014611b1b576040517f08c379a000000000000000000000000000000000000000000000000000000000815260040161043190613414565b600060607f000000000000000000000000000000000000000000000000000000000000000073ffffffffffffffffffffffffffffffffffffffff16348989604051611b67929190613185565b60006040518083038185875af1925050503d8060008114611ba4576040519150601f19603f3d011682016040523d82523d6000602084013e611ba9565b606091505b509150915081611be5576040517f08c379a000000000000000000000000000000000000000000000000000000000815260040161043190613716565b80806020019051810190611bf99190612f4f565b604051909350611c12906000908590829060200161316f565b604080517fffffffffffffffffffffffffffffffffffffffffffffffffffffffffffffffe0818403018152828252805160209182012073ffffffffffffffffffffffffffffffffffffffff8d16600081815260019093529282205585927f0f5025cc4f20aa47a346d1b7d9da6ba8c68cc8e83b75e813da4b4490d55365ae9190a3505050505050505050565b600085611cc984846000818110611cb157fe5b90506020020135611cc48888888861201d565b6121c0565b1490505b95945050505050565b6060611d1d8484846001818110611ce957fe5b9050602002013585856002818110611cfd57fe5b9050602002013586866003818110611d1157fe5b905060200201356121cf565b90505b949350505050565b6000611d3783600481876137b0565b810190611d449190612d47565b73ffffffffffffffffffffffffffffffffffffffff168573ffffffffffffffffffffffffffffffffffffffff1614611d7e57506000611d20565b600060607f000000000000000000000000000000000000000000000000000000000000000073ffffffffffffffffffffffffffffffffffffffff168686604051611dc9929190613185565b6000604051808303816000865af19150503d8060008114611e06576040519150601f19603f3d011682016040523d82523d6000602084013e611e0b565b606091505b509150915081611e2057600092505050611d20565b600081806020019051810190611e369190612f4f565b909414979650505050505050565b600083158015611e52575082155b15611e5f57506001611e6e565b83611e6a84846121c0565b1490505b9392505050565b60008083836000818110611e8557fe5b60200291909101359150508615811514611ecb576040517f08c379a0000000000000000000000000000000000000000000000000000000008152600401610431906133dd565b86611ee657611ede85611cc488826124ef565b915050611ccd565b6000611ef487878787612605565b9350905087611f0383836121c0565b14611f3a576040517f08c379a00000000000000000000000000000000000000000000000000000000081526004016104319061336f565b611f46828701846121c0565b98975050505050505050565b60008083836000818110611f6257fe5b60200291909101359150508615811514611fa8576040517f08c379a0000000000000000000000000000000000000000000000000000000008152600401610431906133dd565b86611fbc57611ede6001611cc48888612815565b6000611fca8787878761284b565b9350905087611fd983836121c0565b14612010576040517f08c379a00000000000000000000000000000000000000000000000000000000081526004016104319061336f565b611f4660018301846121c0565b600080606061202c8787612915565b9092509050600080600460018289898381811061204557fe5b90506020020135905060008a8a600281811061205d57fe5b90506020020135905060008b8b600381811061207557fe5b9050602002013590505b83848316141561211d578384841614156120c75787600187156120a257876120a4565b8a5b03815181106120af57fe5b60200260200101519950505050505050505050611d20565b8787815181106120d357fe5b60200260200101518887815181106120e757fe5b6020026020010181815250508887600101816120ff57fe5b06965088866001018161210e57fe5b069550600184901b935061207f565b8384841614612144578b8b8680600101975081811061213857fe5b9050602002013561215e565b875160018801978991811061215557fe5b60200260200101515b995088878161216957fe5b0696508384821614612197576121928a89898151811061218557fe5b60200260200101516121c0565b6121b4565b6121b48888815181106121a657fe5b60200260200101518b6121c0565b8887815181106120e757fe5b60009182526020526040902090565b60608467ffffffffffffffff811180156121e857600080fd5b50604051908082528060200260200182016040528015612212578160200160208202803683370190505b50905060608567ffffffffffffffff8111801561222e57600080fd5b50604051908082528060200260200182016040528015612258578160200160208202803683370190505b50905060608667ffffffffffffffff8111801561227457600080fd5b5060405190808252806020026020018201604052801561229e578160200160208202803683370190505b507fffffffffffffffffffffffffffffffffffffffffffffffffffffffffffffffff90970196905086600160008080805b848c169350848b169250848a1691508786815181106122ea57fe5b60200260200101516001901b9050848314156123915784841415612315575050505050505050611d20565b87868151811061232157fe5b60209081029190910101805160010190528561233f578c9550612385565b86517fffffffffffffffffffffffffffffffffffffffffffffffffffffffffffffffff8701968891811061236f57fe5b602002602001015161238057612385565b612315565b600185901b94506122cf565b84841415612458575b848214156123c257808987815181106123af57fe5b6020026020010181815117915081815250505b8786815181106123ce57fe5b6020908102919091010180516001019052856123ec578c9550612458565b8686815181106123f857fe5b602002602001015161242e5760018787806001900398508151811061241957fe5b91151560209283029190910190910152612458565b60018787806001900398508151811061244357fe5b9115156020928302919091019091015261239a565b84821461247f578089878151811061246c57fe5b6020026020010181815117915081815250505b87868151811061248b57fe5b6020908102919091010180516001019052856124a9578c9550612385565b86517fffffffffffffffffffffffffffffffffffffffffffffffffffffffffffffffff870196889181106124d957fe5b60200260200101516124ea57612385565b612458565b60008060606124fe8585612a1f565b915091506000805b60018411156125e45750600181901b7fffffffffffffffffffffffffffffffffffffffffffffffffffffffffffffffff84018114156125805782818151811061254b57fe5b602002602001015183838151811061255f57fe5b6020026020010181815250506000915083600116600185901c019350612506565b83811061259c576000915083600116600185901c019350612506565b6125c28382815181106125ab57fe5b602002602001015184836001018151811061218557fe5b83516001840193859181106125d357fe5b602002602001018181525050612506565b826000815181106125f157fe5b602002602001015194505050505092915050565b600080600060606126168888612bbf565b9150915060008060008888600081811061262c57fe5b60200291909101359586017fffffffffffffffffffffffffffffffffffffffffffffffffffffffffffffffff01959150819050600061266a82612c80565b63ffffffff1690508a8a8281811061267e57fe5b9050602002013598505b86156127eb578415801561269f5750816001166001145b15612739576126c68b8b838181106126b357fe5b9050602002013587868151811061218557fe5b866000815181106126d357fe5b6020908102919091010152600193909301927fffffffffffffffffffffffffffffffffffffffffffffffffffffffffffffffff01801561272c576127298b8b8381811061271c57fe5b905060200201358a6121c0565b98505b6001945090840190612794565b868210156127945761276a86858060010196508151811061275657fe5b602002602001015187868151811061218557fe5b865160018701968891811061277b57fe5b6020026020010181815250506001840193506002820191505b8682106127e657868214156127d0578584815181106127af57fe5b60200260200101518686815181106127c357fe5b6020026020010181815250505b600196871c96600095508594509290921c918291505b612688565b88866000815181106127f957fe5b6020026020010151985098505050505050505094509492505050565b60405160009061282d90829085908590602001613133565b60405160208183030381529060405280519060200120905092915050565b600080600061286f8585600081811061286057fe5b9050602002013560001c612c80565b63ffffffff16905084848281811061288357fe5b9050602002013592506128c483600060f81b89896040516020016128a993929190613133565b604051602081830303815290604052805190602001206121c0565b915060005b600182111561290a576001820391508585838181106128e457fe5b9050602002013590506128f781846121c0565b925061290381856121c0565b93506128c9565b505094509492505050565b8060608167ffffffffffffffff8111801561292f57600080fd5b50604051908082528060200260200182016040528015612959578160200160208202803683370190505b5090507fffffffffffffffffffffffffffffffffffffffffffffffffffffffffffffffff820160005b83811015612a1657600086868481811061299857fe5b90506020028101906129aa919061374d565b6040516020016129bc93929190613133565b604051602081830303815290604052805190602001208382815181106129de57fe5b60209081029190910101527fffffffffffffffffffffffffffffffffffffffffffffffffffffffffffffffff90910190600101612982565b50509250929050565b600181811c908216016060828267ffffffffffffffff81118015612a4257600080fd5b50604051908082528060200260200182016040528015612a6c578160200160208202803683370190505b5091506000805b84821015612bb55750600181901b7fffffffffffffffffffffffffffffffffffffffffffffffffffffffffffffffff8301811415612b10576000878783818110612ab957fe5b9050602002810190612acb919061374d565b604051602001612add93929190613133565b60405160208183030381529060405280519060200120848381518110612aff57fe5b602002602001018181525050612bb5565b612b936000888884818110612b2157fe5b9050602002810190612b33919061374d565b604051602001612b4593929190613133565b60405160208183030381529060405280519060200120600060f81b898985600101818110612b6f57fe5b9050602002810190612b81919061374d565b6040516020016128a993929190613133565b8451600184019386918110612ba457fe5b602002602001018181525050612a73565b5050509250929050565b8060608167ffffffffffffffff81118015612bd957600080fd5b50604051908082528060200260200182016040528015612c03578160200160208202803683370190505b50905060005b82811015612c78576000858583818110612c1f57fe5b9050602002810190612c31919061374d565b604051602001612c4393929190613133565b60405160208183030381529060405280519060200120828281518110612c6557fe5b6020908102919091010152600101612c09565b509250929050565b600181901c6355555555169003600281901c6333333333908116911601600481901c630fffffff1601630f0f0f0f1663010101010260181c60ff1690565b60008083601f840112612ccf578182fd5b50813567ffffffffffffffff811115612ce6578182fd5b6020830191508360208083028501011115612d0057600080fd5b9250929050565b60008083601f840112612d18578182fd5b50813567ffffffffffffffff811115612d2f578182fd5b602083019150836020828501011115612d0057600080fd5b600060208284031215612d58578081fd5b8135611e6e816137d8565b60008060008060008060008060c0898b031215612d7e578384fd5b8835612d89816137d8565b9750602089013567ffffffffffffffff80821115612da5578586fd5b612db18c838d01612cbe565b909950975060408b0135965060608b0135955060808b0135915080821115612dd7578485fd5b50612de48b828c01612cbe565b999c989b50969995989497949560a00135949350505050565b60008060008060808587031215612e12578384fd5b8435612e1d816137d8565b966020860135965060408601359560600135945092505050565b600080600080600060608688031215612e4e578081fd5b853567ffffffffffffffff80821115612e65578283fd5b612e7189838a01612cbe565b9097509550602088013594506040880135915080821115612e90578283fd5b50612e9d88828901612cbe565b969995985093965092949392505050565b600080600080600080600060a0888a031215612ec8578283fd5b873567ffffffffffffffff80821115612edf578485fd5b612eeb8b838c01612cbe565b909950975060208a0135965060408a0135955060608a0135915080821115612f11578485fd5b50612f1e8a828b01612cbe565b989b979a50959894979596608090950135949350505050565b600060208284031215612f48578081fd5b5035919050565b600060208284031215612f60578081fd5b5051919050565b6000806000806000806000806000806101008b8d031215612f86578182fd5b8a35995060208b013567ffffffffffffffff80821115612fa4578384fd5b612fb08e838f01612cbe565b909b50995060408d0135915080821115612fc8578384fd5b50612fd58d828e01612cbe565b9b9e9a9d50989b989a9960608a0135996080810135995060a0810135985060c0810135975060e0013595509350505050565b60008060208385031215613019578081fd5b823567ffffffffffffffff81111561302f578182fd5b61303b85828601612d07565b90969095509350505050565b60008060008060006060868803121561305e578283fd5b853567ffffffffffffffff80821115613075578485fd5b612e7189838a01612d07565b600080600080600080600060a0888a03121561309b578081fd5b873567ffffffffffffffff808211156130b2578283fd5b6130be8b838c01612d07565b909950975060208a0135965060408a0135955060608a0135915080821115612f11578283fd5b600080600080606085870312156130f9578182fd5b843567ffffffffffffffff81111561310f578283fd5b61311b87828801612d07565b90989097506020870135966040013595509350505050565b60007fff000000000000000000000000000000000000000000000000000000000000008516825282846001840137910160010190815292915050565b9283526020830191909152604082015260600190565b6000828483379101908152919050565b60008251815b818110156131b5576020818601810151858301520161319b565b818111156131c35782828501525b509190910192915050565b73ffffffffffffffffffffffffffffffffffffffff91909116815260200190565b90815260200190565b7fffffffff0000000000000000000000000000000000000000000000000000000091909116815260200190565b6020808252600a908201527f4e4f545f4c4f434b455200000000000000000000000000000000000000000000604082015260600190565b60208082526015908201527f494e53554646494349454e545f524f4c4c4241434b0000000000000000000000604082015260600190565b60208082526011908201527f524f4c4c4241434b5f5245515549524544000000000000000000000000000000604082015260600190565b60208082526010908201527f494e56414c49445f43414c4c4441544100000000000000000000000000000000604082015260600190565b60208082526013908201527f414c52454144595f494e495449414c495a454400000000000000000000000000604082015260600190565b60208082526012908201527f494e434f52524543545f43414c4c444154410000000000000000000000000000604082015260600190565b6020808252600d908201527f494e56414c49445f50524f4f4600000000000000000000000000000000000000604082015260600190565b60208082526010908201527f56414c49445f5452414e534954494f4e00000000000000000000000000000000604082015260600190565b6020808252600c908201527f494e56414c49445f545245450000000000000000000000000000000000000000604082015260600190565b6020808252600d908201527f494e56414c49445f524f4f545300000000000000000000000000000000000000604082015260600190565b6020808252600c908201527f494e56414c49445f53495a450000000000000000000000000000000000000000604082015260600190565b60208082526010908201527f4143434f554e545f554e4c4f434b454400000000000000000000000000000000604082015260600190565b60208082526014908201527f524f4c4c4241434b5f554e4e4543455353415259000000000000000000000000604082015260600190565b60208082526015908201527f494e53554646494349454e545f43414c4c444154410000000000000000000000604082015260600190565b60208082526011908201527f524f4c4c4241434b5f544f4f5f44454550000000000000000000000000000000604082015260600190565b60208082526013908201527f494e53554646494349454e545f57494e444f5700000000000000000000000000604082015260600190565b60208082526011908201527f494e495449414c495a455f4641494c4544000000000000000000000000000000604082015260600190565b60208082526010908201527f494e56414c49445f524f4c4c4241434b00000000000000000000000000000000604082015260600190565b6020808252600e908201527f4143434f554e545f4c4f434b4544000000000000000000000000000000000000604082015260600190565b60208082526011908201527f494e53554646494349454e545f54494d45000000000000000000000000000000604082015260600190565b60208082526014908201527f43414c4c45525f555345525f4d49534d41544348000000000000000000000000604082015260600190565b6020808252600c908201527f494e56414c49445f424f4e440000000000000000000000000000000000000000604082015260600190565b60208082526011908201527f494e53554646494349454e545f424f4e44000000000000000000000000000000604082015260600190565b6020808252600b908201527f43414c4c5f4641494c4544000000000000000000000000000000000000000000604082015260600190565b60008083357fffffffffffffffffffffffffffffffffffffffffffffffffffffffffffffffe1843603018112613781578283fd5b83018035915067ffffffffffffffff82111561379b578283fd5b602001915036819003821315612d0057600080fd5b600080858511156137bf578182fd5b838611156137cb578182fd5b5050820193919092039150565b73ffffffffffffffffffffffffffffffffffffffff8116811461053c57600080fdfea2646970667358221220b187c5cec9c1eedd51d1a94405468a44af129e4ae1e381092a80e87f8dabdcf864736f6c63430007030033",
  "immutableReferences": {
    "90": [
      {
        "length": 32,
        "start": 3735
      },
      {
        "length": 32,
        "start": 4983
      },
      {
        "length": 32,
        "start": 6945
      },
      {
        "length": 32,
        "start": 7556
      }
    ],
    "92": [
      {
        "length": 32,
        "start": 2731
      },
      {
        "length": 32,
        "start": 5039
      }
    ]
  },
  "source": "// SPDX-License-Identifier: MIT\n\npragma solidity >=0.6.0 <=0.7.3;\npragma experimental ABIEncoderV2;\n\nimport \"merkle-trees/eth/contracts/libraries/calldata/bytes/standard/merkle-library.sol\";\n\n// TODO: perhaps a owner-controlled sighash whitelist for optimistically performing, and therefore a non-performing exit method\n// TODO: consider verifying being view, or some kind of forced \"come up for air\" mechanism\n// TODO: make required bond queryable\n// TODO: logic_address cannot be immutable if it will be upgradeable\n// TODO: initializer cannot be immutable if it will be upgradeable\n\ncontract Optimistic_Roll_In {\n  event ORI_New_State(address indexed user, bytes32 indexed new_state);\n  event ORI_New_Optimistic_State(address indexed user, uint256 indexed block_time);\n  event ORI_New_Optimistic_States(address indexed user, uint256 indexed block_time);\n  event ORI_Locked(address indexed suspect, address indexed accuser);\n  event ORI_Unlocked(address indexed suspect, address indexed accuser);\n  event ORI_Fraud_Proven(\n    address indexed accuser,\n    address indexed suspect,\n    uint256 indexed transition_index,\n    uint256 amount\n  );\n  event ORI_Rolled_Back(address indexed user, uint256 indexed tree_size, uint256 indexed block_time);\n\n  address public immutable logic_address;\n  bytes4 public immutable initializer;\n\n  mapping(address => uint256) public balances;\n  mapping(address => bytes32) public account_states;\n  mapping(address => address) public lockers;\n  mapping(address => uint256) public locked_times;\n  mapping(address => uint256) public rollback_sizes;\n\n  constructor(address _logic_address, bytes4 _initializer) {\n    logic_address = _logic_address;\n    initializer = _initializer; //1e58e625\n  }\n\n  modifier not_initialized(address user) {\n    require(account_states[user] == bytes32(0), \"ALREADY_INITIALIZED\");\n    _;\n  }\n\n  modifier not_locked(address user) {\n    require(lockers[user] == address(0), \"ACCOUNT_LOCKED\");\n    _;\n  }\n\n  modifier is_locked(address user) {\n    require(lockers[user] != address(0), \"ACCOUNT_UNLOCKED\");\n    _;\n  }\n\n  modifier no_rollback_required(address user) {\n    require(rollback_sizes[user] == 0, \"ROLLBACK_REQUIRED\");\n    _;\n  }\n\n  modifier can_exit_optimism(uint256 last_time) {\n    // Check that enough time has elapsed for potential fraud proofs (10 minutes)\n    require(last_time + 600 < block.timestamp, \"INSUFFICIENT_TIME\");\n    _;\n  }\n\n  modifier sufficient_calldata(bytes[] calldata call_data) {\n    // Check that there is more than 1 call data (if not, user should have called perform_optimistically)\n    require(call_data.length > 1, \"INSUFFICIENT_CALLDATA\");\n    _;\n  }\n\n  modifier lock_expired(address user) {\n    require(locked_times[user] + 600 <= block.timestamp, \"INSUFFICIENT_WINDOW\");\n    _;\n  }\n\n  // Fallback to receive ETH and bond msg.value for msg.sender\n  receive() external payable {\n    apply_bond(msg.sender, msg.value);\n  }\n\n  // Bonds amount for user, and reverts if resulting balance less than 1 ETH\n  function apply_bond(address user, uint256 amount) internal {\n    if (amount == 0) {\n      require(balances[user] >= 1000000000000000000, \"INSUFFICIENT_BOND\");\n      return;\n    }\n\n    if (amount >= 1000000000000000000) {\n      balances[user] += amount;\n      return;\n    }\n\n    balances[user] += amount;\n    require(balances[user] >= 1000000000000000000, \"INSUFFICIENT_BOND\");\n  }\n\n  // Bonds msg.value for user\n  function bond(address user) public payable {\n    apply_bond(user, msg.value);\n  }\n\n  // Sets user's account state to starting point, and bonds msg.value\n  function initialize(uint256 bond_amount) external payable not_initialized(msg.sender) {\n    require(bond_amount <= msg.value, \"INVALID_BOND\");\n\n    address user = msg.sender;\n    apply_bond(user, bond_amount);\n\n    // reuse bond_amount as value being sent to initializer\n    bond_amount = msg.value - bond_amount;\n\n    // call the initializer, passing any remaining amount\n    (bool success, bytes memory return_bytes) = logic_address.call{ value: bond_amount }(\n      abi.encodeWithSelector(initializer, user)\n    );\n\n    require(success, \"INITIALIZE_FAILED\");\n\n    // Decode initial state (S_0) from returned bytes\n    bytes32 initial_state = abi.decode(return_bytes, (bytes32));\n\n    // Set account state to combination of empty call data tree, initial state (S_0), and last time of 0 (not in optimism)\n    account_states[user] = keccak256(abi.encodePacked(bytes32(0), initial_state, bytes32(0)));\n\n    emit ORI_New_State(user, initial_state);\n  }\n\n  // Allows unbonding of ETH if account not locked\n  function unbond(address payable destination) public not_locked(msg.sender) {\n    address user = msg.sender;\n    uint256 amount = balances[user];\n    balances[user] = 0;\n    destination.transfer(amount);\n  }\n\n  // Returns true if calling the logic contract with the call data results in new state\n  function verify_transition(\n    address user,\n    bytes calldata call_data,\n    bytes32 new_state\n  ) internal returns (bool) {\n    // Check that the user is the user extracted from calldata (20 bytes starting after the function signature)\n    if (user != abi.decode(call_data[4:], (address))) return false;\n\n    // Compute a new state\n    (bool success, bytes memory state_bytes) = logic_address.call(call_data);\n\n    if (!success) return false;\n\n    // Decode new state from returns bytes, reusing the state variable\n    bytes32 state = abi.decode(state_bytes, (bytes32));\n\n    return state == new_state;\n  }\n\n  // Calls logic contract and updates account state\n  function normal_perform(\n    address caller,\n    bytes calldata call_data,\n    bytes32 call_data_root,\n    uint256 last_time\n  ) internal not_locked(caller) {\n    // Check that the caller is the user extracted from calldata (20 bytes starting after the function signature)\n    require(caller == abi.decode(call_data[4:], (address)), \"CALLER_USER_MISMATCH\");\n\n    // Extract current state (S_n or S_0) from calldata (32 bytes starting after the sig and user)\n    bytes32 state = abi.decode(call_data[36:], (bytes32));\n\n    // Check that the user it not in an optimistic state, which means that their account state is\n    // an empty call data tree, current state (S_n or S_0), and the last block is 0\n    require(\n      keccak256(abi.encodePacked(call_data_root, state, bytes32(last_time))) == account_states[caller],\n      \"INVALID_ROOTS\"\n    );\n\n    // Compute a new state (S_n+1 or S_1)\n    (bool success, bytes memory state_bytes) = logic_address.call{ value: msg.value }(call_data);\n    require(success, \"CALL_FAILED\");\n\n    // Decode new state (S_n+1 or S_1) from returned bytes, reusing the state variable\n    state = abi.decode(state_bytes, (bytes32));\n\n    // Set the account state to an empty call data tree, the new state (S_n+1 or S_1), and last time 0\n    account_states[caller] = keccak256(abi.encodePacked(bytes32(0), state, bytes32(0)));\n\n    emit ORI_New_State(caller, state);\n  }\n\n  // Set the account state to the on-chain computed new state, if the account is not locked\n  function perform(bytes calldata call_data) external payable {\n    normal_perform(msg.sender, call_data, bytes32(0), 0);\n  }\n\n  // Exits optimism by setting the account state to the on-chain computed new state, if the account is not locked\n  function perform_and_exit(\n    bytes calldata call_data,\n    bytes32 call_data_root,\n    uint256 last_time\n  ) external payable no_rollback_required(msg.sender) can_exit_optimism(last_time) {\n    normal_perform(msg.sender, call_data, call_data_root, last_time);\n  }\n\n  // Updates account state with optimistic transition data\n  function optimistic_perform(\n    address caller,\n    bytes calldata call_data,\n    bytes32 new_state,\n    bytes32 call_data_root,\n    bytes32[] calldata proof,\n    uint256 last_time\n  ) internal not_locked(caller) {\n    // Extract current state (S_0) from call data (32 bytes starting after sig and user)\n    bytes32 state = abi.decode(call_data[36:], (bytes32));\n\n    // Check that the user it not in an optimistic state, which means that their account state is\n    // an empty call data tree, current state (S_0), and the last block is 0\n    require(\n      keccak256(abi.encodePacked(call_data_root, state, bytes32(last_time))) == account_states[caller],\n      \"INVALID_ROOTS\"\n    );\n\n    // Get root of new merkle tree with 1 call data element (CD_0), reusing state as call_data_root\n    state = Merkle_Library_CBS.try_append_one(call_data_root, call_data, proof);\n\n    // Combine call data root, new state (S_1), and current time into account state\n    account_states[caller] = keccak256(abi.encodePacked(state, new_state, bytes32(block.timestamp)));\n\n    emit ORI_New_Optimistic_State(caller, block.timestamp);\n  }\n\n  // Enters optimism by updating the account state optimistically with call data and a new state, if the account is not locked\n  function perform_optimistically_and_enter(\n    bytes calldata call_data,\n    bytes32 new_state,\n    bytes32[] calldata proof\n  ) external {\n    optimistic_perform(msg.sender, call_data, new_state, bytes32(0), proof, 0);\n  }\n\n  // Updates the account state optimistically with call data and a new state, if the account is not locked\n  function perform_optimistically(\n    bytes calldata call_data,\n    bytes32 new_state,\n    bytes32 call_data_root,\n    bytes32[] calldata proof,\n    uint256 last_time\n  ) external {\n    optimistic_perform(msg.sender, call_data, new_state, call_data_root, proof, last_time);\n  }\n\n  // Updates account state with optimistic batch transition data\n  function optimistic_perform_many(\n    address user,\n    bytes[] calldata call_data,\n    bytes32 new_state,\n    bytes32 call_data_root,\n    bytes32[] calldata proof,\n    uint256 last_time\n  ) internal not_locked(user) sufficient_calldata(call_data) {\n    // Extract current state (S_n) from first call data (32 bytes starting after sig and user)\n    bytes32 state = abi.decode(call_data[0][36:], (bytes32));\n\n    // Check that the call data root, current state (S_n), and last time are valid for this user\n    require(\n      keccak256(abi.encodePacked(call_data_root, state, bytes32(last_time))) == account_states[user],\n      \"INVALID_ROOTS\"\n    );\n\n    // Get new merkle root of call data tree, appending several call data (CD_n - CD_n+m), reusing state as call_data_root\n    state = Merkle_Library_CBS.try_append_many(call_data_root, call_data, proof);\n\n    // Combine call data root, new state (S_n+m), and current time into account state\n    account_states[user] = keccak256(abi.encodePacked(state, new_state, bytes32(block.timestamp)));\n\n    emit ORI_New_Optimistic_States(user, block.timestamp);\n  }\n\n  // Enters optimism by updating the account state optimistically with several call data and final state, if the account is not locked\n  function perform_many_optimistically_and_enter(\n    bytes[] calldata call_data,\n    bytes32 new_state,\n    bytes32[] calldata proof\n  ) external {\n    optimistic_perform_many(msg.sender, call_data, new_state, bytes32(0), proof, 0);\n  }\n\n  // Updates the account state optimistically with several call data and final state, if the account is not locked\n  function perform_many_optimistically(\n    bytes[] calldata call_data,\n    bytes32 new_state,\n    bytes32 call_data_root,\n    bytes32[] calldata proof,\n    uint256 last_time\n  ) external {\n    optimistic_perform_many(msg.sender, call_data, new_state, call_data_root, proof, last_time);\n  }\n\n  // Lock two users (suspect and accuser)\n  // Note: accuser and suspect cannot already be locked, but this might have to change so a single accuser isn't overwhelmed with fraud\n  function lock_user(address suspect) external payable not_locked(msg.sender) not_locked(suspect) {\n    address accuser = msg.sender;\n\n    // Lock both the accuser and the suspect\n    lockers[suspect] = accuser;\n    locked_times[suspect] = block.timestamp;\n    lockers[accuser] = accuser;\n    locked_times[accuser] = block.timestamp;\n\n    // The accuser may be trying to bond at the same time (this also check that have enough bonded)\n    apply_bond(accuser, msg.value);\n\n    emit ORI_Locked(suspect, accuser);\n  }\n\n  // Unlock two users (suspect and accuser)\n  function unlock(\n    address suspect,\n    bytes32 state,\n    bytes32 call_data_root,\n    uint256 last_time\n  ) external is_locked(suspect) lock_expired(suspect) no_rollback_required(suspect) {\n    // Check that the call data root, current state (S_n), and last time are valid for this user\n    require(\n      keccak256(abi.encodePacked(call_data_root, state, bytes32(last_time))) == account_states[suspect],\n      \"INVALID_ROOTS\"\n    );\n\n    // Unlock both accounts\n    address accuser = lockers[suspect];\n    lockers[suspect] = address(0);\n    locked_times[suspect] = 0;\n    lockers[accuser] = address(0);\n    locked_times[accuser] = 0;\n\n    // Give the suspect the accuser's bond for having not proven fraud within a reasonable time frame\n    // TODO: consider burning some here to prevent self-reporting breakeven\n    uint256 amount = balances[accuser];\n    balances[accuser] = 0;\n    balances[suspect] += amount;\n\n    // Combine call data root, current state (S_n), and current time into account state\n    // Note: updating last time is important, to prevent user blocking fraud proofs by locking themselves\n    account_states[suspect] = keccak256(abi.encodePacked(call_data_root, state, bytes32(block.timestamp)));\n\n    emit ORI_Unlocked(suspect, accuser);\n  }\n\n  // Reward accuser for proving fraud in a suspect's transition, and track the expected rolled back account state size\n  function prove_fraud(\n    address suspect,\n    bytes[] calldata call_data,\n    bytes32 state,\n    bytes32 call_data_root,\n    bytes32[] calldata proof,\n    uint256 last_time\n  ) external {\n    address accuser = msg.sender;\n\n    // Only the user that flagged/locked the suspect can prove fraud\n    require(lockers[suspect] == accuser, \"NOT_LOCKER\");\n\n    // Check that the call data root, current state (S_n), and last time are valid for this user\n    require(\n      keccak256(abi.encodePacked(call_data_root, state, bytes32(last_time))) == account_states[suspect],\n      \"INVALID_ROOTS\"\n    );\n\n    // Check that the call data exist\n    require(Merkle_Library_CBS.elements_exist(call_data_root, call_data, proof), \"INVALID_CALLDATA\");\n\n    // get the indices of the call data in the call data tre\n    uint256[] memory call_data_indices = Merkle_Library_CBS.get_indices(call_data, proof);\n\n    // The transition index is the index of the starting call data of the fraud proof\n    uint256 transition_index = call_data_indices[0];\n\n    // If only one call data is provided, the fraud involves the last call data and current state\n    if (call_data.length == 1) {\n      // Check that the call data index is the last (call data tree size minus 1)\n      require(transition_index + 1 == uint256(proof[0]), \"INCORRECT_CALLDATA\");\n\n      // Fail if the state transition was valid\n      require(verify_transition(suspect, call_data[0], state) == false, \"VALID_TRANSITION\");\n    } else {\n      // Check that call data provided are consecutive\n      require(transition_index + 1 == call_data_indices[1]);\n\n      // Extract new state from second call data (32 bytes starting after the sig and user), reusing state var\n      state = abi.decode(call_data[1][36:], (bytes32));\n\n      // Fail if the state transition was valid\n      require(verify_transition(suspect, call_data[0], state) == false, \"VALID_TRANSITION\");\n    }\n\n    // Take the suspect's bond and give it to the accuser, reusing last_time var\n    // TODO: consider burning some here to prevent self-reporting breakeven\n    last_time = balances[suspect];\n    balances[suspect] = 0;\n    balances[accuser] += last_time;\n\n    // Unlock the accuser's account\n    lockers[accuser] = address(0);\n    locked_times[accuser] = 0;\n\n    // Set the rollback size to the amount of elements that should be in the call data tree once rolled back\n    rollback_sizes[suspect] = transition_index;\n\n    // Set the suspect as the reason for their account's lock\n    lockers[suspect] = suspect;\n    locked_times[suspect] = 0;\n\n    emit ORI_Fraud_Proven(accuser, suspect, transition_index, last_time);\n  }\n\n  // Rolls a user back, given the current roots, old roots, and a proof of the optimistic transitions between them\n  function rollback(\n    bytes32 rolled_back_call_data_root,\n    bytes[] calldata rolled_back_call_data,\n    bytes32[] calldata roll_back_proof,\n    uint256 current_size,\n    bytes32 current_size_proof,\n    bytes32 call_data_root,\n    bytes32 state,\n    uint256 last_time\n  ) external payable {\n    address user = msg.sender;\n    uint256 expected_size = rollback_sizes[user];\n    require(expected_size != 0, \"ROLLBACK_UNNECESSARY\");\n\n    // Check that the call data root, current state (S_n), and last time are valid for this user\n    require(\n      keccak256(abi.encodePacked(call_data_root, state, bytes32(last_time))) == account_states[user],\n      \"INVALID_ROOTS\"\n    );\n\n    // Check that the provided size of the current call data tree is correct\n    require(Merkle_Library_CBS.verify_size(call_data_root, current_size, current_size_proof), \"INVALID_SIZE\");\n\n    // Allow incremental roll back by checking that the rolled back call data tree is smaller than the current tree\n    uint256 rolled_back_size = uint256(roll_back_proof[0]);\n    require(rolled_back_size < current_size, \"INSUFFICIENT_ROLLBACK\");\n\n    // Check that this is not rolling back too far, though\n    require(rolled_back_size >= expected_size, \"ROLLBACK_TOO_DEEP\");\n\n    // Check that the current call data root is derived by appending the rolled back call data to the rolled back call data root\n    require(\n      Merkle_Library_CBS.try_append_many(rolled_back_call_data_root, rolled_back_call_data, roll_back_proof) ==\n        call_data_root,\n      \"INVALID_ROLLBACK\"\n    );\n\n    // Extract new state from first rolled back call data (32 bytes starting after the sig and user), reusing state var\n    state = abi.decode(rolled_back_call_data[0][36:], (bytes32));\n\n    // Combine rolled back call data root, new state (S_n-m), and current time into account state\n    account_states[user] = keccak256(abi.encodePacked(rolled_back_call_data_root, state, bytes32(block.timestamp)));\n\n    // Unlock the user and clear the rollback flag, if roll back is complete\n    if (rolled_back_size == expected_size) {\n      lockers[user] = address(0);\n      rollback_sizes[user] = 0;\n    }\n\n    // The user may be trying to bond at the same time (this also check that have enough bonded)\n    apply_bond(user, msg.value);\n\n    emit ORI_Rolled_Back(user, rolled_back_size, block.timestamp);\n  }\n}\n",
  "sourcePath": "/Users/michaeldeluca/Projects/optimistic-roll-in/eth/contracts/optimistic-roll-in.sol",
  "compiler": {
    "name": "solc",
    "version": "0.7.3+commit.9bfce1f6.Emscripten.clang"
  },
  "schemaVersion": "3.3.1",
  "updatedAt": "2020-10-22T19:12:07.606Z",
  "devdoc": {
    "kind": "dev",
    "methods": {},
    "version": 1
  },
  "userdoc": {
    "kind": "user",
    "methods": {},
    "version": 1
  }
}