{
  "contractName": "Optimistic_Roll_In",
  "abi": [
    {
      "inputs": [
        {
          "internalType": "address",
          "name": "_logic_address",
          "type": "address"
        },
        {
          "internalType": "bytes4",
          "name": "_initializer",
          "type": "bytes4"
        },
        {
          "internalType": "uint256",
          "name": "_lock_time",
          "type": "uint256"
        },
        {
          "internalType": "uint256",
          "name": "_required_bond",
          "type": "uint256"
        }
      ],
      "stateMutability": "nonpayable",
      "type": "constructor"
    },
    {
      "anonymous": false,
      "inputs": [
        {
          "indexed": true,
          "internalType": "address",
          "name": "accuser",
          "type": "address"
        },
        {
          "indexed": true,
          "internalType": "address",
          "name": "suspect",
          "type": "address"
        },
        {
          "indexed": true,
          "internalType": "uint256",
          "name": "transition_index",
          "type": "uint256"
        }
      ],
      "name": "ORI_Fraud_Proven",
      "type": "event"
    },
    {
      "anonymous": false,
      "inputs": [
        {
          "indexed": true,
          "internalType": "address",
          "name": "suspect",
          "type": "address"
        },
        {
          "indexed": true,
          "internalType": "address",
          "name": "accuser",
          "type": "address"
        }
      ],
      "name": "ORI_Locked",
      "type": "event"
    },
    {
      "anonymous": false,
      "inputs": [
        {
          "indexed": true,
          "internalType": "address",
          "name": "user",
          "type": "address"
        },
        {
          "indexed": true,
          "internalType": "uint256",
          "name": "block_time",
          "type": "uint256"
        }
      ],
      "name": "ORI_New_Optimistic_State",
      "type": "event"
    },
    {
      "anonymous": false,
      "inputs": [
        {
          "indexed": true,
          "internalType": "address",
          "name": "user",
          "type": "address"
        },
        {
          "indexed": true,
          "internalType": "uint256",
          "name": "block_time",
          "type": "uint256"
        }
      ],
      "name": "ORI_New_Optimistic_States",
      "type": "event"
    },
    {
      "anonymous": false,
      "inputs": [
        {
          "indexed": true,
          "internalType": "address",
          "name": "user",
          "type": "address"
        },
        {
          "indexed": true,
          "internalType": "bytes32",
          "name": "new_state",
          "type": "bytes32"
        }
      ],
      "name": "ORI_New_State",
      "type": "event"
    },
    {
      "anonymous": false,
      "inputs": [
        {
          "indexed": true,
          "internalType": "address",
          "name": "user",
          "type": "address"
        },
        {
          "indexed": true,
          "internalType": "uint256",
          "name": "tree_size",
          "type": "uint256"
        },
        {
          "indexed": true,
          "internalType": "uint256",
          "name": "block_time",
          "type": "uint256"
        }
      ],
      "name": "ORI_Rolled_Back",
      "type": "event"
    },
    {
      "anonymous": false,
      "inputs": [
        {
          "indexed": true,
          "internalType": "address",
          "name": "suspect",
          "type": "address"
        },
        {
          "indexed": true,
          "internalType": "address",
          "name": "accuser",
          "type": "address"
        },
        {
          "indexed": true,
          "internalType": "uint256",
          "name": "block_time",
          "type": "uint256"
        }
      ],
      "name": "ORI_Unlocked",
      "type": "event"
    },
    {
      "inputs": [
        {
          "internalType": "address",
          "name": "",
          "type": "address"
        }
      ],
      "name": "account_states",
      "outputs": [
        {
          "internalType": "bytes32",
          "name": "",
          "type": "bytes32"
        }
      ],
      "stateMutability": "view",
      "type": "function",
      "constant": true
    },
    {
      "inputs": [
        {
          "internalType": "address",
          "name": "",
          "type": "address"
        }
      ],
      "name": "balances",
      "outputs": [
        {
          "internalType": "uint256",
          "name": "",
          "type": "uint256"
        }
      ],
      "stateMutability": "view",
      "type": "function",
      "constant": true
    },
    {
      "inputs": [],
      "name": "initializer",
      "outputs": [
        {
          "internalType": "bytes4",
          "name": "",
          "type": "bytes4"
        }
      ],
      "stateMutability": "view",
      "type": "function",
      "constant": true
    },
    {
      "inputs": [],
      "name": "lock_time",
      "outputs": [
        {
          "internalType": "uint256",
          "name": "",
          "type": "uint256"
        }
      ],
      "stateMutability": "view",
      "type": "function",
      "constant": true
    },
    {
      "inputs": [
        {
          "internalType": "address",
          "name": "",
          "type": "address"
        }
      ],
      "name": "locked_timestamps",
      "outputs": [
        {
          "internalType": "uint256",
          "name": "",
          "type": "uint256"
        }
      ],
      "stateMutability": "view",
      "type": "function",
      "constant": true
    },
    {
      "inputs": [
        {
          "internalType": "address",
          "name": "",
          "type": "address"
        }
      ],
      "name": "lockers",
      "outputs": [
        {
          "internalType": "address",
          "name": "",
          "type": "address"
        }
      ],
      "stateMutability": "view",
      "type": "function",
      "constant": true
    },
    {
      "inputs": [],
      "name": "logic_address",
      "outputs": [
        {
          "internalType": "address",
          "name": "",
          "type": "address"
        }
      ],
      "stateMutability": "view",
      "type": "function",
      "constant": true
    },
    {
      "inputs": [],
      "name": "required_bond",
      "outputs": [
        {
          "internalType": "uint256",
          "name": "",
          "type": "uint256"
        }
      ],
      "stateMutability": "view",
      "type": "function",
      "constant": true
    },
    {
      "inputs": [
        {
          "internalType": "address",
          "name": "",
          "type": "address"
        }
      ],
      "name": "rollback_sizes",
      "outputs": [
        {
          "internalType": "uint256",
          "name": "",
          "type": "uint256"
        }
      ],
      "stateMutability": "view",
      "type": "function",
      "constant": true
    },
    {
      "stateMutability": "payable",
      "type": "receive",
      "payable": true
    },
    {
      "inputs": [
        {
          "internalType": "address",
          "name": "user",
          "type": "address"
        }
      ],
      "name": "bond",
      "outputs": [],
      "stateMutability": "payable",
      "type": "function",
      "payable": true
    },
    {
      "inputs": [],
      "name": "initialize",
      "outputs": [],
      "stateMutability": "payable",
      "type": "function",
      "payable": true
    },
    {
      "inputs": [
        {
          "internalType": "address payable",
          "name": "destination",
          "type": "address"
        }
      ],
      "name": "unbond",
      "outputs": [],
      "stateMutability": "nonpayable",
      "type": "function"
    },
    {
      "inputs": [
        {
          "internalType": "bytes",
          "name": "call_data",
          "type": "bytes"
        }
      ],
      "name": "perform",
      "outputs": [],
      "stateMutability": "payable",
      "type": "function",
      "payable": true
    },
    {
      "inputs": [
        {
          "internalType": "bytes",
          "name": "call_data",
          "type": "bytes"
        },
        {
          "internalType": "bytes32",
          "name": "call_data_root",
          "type": "bytes32"
        },
        {
          "internalType": "uint256",
          "name": "last_time",
          "type": "uint256"
        }
      ],
      "name": "perform_and_exit",
      "outputs": [],
      "stateMutability": "payable",
      "type": "function",
      "payable": true
    },
    {
      "inputs": [
        {
          "internalType": "bytes",
          "name": "call_data",
          "type": "bytes"
        },
        {
          "internalType": "bytes32",
          "name": "new_state",
          "type": "bytes32"
        },
        {
          "internalType": "bytes32[]",
          "name": "proof",
          "type": "bytes32[]"
        }
      ],
      "name": "perform_optimistically_and_enter",
      "outputs": [],
      "stateMutability": "nonpayable",
      "type": "function"
    },
    {
      "inputs": [
        {
          "internalType": "bytes",
          "name": "call_data",
          "type": "bytes"
        },
        {
          "internalType": "bytes32",
          "name": "new_state",
          "type": "bytes32"
        },
        {
          "internalType": "bytes32",
          "name": "call_data_root",
          "type": "bytes32"
        },
        {
          "internalType": "bytes32[]",
          "name": "proof",
          "type": "bytes32[]"
        },
        {
          "internalType": "uint256",
          "name": "last_time",
          "type": "uint256"
        }
      ],
      "name": "perform_optimistically",
      "outputs": [],
      "stateMutability": "nonpayable",
      "type": "function"
    },
    {
      "inputs": [
        {
          "internalType": "bytes[]",
          "name": "call_data",
          "type": "bytes[]"
        },
        {
          "internalType": "bytes32",
          "name": "new_state",
          "type": "bytes32"
        },
        {
          "internalType": "bytes32[]",
          "name": "proof",
          "type": "bytes32[]"
        }
      ],
      "name": "perform_many_optimistically_and_enter",
      "outputs": [],
      "stateMutability": "nonpayable",
      "type": "function"
    },
    {
      "inputs": [
        {
          "internalType": "bytes[]",
          "name": "call_data",
          "type": "bytes[]"
        },
        {
          "internalType": "bytes32",
          "name": "new_state",
          "type": "bytes32"
        },
        {
          "internalType": "bytes32",
          "name": "call_data_root",
          "type": "bytes32"
        },
        {
          "internalType": "bytes32[]",
          "name": "proof",
          "type": "bytes32[]"
        },
        {
          "internalType": "uint256",
          "name": "last_time",
          "type": "uint256"
        }
      ],
      "name": "perform_many_optimistically",
      "outputs": [],
      "stateMutability": "nonpayable",
      "type": "function"
    },
    {
      "inputs": [
        {
          "internalType": "address",
          "name": "suspect",
          "type": "address"
        }
      ],
      "name": "lock",
      "outputs": [],
      "stateMutability": "payable",
      "type": "function",
      "payable": true
    },
    {
      "inputs": [
        {
          "internalType": "address",
          "name": "suspect",
          "type": "address"
        },
        {
          "internalType": "bytes32",
          "name": "state",
          "type": "bytes32"
        },
        {
          "internalType": "bytes32",
          "name": "call_data_root",
          "type": "bytes32"
        },
        {
          "internalType": "uint256",
          "name": "last_time",
          "type": "uint256"
        }
      ],
      "name": "unlock",
      "outputs": [],
      "stateMutability": "nonpayable",
      "type": "function"
    },
    {
      "inputs": [
        {
          "internalType": "address",
          "name": "suspect",
          "type": "address"
        },
        {
          "internalType": "bytes[]",
          "name": "call_data",
          "type": "bytes[]"
        },
        {
          "internalType": "bytes32",
          "name": "state",
          "type": "bytes32"
        },
        {
          "internalType": "bytes32",
          "name": "call_data_root",
          "type": "bytes32"
        },
        {
          "internalType": "bytes32[]",
          "name": "proof",
          "type": "bytes32[]"
        },
        {
          "internalType": "uint256",
          "name": "last_time",
          "type": "uint256"
        }
      ],
      "name": "prove_fraud",
      "outputs": [],
      "stateMutability": "nonpayable",
      "type": "function"
    },
    {
      "inputs": [
        {
          "internalType": "bytes32",
          "name": "rolled_back_call_data_root",
          "type": "bytes32"
        },
        {
          "internalType": "bytes[]",
          "name": "rolled_back_call_data",
          "type": "bytes[]"
        },
        {
          "internalType": "bytes32[]",
          "name": "roll_back_proof",
          "type": "bytes32[]"
        },
        {
          "internalType": "uint256",
          "name": "current_size",
          "type": "uint256"
        },
        {
          "internalType": "bytes32",
          "name": "current_size_proof",
          "type": "bytes32"
        },
        {
          "internalType": "bytes32",
          "name": "call_data_root",
          "type": "bytes32"
        },
        {
          "internalType": "bytes32",
          "name": "state",
          "type": "bytes32"
        },
        {
          "internalType": "uint256",
          "name": "last_time",
          "type": "uint256"
        }
      ],
      "name": "rollback",
      "outputs": [],
      "stateMutability": "payable",
      "type": "function",
      "payable": true
    }
  ],
  "bytecode": "0x6101006040523480156200001257600080fd5b5060405162003af038038062003af083398101604081905262000035916200007c565b60609390931b6001600160601b0319166080527fffffffff000000000000000000000000000000000000000000000000000000009190911660a05260c05260e052620000f5565b6000806000806080858703121562000092578384fd5b84516001600160a01b0381168114620000a9578485fd5b60208601519094507fffffffff0000000000000000000000000000000000000000000000000000000081168114620000df578384fd5b6040860151606090960151949790965092505050565b60805160601c60a05160e01c60e01b60c05160e05161398f6200016160003980610424528061045252806104db52806110815250806105e8528061067f52806109d05250806107565280610cb552508061071e52806110b75280611c805280611ee3525061398f6000f3fe6080604052600436106101795760003560e01c80638ee16d13116100cb578063bb6ae2cb1161007f578063e112420011610059578063e1124200146103b6578063e4da61ab146103c9578063f435f5a7146103e95761018a565b8063bb6ae2cb1461036e578063c0c4526714610381578063c45481bb146103965761018a565b8063a68f5913116100b0578063a68f591314610319578063af7b5a4114610339578063b2055400146103595761018a565b80638ee16d13146102d75780639ce110d7146102f75761018a565b80632a4154541161012d5780636a8dddef116101075780636a8dddef1461028f5780637a9f05b5146102af5780638129fc1c146102cf5761018a565b80632a4154541461023a5780632c8e7a211461024d578063480bb7c41461027a5761018a565b8063177f15c51161015e578063177f15c5146101d1578063247ce85b146101f157806327e235e3146102045761018a565b806308542bb11461018f5780631646d051146101b15761018a565b3661018a57610187336103fc565b50005b600080fd5b34801561019b57600080fd5b506101af6101aa366004612f96565b610506565b005b3480156101bd57600080fd5b506101af6101cc3660046131e0565b61051e565b3480156101dd57600080fd5b506101af6101ec3660046131a6565b610537565b6101af6101ff366004612ea6565b610548565b34801561021057600080fd5b5061022461021f366004612ea6565b61058b565b604051610231919061334e565b60405180910390f35b6101af610248366004613243565b61059d565b34801561025957600080fd5b5061026d610268366004612ea6565b610655565b604051610231919061332d565b34801561028657600080fd5b5061022461067d565b34801561029b57600080fd5b506101af6102aa36600461300d565b6106a1565b3480156102bb57600080fd5b506102246102ca366004612ea6565b6106b1565b6101af6106c3565b3480156102e357600080fd5b506101af6102f2366004612f5c565b610945565b34801561030357600080fd5b5061030c610cb3565b6040516102319190613357565b34801561032557600080fd5b506101af610334366004612ec2565b610cd7565b34801561034557600080fd5b50610224610354366004612ea6565b61106d565b34801561036557600080fd5b5061022461107f565b6101af61037c366004613166565b6110a3565b34801561038d57600080fd5b5061026d6110b5565b3480156103a257600080fd5b506102246103b1366004612ea6565b6110d9565b6101af6103c43660046130c6565b6110eb565b3480156103d557600080fd5b506101af6103e4366004612ea6565b61146e565b6101af6103f7366004612ea6565b611524565b73ffffffffffffffffffffffffffffffffffffffff81166000908152602081905260408120547f00000000000000000000000000000000000000000000000000000000000000001415610450575034610501565b7f00000000000000000000000000000000000000000000000000000000000000003410156104b3576040517f08c379a00000000000000000000000000000000000000000000000000000000081526004016104aa9061383e565b60405180910390fd5b5073ffffffffffffffffffffffffffffffffffffffff811660009081526020819052604090207f00000000000000000000000000000000000000000000000000000000000000009081905534035b919050565b6105173386868660008787826116fd565b5050505050565b61052e3388888888888888611934565b50505050505050565b610517338686866000878782611934565b610551816103fc565b15610588576040517f08c379a00000000000000000000000000000000000000000000000000000000081526004016104aa90613807565b50565b60006020819052908152604090205481565b33600081815260046020526040902054156105e4576040517f08c379a00000000000000000000000000000000000000000000000000000000081526004016104aa906133f2565b81427f0000000000000000000000000000000000000000000000000000000000000000820110610640576040517f08c379a00000000000000000000000000000000000000000000000000000000081526004016104aa90613799565b61064d3387878787611af1565b505050505050565b60026020526000908152604090205473ffffffffffffffffffffffffffffffffffffffff1681565b7f000000000000000000000000000000000000000000000000000000000000000081565b61052e33888888888888886116fd565b60036020526000908152604090205481565b336000818152600160205260409020541561070a576040517f08c379a00000000000000000000000000000000000000000000000000000000081526004016104aa90613460565b336000610716826103fc565b9050600060607f000000000000000000000000000000000000000000000000000000000000000073ffffffffffffffffffffffffffffffffffffffff16837f000000000000000000000000000000000000000000000000000000000000000086604051602401610786919061332d565b604080517fffffffffffffffffffffffffffffffffffffffffffffffffffffffffffffffe08184030181529181526020820180517bffffffffffffffffffffffffffffffffffffffffffffffffffffffff167fffffffff0000000000000000000000000000000000000000000000000000000090941693909317909252905161080f91906132f4565b60006040518083038185875af1925050503d806000811461084c576040519150601f19603f3d011682016040523d82523d6000602084013e610851565b606091505b50915091508161088d576040517f08c379a00000000000000000000000000000000000000000000000000000000081526004016104aa906136f4565b6000818060200190518101906108a391906130ae565b6040519091506108bc90600090839082906020016132ce565b604080517fffffffffffffffffffffffffffffffffffffffffffffffffffffffffffffffe0818403018152828252805160209182012073ffffffffffffffffffffffffffffffffffffffff8916600081815260019093529282205583927f0f5025cc4f20aa47a346d1b7d9da6ba8c68cc8e83b75e813da4b4490d55365ae9190a3505050505050565b73ffffffffffffffffffffffffffffffffffffffff8085166000908152600260205260409020548591166109a5576040517f08c379a00000000000000000000000000000000000000000000000000000000081526004016104aa906135e1565b73ffffffffffffffffffffffffffffffffffffffff85166000908152600360205260409020548590427f00000000000000000000000000000000000000000000000000000000000000009091011115610a2a576040517f08c379a00000000000000000000000000000000000000000000000000000000081526004016104aa906136bd565b73ffffffffffffffffffffffffffffffffffffffff8616600090815260046020526040902054869015610a89576040517f08c379a00000000000000000000000000000000000000000000000000000000081526004016104aa906133f2565b73ffffffffffffffffffffffffffffffffffffffff8716600090815260016020908152604091829020549151610ac59188918a918991016132ce565b6040516020818303038152906040528051906020012014610b12576040517f08c379a00000000000000000000000000000000000000000000000000000000081526004016104aa90613573565b73ffffffffffffffffffffffffffffffffffffffff808816600081815260026020818152604080842080547fffffffffffffffffffffffff0000000000000000000000000000000000000000808216909255600380855283872087905597168086529383528185208054909116905594815284832083905582905283822080549083905592825292902080548201905585610c0a5760008273ffffffffffffffffffffffffffffffffffffffff168a73ffffffffffffffffffffffffffffffffffffffff167fd896484469c47833eb445d62b95b9dd6b28d0c050a9b7f2ce8902d137316500e60405160405180910390a4505061052e565b604051610c1f9088908a9042906020016132ce565b604080517fffffffffffffffffffffffffffffffffffffffffffffffffffffffffffffffe0818403018152828252805160209182012073ffffffffffffffffffffffffffffffffffffffff808e166000818152600190945293832091909155429390861692917fd896484469c47833eb445d62b95b9dd6b28d0c050a9b7f2ce8902d137316500e91a4505050505050505050565b7f000000000000000000000000000000000000000000000000000000000000000081565b73ffffffffffffffffffffffffffffffffffffffff8881166000908152600260205260409020543391168114610d39576040517f08c379a00000000000000000000000000000000000000000000000000000000081526004016104aa90613384565b73ffffffffffffffffffffffffffffffffffffffff8916600090815260016020908152604091829020549151610d759188918a918791016132ce565b6040516020818303038152906040528051906020012014610dc2576040517f08c379a00000000000000000000000000000000000000000000000000000000081526004016104aa90613573565b610dcf8589898787611dfd565b610e05576040517f08c379a00000000000000000000000000000000000000000000000000000000081526004016104aa90613429565b6060610e1389898787611e35565b9050600081600081518110610e2457fe5b602002602001015190508989905060011415610ef15785856000818110610e4757fe5b9050602002013560001c8160010114610e8c576040517f08c379a00000000000000000000000000000000000000000000000000000000081526004016104aa90613497565b610eb58b8b8b6000818110610e9d57fe5b9050602002810190610eaf91906138ac565b8b611e87565b15610eec576040517f08c379a00000000000000000000000000000000000000000000000000000000081526004016104aa90613505565b610f98565b81600181518110610efe57fe5b60200260200101518160010114610f1457600080fd5b89896001818110610f2157fe5b9050602002810190610f3391906138ac565b610f4191602490829061390f565b810190610f4e9190613096565b9750610f618b8b8b6000818110610e9d57fe5b15610f98576040517f08c379a00000000000000000000000000000000000000000000000000000000081526004016104aa90613505565b73ffffffffffffffffffffffffffffffffffffffff808c16600081815260208181526040808320805490849055948816808452818420805487019055600280845282852080547fffffffffffffffffffffffff00000000000000000000000000000000000000009081169091556003808652848720879055878752600486528487208a905591855283862080549091168717905590925280832083905551939750849390917f55469cdf3fd81a478fed2a1491832e3d145bf2ab3c6a6fbb187022b3885b90fd91a45050505050505050505050565b60016020526000908152604090205481565b7f000000000000000000000000000000000000000000000000000000000000000081565b6110b1338383600080611af1565b5050565b7f000000000000000000000000000000000000000000000000000000000000000081565b60046020526000908152604090205481565b3360008181526004602052604090205480611132576040517f08c379a00000000000000000000000000000000000000000000000000000000081526004016104aa90613618565b73ffffffffffffffffffffffffffffffffffffffff821660009081526001602090815260409182902054915161116e91889188918891016132ce565b60405160208183030381529060405280519060200120146111bb576040517f08c379a00000000000000000000000000000000000000000000000000000000081526004016104aa90613573565b6111c6858888611fa3565b6111fc576040517f08c379a00000000000000000000000000000000000000000000000000000000081526004016104aa906135aa565b60008989600081811061120b57fe5b9050602002013560001c9050878110611250576040517f08c379a00000000000000000000000000000000000000000000000000000000081526004016104aa906133bb565b8181101561128a576040517f08c379a00000000000000000000000000000000000000000000000000000000081526004016104aa90613686565b856112988e8e8e8e8e611fd4565b146112cf576040517f08c379a00000000000000000000000000000000000000000000000000000000081526004016104aa9061372b565b8b8b60008181106112dc57fe5b90506020028101906112ee91906138ac565b6112fc91602490829061390f565b8101906113099190613096565b604051909550611321908e90879042906020016132ce565b604080517fffffffffffffffffffffffffffffffffffffffffffffffffffffffffffffffe0818403018152918152815160209283012073ffffffffffffffffffffffffffffffffffffffff861660009081526001909352912055808214156113da5773ffffffffffffffffffffffffffffffffffffffff8316600090815260026020908152604080832080547fffffffffffffffffffffffff000000000000000000000000000000000000000016905560049091528120555b6113e3836103fc565b1561141a576040517f08c379a00000000000000000000000000000000000000000000000000000000081526004016104aa90613807565b42818473ffffffffffffffffffffffffffffffffffffffff167f4d7ed8c49e6b03daee23a18f4bd14bd7e4628e5ed54c57bf84407a693867eca960405160405180910390a450505050505050505050505050565b3360008181526002602052604090205473ffffffffffffffffffffffffffffffffffffffff16156114cb576040517f08c379a00000000000000000000000000000000000000000000000000000000081526004016104aa90613762565b336000818152602081905260408082208054908390559051909173ffffffffffffffffffffffffffffffffffffffff86169183156108fc0291849190818181858888f19350505050158015610517573d6000803e3d6000fd5b3360008181526002602052604090205473ffffffffffffffffffffffffffffffffffffffff1615611581576040517f08c379a00000000000000000000000000000000000000000000000000000000081526004016104aa90613762565b73ffffffffffffffffffffffffffffffffffffffff808316600090815260026020526040902054839116156115e2576040517f08c379a00000000000000000000000000000000000000000000000000000000081526004016104aa90613762565b73ffffffffffffffffffffffffffffffffffffffff831660009081526002602081815260408084208054337fffffffffffffffffffffffff00000000000000000000000000000000000000009182168117909255600380855283872042908190558388529585528387208054909216831790915590925290922055611666816103fc565b1561169d576040517f08c379a00000000000000000000000000000000000000000000000000000000081526004016104aa90613807565b8073ffffffffffffffffffffffffffffffffffffffff168473ffffffffffffffffffffffffffffffffffffffff167f8773bde6581ad6ddd421210de867340039fb65ce3df41edba7b5de6d24ae7a5160405160405180910390a350505050565b73ffffffffffffffffffffffffffffffffffffffff8089166000908152600260205260409020548991161561175e576040517f08c379a00000000000000000000000000000000000000000000000000000000081526004016104aa90613762565b87876001811161179a576040517f08c379a00000000000000000000000000000000000000000000000000000000081526004016104aa9061364f565b60008a8a60008181106117a957fe5b90506020028101906117bb91906138ac565b6117c991602490829061390f565b8101906117d69190613096565b73ffffffffffffffffffffffffffffffffffffffff8d166000908152600160209081526040918290205491519293509091611817918b9185918a91016132ce565b6040516020818303038152906040528051906020012014611864576040517f08c379a00000000000000000000000000000000000000000000000000000000081526004016104aa90613573565b611871888c8c8a8a611fd4565b6040519091506118899082908b9042906020016132ce565b60405160208183030381529060405280519060200120600160008e73ffffffffffffffffffffffffffffffffffffffff1673ffffffffffffffffffffffffffffffffffffffff16815260200190815260200160002081905550428c73ffffffffffffffffffffffffffffffffffffffff167f0b87b136840d19f5f25329273082c00833265a189b70137e06df6315ddc7839e60405160405180910390a3505050505050505050505050565b73ffffffffffffffffffffffffffffffffffffffff80891660009081526002602052604090205489911615611995576040517f08c379a00000000000000000000000000000000000000000000000000000000081526004016104aa90613762565b60006119a4886024818c61390f565b8101906119b19190613096565b73ffffffffffffffffffffffffffffffffffffffff8b1660009081526001602090815260409182902054915192935090916119f291899185918891016132ce565b6040516020818303038152906040528051906020012014611a3f576040517f08c379a00000000000000000000000000000000000000000000000000000000081526004016104aa90613573565b611a4c868a8a88886120b1565b604051909150611a64908290899042906020016132ce565b604080517fffffffffffffffffffffffffffffffffffffffffffffffffffffffffffffffe0818403018152828252805160209182012073ffffffffffffffffffffffffffffffffffffffff8e16600081815260019093529282205542927f4779c4b07abff82b16061ec9a47d081e7f4981c29088395cdb7ff87e322cbbc69190a350505050505050505050565b73ffffffffffffffffffffffffffffffffffffffff80861660009081526002602052604090205486911615611b52576040517f08c379a00000000000000000000000000000000000000000000000000000000081526004016104aa90613762565b611b5f846004818861390f565b810190611b6c9190612ea6565b73ffffffffffffffffffffffffffffffffffffffff168673ffffffffffffffffffffffffffffffffffffffff1614611bd0576040517f08c379a00000000000000000000000000000000000000000000000000000000081526004016104aa906137d0565b6000611bdf856024818961390f565b810190611bec9190613096565b73ffffffffffffffffffffffffffffffffffffffff88166000908152600160209081526040918290205491519293509091611c2d91879185918891016132ce565b6040516020818303038152906040528051906020012014611c7a576040517f08c379a00000000000000000000000000000000000000000000000000000000081526004016104aa90613573565b600060607f000000000000000000000000000000000000000000000000000000000000000073ffffffffffffffffffffffffffffffffffffffff16348989604051611cc69291906132e4565b60006040518083038185875af1925050503d8060008114611d03576040519150601f19603f3d011682016040523d82523d6000602084013e611d08565b606091505b509150915081611d44576040517f08c379a00000000000000000000000000000000000000000000000000000000081526004016104aa90613875565b80806020019051810190611d5891906130ae565b604051909350611d7190600090859082906020016132ce565b604080517fffffffffffffffffffffffffffffffffffffffffffffffffffffffffffffffe0818403018152828252805160209182012073ffffffffffffffffffffffffffffffffffffffff8d16600081815260019093529282205585927f0f5025cc4f20aa47a346d1b7d9da6ba8c68cc8e83b75e813da4b4490d55365ae9190a3505050505050505050565b600085611e2884846000818110611e1057fe5b90506020020135611e238888888861217c565b61231f565b1490505b95945050505050565b6060611e7c8484846001818110611e4857fe5b9050602002013585856002818110611e5c57fe5b9050602002013586866003818110611e7057fe5b9050602002013561232e565b90505b949350505050565b6000611e96836004818761390f565b810190611ea39190612ea6565b73ffffffffffffffffffffffffffffffffffffffff168573ffffffffffffffffffffffffffffffffffffffff1614611edd57506000611e7f565b600060607f000000000000000000000000000000000000000000000000000000000000000073ffffffffffffffffffffffffffffffffffffffff168686604051611f289291906132e4565b6000604051808303816000865af19150503d8060008114611f65576040519150601f19603f3d011682016040523d82523d6000602084013e611f6a565b606091505b509150915081611f7f57600092505050611e7f565b600081806020019051810190611f9591906130ae565b909414979650505050505050565b600083158015611fb1575082155b15611fbe57506001611fcd565b83611fc9848461231f565b1490505b9392505050565b60008083836000818110611fe457fe5b6020029190910135915050861581151461202a576040517f08c379a00000000000000000000000000000000000000000000000000000000081526004016104aa9061353c565b866120455761203d85611e23888261264e565b915050611e2c565b600061205387878787612764565b9350905087612062838361231f565b14612099576040517f08c379a00000000000000000000000000000000000000000000000000000000081526004016104aa906134ce565b6120a58287018461231f565b98975050505050505050565b600080838360008181106120c157fe5b60200291909101359150508615811514612107576040517f08c379a00000000000000000000000000000000000000000000000000000000081526004016104aa9061353c565b8661211b5761203d6001611e238888612974565b6000612129878787876129aa565b9350905087612138838361231f565b1461216f576040517f08c379a00000000000000000000000000000000000000000000000000000000081526004016104aa906134ce565b6120a5600183018461231f565b600080606061218b8787612a74565b909250905060008060046001828989838181106121a457fe5b90506020020135905060008a8a60028181106121bc57fe5b90506020020135905060008b8b60038181106121d457fe5b9050602002013590505b83848316141561227c578384841614156122265787600187156122015787612203565b8a5b038151811061220e57fe5b60200260200101519950505050505050505050611e7f565b87878151811061223257fe5b602002602001015188878151811061224657fe5b60200260200101818152505088876001018161225e57fe5b06965088866001018161226d57fe5b069550600184901b93506121de565b83848416146122a3578b8b8680600101975081811061229757fe5b905060200201356122bd565b87516001880197899181106122b457fe5b60200260200101515b99508887816122c857fe5b06965083848216146122f6576122f18a8989815181106122e457fe5b602002602001015161231f565b612313565b61231388888151811061230557fe5b60200260200101518b61231f565b88878151811061224657fe5b60009182526020526040902090565b60608467ffffffffffffffff8111801561234757600080fd5b50604051908082528060200260200182016040528015612371578160200160208202803683370190505b50905060608567ffffffffffffffff8111801561238d57600080fd5b506040519080825280602002602001820160405280156123b7578160200160208202803683370190505b50905060608667ffffffffffffffff811180156123d357600080fd5b506040519080825280602002602001820160405280156123fd578160200160208202803683370190505b507fffffffffffffffffffffffffffffffffffffffffffffffffffffffffffffffff90970196905086600160008080805b848c169350848b169250848a16915087868151811061244957fe5b60200260200101516001901b9050848314156124f05784841415612474575050505050505050611e7f565b87868151811061248057fe5b60209081029190910101805160010190528561249e578c95506124e4565b86517fffffffffffffffffffffffffffffffffffffffffffffffffffffffffffffffff870196889181106124ce57fe5b60200260200101516124df576124e4565b612474565b600185901b945061242e565b848414156125b7575b84821415612521578089878151811061250e57fe5b6020026020010181815117915081815250505b87868151811061252d57fe5b60209081029190910101805160010190528561254b578c95506125b7565b86868151811061255757fe5b602002602001015161258d5760018787806001900398508151811061257857fe5b911515602092830291909101909101526125b7565b6001878780600190039850815181106125a257fe5b911515602092830291909101909101526124f9565b8482146125de57808987815181106125cb57fe5b6020026020010181815117915081815250505b8786815181106125ea57fe5b602090810291909101018051600101905285612608578c95506124e4565b86517fffffffffffffffffffffffffffffffffffffffffffffffffffffffffffffffff8701968891811061263857fe5b6020026020010151612649576124e4565b6125b7565b600080606061265d8585612b7e565b915091506000805b60018411156127435750600181901b7fffffffffffffffffffffffffffffffffffffffffffffffffffffffffffffffff84018114156126df578281815181106126aa57fe5b60200260200101518383815181106126be57fe5b6020026020010181815250506000915083600116600185901c019350612665565b8381106126fb576000915083600116600185901c019350612665565b61272183828151811061270a57fe5b60200260200101518483600101815181106122e457fe5b835160018401938591811061273257fe5b602002602001018181525050612665565b8260008151811061275057fe5b602002602001015194505050505092915050565b600080600060606127758888612d1e565b9150915060008060008888600081811061278b57fe5b60200291909101359586017fffffffffffffffffffffffffffffffffffffffffffffffffffffffffffffffff0195915081905060006127c982612ddf565b63ffffffff1690508a8a828181106127dd57fe5b9050602002013598505b861561294a57841580156127fe5750816001166001145b15612898576128258b8b8381811061281257fe5b905060200201358786815181106122e457fe5b8660008151811061283257fe5b6020908102919091010152600193909301927fffffffffffffffffffffffffffffffffffffffffffffffffffffffffffffffff01801561288b576128888b8b8381811061287b57fe5b905060200201358a61231f565b98505b60019450908401906128f3565b868210156128f3576128c98685806001019650815181106128b557fe5b60200260200101518786815181106122e457fe5b86516001870196889181106128da57fe5b6020026020010181815250506001840193506002820191505b868210612945578682141561292f5785848151811061290e57fe5b602002602001015186868151811061292257fe5b6020026020010181815250505b600196871c96600095508594509290921c918291505b6127e7565b888660008151811061295857fe5b6020026020010151985098505050505050505094509492505050565b60405160009061298c90829085908590602001613292565b60405160208183030381529060405280519060200120905092915050565b60008060006129ce858560008181106129bf57fe5b9050602002013560001c612ddf565b63ffffffff1690508484828181106129e257fe5b905060200201359250612a2383600060f81b8989604051602001612a0893929190613292565b6040516020818303038152906040528051906020012061231f565b915060005b6001821115612a6957600182039150858583818110612a4357fe5b905060200201359050612a56818461231f565b9250612a62818561231f565b9350612a28565b505094509492505050565b8060608167ffffffffffffffff81118015612a8e57600080fd5b50604051908082528060200260200182016040528015612ab8578160200160208202803683370190505b5090507fffffffffffffffffffffffffffffffffffffffffffffffffffffffffffffffff820160005b83811015612b75576000868684818110612af757fe5b9050602002810190612b0991906138ac565b604051602001612b1b93929190613292565b60405160208183030381529060405280519060200120838281518110612b3d57fe5b60209081029190910101527fffffffffffffffffffffffffffffffffffffffffffffffffffffffffffffffff90910190600101612ae1565b50509250929050565b600181811c908216016060828267ffffffffffffffff81118015612ba157600080fd5b50604051908082528060200260200182016040528015612bcb578160200160208202803683370190505b5091506000805b84821015612d145750600181901b7fffffffffffffffffffffffffffffffffffffffffffffffffffffffffffffffff8301811415612c6f576000878783818110612c1857fe5b9050602002810190612c2a91906138ac565b604051602001612c3c93929190613292565b60405160208183030381529060405280519060200120848381518110612c5e57fe5b602002602001018181525050612d14565b612cf26000888884818110612c8057fe5b9050602002810190612c9291906138ac565b604051602001612ca493929190613292565b60405160208183030381529060405280519060200120600060f81b898985600101818110612cce57fe5b9050602002810190612ce091906138ac565b604051602001612a0893929190613292565b8451600184019386918110612d0357fe5b602002602001018181525050612bd2565b5050509250929050565b8060608167ffffffffffffffff81118015612d3857600080fd5b50604051908082528060200260200182016040528015612d62578160200160208202803683370190505b50905060005b82811015612dd7576000858583818110612d7e57fe5b9050602002810190612d9091906138ac565b604051602001612da293929190613292565b60405160208183030381529060405280519060200120828281518110612dc457fe5b6020908102919091010152600101612d68565b509250929050565b600181901c6355555555169003600281901c6333333333908116911601600481901c630fffffff1601630f0f0f0f1663010101010260181c60ff1690565b60008083601f840112612e2e578182fd5b50813567ffffffffffffffff811115612e45578182fd5b6020830191508360208083028501011115612e5f57600080fd5b9250929050565b60008083601f840112612e77578182fd5b50813567ffffffffffffffff811115612e8e578182fd5b602083019150836020828501011115612e5f57600080fd5b600060208284031215612eb7578081fd5b8135611fcd81613937565b60008060008060008060008060c0898b031215612edd578384fd5b8835612ee881613937565b9750602089013567ffffffffffffffff80821115612f04578586fd5b612f108c838d01612e1d565b909950975060408b0135965060608b0135955060808b0135915080821115612f36578485fd5b50612f438b828c01612e1d565b999c989b50969995989497949560a00135949350505050565b60008060008060808587031215612f71578384fd5b8435612f7c81613937565b966020860135965060408601359560600135945092505050565b600080600080600060608688031215612fad578081fd5b853567ffffffffffffffff80821115612fc4578283fd5b612fd089838a01612e1d565b9097509550602088013594506040880135915080821115612fef578283fd5b50612ffc88828901612e1d565b969995985093965092949392505050565b600080600080600080600060a0888a031215613027578283fd5b873567ffffffffffffffff8082111561303e578485fd5b61304a8b838c01612e1d565b909950975060208a0135965060408a0135955060608a0135915080821115613070578485fd5b5061307d8a828b01612e1d565b989b979a50959894979596608090950135949350505050565b6000602082840312156130a7578081fd5b5035919050565b6000602082840312156130bf578081fd5b5051919050565b6000806000806000806000806000806101008b8d0312156130e5578182fd5b8a35995060208b013567ffffffffffffffff80821115613103578384fd5b61310f8e838f01612e1d565b909b50995060408d0135915080821115613127578384fd5b506131348d828e01612e1d565b9b9e9a9d50989b989a9960608a0135996080810135995060a0810135985060c0810135975060e0013595509350505050565b60008060208385031215613178578081fd5b823567ffffffffffffffff81111561318e578182fd5b61319a85828601612e66565b90969095509350505050565b6000806000806000606086880312156131bd578283fd5b853567ffffffffffffffff808211156131d4578485fd5b612fd089838a01612e66565b600080600080600080600060a0888a0312156131fa578081fd5b873567ffffffffffffffff80821115613211578283fd5b61321d8b838c01612e66565b909950975060208a0135965060408a0135955060608a0135915080821115613070578283fd5b60008060008060608587031215613258578182fd5b843567ffffffffffffffff81111561326e578283fd5b61327a87828801612e66565b90989097506020870135966040013595509350505050565b60007fff000000000000000000000000000000000000000000000000000000000000008516825282846001840137910160010190815292915050565b9283526020830191909152604082015260600190565b6000828483379101908152919050565b60008251815b8181101561331457602081860181015185830152016132fa565b818111156133225782828501525b509190910192915050565b73ffffffffffffffffffffffffffffffffffffffff91909116815260200190565b90815260200190565b7fffffffff0000000000000000000000000000000000000000000000000000000091909116815260200190565b6020808252600a908201527f4e4f545f4c4f434b455200000000000000000000000000000000000000000000604082015260600190565b60208082526015908201527f494e53554646494349454e545f524f4c4c4241434b0000000000000000000000604082015260600190565b60208082526011908201527f524f4c4c4241434b5f5245515549524544000000000000000000000000000000604082015260600190565b60208082526010908201527f494e56414c49445f43414c4c4441544100000000000000000000000000000000604082015260600190565b60208082526013908201527f414c52454144595f494e495449414c495a454400000000000000000000000000604082015260600190565b60208082526012908201527f494e434f52524543545f43414c4c444154410000000000000000000000000000604082015260600190565b6020808252600d908201527f494e56414c49445f50524f4f4600000000000000000000000000000000000000604082015260600190565b60208082526010908201527f56414c49445f5452414e534954494f4e00000000000000000000000000000000604082015260600190565b6020808252600c908201527f494e56414c49445f545245450000000000000000000000000000000000000000604082015260600190565b6020808252600d908201527f494e56414c49445f524f4f545300000000000000000000000000000000000000604082015260600190565b6020808252600c908201527f494e56414c49445f53495a450000000000000000000000000000000000000000604082015260600190565b60208082526010908201527f4143434f554e545f554e4c4f434b454400000000000000000000000000000000604082015260600190565b60208082526014908201527f524f4c4c4241434b5f554e4e4543455353415259000000000000000000000000604082015260600190565b60208082526015908201527f494e53554646494349454e545f43414c4c444154410000000000000000000000604082015260600190565b60208082526011908201527f524f4c4c4241434b5f544f4f5f44454550000000000000000000000000000000604082015260600190565b60208082526013908201527f494e53554646494349454e545f57494e444f5700000000000000000000000000604082015260600190565b60208082526011908201527f494e495449414c495a455f4641494c4544000000000000000000000000000000604082015260600190565b60208082526010908201527f494e56414c49445f524f4c4c4241434b00000000000000000000000000000000604082015260600190565b6020808252600e908201527f4143434f554e545f4c4f434b4544000000000000000000000000000000000000604082015260600190565b60208082526011908201527f494e53554646494349454e545f54494d45000000000000000000000000000000604082015260600190565b60208082526014908201527f43414c4c45525f555345525f4d49534d41544348000000000000000000000000604082015260600190565b6020808252600c908201527f494e56414c49445f424f4e440000000000000000000000000000000000000000604082015260600190565b60208082526011908201527f494e53554646494349454e545f424f4e44000000000000000000000000000000604082015260600190565b6020808252600b908201527f43414c4c5f4641494c4544000000000000000000000000000000000000000000604082015260600190565b60008083357fffffffffffffffffffffffffffffffffffffffffffffffffffffffffffffffe18436030181126138e0578283fd5b83018035915067ffffffffffffffff8211156138fa578283fd5b602001915036819003821315612e5f57600080fd5b6000808585111561391e578182fd5b8386111561392a578182fd5b5050820193919092039150565b73ffffffffffffffffffffffffffffffffffffffff8116811461058857600080fdfea2646970667358221220e1aec4704bde1a671b3ef7143436a9fd863764dde89bc071f64a0ed9d9a042f164736f6c63430007030033",
  "immutableReferences": {
    "90": [
      {
        "length": 32,
        "start": 1822
      },
      {
        "length": 32,
        "start": 4279
      },
      {
        "length": 32,
        "start": 7296
      },
      {
        "length": 32,
        "start": 7907
      }
    ],
    "92": [
      {
        "length": 32,
        "start": 1878
      },
      {
        "length": 32,
        "start": 3253
      }
    ],
    "94": [
      {
        "length": 32,
        "start": 1512
      },
      {
        "length": 32,
        "start": 1663
      },
      {
        "length": 32,
        "start": 2512
      }
    ],
    "96": [
      {
        "length": 32,
        "start": 1060
      },
      {
        "length": 32,
        "start": 1106
      },
      {
        "length": 32,
        "start": 1243
      },
      {
        "length": 32,
        "start": 4225
      }
    ]
  },
  "source": "// SPDX-License-Identifier: MIT\n\npragma solidity >=0.6.0 <=0.7.3;\npragma experimental ABIEncoderV2;\n\nimport \"merkle-trees/eth/contracts/libraries/calldata/bytes/standard/merkle-library.sol\";\n\n// TODO: perhaps a owner-controlled sighash whitelist for optimistically performing, and therefore a non-performing exit method\n// TODO: consider verifying being view, or some kind of forced \"come up for air\" mechanism\n// TODO: make required bond queryable\n// TODO: logic_address cannot be immutable if it will be upgradeable\n// TODO: initializer cannot be immutable if it will be upgradeable\n\ncontract Optimistic_Roll_In {\n  event ORI_New_State(address indexed user, bytes32 indexed new_state);\n  event ORI_New_Optimistic_State(address indexed user, uint256 indexed block_time);\n  event ORI_New_Optimistic_States(address indexed user, uint256 indexed block_time);\n  event ORI_Locked(address indexed suspect, address indexed accuser);\n  event ORI_Unlocked(address indexed suspect, address indexed accuser, uint256 indexed block_time);\n  event ORI_Fraud_Proven(address indexed accuser, address indexed suspect, uint256 indexed transition_index);\n  event ORI_Rolled_Back(address indexed user, uint256 indexed tree_size, uint256 indexed block_time);\n\n  address public immutable logic_address;\n  bytes4 public immutable initializer;\n  uint256 public immutable lock_time;\n  uint256 public immutable required_bond;\n\n  mapping(address => uint256) public balances;\n  mapping(address => bytes32) public account_states;\n  mapping(address => address) public lockers;\n  mapping(address => uint256) public locked_timestamps;\n  mapping(address => uint256) public rollback_sizes;\n\n  constructor(\n    address _logic_address,\n    bytes4 _initializer,\n    uint256 _lock_time,\n    uint256 _required_bond\n  ) {\n    logic_address = _logic_address;\n    initializer = _initializer;\n    lock_time = _lock_time;\n    required_bond = _required_bond;\n  }\n\n  modifier not_initialized(address user) {\n    require(account_states[user] == bytes32(0), \"ALREADY_INITIALIZED\");\n    _;\n  }\n\n  modifier not_locked(address user) {\n    require(lockers[user] == address(0), \"ACCOUNT_LOCKED\");\n    _;\n  }\n\n  modifier is_locked(address user) {\n    require(lockers[user] != address(0), \"ACCOUNT_UNLOCKED\");\n    _;\n  }\n\n  modifier no_rollback_required(address user) {\n    require(rollback_sizes[user] == 0, \"ROLLBACK_REQUIRED\");\n    _;\n  }\n\n  modifier can_exit_optimism(uint256 last_time) {\n    // Check that enough time has elapsed for potential fraud proofs (10 minutes)\n    require(last_time + lock_time < block.timestamp, \"INSUFFICIENT_TIME\");\n    _;\n  }\n\n  modifier sufficient_calldata(bytes[] calldata call_data) {\n    // Check that there is more than 1 call data (if not, user should have called perform_optimistically)\n    require(call_data.length > 1, \"INSUFFICIENT_CALLDATA\");\n    _;\n  }\n\n  modifier lock_expired(address user) {\n    require(locked_timestamps[user] + lock_time <= block.timestamp, \"INSUFFICIENT_WINDOW\");\n    _;\n  }\n\n  // Fallback to receive ETH and bond msg.value for msg.sender\n  receive() external payable {\n    apply_bond(msg.sender);\n  }\n\n  // Bonds amount for user, and reverts if resulting balance less than 1 ETH\n  function apply_bond(address user) internal returns (uint256 remainder) {\n    if (balances[user] == required_bond) return msg.value;\n\n    require(msg.value >= required_bond, \"INSUFFICIENT_BOND\");\n\n    balances[user] = required_bond;\n    return msg.value - required_bond;\n  }\n\n  // Bonds msg.value for user\n  function bond(address user) public payable {\n    require(apply_bond(user) == 0, \"INVALID_BOND\");\n  }\n\n  // Sets user's account state to starting point, and bonds msg.value\n  function initialize() external payable not_initialized(msg.sender) {\n    address user = msg.sender;\n    uint256 remainder = apply_bond(user);\n\n    // call the initializer, passing any remaining amount\n    (bool success, bytes memory return_bytes) = logic_address.call{ value: remainder }(\n      abi.encodeWithSelector(initializer, user)\n    );\n\n    require(success, \"INITIALIZE_FAILED\");\n\n    // Decode initial state (S_0) from returned bytes\n    bytes32 initial_state = abi.decode(return_bytes, (bytes32));\n\n    // Set account state to combination of empty call data tree, initial state (S_0), and last time of 0 (not in optimism)\n    account_states[user] = keccak256(abi.encodePacked(bytes32(0), initial_state, bytes32(0)));\n\n    emit ORI_New_State(user, initial_state);\n  }\n\n  // Allows unbonding of ETH if account not locked\n  function unbond(address payable destination) public not_locked(msg.sender) {\n    address user = msg.sender;\n    uint256 amount = balances[user];\n    balances[user] = 0;\n    destination.transfer(amount);\n  }\n\n  // Returns true if calling the logic contract with the call data results in new state\n  function verify_transition(\n    address user,\n    bytes calldata call_data,\n    bytes32 new_state\n  ) internal returns (bool) {\n    // Check that the user is the user extracted from calldata (20 bytes starting after the function signature)\n    if (user != abi.decode(call_data[4:], (address))) return false;\n\n    // Compute a new state\n    (bool success, bytes memory state_bytes) = logic_address.call(call_data);\n\n    if (!success) return false;\n\n    // Decode new state from returns bytes, reusing the state variable\n    bytes32 state = abi.decode(state_bytes, (bytes32));\n\n    return state == new_state;\n  }\n\n  // Calls logic contract and updates account state\n  function normal_perform(\n    address caller,\n    bytes calldata call_data,\n    bytes32 call_data_root,\n    uint256 last_time\n  ) internal not_locked(caller) {\n    // Check that the caller is the user extracted from calldata (20 bytes starting after the function signature)\n    require(caller == abi.decode(call_data[4:], (address)), \"CALLER_USER_MISMATCH\");\n\n    // Extract current state (S_n or S_0) from calldata (32 bytes starting after the sig and user)\n    bytes32 state = abi.decode(call_data[36:], (bytes32));\n\n    // Check that the user it not in an optimistic state, which means that their account state is\n    // an empty call data tree, current state (S_n or S_0), and the last block is 0\n    require(\n      keccak256(abi.encodePacked(call_data_root, state, bytes32(last_time))) == account_states[caller],\n      \"INVALID_ROOTS\"\n    );\n\n    // Compute a new state (S_n+1 or S_1)\n    (bool success, bytes memory state_bytes) = logic_address.call{ value: msg.value }(call_data);\n    require(success, \"CALL_FAILED\");\n\n    // Decode new state (S_n+1 or S_1) from returned bytes, reusing the state variable\n    state = abi.decode(state_bytes, (bytes32));\n\n    // Set the account state to an empty call data tree, the new state (S_n+1 or S_1), and last time 0\n    account_states[caller] = keccak256(abi.encodePacked(bytes32(0), state, bytes32(0)));\n\n    emit ORI_New_State(caller, state);\n  }\n\n  // Set the account state to the on-chain computed new state, if the account is not locked\n  function perform(bytes calldata call_data) external payable {\n    normal_perform(msg.sender, call_data, bytes32(0), 0);\n  }\n\n  // Exits optimism by setting the account state to the on-chain computed new state, if the account is not locked\n  function perform_and_exit(\n    bytes calldata call_data,\n    bytes32 call_data_root,\n    uint256 last_time\n  ) external payable no_rollback_required(msg.sender) can_exit_optimism(last_time) {\n    normal_perform(msg.sender, call_data, call_data_root, last_time);\n  }\n\n  // Updates account state with optimistic transition data\n  function optimistic_perform(\n    address caller,\n    bytes calldata call_data,\n    bytes32 new_state,\n    bytes32 call_data_root,\n    bytes32[] calldata proof,\n    uint256 last_time\n  ) internal not_locked(caller) {\n    // Extract current state (S_0) from call data (32 bytes starting after sig and user)\n    bytes32 state = abi.decode(call_data[36:], (bytes32));\n\n    // Check that the user it not in an optimistic state, which means that their account state is\n    // an empty call data tree, current state (S_0), and the last block is 0\n    require(\n      keccak256(abi.encodePacked(call_data_root, state, bytes32(last_time))) == account_states[caller],\n      \"INVALID_ROOTS\"\n    );\n\n    // Get root of new merkle tree with 1 call data element (CD_0), reusing state as call_data_root\n    state = Merkle_Library_CBS.try_append_one(call_data_root, call_data, proof);\n\n    // Combine call data root, new state (S_1), and current time into account state\n    account_states[caller] = keccak256(abi.encodePacked(state, new_state, bytes32(block.timestamp)));\n\n    emit ORI_New_Optimistic_State(caller, block.timestamp);\n  }\n\n  // Enters optimism by updating the account state optimistically with call data and a new state, if the account is not locked\n  function perform_optimistically_and_enter(\n    bytes calldata call_data,\n    bytes32 new_state,\n    bytes32[] calldata proof\n  ) external {\n    optimistic_perform(msg.sender, call_data, new_state, bytes32(0), proof, 0);\n  }\n\n  // Updates the account state optimistically with call data and a new state, if the account is not locked\n  function perform_optimistically(\n    bytes calldata call_data,\n    bytes32 new_state,\n    bytes32 call_data_root,\n    bytes32[] calldata proof,\n    uint256 last_time\n  ) external {\n    optimistic_perform(msg.sender, call_data, new_state, call_data_root, proof, last_time);\n  }\n\n  // Updates account state with optimistic batch transition data\n  function optimistic_perform_many(\n    address user,\n    bytes[] calldata call_data,\n    bytes32 new_state,\n    bytes32 call_data_root,\n    bytes32[] calldata proof,\n    uint256 last_time\n  ) internal not_locked(user) sufficient_calldata(call_data) {\n    // Extract current state (S_n) from first call data (32 bytes starting after sig and user)\n    bytes32 state = abi.decode(call_data[0][36:], (bytes32));\n\n    // Check that the call data root, current state (S_n), and last time are valid for this user\n    require(\n      keccak256(abi.encodePacked(call_data_root, state, bytes32(last_time))) == account_states[user],\n      \"INVALID_ROOTS\"\n    );\n\n    // Get new merkle root of call data tree, appending several call data (CD_n - CD_n+m), reusing state as call_data_root\n    state = Merkle_Library_CBS.try_append_many(call_data_root, call_data, proof);\n\n    // Combine call data root, new state (S_n+m), and current time into account state\n    account_states[user] = keccak256(abi.encodePacked(state, new_state, bytes32(block.timestamp)));\n\n    emit ORI_New_Optimistic_States(user, block.timestamp);\n  }\n\n  // Enters optimism by updating the account state optimistically with several call data and final state, if the account is not locked\n  function perform_many_optimistically_and_enter(\n    bytes[] calldata call_data,\n    bytes32 new_state,\n    bytes32[] calldata proof\n  ) external {\n    optimistic_perform_many(msg.sender, call_data, new_state, bytes32(0), proof, 0);\n  }\n\n  // Updates the account state optimistically with several call data and final state, if the account is not locked\n  function perform_many_optimistically(\n    bytes[] calldata call_data,\n    bytes32 new_state,\n    bytes32 call_data_root,\n    bytes32[] calldata proof,\n    uint256 last_time\n  ) external {\n    optimistic_perform_many(msg.sender, call_data, new_state, call_data_root, proof, last_time);\n  }\n\n  // Lock two users (suspect and accuser)\n  // Note: accuser and suspect cannot already be locked, but this might have to change so a single accuser isn't overwhelmed with fraud\n  function lock(address suspect) external payable not_locked(msg.sender) not_locked(suspect) {\n    address accuser = msg.sender;\n\n    // Lock both the accuser and the suspect\n    lockers[suspect] = accuser;\n    locked_timestamps[suspect] = block.timestamp;\n    lockers[accuser] = accuser;\n    locked_timestamps[accuser] = block.timestamp;\n\n    // The accuser may be trying to bond at the same time (this also check that have enough bonded)\n    require(apply_bond(accuser) == 0, \"INVALID_BOND\");\n\n    emit ORI_Locked(suspect, accuser);\n  }\n\n  // Unlock two users (suspect and accuser)\n  function unlock(\n    address suspect,\n    bytes32 state,\n    bytes32 call_data_root,\n    uint256 last_time\n  ) external is_locked(suspect) lock_expired(suspect) no_rollback_required(suspect) {\n    // Check that the call data root, current state (S_n), and last time are valid for this user\n    require(\n      keccak256(abi.encodePacked(call_data_root, state, bytes32(last_time))) == account_states[suspect],\n      \"INVALID_ROOTS\"\n    );\n\n    // Unlock both accounts\n    address accuser = lockers[suspect];\n    lockers[suspect] = address(0);\n    locked_timestamps[suspect] = 0;\n    lockers[accuser] = address(0);\n    locked_timestamps[accuser] = 0;\n\n    // Give the suspect the accuser's bond for having not proven fraud within a reasonable time frame\n    // TODO: consider burning some here to prevent self-reporting breakeven\n    uint256 amount = balances[accuser];\n    balances[accuser] = 0;\n    balances[suspect] += amount;\n\n    // If suspect was not in optimistic state, then just emit event and return\n    if (last_time == 0) {\n      emit ORI_Unlocked(suspect, accuser, 0);\n      return;\n    }\n\n    // Combine call data root, current state (S_n), and current time into account state\n    // Note: updating last time is important, to prevent suspect blocking fraud proofs by locking themselves\n    account_states[suspect] = keccak256(abi.encodePacked(call_data_root, state, bytes32(block.timestamp)));\n\n    emit ORI_Unlocked(suspect, accuser, block.timestamp);\n  }\n\n  // Reward accuser for proving fraud in a suspect's transition, and track the expected rolled back account state size\n  function prove_fraud(\n    address suspect,\n    bytes[] calldata call_data,\n    bytes32 state,\n    bytes32 call_data_root,\n    bytes32[] calldata proof,\n    uint256 last_time\n  ) external {\n    address accuser = msg.sender;\n\n    // Only the user that flagged/locked the suspect can prove fraud\n    require(lockers[suspect] == accuser, \"NOT_LOCKER\");\n\n    // Check that the call data root, current state (S_n), and last time are valid for this user\n    require(\n      keccak256(abi.encodePacked(call_data_root, state, bytes32(last_time))) == account_states[suspect],\n      \"INVALID_ROOTS\"\n    );\n\n    // Check that the call data exist\n    require(Merkle_Library_CBS.elements_exist(call_data_root, call_data, proof), \"INVALID_CALLDATA\");\n\n    // get the indices of the call data in the call data tre\n    uint256[] memory call_data_indices = Merkle_Library_CBS.get_indices(call_data, proof);\n\n    // The transition index is the index of the starting call data of the fraud proof\n    uint256 transition_index = call_data_indices[0];\n\n    // If only one call data is provided, the fraud involves the last call data and current state\n    if (call_data.length == 1) {\n      // Check that the call data index is the last (call data tree size minus 1)\n      require(transition_index + 1 == uint256(proof[0]), \"INCORRECT_CALLDATA\");\n\n      // Fail if the state transition was valid\n      require(verify_transition(suspect, call_data[0], state) == false, \"VALID_TRANSITION\");\n    } else {\n      // Check that call data provided are consecutive\n      require(transition_index + 1 == call_data_indices[1]);\n\n      // Extract new state from second call data (32 bytes starting after the sig and user), reusing state var\n      state = abi.decode(call_data[1][36:], (bytes32));\n\n      // Fail if the state transition was valid\n      require(verify_transition(suspect, call_data[0], state) == false, \"VALID_TRANSITION\");\n    }\n\n    // Take the suspect's bond and give it to the accuser, reusing last_time var\n    // TODO: consider burning some here to prevent self-reporting breakeven\n    last_time = balances[suspect];\n    balances[suspect] = 0;\n    balances[accuser] += last_time;\n\n    // Unlock the accuser's account\n    lockers[accuser] = address(0);\n    locked_timestamps[accuser] = 0;\n\n    // Set the rollback size to the amount of elements that should be in the call data tree once rolled back\n    rollback_sizes[suspect] = transition_index;\n\n    // Set the suspect as the reason for their account's lock\n    lockers[suspect] = suspect;\n    locked_timestamps[suspect] = 0;\n\n    emit ORI_Fraud_Proven(accuser, suspect, transition_index);\n  }\n\n  // Rolls a user back, given the current roots, old roots, and a proof of the optimistic transitions between them\n  function rollback(\n    bytes32 rolled_back_call_data_root,\n    bytes[] calldata rolled_back_call_data,\n    bytes32[] calldata roll_back_proof,\n    uint256 current_size,\n    bytes32 current_size_proof,\n    bytes32 call_data_root,\n    bytes32 state,\n    uint256 last_time\n  ) external payable {\n    address user = msg.sender;\n    uint256 expected_size = rollback_sizes[user];\n    require(expected_size != 0, \"ROLLBACK_UNNECESSARY\");\n\n    // Check that the call data root, current state (S_n), and last time are valid for this user\n    require(\n      keccak256(abi.encodePacked(call_data_root, state, bytes32(last_time))) == account_states[user],\n      \"INVALID_ROOTS\"\n    );\n\n    // Check that the provided size of the current call data tree is correct\n    require(Merkle_Library_CBS.verify_size(call_data_root, current_size, current_size_proof), \"INVALID_SIZE\");\n\n    // Allow incremental roll back by checking that the rolled back call data tree is smaller than the current tree\n    uint256 rolled_back_size = uint256(roll_back_proof[0]);\n    require(rolled_back_size < current_size, \"INSUFFICIENT_ROLLBACK\");\n\n    // Check that this is not rolling back too far, though\n    require(rolled_back_size >= expected_size, \"ROLLBACK_TOO_DEEP\");\n\n    // Check that the current call data root is derived by appending the rolled back call data to the rolled back call data root\n    require(\n      Merkle_Library_CBS.try_append_many(rolled_back_call_data_root, rolled_back_call_data, roll_back_proof) ==\n        call_data_root,\n      \"INVALID_ROLLBACK\"\n    );\n\n    // Extract new state from first rolled back call data (32 bytes starting after the sig and user), reusing state var\n    state = abi.decode(rolled_back_call_data[0][36:], (bytes32));\n\n    // Combine rolled back call data root, new state (S_n-m), and current time into account state\n    account_states[user] = keccak256(abi.encodePacked(rolled_back_call_data_root, state, bytes32(block.timestamp)));\n\n    // Unlock the user and clear the rollback flag, if roll back is complete\n    if (rolled_back_size == expected_size) {\n      lockers[user] = address(0);\n      rollback_sizes[user] = 0;\n    }\n\n    // The user may be trying to bond at the same time (this also check that have enough bonded)\n    require(apply_bond(user) == 0, \"INVALID_BOND\");\n\n    emit ORI_Rolled_Back(user, rolled_back_size, block.timestamp);\n  }\n}\n",
  "sourcePath": "/Users/michaeldeluca/Projects/optimistic-roll-in/eth/contracts/optimistic-roll-in.sol",
  "compiler": {
    "name": "solc",
    "version": "0.7.3+commit.9bfce1f6.Emscripten.clang"
  },
  "schemaVersion": "3.3.1",
  "updatedAt": "2020-10-30T04:16:29.168Z",
  "networkType": "ethereum",
  "devdoc": {
    "kind": "dev",
    "methods": {},
    "version": 1
  },
  "userdoc": {
    "kind": "user",
    "methods": {},
    "version": 1
  }
}