{
  "contractName": "Optimistic_Roll_In",
  "abi": [
    {
      "inputs": [
        {
          "internalType": "address",
          "name": "_logic_address",
          "type": "address"
        },
        {
          "internalType": "uint256",
          "name": "_lock_time",
          "type": "uint256"
        },
        {
          "internalType": "uint256",
          "name": "_required_bond",
          "type": "uint256"
        }
      ],
      "stateMutability": "nonpayable",
      "type": "constructor"
    },
    {
      "anonymous": false,
      "inputs": [
        {
          "indexed": true,
          "internalType": "address",
          "name": "accuser",
          "type": "address"
        },
        {
          "indexed": true,
          "internalType": "address",
          "name": "suspect",
          "type": "address"
        },
        {
          "indexed": true,
          "internalType": "uint256",
          "name": "transition_index",
          "type": "uint256"
        }
      ],
      "name": "ORI_Fraud_Proven",
      "type": "event"
    },
    {
      "anonymous": false,
      "inputs": [
        {
          "indexed": true,
          "internalType": "address",
          "name": "suspect",
          "type": "address"
        },
        {
          "indexed": true,
          "internalType": "address",
          "name": "accuser",
          "type": "address"
        }
      ],
      "name": "ORI_Locked",
      "type": "event"
    },
    {
      "anonymous": false,
      "inputs": [
        {
          "indexed": true,
          "internalType": "address",
          "name": "user",
          "type": "address"
        },
        {
          "indexed": true,
          "internalType": "uint256",
          "name": "block_time",
          "type": "uint256"
        }
      ],
      "name": "ORI_New_Optimistic_State",
      "type": "event"
    },
    {
      "anonymous": false,
      "inputs": [
        {
          "indexed": true,
          "internalType": "address",
          "name": "user",
          "type": "address"
        },
        {
          "indexed": true,
          "internalType": "uint256",
          "name": "block_time",
          "type": "uint256"
        }
      ],
      "name": "ORI_New_Optimistic_States",
      "type": "event"
    },
    {
      "anonymous": false,
      "inputs": [
        {
          "indexed": true,
          "internalType": "address",
          "name": "user",
          "type": "address"
        },
        {
          "indexed": true,
          "internalType": "bytes32",
          "name": "new_state",
          "type": "bytes32"
        }
      ],
      "name": "ORI_New_State",
      "type": "event"
    },
    {
      "anonymous": false,
      "inputs": [
        {
          "indexed": true,
          "internalType": "address",
          "name": "user",
          "type": "address"
        },
        {
          "indexed": true,
          "internalType": "uint256",
          "name": "tree_size",
          "type": "uint256"
        },
        {
          "indexed": true,
          "internalType": "uint256",
          "name": "block_time",
          "type": "uint256"
        }
      ],
      "name": "ORI_Rolled_Back",
      "type": "event"
    },
    {
      "anonymous": false,
      "inputs": [
        {
          "indexed": true,
          "internalType": "address",
          "name": "suspect",
          "type": "address"
        },
        {
          "indexed": true,
          "internalType": "address",
          "name": "accuser",
          "type": "address"
        },
        {
          "indexed": true,
          "internalType": "uint256",
          "name": "block_time",
          "type": "uint256"
        }
      ],
      "name": "ORI_Unlocked",
      "type": "event"
    },
    {
      "inputs": [
        {
          "internalType": "address",
          "name": "",
          "type": "address"
        }
      ],
      "name": "account_states",
      "outputs": [
        {
          "internalType": "bytes32",
          "name": "",
          "type": "bytes32"
        }
      ],
      "stateMutability": "view",
      "type": "function",
      "constant": true
    },
    {
      "inputs": [
        {
          "internalType": "address",
          "name": "",
          "type": "address"
        }
      ],
      "name": "balances",
      "outputs": [
        {
          "internalType": "uint256",
          "name": "",
          "type": "uint256"
        }
      ],
      "stateMutability": "view",
      "type": "function",
      "constant": true
    },
    {
      "inputs": [],
      "name": "lock_time",
      "outputs": [
        {
          "internalType": "uint256",
          "name": "",
          "type": "uint256"
        }
      ],
      "stateMutability": "view",
      "type": "function",
      "constant": true
    },
    {
      "inputs": [
        {
          "internalType": "address",
          "name": "",
          "type": "address"
        }
      ],
      "name": "locked_timestamps",
      "outputs": [
        {
          "internalType": "uint256",
          "name": "",
          "type": "uint256"
        }
      ],
      "stateMutability": "view",
      "type": "function",
      "constant": true
    },
    {
      "inputs": [
        {
          "internalType": "address",
          "name": "",
          "type": "address"
        }
      ],
      "name": "lockers",
      "outputs": [
        {
          "internalType": "address",
          "name": "",
          "type": "address"
        }
      ],
      "stateMutability": "view",
      "type": "function",
      "constant": true
    },
    {
      "inputs": [],
      "name": "logic_contract",
      "outputs": [
        {
          "internalType": "contract Optimistic_Roll_In_Compatible",
          "name": "",
          "type": "address"
        }
      ],
      "stateMutability": "view",
      "type": "function",
      "constant": true
    },
    {
      "inputs": [],
      "name": "required_bond",
      "outputs": [
        {
          "internalType": "uint256",
          "name": "",
          "type": "uint256"
        }
      ],
      "stateMutability": "view",
      "type": "function",
      "constant": true
    },
    {
      "inputs": [
        {
          "internalType": "address",
          "name": "",
          "type": "address"
        }
      ],
      "name": "rollback_sizes",
      "outputs": [
        {
          "internalType": "uint256",
          "name": "",
          "type": "uint256"
        }
      ],
      "stateMutability": "view",
      "type": "function",
      "constant": true
    },
    {
      "stateMutability": "payable",
      "type": "receive",
      "payable": true
    },
    {
      "inputs": [
        {
          "internalType": "address",
          "name": "user",
          "type": "address"
        }
      ],
      "name": "bond",
      "outputs": [],
      "stateMutability": "payable",
      "type": "function",
      "payable": true
    },
    {
      "inputs": [],
      "name": "initialize",
      "outputs": [],
      "stateMutability": "payable",
      "type": "function",
      "payable": true
    },
    {
      "inputs": [
        {
          "internalType": "address payable",
          "name": "destination",
          "type": "address"
        }
      ],
      "name": "unbond",
      "outputs": [],
      "stateMutability": "nonpayable",
      "type": "function"
    },
    {
      "inputs": [
        {
          "internalType": "bytes",
          "name": "call_data",
          "type": "bytes"
        }
      ],
      "name": "perform",
      "outputs": [],
      "stateMutability": "payable",
      "type": "function",
      "payable": true
    },
    {
      "inputs": [
        {
          "internalType": "bytes",
          "name": "call_data",
          "type": "bytes"
        },
        {
          "internalType": "bytes32",
          "name": "call_data_root",
          "type": "bytes32"
        },
        {
          "internalType": "uint256",
          "name": "last_time",
          "type": "uint256"
        }
      ],
      "name": "perform_and_exit",
      "outputs": [],
      "stateMutability": "payable",
      "type": "function",
      "payable": true
    },
    {
      "inputs": [
        {
          "internalType": "bytes",
          "name": "call_data",
          "type": "bytes"
        },
        {
          "internalType": "bytes32",
          "name": "new_state",
          "type": "bytes32"
        },
        {
          "internalType": "bytes32[]",
          "name": "proof",
          "type": "bytes32[]"
        }
      ],
      "name": "perform_optimistically_and_enter",
      "outputs": [],
      "stateMutability": "nonpayable",
      "type": "function"
    },
    {
      "inputs": [
        {
          "internalType": "bytes",
          "name": "call_data",
          "type": "bytes"
        },
        {
          "internalType": "bytes32",
          "name": "new_state",
          "type": "bytes32"
        },
        {
          "internalType": "bytes32",
          "name": "call_data_root",
          "type": "bytes32"
        },
        {
          "internalType": "bytes32[]",
          "name": "proof",
          "type": "bytes32[]"
        },
        {
          "internalType": "uint256",
          "name": "last_time",
          "type": "uint256"
        }
      ],
      "name": "perform_optimistically",
      "outputs": [],
      "stateMutability": "nonpayable",
      "type": "function"
    },
    {
      "inputs": [
        {
          "internalType": "bytes[]",
          "name": "call_data",
          "type": "bytes[]"
        },
        {
          "internalType": "bytes32",
          "name": "new_state",
          "type": "bytes32"
        },
        {
          "internalType": "bytes32[]",
          "name": "proof",
          "type": "bytes32[]"
        }
      ],
      "name": "perform_many_optimistically_and_enter",
      "outputs": [],
      "stateMutability": "nonpayable",
      "type": "function"
    },
    {
      "inputs": [
        {
          "internalType": "bytes[]",
          "name": "call_data",
          "type": "bytes[]"
        },
        {
          "internalType": "bytes32",
          "name": "new_state",
          "type": "bytes32"
        },
        {
          "internalType": "bytes32",
          "name": "call_data_root",
          "type": "bytes32"
        },
        {
          "internalType": "bytes32[]",
          "name": "proof",
          "type": "bytes32[]"
        },
        {
          "internalType": "uint256",
          "name": "last_time",
          "type": "uint256"
        }
      ],
      "name": "perform_many_optimistically",
      "outputs": [],
      "stateMutability": "nonpayable",
      "type": "function"
    },
    {
      "inputs": [
        {
          "internalType": "address",
          "name": "suspect",
          "type": "address"
        }
      ],
      "name": "lock",
      "outputs": [],
      "stateMutability": "payable",
      "type": "function",
      "payable": true
    },
    {
      "inputs": [
        {
          "internalType": "address",
          "name": "suspect",
          "type": "address"
        },
        {
          "internalType": "bytes32",
          "name": "state",
          "type": "bytes32"
        },
        {
          "internalType": "bytes32",
          "name": "call_data_root",
          "type": "bytes32"
        },
        {
          "internalType": "uint256",
          "name": "last_time",
          "type": "uint256"
        }
      ],
      "name": "unlock",
      "outputs": [],
      "stateMutability": "nonpayable",
      "type": "function"
    },
    {
      "inputs": [
        {
          "internalType": "address",
          "name": "suspect",
          "type": "address"
        },
        {
          "internalType": "bytes[]",
          "name": "call_data",
          "type": "bytes[]"
        },
        {
          "internalType": "bytes32",
          "name": "state",
          "type": "bytes32"
        },
        {
          "internalType": "bytes32",
          "name": "call_data_root",
          "type": "bytes32"
        },
        {
          "internalType": "bytes32[]",
          "name": "proof",
          "type": "bytes32[]"
        },
        {
          "internalType": "uint256",
          "name": "last_time",
          "type": "uint256"
        }
      ],
      "name": "prove_fraud",
      "outputs": [],
      "stateMutability": "nonpayable",
      "type": "function"
    },
    {
      "inputs": [
        {
          "internalType": "bytes32",
          "name": "rolled_back_call_data_root",
          "type": "bytes32"
        },
        {
          "internalType": "bytes[]",
          "name": "rolled_back_call_data",
          "type": "bytes[]"
        },
        {
          "internalType": "bytes32[]",
          "name": "roll_back_proof",
          "type": "bytes32[]"
        },
        {
          "internalType": "uint256",
          "name": "current_size",
          "type": "uint256"
        },
        {
          "internalType": "bytes32",
          "name": "current_size_proof",
          "type": "bytes32"
        },
        {
          "internalType": "bytes32",
          "name": "call_data_root",
          "type": "bytes32"
        },
        {
          "internalType": "bytes32",
          "name": "state",
          "type": "bytes32"
        },
        {
          "internalType": "uint256",
          "name": "last_time",
          "type": "uint256"
        }
      ],
      "name": "rollback",
      "outputs": [],
      "stateMutability": "payable",
      "type": "function",
      "payable": true
    }
  ],
  "bytecode": "0x60e06040523480156200001157600080fd5b506040516200394438038062003944833981016040819052620000349162000053565b60609290921b6001600160601b03191660805260a05260c05262000096565b60008060006060848603121562000068578283fd5b83516001600160a01b03811681146200007f578384fd5b602085015160409095015190969495509392505050565b60805160601c60a05160c051613856620000ee600039806103f7528061042552806104ae5280610f755250806105bb528061065252806108e852508061067652806107135280611b875280611dd252506138566000f3fe60806040526004361061016e5760003560e01c80637a9f05b5116100cb578063b20554001161007f578063e112420011610059578063e112420014610389578063e4da61ab1461039c578063f435f5a7146103bc5761017f565b8063b205540014610341578063bb6ae2cb14610356578063c45481bb146103695761017f565b80638ee16d13116100b05780638ee16d13146102e1578063a68f591314610301578063af7b5a41146103215761017f565b80637a9f05b5146102b95780638129fc1c146102d95761017f565b80632a41545411610122578063480bb7c411610107578063480bb7c41461026f5780634de94320146102845780636a8dddef146102995761017f565b80632a4154541461022f5780632c8e7a21146102425761017f565b8063177f15c511610153578063177f15c5146101c6578063247ce85b146101e657806327e235e3146101f95761017f565b806308542bb1146101845780631646d051146101a65761017f565b3661017f5761017c336103cf565b50005b600080fd5b34801561019057600080fd5b506101a461019f366004612ef4565b6104d9565b005b3480156101b257600080fd5b506101a46101c136600461313e565b6104f1565b3480156101d257600080fd5b506101a46101e1366004613104565b61050a565b6101a46101f4366004612e04565b61051b565b34801561020557600080fd5b50610219610214366004612e04565b61055e565b6040516102269190613263565b60405180910390f35b6101a461023d3660046131a1565b610570565b34801561024e57600080fd5b5061026261025d366004612e04565b610628565b6040516102269190613242565b34801561027b57600080fd5b50610219610650565b34801561029057600080fd5b50610262610674565b3480156102a557600080fd5b506101a46102b4366004612f6b565b610698565b3480156102c557600080fd5b506102196102d4366004612e04565b6106a8565b6101a46106ba565b3480156102ed57600080fd5b506101a46102fc366004612eba565b61085d565b34801561030d57600080fd5b506101a461031c366004612e20565b610bcb565b34801561032d57600080fd5b5061021961033c366004612e04565b610f61565b34801561034d57600080fd5b50610219610f73565b6101a46103643660046130c4565b610f97565b34801561037557600080fd5b50610219610384366004612e04565b610fa9565b6101a4610397366004613024565b610fbb565b3480156103a857600080fd5b506101a46103b7366004612e04565b61133e565b6101a46103ca366004612e04565b6113f4565b73ffffffffffffffffffffffffffffffffffffffff81166000908152602081905260408120547f000000000000000000000000000000000000000000000000000000000000000014156104235750346104d4565b7f0000000000000000000000000000000000000000000000000000000000000000341015610486576040517f08c379a000000000000000000000000000000000000000000000000000000000815260040161047d9061373c565b60405180910390fd5b5073ffffffffffffffffffffffffffffffffffffffff811660009081526020819052604090207f00000000000000000000000000000000000000000000000000000000000000009081905534035b919050565b6104ea3386868660008787826115cd565b5050505050565b6105013388888888888888611804565b50505050505050565b6104ea338686866000878782611804565b610524816103cf565b1561055b576040517f08c379a000000000000000000000000000000000000000000000000000000000815260040161047d90613705565b50565b60006020819052908152604090205481565b33600081815260046020526040902054156105b7576040517f08c379a000000000000000000000000000000000000000000000000000000000815260040161047d90613327565b81427f0000000000000000000000000000000000000000000000000000000000000000820110610613576040517f08c379a000000000000000000000000000000000000000000000000000000000815260040161047d90613697565b61062033878787876119c1565b505050505050565b60026020526000908152604090205473ffffffffffffffffffffffffffffffffffffffff1681565b7f000000000000000000000000000000000000000000000000000000000000000081565b7f000000000000000000000000000000000000000000000000000000000000000081565b61050133888888888888886115cd565b60036020526000908152604090205481565b3360008181526001602052604090205415610701576040517f08c379a000000000000000000000000000000000000000000000000000000000815260040161047d90613395565b33600061070d826103cf565b905060007f000000000000000000000000000000000000000000000000000000000000000073ffffffffffffffffffffffffffffffffffffffff16637ed3068983856040518363ffffffff1660e01b815260040161076b9190613242565b6020604051808303818588803b15801561078457600080fd5b505af1158015610798573d6000803e3d6000fd5b50505050506040513d601f19601f820116820180604052508101906107bd919061300c565b6040519091506107d6906000908390829060200161322c565b604080517fffffffffffffffffffffffffffffffffffffffffffffffffffffffffffffffe0818403018152828252805160209182012073ffffffffffffffffffffffffffffffffffffffff8716600081815260019093529282205583927f0f5025cc4f20aa47a346d1b7d9da6ba8c68cc8e83b75e813da4b4490d55365ae9190a350505050565b73ffffffffffffffffffffffffffffffffffffffff8085166000908152600260205260409020548591166108bd576040517f08c379a000000000000000000000000000000000000000000000000000000000815260040161047d90613516565b73ffffffffffffffffffffffffffffffffffffffff85166000908152600360205260409020548590427f00000000000000000000000000000000000000000000000000000000000000009091011115610942576040517f08c379a000000000000000000000000000000000000000000000000000000000815260040161047d906135f2565b73ffffffffffffffffffffffffffffffffffffffff86166000908152600460205260409020548690156109a1576040517f08c379a000000000000000000000000000000000000000000000000000000000815260040161047d90613327565b73ffffffffffffffffffffffffffffffffffffffff87166000908152600160209081526040918290205491516109dd9188918a9189910161322c565b6040516020818303038152906040528051906020012014610a2a576040517f08c379a000000000000000000000000000000000000000000000000000000000815260040161047d906134a8565b73ffffffffffffffffffffffffffffffffffffffff808816600081815260026020818152604080842080547fffffffffffffffffffffffff0000000000000000000000000000000000000000808216909255600380855283872087905597168086529383528185208054909116905594815284832083905582905283822080549083905592825292902080548201905585610b225760008273ffffffffffffffffffffffffffffffffffffffff168a73ffffffffffffffffffffffffffffffffffffffff167fd896484469c47833eb445d62b95b9dd6b28d0c050a9b7f2ce8902d137316500e60405160405180910390a45050610501565b604051610b379088908a90429060200161322c565b604080517fffffffffffffffffffffffffffffffffffffffffffffffffffffffffffffffe0818403018152828252805160209182012073ffffffffffffffffffffffffffffffffffffffff808e166000818152600190945293832091909155429390861692917fd896484469c47833eb445d62b95b9dd6b28d0c050a9b7f2ce8902d137316500e91a4505050505050505050565b73ffffffffffffffffffffffffffffffffffffffff8881166000908152600260205260409020543391168114610c2d576040517f08c379a000000000000000000000000000000000000000000000000000000000815260040161047d906132b9565b73ffffffffffffffffffffffffffffffffffffffff8916600090815260016020908152604091829020549151610c699188918a9187910161322c565b6040516020818303038152906040528051906020012014610cb6576040517f08c379a000000000000000000000000000000000000000000000000000000000815260040161047d906134a8565b610cc38589898787611cb5565b610cf9576040517f08c379a000000000000000000000000000000000000000000000000000000000815260040161047d9061335e565b6060610d0789898787611ced565b9050600081600081518110610d1857fe5b602002602001015190508989905060011415610de55785856000818110610d3b57fe5b9050602002013560001c8160010114610d80576040517f08c379a000000000000000000000000000000000000000000000000000000000815260040161047d906133cc565b610da98b8b8b6000818110610d9157fe5b9050602002810190610da39190613773565b8b611d3f565b15610de0576040517f08c379a000000000000000000000000000000000000000000000000000000000815260040161047d9061343a565b610e8c565b81600181518110610df257fe5b60200260200101518160010114610e0857600080fd5b89896001818110610e1557fe5b9050602002810190610e279190613773565b610e359160249082906137d6565b810190610e429190612ff4565b9750610e558b8b8b6000818110610d9157fe5b15610e8c576040517f08c379a000000000000000000000000000000000000000000000000000000000815260040161047d9061343a565b73ffffffffffffffffffffffffffffffffffffffff808c16600081815260208181526040808320805490849055948816808452818420805487019055600280845282852080547fffffffffffffffffffffffff00000000000000000000000000000000000000009081169091556003808652848720879055878752600486528487208a905591855283862080549091168717905590925280832083905551939750849390917f55469cdf3fd81a478fed2a1491832e3d145bf2ab3c6a6fbb187022b3885b90fd91a45050505050505050505050565b60016020526000908152604090205481565b7f000000000000000000000000000000000000000000000000000000000000000081565b610fa53383836000806119c1565b5050565b60046020526000908152604090205481565b3360008181526004602052604090205480611002576040517f08c379a000000000000000000000000000000000000000000000000000000000815260040161047d9061354d565b73ffffffffffffffffffffffffffffffffffffffff821660009081526001602090815260409182902054915161103e918891889188910161322c565b604051602081830303815290604052805190602001201461108b576040517f08c379a000000000000000000000000000000000000000000000000000000000815260040161047d906134a8565b611096858888611e84565b6110cc576040517f08c379a000000000000000000000000000000000000000000000000000000000815260040161047d906134df565b6000898960008181106110db57fe5b9050602002013560001c9050878110611120576040517f08c379a000000000000000000000000000000000000000000000000000000000815260040161047d906132f0565b8181101561115a576040517f08c379a000000000000000000000000000000000000000000000000000000000815260040161047d906135bb565b856111688e8e8e8e8e611eb5565b1461119f576040517f08c379a000000000000000000000000000000000000000000000000000000000815260040161047d90613629565b8b8b60008181106111ac57fe5b90506020028101906111be9190613773565b6111cc9160249082906137d6565b8101906111d99190612ff4565b6040519095506111f1908e908790429060200161322c565b604080517fffffffffffffffffffffffffffffffffffffffffffffffffffffffffffffffe0818403018152918152815160209283012073ffffffffffffffffffffffffffffffffffffffff861660009081526001909352912055808214156112aa5773ffffffffffffffffffffffffffffffffffffffff8316600090815260026020908152604080832080547fffffffffffffffffffffffff000000000000000000000000000000000000000016905560049091528120555b6112b3836103cf565b156112ea576040517f08c379a000000000000000000000000000000000000000000000000000000000815260040161047d90613705565b42818473ffffffffffffffffffffffffffffffffffffffff167f4d7ed8c49e6b03daee23a18f4bd14bd7e4628e5ed54c57bf84407a693867eca960405160405180910390a450505050505050505050505050565b3360008181526002602052604090205473ffffffffffffffffffffffffffffffffffffffff161561139b576040517f08c379a000000000000000000000000000000000000000000000000000000000815260040161047d90613660565b336000818152602081905260408082208054908390559051909173ffffffffffffffffffffffffffffffffffffffff86169183156108fc0291849190818181858888f193505050501580156104ea573d6000803e3d6000fd5b3360008181526002602052604090205473ffffffffffffffffffffffffffffffffffffffff1615611451576040517f08c379a000000000000000000000000000000000000000000000000000000000815260040161047d90613660565b73ffffffffffffffffffffffffffffffffffffffff808316600090815260026020526040902054839116156114b2576040517f08c379a000000000000000000000000000000000000000000000000000000000815260040161047d90613660565b73ffffffffffffffffffffffffffffffffffffffff831660009081526002602081815260408084208054337fffffffffffffffffffffffff00000000000000000000000000000000000000009182168117909255600380855283872042908190558388529585528387208054909216831790915590925290922055611536816103cf565b1561156d576040517f08c379a000000000000000000000000000000000000000000000000000000000815260040161047d90613705565b8073ffffffffffffffffffffffffffffffffffffffff168473ffffffffffffffffffffffffffffffffffffffff167f8773bde6581ad6ddd421210de867340039fb65ce3df41edba7b5de6d24ae7a5160405160405180910390a350505050565b73ffffffffffffffffffffffffffffffffffffffff8089166000908152600260205260409020548991161561162e576040517f08c379a000000000000000000000000000000000000000000000000000000000815260040161047d90613660565b87876001811161166a576040517f08c379a000000000000000000000000000000000000000000000000000000000815260040161047d90613584565b60008a8a600081811061167957fe5b905060200281019061168b9190613773565b6116999160249082906137d6565b8101906116a69190612ff4565b73ffffffffffffffffffffffffffffffffffffffff8d1660009081526001602090815260409182902054915192935090916116e7918b9185918a910161322c565b6040516020818303038152906040528051906020012014611734576040517f08c379a000000000000000000000000000000000000000000000000000000000815260040161047d906134a8565b611741888c8c8a8a611eb5565b6040519091506117599082908b90429060200161322c565b60405160208183030381529060405280519060200120600160008e73ffffffffffffffffffffffffffffffffffffffff1673ffffffffffffffffffffffffffffffffffffffff16815260200190815260200160002081905550428c73ffffffffffffffffffffffffffffffffffffffff167f0b87b136840d19f5f25329273082c00833265a189b70137e06df6315ddc7839e60405160405180910390a3505050505050505050505050565b73ffffffffffffffffffffffffffffffffffffffff80891660009081526002602052604090205489911615611865576040517f08c379a000000000000000000000000000000000000000000000000000000000815260040161047d90613660565b6000611874886024818c6137d6565b8101906118819190612ff4565b73ffffffffffffffffffffffffffffffffffffffff8b1660009081526001602090815260409182902054915192935090916118c2918991859188910161322c565b604051602081830303815290604052805190602001201461190f576040517f08c379a000000000000000000000000000000000000000000000000000000000815260040161047d906134a8565b61191c868a8a8888611f92565b6040519091506119349082908990429060200161322c565b604080517fffffffffffffffffffffffffffffffffffffffffffffffffffffffffffffffe0818403018152828252805160209182012073ffffffffffffffffffffffffffffffffffffffff8e16600081815260019093529282205542927f4779c4b07abff82b16061ec9a47d081e7f4981c29088395cdb7ff87e322cbbc69190a350505050505050505050565b73ffffffffffffffffffffffffffffffffffffffff80861660009081526002602052604090205486911615611a22576040517f08c379a000000000000000000000000000000000000000000000000000000000815260040161047d90613660565b611a2f84600481886137d6565b810190611a3c9190612e04565b73ffffffffffffffffffffffffffffffffffffffff168673ffffffffffffffffffffffffffffffffffffffff1614611aa0576040517f08c379a000000000000000000000000000000000000000000000000000000000815260040161047d906136ce565b6000611aaf85602481896137d6565b810190611abc9190612ff4565b73ffffffffffffffffffffffffffffffffffffffff88166000908152600160209081526040918290205491519293509091611afd918791859188910161322c565b6040516020818303038152906040528051906020012014611b4a576040517f08c379a000000000000000000000000000000000000000000000000000000000815260040161047d906134a8565b6040517f8517c18700000000000000000000000000000000000000000000000000000000815273ffffffffffffffffffffffffffffffffffffffff7f00000000000000000000000000000000000000000000000000000000000000001690638517c187903490611bc0908a908a9060040161326c565b6020604051808303818588803b158015611bd957600080fd5b505af1158015611bed573d6000803e3d6000fd5b50505050506040513d601f19601f82011682018060405250810190611c12919061300c565b604051909150611c2b906000908390829060200161322c565b604080517fffffffffffffffffffffffffffffffffffffffffffffffffffffffffffffffe0818403018152828252805160209182012073ffffffffffffffffffffffffffffffffffffffff8b16600081815260019093529282205583927f0f5025cc4f20aa47a346d1b7d9da6ba8c68cc8e83b75e813da4b4490d55365ae9190a350505050505050565b600085611ce084846000818110611cc857fe5b90506020020135611cdb8888888861205d565b612073565b1490505b95945050505050565b6060611d348484846001818110611d0057fe5b9050602002013585856002818110611d1457fe5b9050602002013586866003818110611d2857fe5b90506020020135612082565b90505b949350505050565b6000611d4e83600481876137d6565b810190611d5b9190612e04565b73ffffffffffffffffffffffffffffffffffffffff168573ffffffffffffffffffffffffffffffffffffffff1614611d9557506000611d37565b6040517f8821e2b100000000000000000000000000000000000000000000000000000000815273ffffffffffffffffffffffffffffffffffffffff7f00000000000000000000000000000000000000000000000000000000000000001690638821e2b190611e09908790879060040161326c565b60206040518083038186803b158015611e2157600080fd5b505afa925050508015611e6f575060408051601f3d9081017fffffffffffffffffffffffffffffffffffffffffffffffffffffffffffffffe0168201909252611e6c9181019061300c565b60015b611e7b57506000611d37565b82149050611d37565b600083158015611e92575082155b15611e9f57506001611eae565b83611eaa8484612073565b1490505b9392505050565b60008083836000818110611ec557fe5b60200291909101359150508615811514611f0b576040517f08c379a000000000000000000000000000000000000000000000000000000000815260040161047d90613471565b86611f2657611f1e85611cdb88826123a2565b915050611ce4565b6000611f34878787876123b6565b9350905087611f438383612073565b14611f7a576040517f08c379a000000000000000000000000000000000000000000000000000000000815260040161047d90613403565b611f8682870184612073565b98975050505050505050565b60008083836000818110611fa257fe5b60200291909101359150508615811514611fe8576040517f08c379a000000000000000000000000000000000000000000000000000000000815260040161047d90613471565b86611ffc57611f1e6001611cdb88886123da565b600061200a87878787612410565b93509050876120198383612073565b14612050576040517f08c379a000000000000000000000000000000000000000000000000000000000815260040161047d90613403565b611f866001830184612073565b6000611d3461206c868661244f565b8484612559565b60009182526020526040902090565b60608467ffffffffffffffff8111801561209b57600080fd5b506040519080825280602002602001820160405280156120c5578160200160208202803683370190505b50905060608567ffffffffffffffff811180156120e157600080fd5b5060405190808252806020026020018201604052801561210b578160200160208202803683370190505b50905060608667ffffffffffffffff8111801561212757600080fd5b50604051908082528060200260200182016040528015612151578160200160208202803683370190505b507fffffffffffffffffffffffffffffffffffffffffffffffffffffffffffffffff90970196905086600160008080805b848c169350848b169250848a16915087868151811061219d57fe5b60200260200101516001901b90508483141561224457848414156121c8575050505050505050611d37565b8786815181106121d457fe5b6020908102919091010180516001019052856121f2578c9550612238565b86517fffffffffffffffffffffffffffffffffffffffffffffffffffffffffffffffff8701968891811061222257fe5b602002602001015161223357612238565b6121c8565b600185901b9450612182565b8484141561230b575b84821415612275578089878151811061226257fe5b6020026020010181815117915081815250505b87868151811061228157fe5b60209081029190910101805160010190528561229f578c955061230b565b8686815181106122ab57fe5b60200260200101516122e1576001878780600190039850815181106122cc57fe5b9115156020928302919091019091015261230b565b6001878780600190039850815181106122f657fe5b9115156020928302919091019091015261224d565b848214612332578089878151811061231f57fe5b6020026020010181815117915081815250505b87868151811061233e57fe5b60209081029190910101805160010190528561235c578c9550612238565b86517fffffffffffffffffffffffffffffffffffffffffffffffffffffffffffffffff8701968891811061238c57fe5b602002602001015161239d57612238565b61230b565b6000611eae6123b184846126c5565b612880565b6000806123cd6123c68787612992565b8585612a6e565b9150915094509492505050565b6040516000906123f2908290859085906020016131f0565b60405160208183030381529060405280519060200120905092915050565b600080600060f81b868660405160200161242c939291906131f0565b6040516020818303038152906040528051906020012091506123cd828585612c69565b6060818067ffffffffffffffff8111801561246957600080fd5b50604051908082528060200260200182016040528015612493578160200160208202803683370190505b5091507fffffffffffffffffffffffffffffffffffffffffffffffffffffffffffffffff810160005b828110156125505760008686848181106124d257fe5b90506020028101906124e49190613773565b6040516020016124f6939291906131f0565b6040516020818303038152906040528051906020012084828151811061251857fe5b60209081029190910101527fffffffffffffffffffffffffffffffffffffffffffffffffffffffffffffffff909101906001016124bc565b50505092915050565b82516000908180600460018288888381811061257157fe5b90506020020135905060008989600281811061258957fe5b90506020020135905060008a8a60038181106125a157fe5b9050602002013590505b838483161415612648578384841614156125f2578b600187156125ce57876125d0565b895b03815181106125db57fe5b602002602001015198505050505050505050611eae565b8b87815181106125fe57fe5b60200260200101518c878151811061261257fe5b60200260200101818152505087876001018161262a57fe5b06965087866001018161263957fe5b069550600184901b93506125ab565b838484161461266f578a8a8680600101975081811061266357fe5b90506020020135612689565b8b5160018801978d91811061268057fe5b60200260200101515b985087878161269457fe5b0696506126b98c88815181106126a657fe5b60200260200101518a8687851614612d1d565b8c878151811061261257fe5b606081600181811c908216018067ffffffffffffffff811180156126e857600080fd5b50604051908082528060200260200182016040528015612712578160200160208202803683370190505b5092506000805b828210156128765750600181901b7fffffffffffffffffffffffffffffffffffffffffffffffffffffffffffffffff84018114156127b657600087878381811061275f57fe5b90506020028101906127719190613773565b604051602001612783939291906131f0565b604051602081830303815290604052805190602001208583815181106127a557fe5b602002602001018181525050612876565b61285460008888848181106127c757fe5b90506020028101906127d99190613773565b6040516020016127eb939291906131f0565b60405160208183030381529060405280519060200120600060f81b89898560010181811061281557fe5b90506020028101906128279190613773565b604051602001612839939291906131f0565b60405160208183030381529060405280519060200120612073565b855160018401938791811061286557fe5b602002602001018181525050612719565b5050505092915050565b805160009081805b60018311156129735750600181901b7fffffffffffffffffffffffffffffffffffffffffffffffffffffffffffffffff8301811415612902578481815181106128cd57fe5b60200260200101518583815181106128e157fe5b6020026020010181815250506000915082600116600184901c019250612888565b82811061291e576000915082600116600184901c019250612888565b61295185828151811061292d57fe5b602002602001015186836001018151811061294457fe5b6020026020010151612073565b855160018401938791811061296257fe5b602002602001018181525050612888565b8460008151811061298057fe5b60200260200101519350505050919050565b6060818067ffffffffffffffff811180156129ac57600080fd5b506040519080825280602002602001820160405280156129d6578160200160208202803683370190505b5091505b8015612a67577fffffffffffffffffffffffffffffffffffffffffffffffffffffffffffffffff016000848483818110612a1057fe5b9050602002810190612a229190613773565b604051602001612a34939291906131f0565b60405160208183030381529060405280519060200120828281518110612a5657fe5b6020026020010181815250506129da565b5092915050565b8251600090819081808087878281612a8257fe5b60200291909101359485017fffffffffffffffffffffffffffffffffffffffffffffffffffffffffffffffff019491508190506000612ac082612d3d565b63ffffffff169050898982818110612ad457fe5b9050602002013597505b8515612c415784158015612af55750816001166001145b15612b8f57612b1c8a8a83818110612b0957fe5b905060200201358c868151811061294457fe5b8b600081518110612b2957fe5b6020908102919091010152600193909301927fffffffffffffffffffffffffffffffffffffffffffffffffffffffffffffffff018015612b8257612b7f8a8a83818110612b7257fe5b9050602002013589612073565b97505b6001945090840190612bea565b85821015612bea57612bc08b8580600101965081518110612bac57fe5b60200260200101518c868151811061294457fe5b8b5160018701968d918110612bd157fe5b6020026020010181815250506001840193506002820191505b858210612c3c5785821415612c26578a8481518110612c0557fe5b60200260200101518b8681518110612c1957fe5b6020026020010181815250505b600195861c95600095508594509290921c918291505b612ade565b878b600081518110612c4f57fe5b602002602001015197509750505050505050935093915050565b6000806000612c8d85856000818110612c7e57fe5b9050602002013560001c612d3d565b63ffffffff169050848482818110612ca157fe5b905060200201359250612cb48387612073565b95505b6001811115612d14577fffffffffffffffffffffffffffffffffffffffffffffffffffffffffffffffff01848482818110612cee57fe5b905060200201359150612d018287612073565b9550612d0d8284612073565b9250612cb7565b50909492505050565b600081612d3357612d2e8385612073565b611d37565b611d378484612073565b600181901c6355555555169003600281901c6333333333908116911601600481901c630fffffff1601630f0f0f0f1663010101010260181c60ff1690565b60008083601f840112612d8c578182fd5b50813567ffffffffffffffff811115612da3578182fd5b6020830191508360208083028501011115612dbd57600080fd5b9250929050565b60008083601f840112612dd5578182fd5b50813567ffffffffffffffff811115612dec578182fd5b602083019150836020828501011115612dbd57600080fd5b600060208284031215612e15578081fd5b8135611eae816137fe565b60008060008060008060008060c0898b031215612e3b578384fd5b8835612e46816137fe565b9750602089013567ffffffffffffffff80821115612e62578586fd5b612e6e8c838d01612d7b565b909950975060408b0135965060608b0135955060808b0135915080821115612e94578485fd5b50612ea18b828c01612d7b565b999c989b50969995989497949560a00135949350505050565b60008060008060808587031215612ecf578384fd5b8435612eda816137fe565b966020860135965060408601359560600135945092505050565b600080600080600060608688031215612f0b578081fd5b853567ffffffffffffffff80821115612f22578283fd5b612f2e89838a01612d7b565b9097509550602088013594506040880135915080821115612f4d578283fd5b50612f5a88828901612d7b565b969995985093965092949392505050565b600080600080600080600060a0888a031215612f85578283fd5b873567ffffffffffffffff80821115612f9c578485fd5b612fa88b838c01612d7b565b909950975060208a0135965060408a0135955060608a0135915080821115612fce578485fd5b50612fdb8a828b01612d7b565b989b979a50959894979596608090950135949350505050565b600060208284031215613005578081fd5b5035919050565b60006020828403121561301d578081fd5b5051919050565b6000806000806000806000806000806101008b8d031215613043578182fd5b8a35995060208b013567ffffffffffffffff80821115613061578384fd5b61306d8e838f01612d7b565b909b50995060408d0135915080821115613085578384fd5b506130928d828e01612d7b565b9b9e9a9d50989b989a9960608a0135996080810135995060a0810135985060c0810135975060e0013595509350505050565b600080602083850312156130d6578081fd5b823567ffffffffffffffff8111156130ec578182fd5b6130f885828601612dc4565b90969095509350505050565b60008060008060006060868803121561311b578283fd5b853567ffffffffffffffff80821115613132578485fd5b612f2e89838a01612dc4565b600080600080600080600060a0888a031215613158578081fd5b873567ffffffffffffffff8082111561316f578283fd5b61317b8b838c01612dc4565b909950975060208a0135965060408a0135955060608a0135915080821115612fce578283fd5b600080600080606085870312156131b6578182fd5b843567ffffffffffffffff8111156131cc578283fd5b6131d887828801612dc4565b90989097506020870135966040013595509350505050565b60007fff000000000000000000000000000000000000000000000000000000000000008516825282846001840137910160010190815292915050565b9283526020830191909152604082015260600190565b73ffffffffffffffffffffffffffffffffffffffff91909116815260200190565b90815260200190565b60006020825282602083015282846040840137818301604090810191909152601f9092017fffffffffffffffffffffffffffffffffffffffffffffffffffffffffffffffe0160101919050565b6020808252600a908201527f4e4f545f4c4f434b455200000000000000000000000000000000000000000000604082015260600190565b60208082526015908201527f494e53554646494349454e545f524f4c4c4241434b0000000000000000000000604082015260600190565b60208082526011908201527f524f4c4c4241434b5f5245515549524544000000000000000000000000000000604082015260600190565b60208082526010908201527f494e56414c49445f43414c4c4441544100000000000000000000000000000000604082015260600190565b60208082526013908201527f414c52454144595f494e495449414c495a454400000000000000000000000000604082015260600190565b60208082526012908201527f494e434f52524543545f43414c4c444154410000000000000000000000000000604082015260600190565b6020808252600d908201527f494e56414c49445f50524f4f4600000000000000000000000000000000000000604082015260600190565b60208082526010908201527f56414c49445f5452414e534954494f4e00000000000000000000000000000000604082015260600190565b6020808252600c908201527f494e56414c49445f545245450000000000000000000000000000000000000000604082015260600190565b6020808252600d908201527f494e56414c49445f524f4f545300000000000000000000000000000000000000604082015260600190565b6020808252600c908201527f494e56414c49445f53495a450000000000000000000000000000000000000000604082015260600190565b60208082526010908201527f4143434f554e545f554e4c4f434b454400000000000000000000000000000000604082015260600190565b60208082526014908201527f524f4c4c4241434b5f554e4e4543455353415259000000000000000000000000604082015260600190565b60208082526015908201527f494e53554646494349454e545f43414c4c444154410000000000000000000000604082015260600190565b60208082526011908201527f524f4c4c4241434b5f544f4f5f44454550000000000000000000000000000000604082015260600190565b60208082526013908201527f494e53554646494349454e545f57494e444f5700000000000000000000000000604082015260600190565b60208082526010908201527f494e56414c49445f524f4c4c4241434b00000000000000000000000000000000604082015260600190565b6020808252600e908201527f4143434f554e545f4c4f434b4544000000000000000000000000000000000000604082015260600190565b60208082526011908201527f494e53554646494349454e545f54494d45000000000000000000000000000000604082015260600190565b60208082526014908201527f43414c4c45525f555345525f4d49534d41544348000000000000000000000000604082015260600190565b6020808252600c908201527f494e56414c49445f424f4e440000000000000000000000000000000000000000604082015260600190565b60208082526011908201527f494e53554646494349454e545f424f4e44000000000000000000000000000000604082015260600190565b60008083357fffffffffffffffffffffffffffffffffffffffffffffffffffffffffffffffe18436030181126137a7578283fd5b83018035915067ffffffffffffffff8211156137c1578283fd5b602001915036819003821315612dbd57600080fd5b600080858511156137e5578182fd5b838611156137f1578182fd5b5050820193919092039150565b73ffffffffffffffffffffffffffffffffffffffff8116811461055b57600080fdfea26469706673582212208dc75adcb20dc137a11b3b28b06c19cddf176af925b33286ed41dc9032d35a3e64736f6c63430007030033",
  "immutableReferences": {
    "116": [
      {
        "length": 32,
        "start": 1654
      },
      {
        "length": 32,
        "start": 1811
      },
      {
        "length": 32,
        "start": 7047
      },
      {
        "length": 32,
        "start": 7634
      }
    ],
    "118": [
      {
        "length": 32,
        "start": 1467
      },
      {
        "length": 32,
        "start": 1618
      },
      {
        "length": 32,
        "start": 2280
      }
    ],
    "120": [
      {
        "length": 32,
        "start": 1015
      },
      {
        "length": 32,
        "start": 1061
      },
      {
        "length": 32,
        "start": 1198
      },
      {
        "length": 32,
        "start": 3957
      }
    ]
  },
  "source": "// SPDX-License-Identifier: MIT\n\npragma solidity >=0.6.0 <=0.7.3;\npragma experimental ABIEncoderV2;\n\nimport \"merkle-trees/eth/contracts/internal-merkle-library.sol\";\nimport \"./optimistic-roll-in-compatible.sol\";\n\n// TODO: perhaps a owner-controlled sighash whitelist for optimistically performing, and therefore a non-performing exit method\n// TODO: consider verifying being view, or some kind of forced \"come up for air\" mechanism\n// TODO: make required bond queryable\n// TODO: logic_address cannot be immutable if it will be upgradeable\n\ncontract Optimistic_Roll_In {\n  event ORI_New_State(address indexed user, bytes32 indexed new_state);\n  event ORI_New_Optimistic_State(address indexed user, uint256 indexed block_time);\n  event ORI_New_Optimistic_States(address indexed user, uint256 indexed block_time);\n  event ORI_Locked(address indexed suspect, address indexed accuser);\n  event ORI_Unlocked(address indexed suspect, address indexed accuser, uint256 indexed block_time);\n  event ORI_Fraud_Proven(address indexed accuser, address indexed suspect, uint256 indexed transition_index);\n  event ORI_Rolled_Back(address indexed user, uint256 indexed tree_size, uint256 indexed block_time);\n\n  Optimistic_Roll_In_Compatible public immutable logic_contract;\n  uint256 public immutable lock_time;\n  uint256 public immutable required_bond;\n\n  mapping(address => uint256) public balances;\n  mapping(address => bytes32) public account_states;\n  mapping(address => address) public lockers;\n  mapping(address => uint256) public locked_timestamps;\n  mapping(address => uint256) public rollback_sizes;\n\n  constructor(\n    address _logic_address,\n    uint256 _lock_time,\n    uint256 _required_bond\n  ) {\n    logic_contract = Optimistic_Roll_In_Compatible(_logic_address);\n    lock_time = _lock_time;\n    required_bond = _required_bond;\n  }\n\n  modifier not_initialized(address user) {\n    require(account_states[user] == bytes32(0), \"ALREADY_INITIALIZED\");\n    _;\n  }\n\n  modifier not_locked(address user) {\n    require(lockers[user] == address(0), \"ACCOUNT_LOCKED\");\n    _;\n  }\n\n  modifier is_locked(address user) {\n    require(lockers[user] != address(0), \"ACCOUNT_UNLOCKED\");\n    _;\n  }\n\n  modifier no_rollback_required(address user) {\n    require(rollback_sizes[user] == 0, \"ROLLBACK_REQUIRED\");\n    _;\n  }\n\n  modifier can_exit_optimism(uint256 last_time) {\n    // Check that enough time has elapsed for potential fraud proofs (10 minutes)\n    require(last_time + lock_time < block.timestamp, \"INSUFFICIENT_TIME\");\n    _;\n  }\n\n  modifier sufficient_calldata(bytes[] calldata call_data) {\n    // Check that there is more than 1 call data (if not, user should have called perform_optimistically)\n    require(call_data.length > 1, \"INSUFFICIENT_CALLDATA\");\n    _;\n  }\n\n  modifier lock_expired(address user) {\n    require(locked_timestamps[user] + lock_time <= block.timestamp, \"INSUFFICIENT_WINDOW\");\n    _;\n  }\n\n  // Fallback to receive ETH and bond msg.value for msg.sender\n  receive() external payable {\n    apply_bond(msg.sender);\n  }\n\n  // Bonds amount for user, and reverts if resulting balance less than 1 ETH\n  function apply_bond(address user) internal returns (uint256 remainder) {\n    if (balances[user] == required_bond) return msg.value;\n\n    require(msg.value >= required_bond, \"INSUFFICIENT_BOND\");\n\n    balances[user] = required_bond;\n    return msg.value - required_bond;\n  }\n\n  // Bonds msg.value for user\n  function bond(address user) public payable {\n    require(apply_bond(user) == 0, \"INVALID_BOND\");\n  }\n\n  // Sets user's account state to starting point, and bonds msg.value\n  function initialize() external payable not_initialized(msg.sender) {\n    address user = msg.sender;\n    uint256 remainder = apply_bond(user);\n\n    // call the initializer, passing any remaining amount and get initial state (S_0)\n    bytes32 initial_state = logic_contract.initialize_state{ value: remainder }(user);\n\n    // Set account state to combination of empty call data tree, initial state (S_0), and last time of 0 (not in optimism)\n    account_states[user] = keccak256(abi.encodePacked(bytes32(0), initial_state, bytes32(0)));\n\n    emit ORI_New_State(user, initial_state);\n  }\n\n  // Allows unbonding of ETH if account not locked\n  function unbond(address payable destination) public not_locked(msg.sender) {\n    address user = msg.sender;\n    uint256 amount = balances[user];\n    balances[user] = 0;\n    destination.transfer(amount);\n  }\n\n  // Returns true if calling the logic contract with the call data results in new state\n  function verify_transition(\n    address user,\n    bytes calldata call_data,\n    bytes32 new_state\n  ) internal view returns (bool) {\n    // Check that the user is the user extracted from calldata (20 bytes starting after the function signature)\n    if (user != abi.decode(call_data[4:], (address))) return false;\n\n    // Compute a new state\n    try logic_contract.optimistic_call(call_data) returns (bytes32 state) {\n      return state == new_state;\n    } catch {\n      return false;\n    }\n  }\n\n  // Calls logic contract and updates account state\n  function normal_perform(\n    address caller,\n    bytes calldata call_data,\n    bytes32 call_data_root,\n    uint256 last_time\n  ) internal not_locked(caller) {\n    // Check that the caller is the user extracted from calldata (20 bytes starting after the function signature)\n    require(caller == abi.decode(call_data[4:], (address)), \"CALLER_USER_MISMATCH\");\n\n    // Extract current state (S_n or S_0) from calldata (32 bytes starting after the sig and user)\n    bytes32 state = abi.decode(call_data[36:], (bytes32));\n\n    // Check that the user it not in an optimistic state, which means that their account state is\n    // an empty call data tree, current state (S_n or S_0), and the last block is 0\n    require(\n      keccak256(abi.encodePacked(call_data_root, state, bytes32(last_time))) == account_states[caller],\n      \"INVALID_ROOTS\"\n    );\n\n    // Compute a new state (S_n+1 or S_1), reusing the state variable\n    state = logic_contract.pessimistic_call{ value: msg.value }(call_data);\n\n    // Set the account state to an empty call data tree, the new state (S_n+1 or S_1), and last time 0\n    account_states[caller] = keccak256(abi.encodePacked(bytes32(0), state, bytes32(0)));\n\n    emit ORI_New_State(caller, state);\n  }\n\n  // Set the account state to the on-chain computed new state, if the account is not locked\n  function perform(bytes calldata call_data) external payable {\n    normal_perform(msg.sender, call_data, bytes32(0), 0);\n  }\n\n  // Exits optimism by setting the account state to the on-chain computed new state, if the account is not locked\n  function perform_and_exit(\n    bytes calldata call_data,\n    bytes32 call_data_root,\n    uint256 last_time\n  ) external payable no_rollback_required(msg.sender) can_exit_optimism(last_time) {\n    normal_perform(msg.sender, call_data, call_data_root, last_time);\n  }\n\n  // Updates account state with optimistic transition data\n  function optimistic_perform(\n    address caller,\n    bytes calldata call_data,\n    bytes32 new_state,\n    bytes32 call_data_root,\n    bytes32[] calldata proof,\n    uint256 last_time\n  ) internal not_locked(caller) {\n    // Extract current state (S_0) from call data (32 bytes starting after sig and user)\n    bytes32 state = abi.decode(call_data[36:], (bytes32));\n\n    // Check that the user it not in an optimistic state, which means that their account state is\n    // an empty call data tree, current state (S_0), and the last block is 0\n    require(\n      keccak256(abi.encodePacked(call_data_root, state, bytes32(last_time))) == account_states[caller],\n      \"INVALID_ROOTS\"\n    );\n\n    // Get root of new merkle tree with 1 call data element (CD_0), reusing state as call_data_root\n    state = Internal_Merkle_Library.try_append_one_c(call_data_root, call_data, proof);\n\n    // Combine call data root, new state (S_1), and current time into account state\n    account_states[caller] = keccak256(abi.encodePacked(state, new_state, bytes32(block.timestamp)));\n\n    emit ORI_New_Optimistic_State(caller, block.timestamp);\n  }\n\n  // Enters optimism by updating the account state optimistically with call data and a new state, if the account is not locked\n  function perform_optimistically_and_enter(\n    bytes calldata call_data,\n    bytes32 new_state,\n    bytes32[] calldata proof\n  ) external {\n    optimistic_perform(msg.sender, call_data, new_state, bytes32(0), proof, 0);\n  }\n\n  // Updates the account state optimistically with call data and a new state, if the account is not locked\n  function perform_optimistically(\n    bytes calldata call_data,\n    bytes32 new_state,\n    bytes32 call_data_root,\n    bytes32[] calldata proof,\n    uint256 last_time\n  ) external {\n    optimistic_perform(msg.sender, call_data, new_state, call_data_root, proof, last_time);\n  }\n\n  // Updates account state with optimistic batch transition data\n  function optimistic_perform_many(\n    address user,\n    bytes[] calldata call_data,\n    bytes32 new_state,\n    bytes32 call_data_root,\n    bytes32[] calldata proof,\n    uint256 last_time\n  ) internal not_locked(user) sufficient_calldata(call_data) {\n    // Extract current state (S_n) from first call data (32 bytes starting after sig and user)\n    bytes32 state = abi.decode(call_data[0][36:], (bytes32));\n\n    // Check that the call data root, current state (S_n), and last time are valid for this user\n    require(\n      keccak256(abi.encodePacked(call_data_root, state, bytes32(last_time))) == account_states[user],\n      \"INVALID_ROOTS\"\n    );\n\n    // Get new merkle root of call data tree, appending several call data (CD_n - CD_n+m), reusing state as call_data_root\n    state = Internal_Merkle_Library.try_append_many_c(call_data_root, call_data, proof);\n\n    // Combine call data root, new state (S_n+m), and current time into account state\n    account_states[user] = keccak256(abi.encodePacked(state, new_state, bytes32(block.timestamp)));\n\n    emit ORI_New_Optimistic_States(user, block.timestamp);\n  }\n\n  // Enters optimism by updating the account state optimistically with several call data and final state, if the account is not locked\n  function perform_many_optimistically_and_enter(\n    bytes[] calldata call_data,\n    bytes32 new_state,\n    bytes32[] calldata proof\n  ) external {\n    optimistic_perform_many(msg.sender, call_data, new_state, bytes32(0), proof, 0);\n  }\n\n  // Updates the account state optimistically with several call data and final state, if the account is not locked\n  function perform_many_optimistically(\n    bytes[] calldata call_data,\n    bytes32 new_state,\n    bytes32 call_data_root,\n    bytes32[] calldata proof,\n    uint256 last_time\n  ) external {\n    optimistic_perform_many(msg.sender, call_data, new_state, call_data_root, proof, last_time);\n  }\n\n  // Lock two users (suspect and accuser)\n  // Note: accuser and suspect cannot already be locked, but this might have to change so a single accuser isn't overwhelmed with fraud\n  function lock(address suspect) external payable not_locked(msg.sender) not_locked(suspect) {\n    address accuser = msg.sender;\n\n    // Lock both the accuser and the suspect\n    lockers[suspect] = accuser;\n    locked_timestamps[suspect] = block.timestamp;\n    lockers[accuser] = accuser;\n    locked_timestamps[accuser] = block.timestamp;\n\n    // The accuser may be trying to bond at the same time (this also check that have enough bonded)\n    require(apply_bond(accuser) == 0, \"INVALID_BOND\");\n\n    emit ORI_Locked(suspect, accuser);\n  }\n\n  // Unlock two users (suspect and accuser)\n  function unlock(\n    address suspect,\n    bytes32 state,\n    bytes32 call_data_root,\n    uint256 last_time\n  ) external is_locked(suspect) lock_expired(suspect) no_rollback_required(suspect) {\n    // Check that the call data root, current state (S_n), and last time are valid for this user\n    require(\n      keccak256(abi.encodePacked(call_data_root, state, bytes32(last_time))) == account_states[suspect],\n      \"INVALID_ROOTS\"\n    );\n\n    // Unlock both accounts\n    address accuser = lockers[suspect];\n    lockers[suspect] = address(0);\n    locked_timestamps[suspect] = 0;\n    lockers[accuser] = address(0);\n    locked_timestamps[accuser] = 0;\n\n    // Give the suspect the accuser's bond for having not proven fraud within a reasonable time frame\n    // TODO: consider burning some here to prevent self-reporting breakeven\n    uint256 amount = balances[accuser];\n    balances[accuser] = 0;\n    balances[suspect] += amount;\n\n    // If suspect was not in optimistic state, then just emit event and return\n    if (last_time == 0) {\n      emit ORI_Unlocked(suspect, accuser, 0);\n      return;\n    }\n\n    // Combine call data root, current state (S_n), and current time into account state\n    // Note: updating last time is important, to prevent suspect blocking fraud proofs by locking themselves\n    account_states[suspect] = keccak256(abi.encodePacked(call_data_root, state, bytes32(block.timestamp)));\n\n    emit ORI_Unlocked(suspect, accuser, block.timestamp);\n  }\n\n  // Reward accuser for proving fraud in a suspect's transition, and track the expected rolled back account state size\n  function prove_fraud(\n    address suspect,\n    bytes[] calldata call_data,\n    bytes32 state,\n    bytes32 call_data_root,\n    bytes32[] calldata proof,\n    uint256 last_time\n  ) external {\n    address accuser = msg.sender;\n\n    // Only the user that flagged/locked the suspect can prove fraud\n    require(lockers[suspect] == accuser, \"NOT_LOCKER\");\n\n    // Check that the call data root, current state (S_n), and last time are valid for this user\n    require(\n      keccak256(abi.encodePacked(call_data_root, state, bytes32(last_time))) == account_states[suspect],\n      \"INVALID_ROOTS\"\n    );\n\n    // Check that the call data exist\n    require(Internal_Merkle_Library.elements_exist_c(call_data_root, call_data, proof), \"INVALID_CALLDATA\");\n\n    // get the indices of the call data in the call data tre\n    uint256[] memory call_data_indices = Internal_Merkle_Library.get_indices(call_data, proof);\n\n    // The transition index is the index of the starting call data of the fraud proof\n    uint256 transition_index = call_data_indices[0];\n\n    // If only one call data is provided, the fraud involves the last call data and current state\n    if (call_data.length == 1) {\n      // Check that the call data index is the last (call data tree size minus 1)\n      require(transition_index + 1 == uint256(proof[0]), \"INCORRECT_CALLDATA\");\n\n      // Fail if the state transition was valid\n      require(verify_transition(suspect, call_data[0], state) == false, \"VALID_TRANSITION\");\n    } else {\n      // Check that call data provided are consecutive\n      require(transition_index + 1 == call_data_indices[1]);\n\n      // Extract new state from second call data (32 bytes starting after the sig and user), reusing state var\n      state = abi.decode(call_data[1][36:], (bytes32));\n\n      // Fail if the state transition was valid\n      require(verify_transition(suspect, call_data[0], state) == false, \"VALID_TRANSITION\");\n    }\n\n    // Take the suspect's bond and give it to the accuser, reusing last_time var\n    // TODO: consider burning some here to prevent self-reporting breakeven\n    last_time = balances[suspect];\n    balances[suspect] = 0;\n    balances[accuser] += last_time;\n\n    // Unlock the accuser's account\n    lockers[accuser] = address(0);\n    locked_timestamps[accuser] = 0;\n\n    // Set the rollback size to the amount of elements that should be in the call data tree once rolled back\n    rollback_sizes[suspect] = transition_index;\n\n    // Set the suspect as the reason for their account's lock\n    lockers[suspect] = suspect;\n    locked_timestamps[suspect] = 0;\n\n    emit ORI_Fraud_Proven(accuser, suspect, transition_index);\n  }\n\n  // Rolls a user back, given the current roots, old roots, and a proof of the optimistic transitions between them\n  function rollback(\n    bytes32 rolled_back_call_data_root,\n    bytes[] calldata rolled_back_call_data,\n    bytes32[] calldata roll_back_proof,\n    uint256 current_size,\n    bytes32 current_size_proof,\n    bytes32 call_data_root,\n    bytes32 state,\n    uint256 last_time\n  ) external payable {\n    address user = msg.sender;\n    uint256 expected_size = rollback_sizes[user];\n    require(expected_size != 0, \"ROLLBACK_UNNECESSARY\");\n\n    // Check that the call data root, current state (S_n), and last time are valid for this user\n    require(\n      keccak256(abi.encodePacked(call_data_root, state, bytes32(last_time))) == account_states[user],\n      \"INVALID_ROOTS\"\n    );\n\n    // Check that the provided size of the current call data tree is correct\n    require(Internal_Merkle_Library.verify_size(call_data_root, current_size, current_size_proof), \"INVALID_SIZE\");\n\n    // Allow incremental roll back by checking that the rolled back call data tree is smaller than the current tree\n    uint256 rolled_back_size = uint256(roll_back_proof[0]);\n    require(rolled_back_size < current_size, \"INSUFFICIENT_ROLLBACK\");\n\n    // Check that this is not rolling back too far, though\n    require(rolled_back_size >= expected_size, \"ROLLBACK_TOO_DEEP\");\n\n    // Check that the current call data root is derived by appending the rolled back call data to the rolled back call data root\n    require(\n      Internal_Merkle_Library.try_append_many_c(rolled_back_call_data_root, rolled_back_call_data, roll_back_proof) ==\n        call_data_root,\n      \"INVALID_ROLLBACK\"\n    );\n\n    // Extract new state from first rolled back call data (32 bytes starting after the sig and user), reusing state var\n    state = abi.decode(rolled_back_call_data[0][36:], (bytes32));\n\n    // Combine rolled back call data root, new state (S_n-m), and current time into account state\n    account_states[user] = keccak256(abi.encodePacked(rolled_back_call_data_root, state, bytes32(block.timestamp)));\n\n    // Unlock the user and clear the rollback flag, if roll back is complete\n    if (rolled_back_size == expected_size) {\n      lockers[user] = address(0);\n      rollback_sizes[user] = 0;\n    }\n\n    // The user may be trying to bond at the same time (this also check that have enough bonded)\n    require(apply_bond(user) == 0, \"INVALID_BOND\");\n\n    emit ORI_Rolled_Back(user, rolled_back_size, block.timestamp);\n  }\n}\n",
  "sourcePath": "/Users/michaeldeluca/Projects/optimistic-roll-in/eth/contracts/optimistic-roll-in.sol",
  "compiler": {
    "name": "solc",
    "version": "0.7.3+commit.9bfce1f6.Emscripten.clang"
  },
  "schemaVersion": "3.3.2",
  "updatedAt": "2020-12-07T22:33:11.952Z",
  "networkType": "ethereum",
  "devdoc": {
    "kind": "dev",
    "methods": {},
    "version": 1
  },
  "userdoc": {
    "kind": "user",
    "methods": {},
    "version": 1
  }
}