{
  "contractName": "Optimistic_Roll_In",
  "abi": [
    {
      "inputs": [
        {
          "internalType": "address",
          "name": "_logic_address",
          "type": "address"
        },
        {
          "internalType": "bytes4",
          "name": "_initializer",
          "type": "bytes4"
        },
        {
          "internalType": "uint256",
          "name": "_lock_time",
          "type": "uint256"
        },
        {
          "internalType": "uint256",
          "name": "_required_bond",
          "type": "uint256"
        }
      ],
      "stateMutability": "nonpayable",
      "type": "constructor"
    },
    {
      "anonymous": false,
      "inputs": [
        {
          "indexed": true,
          "internalType": "address",
          "name": "accuser",
          "type": "address"
        },
        {
          "indexed": true,
          "internalType": "address",
          "name": "suspect",
          "type": "address"
        },
        {
          "indexed": true,
          "internalType": "uint256",
          "name": "transition_index",
          "type": "uint256"
        },
        {
          "indexed": false,
          "internalType": "uint256",
          "name": "amount",
          "type": "uint256"
        }
      ],
      "name": "ORI_Fraud_Proven",
      "type": "event"
    },
    {
      "anonymous": false,
      "inputs": [
        {
          "indexed": true,
          "internalType": "address",
          "name": "suspect",
          "type": "address"
        },
        {
          "indexed": true,
          "internalType": "address",
          "name": "accuser",
          "type": "address"
        }
      ],
      "name": "ORI_Locked",
      "type": "event"
    },
    {
      "anonymous": false,
      "inputs": [
        {
          "indexed": true,
          "internalType": "address",
          "name": "user",
          "type": "address"
        },
        {
          "indexed": true,
          "internalType": "uint256",
          "name": "block_time",
          "type": "uint256"
        }
      ],
      "name": "ORI_New_Optimistic_State",
      "type": "event"
    },
    {
      "anonymous": false,
      "inputs": [
        {
          "indexed": true,
          "internalType": "address",
          "name": "user",
          "type": "address"
        },
        {
          "indexed": true,
          "internalType": "uint256",
          "name": "block_time",
          "type": "uint256"
        }
      ],
      "name": "ORI_New_Optimistic_States",
      "type": "event"
    },
    {
      "anonymous": false,
      "inputs": [
        {
          "indexed": true,
          "internalType": "address",
          "name": "user",
          "type": "address"
        },
        {
          "indexed": true,
          "internalType": "bytes32",
          "name": "new_state",
          "type": "bytes32"
        }
      ],
      "name": "ORI_New_State",
      "type": "event"
    },
    {
      "anonymous": false,
      "inputs": [
        {
          "indexed": true,
          "internalType": "address",
          "name": "user",
          "type": "address"
        },
        {
          "indexed": true,
          "internalType": "uint256",
          "name": "tree_size",
          "type": "uint256"
        },
        {
          "indexed": true,
          "internalType": "uint256",
          "name": "block_time",
          "type": "uint256"
        }
      ],
      "name": "ORI_Rolled_Back",
      "type": "event"
    },
    {
      "anonymous": false,
      "inputs": [
        {
          "indexed": true,
          "internalType": "address",
          "name": "suspect",
          "type": "address"
        },
        {
          "indexed": true,
          "internalType": "address",
          "name": "accuser",
          "type": "address"
        }
      ],
      "name": "ORI_Unlocked",
      "type": "event"
    },
    {
      "inputs": [
        {
          "internalType": "address",
          "name": "",
          "type": "address"
        }
      ],
      "name": "account_states",
      "outputs": [
        {
          "internalType": "bytes32",
          "name": "",
          "type": "bytes32"
        }
      ],
      "stateMutability": "view",
      "type": "function",
      "constant": true
    },
    {
      "inputs": [
        {
          "internalType": "address",
          "name": "",
          "type": "address"
        }
      ],
      "name": "balances",
      "outputs": [
        {
          "internalType": "uint256",
          "name": "",
          "type": "uint256"
        }
      ],
      "stateMutability": "view",
      "type": "function",
      "constant": true
    },
    {
      "inputs": [],
      "name": "initializer",
      "outputs": [
        {
          "internalType": "bytes4",
          "name": "",
          "type": "bytes4"
        }
      ],
      "stateMutability": "view",
      "type": "function",
      "constant": true
    },
    {
      "inputs": [],
      "name": "lock_time",
      "outputs": [
        {
          "internalType": "uint256",
          "name": "",
          "type": "uint256"
        }
      ],
      "stateMutability": "view",
      "type": "function",
      "constant": true
    },
    {
      "inputs": [
        {
          "internalType": "address",
          "name": "",
          "type": "address"
        }
      ],
      "name": "locked_timestamps",
      "outputs": [
        {
          "internalType": "uint256",
          "name": "",
          "type": "uint256"
        }
      ],
      "stateMutability": "view",
      "type": "function",
      "constant": true
    },
    {
      "inputs": [
        {
          "internalType": "address",
          "name": "",
          "type": "address"
        }
      ],
      "name": "lockers",
      "outputs": [
        {
          "internalType": "address",
          "name": "",
          "type": "address"
        }
      ],
      "stateMutability": "view",
      "type": "function",
      "constant": true
    },
    {
      "inputs": [],
      "name": "logic_address",
      "outputs": [
        {
          "internalType": "address",
          "name": "",
          "type": "address"
        }
      ],
      "stateMutability": "view",
      "type": "function",
      "constant": true
    },
    {
      "inputs": [],
      "name": "required_bond",
      "outputs": [
        {
          "internalType": "uint256",
          "name": "",
          "type": "uint256"
        }
      ],
      "stateMutability": "view",
      "type": "function",
      "constant": true
    },
    {
      "inputs": [
        {
          "internalType": "address",
          "name": "",
          "type": "address"
        }
      ],
      "name": "rollback_sizes",
      "outputs": [
        {
          "internalType": "uint256",
          "name": "",
          "type": "uint256"
        }
      ],
      "stateMutability": "view",
      "type": "function",
      "constant": true
    },
    {
      "stateMutability": "payable",
      "type": "receive",
      "payable": true
    },
    {
      "inputs": [
        {
          "internalType": "address",
          "name": "user",
          "type": "address"
        }
      ],
      "name": "bond",
      "outputs": [],
      "stateMutability": "payable",
      "type": "function",
      "payable": true
    },
    {
      "inputs": [],
      "name": "initialize",
      "outputs": [],
      "stateMutability": "payable",
      "type": "function",
      "payable": true
    },
    {
      "inputs": [
        {
          "internalType": "address payable",
          "name": "destination",
          "type": "address"
        }
      ],
      "name": "unbond",
      "outputs": [],
      "stateMutability": "nonpayable",
      "type": "function"
    },
    {
      "inputs": [
        {
          "internalType": "bytes",
          "name": "call_data",
          "type": "bytes"
        }
      ],
      "name": "perform",
      "outputs": [],
      "stateMutability": "payable",
      "type": "function",
      "payable": true
    },
    {
      "inputs": [
        {
          "internalType": "bytes",
          "name": "call_data",
          "type": "bytes"
        },
        {
          "internalType": "bytes32",
          "name": "call_data_root",
          "type": "bytes32"
        },
        {
          "internalType": "uint256",
          "name": "last_time",
          "type": "uint256"
        }
      ],
      "name": "perform_and_exit",
      "outputs": [],
      "stateMutability": "payable",
      "type": "function",
      "payable": true
    },
    {
      "inputs": [
        {
          "internalType": "bytes",
          "name": "call_data",
          "type": "bytes"
        },
        {
          "internalType": "bytes32",
          "name": "new_state",
          "type": "bytes32"
        },
        {
          "internalType": "bytes32[]",
          "name": "proof",
          "type": "bytes32[]"
        }
      ],
      "name": "perform_optimistically_and_enter",
      "outputs": [],
      "stateMutability": "nonpayable",
      "type": "function"
    },
    {
      "inputs": [
        {
          "internalType": "bytes",
          "name": "call_data",
          "type": "bytes"
        },
        {
          "internalType": "bytes32",
          "name": "new_state",
          "type": "bytes32"
        },
        {
          "internalType": "bytes32",
          "name": "call_data_root",
          "type": "bytes32"
        },
        {
          "internalType": "bytes32[]",
          "name": "proof",
          "type": "bytes32[]"
        },
        {
          "internalType": "uint256",
          "name": "last_time",
          "type": "uint256"
        }
      ],
      "name": "perform_optimistically",
      "outputs": [],
      "stateMutability": "nonpayable",
      "type": "function"
    },
    {
      "inputs": [
        {
          "internalType": "bytes[]",
          "name": "call_data",
          "type": "bytes[]"
        },
        {
          "internalType": "bytes32",
          "name": "new_state",
          "type": "bytes32"
        },
        {
          "internalType": "bytes32[]",
          "name": "proof",
          "type": "bytes32[]"
        }
      ],
      "name": "perform_many_optimistically_and_enter",
      "outputs": [],
      "stateMutability": "nonpayable",
      "type": "function"
    },
    {
      "inputs": [
        {
          "internalType": "bytes[]",
          "name": "call_data",
          "type": "bytes[]"
        },
        {
          "internalType": "bytes32",
          "name": "new_state",
          "type": "bytes32"
        },
        {
          "internalType": "bytes32",
          "name": "call_data_root",
          "type": "bytes32"
        },
        {
          "internalType": "bytes32[]",
          "name": "proof",
          "type": "bytes32[]"
        },
        {
          "internalType": "uint256",
          "name": "last_time",
          "type": "uint256"
        }
      ],
      "name": "perform_many_optimistically",
      "outputs": [],
      "stateMutability": "nonpayable",
      "type": "function"
    },
    {
      "inputs": [
        {
          "internalType": "address",
          "name": "suspect",
          "type": "address"
        }
      ],
      "name": "lock_user",
      "outputs": [],
      "stateMutability": "payable",
      "type": "function",
      "payable": true
    },
    {
      "inputs": [
        {
          "internalType": "address",
          "name": "suspect",
          "type": "address"
        },
        {
          "internalType": "bytes32",
          "name": "state",
          "type": "bytes32"
        },
        {
          "internalType": "bytes32",
          "name": "call_data_root",
          "type": "bytes32"
        },
        {
          "internalType": "uint256",
          "name": "last_time",
          "type": "uint256"
        }
      ],
      "name": "unlock",
      "outputs": [],
      "stateMutability": "nonpayable",
      "type": "function"
    },
    {
      "inputs": [
        {
          "internalType": "address",
          "name": "suspect",
          "type": "address"
        },
        {
          "internalType": "bytes[]",
          "name": "call_data",
          "type": "bytes[]"
        },
        {
          "internalType": "bytes32",
          "name": "state",
          "type": "bytes32"
        },
        {
          "internalType": "bytes32",
          "name": "call_data_root",
          "type": "bytes32"
        },
        {
          "internalType": "bytes32[]",
          "name": "proof",
          "type": "bytes32[]"
        },
        {
          "internalType": "uint256",
          "name": "last_time",
          "type": "uint256"
        }
      ],
      "name": "prove_fraud",
      "outputs": [],
      "stateMutability": "nonpayable",
      "type": "function"
    },
    {
      "inputs": [
        {
          "internalType": "bytes32",
          "name": "rolled_back_call_data_root",
          "type": "bytes32"
        },
        {
          "internalType": "bytes[]",
          "name": "rolled_back_call_data",
          "type": "bytes[]"
        },
        {
          "internalType": "bytes32[]",
          "name": "roll_back_proof",
          "type": "bytes32[]"
        },
        {
          "internalType": "uint256",
          "name": "current_size",
          "type": "uint256"
        },
        {
          "internalType": "bytes32",
          "name": "current_size_proof",
          "type": "bytes32"
        },
        {
          "internalType": "bytes32",
          "name": "call_data_root",
          "type": "bytes32"
        },
        {
          "internalType": "bytes32",
          "name": "state",
          "type": "bytes32"
        },
        {
          "internalType": "uint256",
          "name": "last_time",
          "type": "uint256"
        }
      ],
      "name": "rollback",
      "outputs": [],
      "stateMutability": "payable",
      "type": "function",
      "payable": true
    }
  ],
  "bytecode": "0x6101006040523480156200001257600080fd5b5060405162003a9538038062003a9583398101604081905262000035916200007c565b60609390931b6001600160601b0319166080527fffffffff000000000000000000000000000000000000000000000000000000009190911660a05260c05260e052620000f5565b6000806000806080858703121562000092578384fd5b84516001600160a01b0381168114620000a9578485fd5b60208601519094507fffffffff0000000000000000000000000000000000000000000000000000000081168114620000df578384fd5b6040860151606090960151949790965092505050565b60805160601c60a05160e01c60e01b60c05160e0516139346200016160003980610424528061045252806104db52806111ff5250806105e8528061067f5280610ba952508061092f5280610e215250806108f752806112355280611c255280611e8852506139346000f3fe6080604052600436106101795760003560e01c80638129fc1c116100cb578063b20554001161007f578063c45481bb11610059578063c45481bb146103a9578063e1124200146103c9578063e4da61ab146103dc5761018a565b8063b20554001461036c578063bb6ae2cb14610381578063c0c45267146103945761018a565b80639ce110d7116100b05780639ce110d71461030a578063a68f59131461032c578063af7b5a411461034c5761018a565b80638129fc1c146102e25780638ee16d13146102ea5761018a565b80632a4154541161012d5780635b1db142116101075780635b1db1421461028f5780636a8dddef146102a25780637a9f05b5146102c25761018a565b80632a4154541461023a5780632c8e7a211461024d578063480bb7c41461027a5761018a565b8063177f15c51161015e578063177f15c5146101d1578063247ce85b146101f157806327e235e3146102045761018a565b806308542bb11461018f5780631646d051146101b15761018a565b3661018a57610187336103fc565b50005b600080fd5b34801561019b57600080fd5b506101af6101aa366004612f3b565b610506565b005b3480156101bd57600080fd5b506101af6101cc366004613185565b61051e565b3480156101dd57600080fd5b506101af6101ec36600461314b565b610537565b6101af6101ff366004612e4b565b610548565b34801561021057600080fd5b5061022461021f366004612e4b565b61058b565b60405161023191906132f3565b60405180910390f35b6101af6102483660046131e8565b61059d565b34801561025957600080fd5b5061026d610268366004612e4b565b610655565b60405161023191906132d2565b34801561028657600080fd5b5061022461067d565b6101af61029d366004612e4b565b6106a1565b3480156102ae57600080fd5b506101af6102bd366004612fb2565b61087a565b3480156102ce57600080fd5b506102246102dd366004612e4b565b61088a565b6101af61089c565b3480156102f657600080fd5b506101af610305366004612f01565b610b1e565b34801561031657600080fd5b5061031f610e1f565b60405161023191906132fc565b34801561033857600080fd5b506101af610347366004612e67565b610e43565b34801561035857600080fd5b50610224610367366004612e4b565b6111eb565b34801561037857600080fd5b506102246111fd565b6101af61038f36600461310b565b611221565b3480156103a057600080fd5b5061026d611233565b3480156103b557600080fd5b506102246103c4366004612e4b565b611257565b6101af6103d736600461306b565b611269565b3480156103e857600080fd5b506101af6103f7366004612e4b565b6115ec565b73ffffffffffffffffffffffffffffffffffffffff81166000908152602081905260408120547f00000000000000000000000000000000000000000000000000000000000000001415610450575034610501565b7f00000000000000000000000000000000000000000000000000000000000000003410156104b3576040517f08c379a00000000000000000000000000000000000000000000000000000000081526004016104aa906137e3565b60405180910390fd5b5073ffffffffffffffffffffffffffffffffffffffff811660009081526020819052604090207f00000000000000000000000000000000000000000000000000000000000000009081905534035b919050565b6105173386868660008787826116a2565b5050505050565b61052e33888888888888886118d9565b50505050505050565b6105173386868660008787826118d9565b610551816103fc565b15610588576040517f08c379a00000000000000000000000000000000000000000000000000000000081526004016104aa906137ac565b50565b60006020819052908152604090205481565b33600081815260046020526040902054156105e4576040517f08c379a00000000000000000000000000000000000000000000000000000000081526004016104aa90613397565b81427f0000000000000000000000000000000000000000000000000000000000000000820110610640576040517f08c379a00000000000000000000000000000000000000000000000000000000081526004016104aa9061373e565b61064d3387878787611a96565b505050505050565b60026020526000908152604090205473ffffffffffffffffffffffffffffffffffffffff1681565b7f000000000000000000000000000000000000000000000000000000000000000081565b3360008181526002602052604090205473ffffffffffffffffffffffffffffffffffffffff16156106fe576040517f08c379a00000000000000000000000000000000000000000000000000000000081526004016104aa90613707565b73ffffffffffffffffffffffffffffffffffffffff8083166000908152600260205260409020548391161561075f576040517f08c379a00000000000000000000000000000000000000000000000000000000081526004016104aa90613707565b73ffffffffffffffffffffffffffffffffffffffff831660009081526002602081815260408084208054337fffffffffffffffffffffffff000000000000000000000000000000000000000091821681179092556003808552838720429081905583885295855283872080549092168317909155909252909220556107e3816103fc565b1561081a576040517f08c379a00000000000000000000000000000000000000000000000000000000081526004016104aa906137ac565b8073ffffffffffffffffffffffffffffffffffffffff168473ffffffffffffffffffffffffffffffffffffffff167f8773bde6581ad6ddd421210de867340039fb65ce3df41edba7b5de6d24ae7a5160405160405180910390a350505050565b61052e33888888888888886116a2565b60036020526000908152604090205481565b33600081815260016020526040902054156108e3576040517f08c379a00000000000000000000000000000000000000000000000000000000081526004016104aa90613405565b3360006108ef826103fc565b9050600060607f000000000000000000000000000000000000000000000000000000000000000073ffffffffffffffffffffffffffffffffffffffff16837f00000000000000000000000000000000000000000000000000000000000000008660405160240161095f91906132d2565b604080517fffffffffffffffffffffffffffffffffffffffffffffffffffffffffffffffe08184030181529181526020820180517bffffffffffffffffffffffffffffffffffffffffffffffffffffffff167fffffffff000000000000000000000000000000000000000000000000000000009094169390931790925290516109e89190613299565b60006040518083038185875af1925050503d8060008114610a25576040519150601f19603f3d011682016040523d82523d6000602084013e610a2a565b606091505b509150915081610a66576040517f08c379a00000000000000000000000000000000000000000000000000000000081526004016104aa90613699565b600081806020019051810190610a7c9190613053565b604051909150610a959060009083908290602001613273565b604080517fffffffffffffffffffffffffffffffffffffffffffffffffffffffffffffffe0818403018152828252805160209182012073ffffffffffffffffffffffffffffffffffffffff8916600081815260019093529282205583927f0f5025cc4f20aa47a346d1b7d9da6ba8c68cc8e83b75e813da4b4490d55365ae9190a3505050505050565b73ffffffffffffffffffffffffffffffffffffffff808516600090815260026020526040902054859116610b7e576040517f08c379a00000000000000000000000000000000000000000000000000000000081526004016104aa90613586565b73ffffffffffffffffffffffffffffffffffffffff85166000908152600360205260409020548590427f00000000000000000000000000000000000000000000000000000000000000009091011115610c03576040517f08c379a00000000000000000000000000000000000000000000000000000000081526004016104aa90613662565b73ffffffffffffffffffffffffffffffffffffffff8616600090815260046020526040902054869015610c62576040517f08c379a00000000000000000000000000000000000000000000000000000000081526004016104aa90613397565b73ffffffffffffffffffffffffffffffffffffffff8716600090815260016020908152604091829020549151610c9e9188918a91899101613273565b6040516020818303038152906040528051906020012014610ceb576040517f08c379a00000000000000000000000000000000000000000000000000000000081526004016104aa90613518565b73ffffffffffffffffffffffffffffffffffffffff808816600081815260026020818152604080842080547fffffffffffffffffffffffff00000000000000000000000000000000000000008082169092556003808552838720879055971680865293835281852080549091169055948152848320839055828152848320805490849055938352918490208054840190559251610d8e9189918b91429101613273565b604080517fffffffffffffffffffffffffffffffffffffffffffffffffffffffffffffffe0818403018152828252805160209182012073ffffffffffffffffffffffffffffffffffffffff808e1660008181526001909452938320919091558516927f524512344e535e9bda79e916c2ea8c7b9e5d23d83e1b95181d7622b4ac3d42939190a3505050505050505050565b7f000000000000000000000000000000000000000000000000000000000000000081565b73ffffffffffffffffffffffffffffffffffffffff8881166000908152600260205260409020543391168114610ea5576040517f08c379a00000000000000000000000000000000000000000000000000000000081526004016104aa90613329565b73ffffffffffffffffffffffffffffffffffffffff8916600090815260016020908152604091829020549151610ee19188918a91879101613273565b6040516020818303038152906040528051906020012014610f2e576040517f08c379a00000000000000000000000000000000000000000000000000000000081526004016104aa90613518565b610f3b8589898787611da2565b610f71576040517f08c379a00000000000000000000000000000000000000000000000000000000081526004016104aa906133ce565b6060610f7f89898787611dda565b9050600081600081518110610f9057fe5b60200260200101519050898990506001141561105d5785856000818110610fb357fe5b9050602002013560001c8160010114610ff8576040517f08c379a00000000000000000000000000000000000000000000000000000000081526004016104aa9061343c565b6110218b8b8b600081811061100957fe5b905060200281019061101b9190613851565b8b611e2c565b15611058576040517f08c379a00000000000000000000000000000000000000000000000000000000081526004016104aa906134aa565b611104565b8160018151811061106a57fe5b6020026020010151816001011461108057600080fd5b8989600181811061108d57fe5b905060200281019061109f9190613851565b6110ad9160249082906138b4565b8101906110ba919061303b565b97506110cd8b8b8b600081811061100957fe5b15611104576040517f08c379a00000000000000000000000000000000000000000000000000000000081526004016104aa906134aa565b73ffffffffffffffffffffffffffffffffffffffff808c16600081815260208181526040808320805490849055948816808452818420805487019055600280845282852080547fffffffffffffffffffffffff00000000000000000000000000000000000000009081169091556003808652848720879055878752600486528487208a905591855283862080549091168717905590925280832092909255905192965083927fa66290bc21cee2ba1a3c6ba2cac21d24511cea1f9ed7efe453736f24fd894886906111d69089906132f3565b60405180910390a45050505050505050505050565b60016020526000908152604090205481565b7f000000000000000000000000000000000000000000000000000000000000000081565b61122f338383600080611a96565b5050565b7f000000000000000000000000000000000000000000000000000000000000000081565b60046020526000908152604090205481565b33600081815260046020526040902054806112b0576040517f08c379a00000000000000000000000000000000000000000000000000000000081526004016104aa906135bd565b73ffffffffffffffffffffffffffffffffffffffff82166000908152600160209081526040918290205491516112ec9188918891889101613273565b6040516020818303038152906040528051906020012014611339576040517f08c379a00000000000000000000000000000000000000000000000000000000081526004016104aa90613518565b611344858888611f48565b61137a576040517f08c379a00000000000000000000000000000000000000000000000000000000081526004016104aa9061354f565b60008989600081811061138957fe5b9050602002013560001c90508781106113ce576040517f08c379a00000000000000000000000000000000000000000000000000000000081526004016104aa90613360565b81811015611408576040517f08c379a00000000000000000000000000000000000000000000000000000000081526004016104aa9061362b565b856114168e8e8e8e8e611f79565b1461144d576040517f08c379a00000000000000000000000000000000000000000000000000000000081526004016104aa906136d0565b8b8b600081811061145a57fe5b905060200281019061146c9190613851565b61147a9160249082906138b4565b810190611487919061303b565b60405190955061149f908e9087904290602001613273565b604080517fffffffffffffffffffffffffffffffffffffffffffffffffffffffffffffffe0818403018152918152815160209283012073ffffffffffffffffffffffffffffffffffffffff861660009081526001909352912055808214156115585773ffffffffffffffffffffffffffffffffffffffff8316600090815260026020908152604080832080547fffffffffffffffffffffffff000000000000000000000000000000000000000016905560049091528120555b611561836103fc565b15611598576040517f08c379a00000000000000000000000000000000000000000000000000000000081526004016104aa906137ac565b42818473ffffffffffffffffffffffffffffffffffffffff167f4d7ed8c49e6b03daee23a18f4bd14bd7e4628e5ed54c57bf84407a693867eca960405160405180910390a450505050505050505050505050565b3360008181526002602052604090205473ffffffffffffffffffffffffffffffffffffffff1615611649576040517f08c379a00000000000000000000000000000000000000000000000000000000081526004016104aa90613707565b336000818152602081905260408082208054908390559051909173ffffffffffffffffffffffffffffffffffffffff86169183156108fc0291849190818181858888f19350505050158015610517573d6000803e3d6000fd5b73ffffffffffffffffffffffffffffffffffffffff80891660009081526002602052604090205489911615611703576040517f08c379a00000000000000000000000000000000000000000000000000000000081526004016104aa90613707565b87876001811161173f576040517f08c379a00000000000000000000000000000000000000000000000000000000081526004016104aa906135f4565b60008a8a600081811061174e57fe5b90506020028101906117609190613851565b61176e9160249082906138b4565b81019061177b919061303b565b73ffffffffffffffffffffffffffffffffffffffff8d1660009081526001602090815260409182902054915192935090916117bc918b9185918a9101613273565b6040516020818303038152906040528051906020012014611809576040517f08c379a00000000000000000000000000000000000000000000000000000000081526004016104aa90613518565b611816888c8c8a8a611f79565b60405190915061182e9082908b904290602001613273565b60405160208183030381529060405280519060200120600160008e73ffffffffffffffffffffffffffffffffffffffff1673ffffffffffffffffffffffffffffffffffffffff16815260200190815260200160002081905550428c73ffffffffffffffffffffffffffffffffffffffff167f0b87b136840d19f5f25329273082c00833265a189b70137e06df6315ddc7839e60405160405180910390a3505050505050505050505050565b73ffffffffffffffffffffffffffffffffffffffff8089166000908152600260205260409020548991161561193a576040517f08c379a00000000000000000000000000000000000000000000000000000000081526004016104aa90613707565b6000611949886024818c6138b4565b810190611956919061303b565b73ffffffffffffffffffffffffffffffffffffffff8b1660009081526001602090815260409182902054915192935090916119979189918591889101613273565b60405160208183030381529060405280519060200120146119e4576040517f08c379a00000000000000000000000000000000000000000000000000000000081526004016104aa90613518565b6119f1868a8a8888612056565b604051909150611a0990829089904290602001613273565b604080517fffffffffffffffffffffffffffffffffffffffffffffffffffffffffffffffe0818403018152828252805160209182012073ffffffffffffffffffffffffffffffffffffffff8e16600081815260019093529282205542927f4779c4b07abff82b16061ec9a47d081e7f4981c29088395cdb7ff87e322cbbc69190a350505050505050505050565b73ffffffffffffffffffffffffffffffffffffffff80861660009081526002602052604090205486911615611af7576040517f08c379a00000000000000000000000000000000000000000000000000000000081526004016104aa90613707565b611b0484600481886138b4565b810190611b119190612e4b565b73ffffffffffffffffffffffffffffffffffffffff168673ffffffffffffffffffffffffffffffffffffffff1614611b75576040517f08c379a00000000000000000000000000000000000000000000000000000000081526004016104aa90613775565b6000611b8485602481896138b4565b810190611b91919061303b565b73ffffffffffffffffffffffffffffffffffffffff88166000908152600160209081526040918290205491519293509091611bd29187918591889101613273565b6040516020818303038152906040528051906020012014611c1f576040517f08c379a00000000000000000000000000000000000000000000000000000000081526004016104aa90613518565b600060607f000000000000000000000000000000000000000000000000000000000000000073ffffffffffffffffffffffffffffffffffffffff16348989604051611c6b929190613289565b60006040518083038185875af1925050503d8060008114611ca8576040519150601f19603f3d011682016040523d82523d6000602084013e611cad565b606091505b509150915081611ce9576040517f08c379a00000000000000000000000000000000000000000000000000000000081526004016104aa9061381a565b80806020019051810190611cfd9190613053565b604051909350611d169060009085908290602001613273565b604080517fffffffffffffffffffffffffffffffffffffffffffffffffffffffffffffffe0818403018152828252805160209182012073ffffffffffffffffffffffffffffffffffffffff8d16600081815260019093529282205585927f0f5025cc4f20aa47a346d1b7d9da6ba8c68cc8e83b75e813da4b4490d55365ae9190a3505050505050505050565b600085611dcd84846000818110611db557fe5b90506020020135611dc888888888612121565b6122c4565b1490505b95945050505050565b6060611e218484846001818110611ded57fe5b9050602002013585856002818110611e0157fe5b9050602002013586866003818110611e1557fe5b905060200201356122d3565b90505b949350505050565b6000611e3b83600481876138b4565b810190611e489190612e4b565b73ffffffffffffffffffffffffffffffffffffffff168573ffffffffffffffffffffffffffffffffffffffff1614611e8257506000611e24565b600060607f000000000000000000000000000000000000000000000000000000000000000073ffffffffffffffffffffffffffffffffffffffff168686604051611ecd929190613289565b6000604051808303816000865af19150503d8060008114611f0a576040519150601f19603f3d011682016040523d82523d6000602084013e611f0f565b606091505b509150915081611f2457600092505050611e24565b600081806020019051810190611f3a9190613053565b909414979650505050505050565b600083158015611f56575082155b15611f6357506001611f72565b83611f6e84846122c4565b1490505b9392505050565b60008083836000818110611f8957fe5b60200291909101359150508615811514611fcf576040517f08c379a00000000000000000000000000000000000000000000000000000000081526004016104aa906134e1565b86611fea57611fe285611dc888826125f3565b915050611dd1565b6000611ff887878787612709565b935090508761200783836122c4565b1461203e576040517f08c379a00000000000000000000000000000000000000000000000000000000081526004016104aa90613473565b61204a828701846122c4565b98975050505050505050565b6000808383600081811061206657fe5b602002919091013591505086158115146120ac576040517f08c379a00000000000000000000000000000000000000000000000000000000081526004016104aa906134e1565b866120c057611fe26001611dc88888612919565b60006120ce8787878761294f565b93509050876120dd83836122c4565b14612114576040517f08c379a00000000000000000000000000000000000000000000000000000000081526004016104aa90613473565b61204a60018301846122c4565b60008060606121308787612a19565b9092509050600080600460018289898381811061214957fe5b90506020020135905060008a8a600281811061216157fe5b90506020020135905060008b8b600381811061217957fe5b9050602002013590505b838483161415612221578384841614156121cb5787600187156121a657876121a8565b8a5b03815181106121b357fe5b60200260200101519950505050505050505050611e24565b8787815181106121d757fe5b60200260200101518887815181106121eb57fe5b60200260200101818152505088876001018161220357fe5b06965088866001018161221257fe5b069550600184901b9350612183565b8384841614612248578b8b8680600101975081811061223c57fe5b90506020020135612262565b875160018801978991811061225957fe5b60200260200101515b995088878161226d57fe5b069650838482161461229b576122968a89898151811061228957fe5b60200260200101516122c4565b6122b8565b6122b88888815181106122aa57fe5b60200260200101518b6122c4565b8887815181106121eb57fe5b60009182526020526040902090565b60608467ffffffffffffffff811180156122ec57600080fd5b50604051908082528060200260200182016040528015612316578160200160208202803683370190505b50905060608567ffffffffffffffff8111801561233257600080fd5b5060405190808252806020026020018201604052801561235c578160200160208202803683370190505b50905060608667ffffffffffffffff8111801561237857600080fd5b506040519080825280602002602001820160405280156123a2578160200160208202803683370190505b507fffffffffffffffffffffffffffffffffffffffffffffffffffffffffffffffff90970196905086600160008080805b848c169350848b169250848a1691508786815181106123ee57fe5b60200260200101516001901b9050848314156124955784841415612419575050505050505050611e24565b87868151811061242557fe5b602090810291909101018051600101905285612443578c9550612489565b86517fffffffffffffffffffffffffffffffffffffffffffffffffffffffffffffffff8701968891811061247357fe5b602002602001015161248457612489565b612419565b600185901b94506123d3565b8484141561255c575b848214156124c657808987815181106124b357fe5b6020026020010181815117915081815250505b8786815181106124d257fe5b6020908102919091010180516001019052856124f0578c955061255c565b8686815181106124fc57fe5b60200260200101516125325760018787806001900398508151811061251d57fe5b9115156020928302919091019091015261255c565b60018787806001900398508151811061254757fe5b9115156020928302919091019091015261249e565b848214612583578089878151811061257057fe5b6020026020010181815117915081815250505b87868151811061258f57fe5b6020908102919091010180516001019052856125ad578c9550612489565b86517fffffffffffffffffffffffffffffffffffffffffffffffffffffffffffffffff870196889181106125dd57fe5b60200260200101516125ee57612489565b61255c565b60008060606126028585612b23565b915091506000805b60018411156126e85750600181901b7fffffffffffffffffffffffffffffffffffffffffffffffffffffffffffffffff84018114156126845782818151811061264f57fe5b602002602001015183838151811061266357fe5b6020026020010181815250506000915083600116600185901c01935061260a565b8381106126a0576000915083600116600185901c01935061260a565b6126c68382815181106126af57fe5b602002602001015184836001018151811061228957fe5b83516001840193859181106126d757fe5b60200260200101818152505061260a565b826000815181106126f557fe5b602002602001015194505050505092915050565b6000806000606061271a8888612cc3565b9150915060008060008888600081811061273057fe5b60200291909101359586017fffffffffffffffffffffffffffffffffffffffffffffffffffffffffffffffff01959150819050600061276e82612d84565b63ffffffff1690508a8a8281811061278257fe5b9050602002013598505b86156128ef57841580156127a35750816001166001145b1561283d576127ca8b8b838181106127b757fe5b9050602002013587868151811061228957fe5b866000815181106127d757fe5b6020908102919091010152600193909301927fffffffffffffffffffffffffffffffffffffffffffffffffffffffffffffffff0180156128305761282d8b8b8381811061282057fe5b905060200201358a6122c4565b98505b6001945090840190612898565b868210156128985761286e86858060010196508151811061285a57fe5b602002602001015187868151811061228957fe5b865160018701968891811061287f57fe5b6020026020010181815250506001840193506002820191505b8682106128ea57868214156128d4578584815181106128b357fe5b60200260200101518686815181106128c757fe5b6020026020010181815250505b600196871c96600095508594509290921c918291505b61278c565b88866000815181106128fd57fe5b6020026020010151985098505050505050505094509492505050565b60405160009061293190829085908590602001613237565b60405160208183030381529060405280519060200120905092915050565b60008060006129738585600081811061296457fe5b9050602002013560001c612d84565b63ffffffff16905084848281811061298757fe5b9050602002013592506129c883600060f81b89896040516020016129ad93929190613237565b604051602081830303815290604052805190602001206122c4565b915060005b6001821115612a0e576001820391508585838181106129e857fe5b9050602002013590506129fb81846122c4565b9250612a0781856122c4565b93506129cd565b505094509492505050565b8060608167ffffffffffffffff81118015612a3357600080fd5b50604051908082528060200260200182016040528015612a5d578160200160208202803683370190505b5090507fffffffffffffffffffffffffffffffffffffffffffffffffffffffffffffffff820160005b83811015612b1a576000868684818110612a9c57fe5b9050602002810190612aae9190613851565b604051602001612ac093929190613237565b60405160208183030381529060405280519060200120838281518110612ae257fe5b60209081029190910101527fffffffffffffffffffffffffffffffffffffffffffffffffffffffffffffffff90910190600101612a86565b50509250929050565b600181811c908216016060828267ffffffffffffffff81118015612b4657600080fd5b50604051908082528060200260200182016040528015612b70578160200160208202803683370190505b5091506000805b84821015612cb95750600181901b7fffffffffffffffffffffffffffffffffffffffffffffffffffffffffffffffff8301811415612c14576000878783818110612bbd57fe5b9050602002810190612bcf9190613851565b604051602001612be193929190613237565b60405160208183030381529060405280519060200120848381518110612c0357fe5b602002602001018181525050612cb9565b612c976000888884818110612c2557fe5b9050602002810190612c379190613851565b604051602001612c4993929190613237565b60405160208183030381529060405280519060200120600060f81b898985600101818110612c7357fe5b9050602002810190612c859190613851565b6040516020016129ad93929190613237565b8451600184019386918110612ca857fe5b602002602001018181525050612b77565b5050509250929050565b8060608167ffffffffffffffff81118015612cdd57600080fd5b50604051908082528060200260200182016040528015612d07578160200160208202803683370190505b50905060005b82811015612d7c576000858583818110612d2357fe5b9050602002810190612d359190613851565b604051602001612d4793929190613237565b60405160208183030381529060405280519060200120828281518110612d6957fe5b6020908102919091010152600101612d0d565b509250929050565b600181901c6355555555169003600281901c6333333333908116911601600481901c630fffffff1601630f0f0f0f1663010101010260181c60ff1690565b60008083601f840112612dd3578182fd5b50813567ffffffffffffffff811115612dea578182fd5b6020830191508360208083028501011115612e0457600080fd5b9250929050565b60008083601f840112612e1c578182fd5b50813567ffffffffffffffff811115612e33578182fd5b602083019150836020828501011115612e0457600080fd5b600060208284031215612e5c578081fd5b8135611f72816138dc565b60008060008060008060008060c0898b031215612e82578384fd5b8835612e8d816138dc565b9750602089013567ffffffffffffffff80821115612ea9578586fd5b612eb58c838d01612dc2565b909950975060408b0135965060608b0135955060808b0135915080821115612edb578485fd5b50612ee88b828c01612dc2565b999c989b50969995989497949560a00135949350505050565b60008060008060808587031215612f16578384fd5b8435612f21816138dc565b966020860135965060408601359560600135945092505050565b600080600080600060608688031215612f52578081fd5b853567ffffffffffffffff80821115612f69578283fd5b612f7589838a01612dc2565b9097509550602088013594506040880135915080821115612f94578283fd5b50612fa188828901612dc2565b969995985093965092949392505050565b600080600080600080600060a0888a031215612fcc578283fd5b873567ffffffffffffffff80821115612fe3578485fd5b612fef8b838c01612dc2565b909950975060208a0135965060408a0135955060608a0135915080821115613015578485fd5b506130228a828b01612dc2565b989b979a50959894979596608090950135949350505050565b60006020828403121561304c578081fd5b5035919050565b600060208284031215613064578081fd5b5051919050565b6000806000806000806000806000806101008b8d03121561308a578182fd5b8a35995060208b013567ffffffffffffffff808211156130a8578384fd5b6130b48e838f01612dc2565b909b50995060408d01359150808211156130cc578384fd5b506130d98d828e01612dc2565b9b9e9a9d50989b989a9960608a0135996080810135995060a0810135985060c0810135975060e0013595509350505050565b6000806020838503121561311d578081fd5b823567ffffffffffffffff811115613133578182fd5b61313f85828601612e0b565b90969095509350505050565b600080600080600060608688031215613162578283fd5b853567ffffffffffffffff80821115613179578485fd5b612f7589838a01612e0b565b600080600080600080600060a0888a03121561319f578081fd5b873567ffffffffffffffff808211156131b6578283fd5b6131c28b838c01612e0b565b909950975060208a0135965060408a0135955060608a0135915080821115613015578283fd5b600080600080606085870312156131fd578182fd5b843567ffffffffffffffff811115613213578283fd5b61321f87828801612e0b565b90989097506020870135966040013595509350505050565b60007fff000000000000000000000000000000000000000000000000000000000000008516825282846001840137910160010190815292915050565b9283526020830191909152604082015260600190565b6000828483379101908152919050565b60008251815b818110156132b9576020818601810151858301520161329f565b818111156132c75782828501525b509190910192915050565b73ffffffffffffffffffffffffffffffffffffffff91909116815260200190565b90815260200190565b7fffffffff0000000000000000000000000000000000000000000000000000000091909116815260200190565b6020808252600a908201527f4e4f545f4c4f434b455200000000000000000000000000000000000000000000604082015260600190565b60208082526015908201527f494e53554646494349454e545f524f4c4c4241434b0000000000000000000000604082015260600190565b60208082526011908201527f524f4c4c4241434b5f5245515549524544000000000000000000000000000000604082015260600190565b60208082526010908201527f494e56414c49445f43414c4c4441544100000000000000000000000000000000604082015260600190565b60208082526013908201527f414c52454144595f494e495449414c495a454400000000000000000000000000604082015260600190565b60208082526012908201527f494e434f52524543545f43414c4c444154410000000000000000000000000000604082015260600190565b6020808252600d908201527f494e56414c49445f50524f4f4600000000000000000000000000000000000000604082015260600190565b60208082526010908201527f56414c49445f5452414e534954494f4e00000000000000000000000000000000604082015260600190565b6020808252600c908201527f494e56414c49445f545245450000000000000000000000000000000000000000604082015260600190565b6020808252600d908201527f494e56414c49445f524f4f545300000000000000000000000000000000000000604082015260600190565b6020808252600c908201527f494e56414c49445f53495a450000000000000000000000000000000000000000604082015260600190565b60208082526010908201527f4143434f554e545f554e4c4f434b454400000000000000000000000000000000604082015260600190565b60208082526014908201527f524f4c4c4241434b5f554e4e4543455353415259000000000000000000000000604082015260600190565b60208082526015908201527f494e53554646494349454e545f43414c4c444154410000000000000000000000604082015260600190565b60208082526011908201527f524f4c4c4241434b5f544f4f5f44454550000000000000000000000000000000604082015260600190565b60208082526013908201527f494e53554646494349454e545f57494e444f5700000000000000000000000000604082015260600190565b60208082526011908201527f494e495449414c495a455f4641494c4544000000000000000000000000000000604082015260600190565b60208082526010908201527f494e56414c49445f524f4c4c4241434b00000000000000000000000000000000604082015260600190565b6020808252600e908201527f4143434f554e545f4c4f434b4544000000000000000000000000000000000000604082015260600190565b60208082526011908201527f494e53554646494349454e545f54494d45000000000000000000000000000000604082015260600190565b60208082526014908201527f43414c4c45525f555345525f4d49534d41544348000000000000000000000000604082015260600190565b6020808252600c908201527f494e56414c49445f424f4e440000000000000000000000000000000000000000604082015260600190565b60208082526011908201527f494e53554646494349454e545f424f4e44000000000000000000000000000000604082015260600190565b6020808252600b908201527f43414c4c5f4641494c4544000000000000000000000000000000000000000000604082015260600190565b60008083357fffffffffffffffffffffffffffffffffffffffffffffffffffffffffffffffe1843603018112613885578283fd5b83018035915067ffffffffffffffff82111561389f578283fd5b602001915036819003821315612e0457600080fd5b600080858511156138c3578182fd5b838611156138cf578182fd5b5050820193919092039150565b73ffffffffffffffffffffffffffffffffffffffff8116811461058857600080fdfea2646970667358221220caefb5639cbb83d8d899f4bc1d8eb81539f61ecb0c1f8b165eef4bd681d48a2b64736f6c63430007030033",
  "immutableReferences": {
    "90": [
      {
        "length": 32,
        "start": 2295
      },
      {
        "length": 32,
        "start": 4661
      },
      {
        "length": 32,
        "start": 7205
      },
      {
        "length": 32,
        "start": 7816
      }
    ],
    "92": [
      {
        "length": 32,
        "start": 2351
      },
      {
        "length": 32,
        "start": 3617
      }
    ],
    "94": [
      {
        "length": 32,
        "start": 1512
      },
      {
        "length": 32,
        "start": 1663
      },
      {
        "length": 32,
        "start": 2985
      }
    ],
    "96": [
      {
        "length": 32,
        "start": 1060
      },
      {
        "length": 32,
        "start": 1106
      },
      {
        "length": 32,
        "start": 1243
      },
      {
        "length": 32,
        "start": 4607
      }
    ]
  },
  "source": "// SPDX-License-Identifier: MIT\n\npragma solidity >=0.6.0 <=0.7.3;\npragma experimental ABIEncoderV2;\n\nimport \"merkle-trees/eth/contracts/libraries/calldata/bytes/standard/merkle-library.sol\";\n\n// TODO: perhaps a owner-controlled sighash whitelist for optimistically performing, and therefore a non-performing exit method\n// TODO: consider verifying being view, or some kind of forced \"come up for air\" mechanism\n// TODO: make required bond queryable\n// TODO: logic_address cannot be immutable if it will be upgradeable\n// TODO: initializer cannot be immutable if it will be upgradeable\n\ncontract Optimistic_Roll_In {\n  event ORI_New_State(address indexed user, bytes32 indexed new_state);\n  event ORI_New_Optimistic_State(address indexed user, uint256 indexed block_time);\n  event ORI_New_Optimistic_States(address indexed user, uint256 indexed block_time);\n  event ORI_Locked(address indexed suspect, address indexed accuser);\n  event ORI_Unlocked(address indexed suspect, address indexed accuser);\n  event ORI_Fraud_Proven(\n    address indexed accuser,\n    address indexed suspect,\n    uint256 indexed transition_index,\n    uint256 amount\n  );\n  event ORI_Rolled_Back(address indexed user, uint256 indexed tree_size, uint256 indexed block_time);\n\n  address public immutable logic_address;\n  bytes4 public immutable initializer;\n  uint256 public immutable lock_time;\n  uint256 public immutable required_bond;\n\n  mapping(address => uint256) public balances;\n  mapping(address => bytes32) public account_states;\n  mapping(address => address) public lockers;\n  mapping(address => uint256) public locked_timestamps;\n  mapping(address => uint256) public rollback_sizes;\n\n  constructor(\n    address _logic_address,\n    bytes4 _initializer,\n    uint256 _lock_time,\n    uint256 _required_bond\n  ) {\n    logic_address = _logic_address;\n    initializer = _initializer;\n    lock_time = _lock_time;\n    required_bond = _required_bond;\n  }\n\n  modifier not_initialized(address user) {\n    require(account_states[user] == bytes32(0), \"ALREADY_INITIALIZED\");\n    _;\n  }\n\n  modifier not_locked(address user) {\n    require(lockers[user] == address(0), \"ACCOUNT_LOCKED\");\n    _;\n  }\n\n  modifier is_locked(address user) {\n    require(lockers[user] != address(0), \"ACCOUNT_UNLOCKED\");\n    _;\n  }\n\n  modifier no_rollback_required(address user) {\n    require(rollback_sizes[user] == 0, \"ROLLBACK_REQUIRED\");\n    _;\n  }\n\n  modifier can_exit_optimism(uint256 last_time) {\n    // Check that enough time has elapsed for potential fraud proofs (10 minutes)\n    require(last_time + lock_time < block.timestamp, \"INSUFFICIENT_TIME\");\n    _;\n  }\n\n  modifier sufficient_calldata(bytes[] calldata call_data) {\n    // Check that there is more than 1 call data (if not, user should have called perform_optimistically)\n    require(call_data.length > 1, \"INSUFFICIENT_CALLDATA\");\n    _;\n  }\n\n  modifier lock_expired(address user) {\n    require(locked_timestamps[user] + lock_time <= block.timestamp, \"INSUFFICIENT_WINDOW\");\n    _;\n  }\n\n  // Fallback to receive ETH and bond msg.value for msg.sender\n  receive() external payable {\n    apply_bond(msg.sender);\n  }\n\n  // Bonds amount for user, and reverts if resulting balance less than 1 ETH\n  function apply_bond(address user) internal returns (uint256 remainder) {\n    if (balances[user] == required_bond) return msg.value;\n\n    require(msg.value >= required_bond, \"INSUFFICIENT_BOND\");\n\n    balances[user] = required_bond;\n    return msg.value - required_bond;\n  }\n\n  // Bonds msg.value for user\n  function bond(address user) public payable {\n    require(apply_bond(user) == 0, \"INVALID_BOND\");\n  }\n\n  // Sets user's account state to starting point, and bonds msg.value\n  function initialize() external payable not_initialized(msg.sender) {\n    address user = msg.sender;\n    uint256 remainder = apply_bond(user);\n\n    // call the initializer, passing any remaining amount\n    (bool success, bytes memory return_bytes) = logic_address.call{ value: remainder }(\n      abi.encodeWithSelector(initializer, user)\n    );\n\n    require(success, \"INITIALIZE_FAILED\");\n\n    // Decode initial state (S_0) from returned bytes\n    bytes32 initial_state = abi.decode(return_bytes, (bytes32));\n\n    // Set account state to combination of empty call data tree, initial state (S_0), and last time of 0 (not in optimism)\n    account_states[user] = keccak256(abi.encodePacked(bytes32(0), initial_state, bytes32(0)));\n\n    emit ORI_New_State(user, initial_state);\n  }\n\n  // Allows unbonding of ETH if account not locked\n  function unbond(address payable destination) public not_locked(msg.sender) {\n    address user = msg.sender;\n    uint256 amount = balances[user];\n    balances[user] = 0;\n    destination.transfer(amount);\n  }\n\n  // Returns true if calling the logic contract with the call data results in new state\n  function verify_transition(\n    address user,\n    bytes calldata call_data,\n    bytes32 new_state\n  ) internal returns (bool) {\n    // Check that the user is the user extracted from calldata (20 bytes starting after the function signature)\n    if (user != abi.decode(call_data[4:], (address))) return false;\n\n    // Compute a new state\n    (bool success, bytes memory state_bytes) = logic_address.call(call_data);\n\n    if (!success) return false;\n\n    // Decode new state from returns bytes, reusing the state variable\n    bytes32 state = abi.decode(state_bytes, (bytes32));\n\n    return state == new_state;\n  }\n\n  // Calls logic contract and updates account state\n  function normal_perform(\n    address caller,\n    bytes calldata call_data,\n    bytes32 call_data_root,\n    uint256 last_time\n  ) internal not_locked(caller) {\n    // Check that the caller is the user extracted from calldata (20 bytes starting after the function signature)\n    require(caller == abi.decode(call_data[4:], (address)), \"CALLER_USER_MISMATCH\");\n\n    // Extract current state (S_n or S_0) from calldata (32 bytes starting after the sig and user)\n    bytes32 state = abi.decode(call_data[36:], (bytes32));\n\n    // Check that the user it not in an optimistic state, which means that their account state is\n    // an empty call data tree, current state (S_n or S_0), and the last block is 0\n    require(\n      keccak256(abi.encodePacked(call_data_root, state, bytes32(last_time))) == account_states[caller],\n      \"INVALID_ROOTS\"\n    );\n\n    // Compute a new state (S_n+1 or S_1)\n    (bool success, bytes memory state_bytes) = logic_address.call{ value: msg.value }(call_data);\n    require(success, \"CALL_FAILED\");\n\n    // Decode new state (S_n+1 or S_1) from returned bytes, reusing the state variable\n    state = abi.decode(state_bytes, (bytes32));\n\n    // Set the account state to an empty call data tree, the new state (S_n+1 or S_1), and last time 0\n    account_states[caller] = keccak256(abi.encodePacked(bytes32(0), state, bytes32(0)));\n\n    emit ORI_New_State(caller, state);\n  }\n\n  // Set the account state to the on-chain computed new state, if the account is not locked\n  function perform(bytes calldata call_data) external payable {\n    normal_perform(msg.sender, call_data, bytes32(0), 0);\n  }\n\n  // Exits optimism by setting the account state to the on-chain computed new state, if the account is not locked\n  function perform_and_exit(\n    bytes calldata call_data,\n    bytes32 call_data_root,\n    uint256 last_time\n  ) external payable no_rollback_required(msg.sender) can_exit_optimism(last_time) {\n    normal_perform(msg.sender, call_data, call_data_root, last_time);\n  }\n\n  // Updates account state with optimistic transition data\n  function optimistic_perform(\n    address caller,\n    bytes calldata call_data,\n    bytes32 new_state,\n    bytes32 call_data_root,\n    bytes32[] calldata proof,\n    uint256 last_time\n  ) internal not_locked(caller) {\n    // Extract current state (S_0) from call data (32 bytes starting after sig and user)\n    bytes32 state = abi.decode(call_data[36:], (bytes32));\n\n    // Check that the user it not in an optimistic state, which means that their account state is\n    // an empty call data tree, current state (S_0), and the last block is 0\n    require(\n      keccak256(abi.encodePacked(call_data_root, state, bytes32(last_time))) == account_states[caller],\n      \"INVALID_ROOTS\"\n    );\n\n    // Get root of new merkle tree with 1 call data element (CD_0), reusing state as call_data_root\n    state = Merkle_Library_CBS.try_append_one(call_data_root, call_data, proof);\n\n    // Combine call data root, new state (S_1), and current time into account state\n    account_states[caller] = keccak256(abi.encodePacked(state, new_state, bytes32(block.timestamp)));\n\n    emit ORI_New_Optimistic_State(caller, block.timestamp);\n  }\n\n  // Enters optimism by updating the account state optimistically with call data and a new state, if the account is not locked\n  function perform_optimistically_and_enter(\n    bytes calldata call_data,\n    bytes32 new_state,\n    bytes32[] calldata proof\n  ) external {\n    optimistic_perform(msg.sender, call_data, new_state, bytes32(0), proof, 0);\n  }\n\n  // Updates the account state optimistically with call data and a new state, if the account is not locked\n  function perform_optimistically(\n    bytes calldata call_data,\n    bytes32 new_state,\n    bytes32 call_data_root,\n    bytes32[] calldata proof,\n    uint256 last_time\n  ) external {\n    optimistic_perform(msg.sender, call_data, new_state, call_data_root, proof, last_time);\n  }\n\n  // Updates account state with optimistic batch transition data\n  function optimistic_perform_many(\n    address user,\n    bytes[] calldata call_data,\n    bytes32 new_state,\n    bytes32 call_data_root,\n    bytes32[] calldata proof,\n    uint256 last_time\n  ) internal not_locked(user) sufficient_calldata(call_data) {\n    // Extract current state (S_n) from first call data (32 bytes starting after sig and user)\n    bytes32 state = abi.decode(call_data[0][36:], (bytes32));\n\n    // Check that the call data root, current state (S_n), and last time are valid for this user\n    require(\n      keccak256(abi.encodePacked(call_data_root, state, bytes32(last_time))) == account_states[user],\n      \"INVALID_ROOTS\"\n    );\n\n    // Get new merkle root of call data tree, appending several call data (CD_n - CD_n+m), reusing state as call_data_root\n    state = Merkle_Library_CBS.try_append_many(call_data_root, call_data, proof);\n\n    // Combine call data root, new state (S_n+m), and current time into account state\n    account_states[user] = keccak256(abi.encodePacked(state, new_state, bytes32(block.timestamp)));\n\n    emit ORI_New_Optimistic_States(user, block.timestamp);\n  }\n\n  // Enters optimism by updating the account state optimistically with several call data and final state, if the account is not locked\n  function perform_many_optimistically_and_enter(\n    bytes[] calldata call_data,\n    bytes32 new_state,\n    bytes32[] calldata proof\n  ) external {\n    optimistic_perform_many(msg.sender, call_data, new_state, bytes32(0), proof, 0);\n  }\n\n  // Updates the account state optimistically with several call data and final state, if the account is not locked\n  function perform_many_optimistically(\n    bytes[] calldata call_data,\n    bytes32 new_state,\n    bytes32 call_data_root,\n    bytes32[] calldata proof,\n    uint256 last_time\n  ) external {\n    optimistic_perform_many(msg.sender, call_data, new_state, call_data_root, proof, last_time);\n  }\n\n  // Lock two users (suspect and accuser)\n  // Note: accuser and suspect cannot already be locked, but this might have to change so a single accuser isn't overwhelmed with fraud\n  function lock_user(address suspect) external payable not_locked(msg.sender) not_locked(suspect) {\n    address accuser = msg.sender;\n\n    // Lock both the accuser and the suspect\n    lockers[suspect] = accuser;\n    locked_timestamps[suspect] = block.timestamp;\n    lockers[accuser] = accuser;\n    locked_timestamps[accuser] = block.timestamp;\n\n    // The accuser may be trying to bond at the same time (this also check that have enough bonded)\n    require(apply_bond(accuser) == 0, \"INVALID_BOND\");\n\n    emit ORI_Locked(suspect, accuser);\n  }\n\n  // Unlock two users (suspect and accuser)\n  function unlock(\n    address suspect,\n    bytes32 state,\n    bytes32 call_data_root,\n    uint256 last_time\n  ) external is_locked(suspect) lock_expired(suspect) no_rollback_required(suspect) {\n    // Check that the call data root, current state (S_n), and last time are valid for this user\n    require(\n      keccak256(abi.encodePacked(call_data_root, state, bytes32(last_time))) == account_states[suspect],\n      \"INVALID_ROOTS\"\n    );\n\n    // Unlock both accounts\n    address accuser = lockers[suspect];\n    lockers[suspect] = address(0);\n    locked_timestamps[suspect] = 0;\n    lockers[accuser] = address(0);\n    locked_timestamps[accuser] = 0;\n\n    // Give the suspect the accuser's bond for having not proven fraud within a reasonable time frame\n    // TODO: consider burning some here to prevent self-reporting breakeven\n    uint256 amount = balances[accuser];\n    balances[accuser] = 0;\n    balances[suspect] += amount;\n\n    // Combine call data root, current state (S_n), and current time into account state\n    // Note: updating last time is important, to prevent user blocking fraud proofs by locking themselves\n    account_states[suspect] = keccak256(abi.encodePacked(call_data_root, state, bytes32(block.timestamp)));\n\n    emit ORI_Unlocked(suspect, accuser);\n  }\n\n  // Reward accuser for proving fraud in a suspect's transition, and track the expected rolled back account state size\n  function prove_fraud(\n    address suspect,\n    bytes[] calldata call_data,\n    bytes32 state,\n    bytes32 call_data_root,\n    bytes32[] calldata proof,\n    uint256 last_time\n  ) external {\n    address accuser = msg.sender;\n\n    // Only the user that flagged/locked the suspect can prove fraud\n    require(lockers[suspect] == accuser, \"NOT_LOCKER\");\n\n    // Check that the call data root, current state (S_n), and last time are valid for this user\n    require(\n      keccak256(abi.encodePacked(call_data_root, state, bytes32(last_time))) == account_states[suspect],\n      \"INVALID_ROOTS\"\n    );\n\n    // Check that the call data exist\n    require(Merkle_Library_CBS.elements_exist(call_data_root, call_data, proof), \"INVALID_CALLDATA\");\n\n    // get the indices of the call data in the call data tre\n    uint256[] memory call_data_indices = Merkle_Library_CBS.get_indices(call_data, proof);\n\n    // The transition index is the index of the starting call data of the fraud proof\n    uint256 transition_index = call_data_indices[0];\n\n    // If only one call data is provided, the fraud involves the last call data and current state\n    if (call_data.length == 1) {\n      // Check that the call data index is the last (call data tree size minus 1)\n      require(transition_index + 1 == uint256(proof[0]), \"INCORRECT_CALLDATA\");\n\n      // Fail if the state transition was valid\n      require(verify_transition(suspect, call_data[0], state) == false, \"VALID_TRANSITION\");\n    } else {\n      // Check that call data provided are consecutive\n      require(transition_index + 1 == call_data_indices[1]);\n\n      // Extract new state from second call data (32 bytes starting after the sig and user), reusing state var\n      state = abi.decode(call_data[1][36:], (bytes32));\n\n      // Fail if the state transition was valid\n      require(verify_transition(suspect, call_data[0], state) == false, \"VALID_TRANSITION\");\n    }\n\n    // Take the suspect's bond and give it to the accuser, reusing last_time var\n    // TODO: consider burning some here to prevent self-reporting breakeven\n    last_time = balances[suspect];\n    balances[suspect] = 0;\n    balances[accuser] += last_time;\n\n    // Unlock the accuser's account\n    lockers[accuser] = address(0);\n    locked_timestamps[accuser] = 0;\n\n    // Set the rollback size to the amount of elements that should be in the call data tree once rolled back\n    rollback_sizes[suspect] = transition_index;\n\n    // Set the suspect as the reason for their account's lock\n    lockers[suspect] = suspect;\n    locked_timestamps[suspect] = 0;\n\n    emit ORI_Fraud_Proven(accuser, suspect, transition_index, last_time);\n  }\n\n  // Rolls a user back, given the current roots, old roots, and a proof of the optimistic transitions between them\n  function rollback(\n    bytes32 rolled_back_call_data_root,\n    bytes[] calldata rolled_back_call_data,\n    bytes32[] calldata roll_back_proof,\n    uint256 current_size,\n    bytes32 current_size_proof,\n    bytes32 call_data_root,\n    bytes32 state,\n    uint256 last_time\n  ) external payable {\n    address user = msg.sender;\n    uint256 expected_size = rollback_sizes[user];\n    require(expected_size != 0, \"ROLLBACK_UNNECESSARY\");\n\n    // Check that the call data root, current state (S_n), and last time are valid for this user\n    require(\n      keccak256(abi.encodePacked(call_data_root, state, bytes32(last_time))) == account_states[user],\n      \"INVALID_ROOTS\"\n    );\n\n    // Check that the provided size of the current call data tree is correct\n    require(Merkle_Library_CBS.verify_size(call_data_root, current_size, current_size_proof), \"INVALID_SIZE\");\n\n    // Allow incremental roll back by checking that the rolled back call data tree is smaller than the current tree\n    uint256 rolled_back_size = uint256(roll_back_proof[0]);\n    require(rolled_back_size < current_size, \"INSUFFICIENT_ROLLBACK\");\n\n    // Check that this is not rolling back too far, though\n    require(rolled_back_size >= expected_size, \"ROLLBACK_TOO_DEEP\");\n\n    // Check that the current call data root is derived by appending the rolled back call data to the rolled back call data root\n    require(\n      Merkle_Library_CBS.try_append_many(rolled_back_call_data_root, rolled_back_call_data, roll_back_proof) ==\n        call_data_root,\n      \"INVALID_ROLLBACK\"\n    );\n\n    // Extract new state from first rolled back call data (32 bytes starting after the sig and user), reusing state var\n    state = abi.decode(rolled_back_call_data[0][36:], (bytes32));\n\n    // Combine rolled back call data root, new state (S_n-m), and current time into account state\n    account_states[user] = keccak256(abi.encodePacked(rolled_back_call_data_root, state, bytes32(block.timestamp)));\n\n    // Unlock the user and clear the rollback flag, if roll back is complete\n    if (rolled_back_size == expected_size) {\n      lockers[user] = address(0);\n      rollback_sizes[user] = 0;\n    }\n\n    // The user may be trying to bond at the same time (this also check that have enough bonded)\n    require(apply_bond(user) == 0, \"INVALID_BOND\");\n\n    emit ORI_Rolled_Back(user, rolled_back_size, block.timestamp);\n  }\n}\n",
  "sourcePath": "/Users/michaeldeluca/Projects/optimistic-roll-in/eth/contracts/optimistic-roll-in.sol",
  "compiler": {
    "name": "solc",
    "version": "0.7.3+commit.9bfce1f6.Emscripten.clang"
  },
  "schemaVersion": "3.3.1",
  "updatedAt": "2020-10-28T01:58:08.160Z",
  "networkType": "ethereum",
  "devdoc": {
    "kind": "dev",
    "methods": {},
    "version": 1
  },
  "userdoc": {
    "kind": "user",
    "methods": {},
    "version": 1
  }
}