{
  "contractName": "Optimistic_Roll_In",
  "abi": [
    {
      "inputs": [
        {
          "internalType": "address",
          "name": "_logic_address",
          "type": "address"
        },
        {
          "internalType": "bytes4",
          "name": "_initializer",
          "type": "bytes4"
        },
        {
          "internalType": "uint256",
          "name": "_lock_time",
          "type": "uint256"
        },
        {
          "internalType": "uint256",
          "name": "_required_bond",
          "type": "uint256"
        }
      ],
      "stateMutability": "nonpayable",
      "type": "constructor"
    },
    {
      "anonymous": false,
      "inputs": [
        {
          "indexed": true,
          "internalType": "address",
          "name": "accuser",
          "type": "address"
        },
        {
          "indexed": true,
          "internalType": "address",
          "name": "suspect",
          "type": "address"
        },
        {
          "indexed": true,
          "internalType": "uint256",
          "name": "transition_index",
          "type": "uint256"
        }
      ],
      "name": "ORI_Fraud_Proven",
      "type": "event"
    },
    {
      "anonymous": false,
      "inputs": [
        {
          "indexed": true,
          "internalType": "address",
          "name": "suspect",
          "type": "address"
        },
        {
          "indexed": true,
          "internalType": "address",
          "name": "accuser",
          "type": "address"
        }
      ],
      "name": "ORI_Locked",
      "type": "event"
    },
    {
      "anonymous": false,
      "inputs": [
        {
          "indexed": true,
          "internalType": "address",
          "name": "user",
          "type": "address"
        },
        {
          "indexed": true,
          "internalType": "uint256",
          "name": "block_time",
          "type": "uint256"
        }
      ],
      "name": "ORI_New_Optimistic_State",
      "type": "event"
    },
    {
      "anonymous": false,
      "inputs": [
        {
          "indexed": true,
          "internalType": "address",
          "name": "user",
          "type": "address"
        },
        {
          "indexed": true,
          "internalType": "uint256",
          "name": "block_time",
          "type": "uint256"
        }
      ],
      "name": "ORI_New_Optimistic_States",
      "type": "event"
    },
    {
      "anonymous": false,
      "inputs": [
        {
          "indexed": true,
          "internalType": "address",
          "name": "user",
          "type": "address"
        },
        {
          "indexed": true,
          "internalType": "bytes32",
          "name": "new_state",
          "type": "bytes32"
        }
      ],
      "name": "ORI_New_State",
      "type": "event"
    },
    {
      "anonymous": false,
      "inputs": [
        {
          "indexed": true,
          "internalType": "address",
          "name": "user",
          "type": "address"
        },
        {
          "indexed": true,
          "internalType": "uint256",
          "name": "tree_size",
          "type": "uint256"
        },
        {
          "indexed": true,
          "internalType": "uint256",
          "name": "block_time",
          "type": "uint256"
        }
      ],
      "name": "ORI_Rolled_Back",
      "type": "event"
    },
    {
      "anonymous": false,
      "inputs": [
        {
          "indexed": true,
          "internalType": "address",
          "name": "suspect",
          "type": "address"
        },
        {
          "indexed": true,
          "internalType": "address",
          "name": "accuser",
          "type": "address"
        },
        {
          "indexed": true,
          "internalType": "uint256",
          "name": "block_time",
          "type": "uint256"
        }
      ],
      "name": "ORI_Unlocked",
      "type": "event"
    },
    {
      "inputs": [
        {
          "internalType": "address",
          "name": "",
          "type": "address"
        }
      ],
      "name": "account_states",
      "outputs": [
        {
          "internalType": "bytes32",
          "name": "",
          "type": "bytes32"
        }
      ],
      "stateMutability": "view",
      "type": "function",
      "constant": true
    },
    {
      "inputs": [
        {
          "internalType": "address",
          "name": "",
          "type": "address"
        }
      ],
      "name": "balances",
      "outputs": [
        {
          "internalType": "uint256",
          "name": "",
          "type": "uint256"
        }
      ],
      "stateMutability": "view",
      "type": "function",
      "constant": true
    },
    {
      "inputs": [],
      "name": "initializer",
      "outputs": [
        {
          "internalType": "bytes4",
          "name": "",
          "type": "bytes4"
        }
      ],
      "stateMutability": "view",
      "type": "function",
      "constant": true
    },
    {
      "inputs": [],
      "name": "lock_time",
      "outputs": [
        {
          "internalType": "uint256",
          "name": "",
          "type": "uint256"
        }
      ],
      "stateMutability": "view",
      "type": "function",
      "constant": true
    },
    {
      "inputs": [
        {
          "internalType": "address",
          "name": "",
          "type": "address"
        }
      ],
      "name": "locked_timestamps",
      "outputs": [
        {
          "internalType": "uint256",
          "name": "",
          "type": "uint256"
        }
      ],
      "stateMutability": "view",
      "type": "function",
      "constant": true
    },
    {
      "inputs": [
        {
          "internalType": "address",
          "name": "",
          "type": "address"
        }
      ],
      "name": "lockers",
      "outputs": [
        {
          "internalType": "address",
          "name": "",
          "type": "address"
        }
      ],
      "stateMutability": "view",
      "type": "function",
      "constant": true
    },
    {
      "inputs": [],
      "name": "logic_contract",
      "outputs": [
        {
          "internalType": "contract Optimistic_Roll_In_Compatible",
          "name": "",
          "type": "address"
        }
      ],
      "stateMutability": "view",
      "type": "function",
      "constant": true
    },
    {
      "inputs": [],
      "name": "required_bond",
      "outputs": [
        {
          "internalType": "uint256",
          "name": "",
          "type": "uint256"
        }
      ],
      "stateMutability": "view",
      "type": "function",
      "constant": true
    },
    {
      "inputs": [
        {
          "internalType": "address",
          "name": "",
          "type": "address"
        }
      ],
      "name": "rollback_sizes",
      "outputs": [
        {
          "internalType": "uint256",
          "name": "",
          "type": "uint256"
        }
      ],
      "stateMutability": "view",
      "type": "function",
      "constant": true
    },
    {
      "stateMutability": "payable",
      "type": "receive",
      "payable": true
    },
    {
      "inputs": [
        {
          "internalType": "address",
          "name": "user",
          "type": "address"
        }
      ],
      "name": "bond",
      "outputs": [],
      "stateMutability": "payable",
      "type": "function",
      "payable": true
    },
    {
      "inputs": [],
      "name": "initialize",
      "outputs": [],
      "stateMutability": "payable",
      "type": "function",
      "payable": true
    },
    {
      "inputs": [
        {
          "internalType": "address payable",
          "name": "destination",
          "type": "address"
        }
      ],
      "name": "unbond",
      "outputs": [],
      "stateMutability": "nonpayable",
      "type": "function"
    },
    {
      "inputs": [
        {
          "internalType": "bytes",
          "name": "call_data",
          "type": "bytes"
        }
      ],
      "name": "perform",
      "outputs": [],
      "stateMutability": "payable",
      "type": "function",
      "payable": true
    },
    {
      "inputs": [
        {
          "internalType": "bytes",
          "name": "call_data",
          "type": "bytes"
        },
        {
          "internalType": "bytes32",
          "name": "call_data_root",
          "type": "bytes32"
        },
        {
          "internalType": "uint256",
          "name": "last_time",
          "type": "uint256"
        }
      ],
      "name": "perform_and_exit",
      "outputs": [],
      "stateMutability": "payable",
      "type": "function",
      "payable": true
    },
    {
      "inputs": [
        {
          "internalType": "bytes",
          "name": "call_data",
          "type": "bytes"
        },
        {
          "internalType": "bytes32",
          "name": "new_state",
          "type": "bytes32"
        },
        {
          "internalType": "bytes32[]",
          "name": "proof",
          "type": "bytes32[]"
        }
      ],
      "name": "perform_optimistically_and_enter",
      "outputs": [],
      "stateMutability": "nonpayable",
      "type": "function"
    },
    {
      "inputs": [
        {
          "internalType": "bytes",
          "name": "call_data",
          "type": "bytes"
        },
        {
          "internalType": "bytes32",
          "name": "new_state",
          "type": "bytes32"
        },
        {
          "internalType": "bytes32",
          "name": "call_data_root",
          "type": "bytes32"
        },
        {
          "internalType": "bytes32[]",
          "name": "proof",
          "type": "bytes32[]"
        },
        {
          "internalType": "uint256",
          "name": "last_time",
          "type": "uint256"
        }
      ],
      "name": "perform_optimistically",
      "outputs": [],
      "stateMutability": "nonpayable",
      "type": "function"
    },
    {
      "inputs": [
        {
          "internalType": "bytes[]",
          "name": "call_data",
          "type": "bytes[]"
        },
        {
          "internalType": "bytes32",
          "name": "new_state",
          "type": "bytes32"
        },
        {
          "internalType": "bytes32[]",
          "name": "proof",
          "type": "bytes32[]"
        }
      ],
      "name": "perform_many_optimistically_and_enter",
      "outputs": [],
      "stateMutability": "nonpayable",
      "type": "function"
    },
    {
      "inputs": [
        {
          "internalType": "bytes[]",
          "name": "call_data",
          "type": "bytes[]"
        },
        {
          "internalType": "bytes32",
          "name": "new_state",
          "type": "bytes32"
        },
        {
          "internalType": "bytes32",
          "name": "call_data_root",
          "type": "bytes32"
        },
        {
          "internalType": "bytes32[]",
          "name": "proof",
          "type": "bytes32[]"
        },
        {
          "internalType": "uint256",
          "name": "last_time",
          "type": "uint256"
        }
      ],
      "name": "perform_many_optimistically",
      "outputs": [],
      "stateMutability": "nonpayable",
      "type": "function"
    },
    {
      "inputs": [
        {
          "internalType": "address",
          "name": "suspect",
          "type": "address"
        }
      ],
      "name": "lock",
      "outputs": [],
      "stateMutability": "payable",
      "type": "function",
      "payable": true
    },
    {
      "inputs": [
        {
          "internalType": "address",
          "name": "suspect",
          "type": "address"
        },
        {
          "internalType": "bytes32",
          "name": "state",
          "type": "bytes32"
        },
        {
          "internalType": "bytes32",
          "name": "call_data_root",
          "type": "bytes32"
        },
        {
          "internalType": "uint256",
          "name": "last_time",
          "type": "uint256"
        }
      ],
      "name": "unlock",
      "outputs": [],
      "stateMutability": "nonpayable",
      "type": "function"
    },
    {
      "inputs": [
        {
          "internalType": "address",
          "name": "suspect",
          "type": "address"
        },
        {
          "internalType": "bytes[]",
          "name": "call_data",
          "type": "bytes[]"
        },
        {
          "internalType": "bytes32",
          "name": "state",
          "type": "bytes32"
        },
        {
          "internalType": "bytes32",
          "name": "call_data_root",
          "type": "bytes32"
        },
        {
          "internalType": "bytes32[]",
          "name": "proof",
          "type": "bytes32[]"
        },
        {
          "internalType": "uint256",
          "name": "last_time",
          "type": "uint256"
        }
      ],
      "name": "prove_fraud",
      "outputs": [],
      "stateMutability": "nonpayable",
      "type": "function"
    },
    {
      "inputs": [
        {
          "internalType": "bytes32",
          "name": "rolled_back_call_data_root",
          "type": "bytes32"
        },
        {
          "internalType": "bytes[]",
          "name": "rolled_back_call_data",
          "type": "bytes[]"
        },
        {
          "internalType": "bytes32[]",
          "name": "roll_back_proof",
          "type": "bytes32[]"
        },
        {
          "internalType": "uint256",
          "name": "current_size",
          "type": "uint256"
        },
        {
          "internalType": "bytes32",
          "name": "current_size_proof",
          "type": "bytes32"
        },
        {
          "internalType": "bytes32",
          "name": "call_data_root",
          "type": "bytes32"
        },
        {
          "internalType": "bytes32",
          "name": "state",
          "type": "bytes32"
        },
        {
          "internalType": "uint256",
          "name": "last_time",
          "type": "uint256"
        }
      ],
      "name": "rollback",
      "outputs": [],
      "stateMutability": "payable",
      "type": "function",
      "payable": true
    }
  ],
  "bytecode": "0x6101006040523480156200001257600080fd5b50604051620039b3380380620039b383398101604081905262000035916200007c565b60609390931b6001600160601b0319166080527fffffffff000000000000000000000000000000000000000000000000000000009190911660a05260c05260e052620000f5565b6000806000806080858703121562000092578384fd5b84516001600160a01b0381168114620000a9578485fd5b60208601519094507fffffffff0000000000000000000000000000000000000000000000000000000081168114620000df578384fd5b6040860151606090960151949790965092505050565b60805160601c60a05160e01c60e01b60c05160e0516138576200015c60003980610424528061045252806104db5280610fc65250806105e8528061067f5280610915525080610bfa5250806106a352806107405280611bd85280611e2352506138576000f3fe6080604052600436106101795760003560e01c80638129fc1c116100cb578063b20554001161007f578063e112420011610059578063e1124200146103b6578063e4da61ab146103c9578063f435f5a7146103e95761018a565b8063b20554001461036e578063bb6ae2cb14610383578063c45481bb146103965761018a565b80639ce110d7116100b05780639ce110d71461030c578063a68f59131461032e578063af7b5a411461034e5761018a565b80638129fc1c146102e45780638ee16d13146102ec5761018a565b80632a4154541161012d5780634de94320116101075780634de943201461028f5780636a8dddef146102a45780637a9f05b5146102c45761018a565b80632a4154541461023a5780632c8e7a211461024d578063480bb7c41461027a5761018a565b8063177f15c51161015e578063177f15c5146101d1578063247ce85b146101f157806327e235e3146102045761018a565b806308542bb11461018f5780631646d051146101b15761018a565b3661018a57610187336103fc565b50005b600080fd5b34801561019b57600080fd5b506101af6101aa366004612ec8565b610506565b005b3480156101bd57600080fd5b506101af6101cc366004613112565b61051e565b3480156101dd57600080fd5b506101af6101ec3660046130d8565b610537565b6101af6101ff366004612dd8565b610548565b34801561021057600080fd5b5061022461021f366004612dd8565b61058b565b6040516102319190613237565b60405180910390f35b6101af610248366004613175565b61059d565b34801561025957600080fd5b5061026d610268366004612dd8565b610655565b6040516102319190613216565b34801561028657600080fd5b5061022461067d565b34801561029b57600080fd5b5061026d6106a1565b3480156102b057600080fd5b506101af6102bf366004612f3f565b6106c5565b3480156102d057600080fd5b506102246102df366004612dd8565b6106d5565b6101af6106e7565b3480156102f857600080fd5b506101af610307366004612e8e565b61088a565b34801561031857600080fd5b50610321610bf8565b6040516102319190613240565b34801561033a57600080fd5b506101af610349366004612df4565b610c1c565b34801561035a57600080fd5b50610224610369366004612dd8565b610fb2565b34801561037a57600080fd5b50610224610fc4565b6101af610391366004613098565b610fe8565b3480156103a257600080fd5b506102246103b1366004612dd8565b610ffa565b6101af6103c4366004612ff8565b61100c565b3480156103d557600080fd5b506101af6103e4366004612dd8565b61138f565b6101af6103f7366004612dd8565b611445565b73ffffffffffffffffffffffffffffffffffffffff81166000908152602081905260408120547f00000000000000000000000000000000000000000000000000000000000000001415610450575034610501565b7f00000000000000000000000000000000000000000000000000000000000000003410156104b3576040517f08c379a00000000000000000000000000000000000000000000000000000000081526004016104aa9061373d565b60405180910390fd5b5073ffffffffffffffffffffffffffffffffffffffff811660009081526020819052604090207f00000000000000000000000000000000000000000000000000000000000000009081905534035b919050565b61051733868686600087878261161e565b5050505050565b61052e3388888888888888611855565b50505050505050565b610517338686866000878782611855565b610551816103fc565b15610588576040517f08c379a00000000000000000000000000000000000000000000000000000000081526004016104aa90613706565b50565b60006020819052908152604090205481565b33600081815260046020526040902054156105e4576040517f08c379a00000000000000000000000000000000000000000000000000000000081526004016104aa90613328565b81427f0000000000000000000000000000000000000000000000000000000000000000820110610640576040517f08c379a00000000000000000000000000000000000000000000000000000000081526004016104aa90613698565b61064d3387878787611a12565b505050505050565b60026020526000908152604090205473ffffffffffffffffffffffffffffffffffffffff1681565b7f000000000000000000000000000000000000000000000000000000000000000081565b7f000000000000000000000000000000000000000000000000000000000000000081565b61052e338888888888888861161e565b60036020526000908152604090205481565b336000818152600160205260409020541561072e576040517f08c379a00000000000000000000000000000000000000000000000000000000081526004016104aa90613396565b33600061073a826103fc565b905060007f000000000000000000000000000000000000000000000000000000000000000073ffffffffffffffffffffffffffffffffffffffff16637ed3068983856040518363ffffffff1660e01b81526004016107989190613216565b6020604051808303818588803b1580156107b157600080fd5b505af11580156107c5573d6000803e3d6000fd5b50505050506040513d601f19601f820116820180604052508101906107ea9190612fe0565b6040519091506108039060009083908290602001613200565b604080517fffffffffffffffffffffffffffffffffffffffffffffffffffffffffffffffe0818403018152828252805160209182012073ffffffffffffffffffffffffffffffffffffffff8716600081815260019093529282205583927f0f5025cc4f20aa47a346d1b7d9da6ba8c68cc8e83b75e813da4b4490d55365ae9190a350505050565b73ffffffffffffffffffffffffffffffffffffffff8085166000908152600260205260409020548591166108ea576040517f08c379a00000000000000000000000000000000000000000000000000000000081526004016104aa90613517565b73ffffffffffffffffffffffffffffffffffffffff85166000908152600360205260409020548590427f0000000000000000000000000000000000000000000000000000000000000000909101111561096f576040517f08c379a00000000000000000000000000000000000000000000000000000000081526004016104aa906135f3565b73ffffffffffffffffffffffffffffffffffffffff86166000908152600460205260409020548690156109ce576040517f08c379a00000000000000000000000000000000000000000000000000000000081526004016104aa90613328565b73ffffffffffffffffffffffffffffffffffffffff8716600090815260016020908152604091829020549151610a0a9188918a91899101613200565b6040516020818303038152906040528051906020012014610a57576040517f08c379a00000000000000000000000000000000000000000000000000000000081526004016104aa906134a9565b73ffffffffffffffffffffffffffffffffffffffff808816600081815260026020818152604080842080547fffffffffffffffffffffffff0000000000000000000000000000000000000000808216909255600380855283872087905597168086529383528185208054909116905594815284832083905582905283822080549083905592825292902080548201905585610b4f5760008273ffffffffffffffffffffffffffffffffffffffff168a73ffffffffffffffffffffffffffffffffffffffff167fd896484469c47833eb445d62b95b9dd6b28d0c050a9b7f2ce8902d137316500e60405160405180910390a4505061052e565b604051610b649088908a904290602001613200565b604080517fffffffffffffffffffffffffffffffffffffffffffffffffffffffffffffffe0818403018152828252805160209182012073ffffffffffffffffffffffffffffffffffffffff808e166000818152600190945293832091909155429390861692917fd896484469c47833eb445d62b95b9dd6b28d0c050a9b7f2ce8902d137316500e91a4505050505050505050565b7f000000000000000000000000000000000000000000000000000000000000000081565b73ffffffffffffffffffffffffffffffffffffffff8881166000908152600260205260409020543391168114610c7e576040517f08c379a00000000000000000000000000000000000000000000000000000000081526004016104aa906132ba565b73ffffffffffffffffffffffffffffffffffffffff8916600090815260016020908152604091829020549151610cba9188918a91879101613200565b6040516020818303038152906040528051906020012014610d07576040517f08c379a00000000000000000000000000000000000000000000000000000000081526004016104aa906134a9565b610d148589898787611d06565b610d4a576040517f08c379a00000000000000000000000000000000000000000000000000000000081526004016104aa9061335f565b6060610d5889898787611d3e565b9050600081600081518110610d6957fe5b602002602001015190508989905060011415610e365785856000818110610d8c57fe5b9050602002013560001c8160010114610dd1576040517f08c379a00000000000000000000000000000000000000000000000000000000081526004016104aa906133cd565b610dfa8b8b8b6000818110610de257fe5b9050602002810190610df49190613774565b8b611d90565b15610e31576040517f08c379a00000000000000000000000000000000000000000000000000000000081526004016104aa9061343b565b610edd565b81600181518110610e4357fe5b60200260200101518160010114610e5957600080fd5b89896001818110610e6657fe5b9050602002810190610e789190613774565b610e869160249082906137d7565b810190610e939190612fc8565b9750610ea68b8b8b6000818110610de257fe5b15610edd576040517f08c379a00000000000000000000000000000000000000000000000000000000081526004016104aa9061343b565b73ffffffffffffffffffffffffffffffffffffffff808c16600081815260208181526040808320805490849055948816808452818420805487019055600280845282852080547fffffffffffffffffffffffff00000000000000000000000000000000000000009081169091556003808652848720879055878752600486528487208a905591855283862080549091168717905590925280832083905551939750849390917f55469cdf3fd81a478fed2a1491832e3d145bf2ab3c6a6fbb187022b3885b90fd91a45050505050505050505050565b60016020526000908152604090205481565b7f000000000000000000000000000000000000000000000000000000000000000081565b610ff6338383600080611a12565b5050565b60046020526000908152604090205481565b3360008181526004602052604090205480611053576040517f08c379a00000000000000000000000000000000000000000000000000000000081526004016104aa9061354e565b73ffffffffffffffffffffffffffffffffffffffff821660009081526001602090815260409182902054915161108f9188918891889101613200565b60405160208183030381529060405280519060200120146110dc576040517f08c379a00000000000000000000000000000000000000000000000000000000081526004016104aa906134a9565b6110e7858888611ed5565b61111d576040517f08c379a00000000000000000000000000000000000000000000000000000000081526004016104aa906134e0565b60008989600081811061112c57fe5b9050602002013560001c9050878110611171576040517f08c379a00000000000000000000000000000000000000000000000000000000081526004016104aa906132f1565b818110156111ab576040517f08c379a00000000000000000000000000000000000000000000000000000000081526004016104aa906135bc565b856111b98e8e8e8e8e611f06565b146111f0576040517f08c379a00000000000000000000000000000000000000000000000000000000081526004016104aa9061362a565b8b8b60008181106111fd57fe5b905060200281019061120f9190613774565b61121d9160249082906137d7565b81019061122a9190612fc8565b604051909550611242908e9087904290602001613200565b604080517fffffffffffffffffffffffffffffffffffffffffffffffffffffffffffffffe0818403018152918152815160209283012073ffffffffffffffffffffffffffffffffffffffff861660009081526001909352912055808214156112fb5773ffffffffffffffffffffffffffffffffffffffff8316600090815260026020908152604080832080547fffffffffffffffffffffffff000000000000000000000000000000000000000016905560049091528120555b611304836103fc565b1561133b576040517f08c379a00000000000000000000000000000000000000000000000000000000081526004016104aa90613706565b42818473ffffffffffffffffffffffffffffffffffffffff167f4d7ed8c49e6b03daee23a18f4bd14bd7e4628e5ed54c57bf84407a693867eca960405160405180910390a450505050505050505050505050565b3360008181526002602052604090205473ffffffffffffffffffffffffffffffffffffffff16156113ec576040517f08c379a00000000000000000000000000000000000000000000000000000000081526004016104aa90613661565b336000818152602081905260408082208054908390559051909173ffffffffffffffffffffffffffffffffffffffff86169183156108fc0291849190818181858888f19350505050158015610517573d6000803e3d6000fd5b3360008181526002602052604090205473ffffffffffffffffffffffffffffffffffffffff16156114a2576040517f08c379a00000000000000000000000000000000000000000000000000000000081526004016104aa90613661565b73ffffffffffffffffffffffffffffffffffffffff80831660009081526002602052604090205483911615611503576040517f08c379a00000000000000000000000000000000000000000000000000000000081526004016104aa90613661565b73ffffffffffffffffffffffffffffffffffffffff831660009081526002602081815260408084208054337fffffffffffffffffffffffff00000000000000000000000000000000000000009182168117909255600380855283872042908190558388529585528387208054909216831790915590925290922055611587816103fc565b156115be576040517f08c379a00000000000000000000000000000000000000000000000000000000081526004016104aa90613706565b8073ffffffffffffffffffffffffffffffffffffffff168473ffffffffffffffffffffffffffffffffffffffff167f8773bde6581ad6ddd421210de867340039fb65ce3df41edba7b5de6d24ae7a5160405160405180910390a350505050565b73ffffffffffffffffffffffffffffffffffffffff8089166000908152600260205260409020548991161561167f576040517f08c379a00000000000000000000000000000000000000000000000000000000081526004016104aa90613661565b8787600181116116bb576040517f08c379a00000000000000000000000000000000000000000000000000000000081526004016104aa90613585565b60008a8a60008181106116ca57fe5b90506020028101906116dc9190613774565b6116ea9160249082906137d7565b8101906116f79190612fc8565b73ffffffffffffffffffffffffffffffffffffffff8d166000908152600160209081526040918290205491519293509091611738918b9185918a9101613200565b6040516020818303038152906040528051906020012014611785576040517f08c379a00000000000000000000000000000000000000000000000000000000081526004016104aa906134a9565b611792888c8c8a8a611f06565b6040519091506117aa9082908b904290602001613200565b60405160208183030381529060405280519060200120600160008e73ffffffffffffffffffffffffffffffffffffffff1673ffffffffffffffffffffffffffffffffffffffff16815260200190815260200160002081905550428c73ffffffffffffffffffffffffffffffffffffffff167f0b87b136840d19f5f25329273082c00833265a189b70137e06df6315ddc7839e60405160405180910390a3505050505050505050505050565b73ffffffffffffffffffffffffffffffffffffffff808916600090815260026020526040902054899116156118b6576040517f08c379a00000000000000000000000000000000000000000000000000000000081526004016104aa90613661565b60006118c5886024818c6137d7565b8101906118d29190612fc8565b73ffffffffffffffffffffffffffffffffffffffff8b1660009081526001602090815260409182902054915192935090916119139189918591889101613200565b6040516020818303038152906040528051906020012014611960576040517f08c379a00000000000000000000000000000000000000000000000000000000081526004016104aa906134a9565b61196d868a8a8888611fe3565b60405190915061198590829089904290602001613200565b604080517fffffffffffffffffffffffffffffffffffffffffffffffffffffffffffffffe0818403018152828252805160209182012073ffffffffffffffffffffffffffffffffffffffff8e16600081815260019093529282205542927f4779c4b07abff82b16061ec9a47d081e7f4981c29088395cdb7ff87e322cbbc69190a350505050505050505050565b73ffffffffffffffffffffffffffffffffffffffff80861660009081526002602052604090205486911615611a73576040517f08c379a00000000000000000000000000000000000000000000000000000000081526004016104aa90613661565b611a8084600481886137d7565b810190611a8d9190612dd8565b73ffffffffffffffffffffffffffffffffffffffff168673ffffffffffffffffffffffffffffffffffffffff1614611af1576040517f08c379a00000000000000000000000000000000000000000000000000000000081526004016104aa906136cf565b6000611b0085602481896137d7565b810190611b0d9190612fc8565b73ffffffffffffffffffffffffffffffffffffffff88166000908152600160209081526040918290205491519293509091611b4e9187918591889101613200565b6040516020818303038152906040528051906020012014611b9b576040517f08c379a00000000000000000000000000000000000000000000000000000000081526004016104aa906134a9565b6040517f3f65f17100000000000000000000000000000000000000000000000000000000815273ffffffffffffffffffffffffffffffffffffffff7f00000000000000000000000000000000000000000000000000000000000000001690633f65f171903490611c11908a908a9060040161326d565b6020604051808303818588803b158015611c2a57600080fd5b505af1158015611c3e573d6000803e3d6000fd5b50505050506040513d601f19601f82011682018060405250810190611c639190612fe0565b604051909150611c7c9060009083908290602001613200565b604080517fffffffffffffffffffffffffffffffffffffffffffffffffffffffffffffffe0818403018152828252805160209182012073ffffffffffffffffffffffffffffffffffffffff8b16600081815260019093529282205583927f0f5025cc4f20aa47a346d1b7d9da6ba8c68cc8e83b75e813da4b4490d55365ae9190a350505050505050565b600085611d3184846000818110611d1957fe5b90506020020135611d2c888888886120ae565b612251565b1490505b95945050505050565b6060611d858484846001818110611d5157fe5b9050602002013585856002818110611d6557fe5b9050602002013586866003818110611d7957fe5b90506020020135612260565b90505b949350505050565b6000611d9f83600481876137d7565b810190611dac9190612dd8565b73ffffffffffffffffffffffffffffffffffffffff168573ffffffffffffffffffffffffffffffffffffffff1614611de657506000611d88565b6040517fa27f4a3e00000000000000000000000000000000000000000000000000000000815273ffffffffffffffffffffffffffffffffffffffff7f0000000000000000000000000000000000000000000000000000000000000000169063a27f4a3e90611e5a908790879060040161326d565b60206040518083038186803b158015611e7257600080fd5b505afa925050508015611ec0575060408051601f3d9081017fffffffffffffffffffffffffffffffffffffffffffffffffffffffffffffffe0168201909252611ebd91810190612fe0565b60015b611ecc57506000611d88565b82149050611d88565b600083158015611ee3575082155b15611ef057506001611eff565b83611efb8484612251565b1490505b9392505050565b60008083836000818110611f1657fe5b60200291909101359150508615811514611f5c576040517f08c379a00000000000000000000000000000000000000000000000000000000081526004016104aa90613472565b86611f7757611f6f85611d2c8882612580565b915050611d35565b6000611f8587878787612696565b9350905087611f948383612251565b14611fcb576040517f08c379a00000000000000000000000000000000000000000000000000000000081526004016104aa90613404565b611fd782870184612251565b98975050505050505050565b60008083836000818110611ff357fe5b60200291909101359150508615811514612039576040517f08c379a00000000000000000000000000000000000000000000000000000000081526004016104aa90613472565b8661204d57611f6f6001611d2c88886128a6565b600061205b878787876128dc565b935090508761206a8383612251565b146120a1576040517f08c379a00000000000000000000000000000000000000000000000000000000081526004016104aa90613404565b611fd76001830184612251565b60008060606120bd87876129a6565b909250905060008060046001828989838181106120d657fe5b90506020020135905060008a8a60028181106120ee57fe5b90506020020135905060008b8b600381811061210657fe5b9050602002013590505b8384831614156121ae578384841614156121585787600187156121335787612135565b8a5b038151811061214057fe5b60200260200101519950505050505050505050611d88565b87878151811061216457fe5b602002602001015188878151811061217857fe5b60200260200101818152505088876001018161219057fe5b06965088866001018161219f57fe5b069550600184901b9350612110565b83848416146121d5578b8b868060010197508181106121c957fe5b905060200201356121ef565b87516001880197899181106121e657fe5b60200260200101515b99508887816121fa57fe5b0696508384821614612228576122238a89898151811061221657fe5b6020026020010151612251565b612245565b61224588888151811061223757fe5b60200260200101518b612251565b88878151811061217857fe5b60009182526020526040902090565b60608467ffffffffffffffff8111801561227957600080fd5b506040519080825280602002602001820160405280156122a3578160200160208202803683370190505b50905060608567ffffffffffffffff811180156122bf57600080fd5b506040519080825280602002602001820160405280156122e9578160200160208202803683370190505b50905060608667ffffffffffffffff8111801561230557600080fd5b5060405190808252806020026020018201604052801561232f578160200160208202803683370190505b507fffffffffffffffffffffffffffffffffffffffffffffffffffffffffffffffff90970196905086600160008080805b848c169350848b169250848a16915087868151811061237b57fe5b60200260200101516001901b90508483141561242257848414156123a6575050505050505050611d88565b8786815181106123b257fe5b6020908102919091010180516001019052856123d0578c9550612416565b86517fffffffffffffffffffffffffffffffffffffffffffffffffffffffffffffffff8701968891811061240057fe5b602002602001015161241157612416565b6123a6565b600185901b9450612360565b848414156124e9575b84821415612453578089878151811061244057fe5b6020026020010181815117915081815250505b87868151811061245f57fe5b60209081029190910101805160010190528561247d578c95506124e9565b86868151811061248957fe5b60200260200101516124bf576001878780600190039850815181106124aa57fe5b911515602092830291909101909101526124e9565b6001878780600190039850815181106124d457fe5b9115156020928302919091019091015261242b565b84821461251057808987815181106124fd57fe5b6020026020010181815117915081815250505b87868151811061251c57fe5b60209081029190910101805160010190528561253a578c9550612416565b86517fffffffffffffffffffffffffffffffffffffffffffffffffffffffffffffffff8701968891811061256a57fe5b602002602001015161257b57612416565b6124e9565b600080606061258f8585612ab0565b915091506000805b60018411156126755750600181901b7fffffffffffffffffffffffffffffffffffffffffffffffffffffffffffffffff8401811415612611578281815181106125dc57fe5b60200260200101518383815181106125f057fe5b6020026020010181815250506000915083600116600185901c019350612597565b83811061262d576000915083600116600185901c019350612597565b61265383828151811061263c57fe5b602002602001015184836001018151811061221657fe5b835160018401938591811061266457fe5b602002602001018181525050612597565b8260008151811061268257fe5b602002602001015194505050505092915050565b600080600060606126a78888612c50565b915091506000806000888860008181106126bd57fe5b60200291909101359586017fffffffffffffffffffffffffffffffffffffffffffffffffffffffffffffffff0195915081905060006126fb82612d11565b63ffffffff1690508a8a8281811061270f57fe5b9050602002013598505b861561287c57841580156127305750816001166001145b156127ca576127578b8b8381811061274457fe5b9050602002013587868151811061221657fe5b8660008151811061276457fe5b6020908102919091010152600193909301927fffffffffffffffffffffffffffffffffffffffffffffffffffffffffffffffff0180156127bd576127ba8b8b838181106127ad57fe5b905060200201358a612251565b98505b6001945090840190612825565b86821015612825576127fb8685806001019650815181106127e757fe5b602002602001015187868151811061221657fe5b865160018701968891811061280c57fe5b6020026020010181815250506001840193506002820191505b86821061287757868214156128615785848151811061284057fe5b602002602001015186868151811061285457fe5b6020026020010181815250505b600196871c96600095508594509290921c918291505b612719565b888660008151811061288a57fe5b6020026020010151985098505050505050505094509492505050565b6040516000906128be908290859085906020016131c4565b60405160208183030381529060405280519060200120905092915050565b6000806000612900858560008181106128f157fe5b9050602002013560001c612d11565b63ffffffff16905084848281811061291457fe5b90506020020135925061295583600060f81b898960405160200161293a939291906131c4565b60405160208183030381529060405280519060200120612251565b915060005b600182111561299b5760018203915085858381811061297557fe5b9050602002013590506129888184612251565b92506129948185612251565b935061295a565b505094509492505050565b8060608167ffffffffffffffff811180156129c057600080fd5b506040519080825280602002602001820160405280156129ea578160200160208202803683370190505b5090507fffffffffffffffffffffffffffffffffffffffffffffffffffffffffffffffff820160005b83811015612aa7576000868684818110612a2957fe5b9050602002810190612a3b9190613774565b604051602001612a4d939291906131c4565b60405160208183030381529060405280519060200120838281518110612a6f57fe5b60209081029190910101527fffffffffffffffffffffffffffffffffffffffffffffffffffffffffffffffff90910190600101612a13565b50509250929050565b600181811c908216016060828267ffffffffffffffff81118015612ad357600080fd5b50604051908082528060200260200182016040528015612afd578160200160208202803683370190505b5091506000805b84821015612c465750600181901b7fffffffffffffffffffffffffffffffffffffffffffffffffffffffffffffffff8301811415612ba1576000878783818110612b4a57fe5b9050602002810190612b5c9190613774565b604051602001612b6e939291906131c4565b60405160208183030381529060405280519060200120848381518110612b9057fe5b602002602001018181525050612c46565b612c246000888884818110612bb257fe5b9050602002810190612bc49190613774565b604051602001612bd6939291906131c4565b60405160208183030381529060405280519060200120600060f81b898985600101818110612c0057fe5b9050602002810190612c129190613774565b60405160200161293a939291906131c4565b8451600184019386918110612c3557fe5b602002602001018181525050612b04565b5050509250929050565b8060608167ffffffffffffffff81118015612c6a57600080fd5b50604051908082528060200260200182016040528015612c94578160200160208202803683370190505b50905060005b82811015612d09576000858583818110612cb057fe5b9050602002810190612cc29190613774565b604051602001612cd4939291906131c4565b60405160208183030381529060405280519060200120828281518110612cf657fe5b6020908102919091010152600101612c9a565b509250929050565b600181901c6355555555169003600281901c6333333333908116911601600481901c630fffffff1601630f0f0f0f1663010101010260181c60ff1690565b60008083601f840112612d60578182fd5b50813567ffffffffffffffff811115612d77578182fd5b6020830191508360208083028501011115612d9157600080fd5b9250929050565b60008083601f840112612da9578182fd5b50813567ffffffffffffffff811115612dc0578182fd5b602083019150836020828501011115612d9157600080fd5b600060208284031215612de9578081fd5b8135611eff816137ff565b60008060008060008060008060c0898b031215612e0f578384fd5b8835612e1a816137ff565b9750602089013567ffffffffffffffff80821115612e36578586fd5b612e428c838d01612d4f565b909950975060408b0135965060608b0135955060808b0135915080821115612e68578485fd5b50612e758b828c01612d4f565b999c989b50969995989497949560a00135949350505050565b60008060008060808587031215612ea3578384fd5b8435612eae816137ff565b966020860135965060408601359560600135945092505050565b600080600080600060608688031215612edf578081fd5b853567ffffffffffffffff80821115612ef6578283fd5b612f0289838a01612d4f565b9097509550602088013594506040880135915080821115612f21578283fd5b50612f2e88828901612d4f565b969995985093965092949392505050565b600080600080600080600060a0888a031215612f59578283fd5b873567ffffffffffffffff80821115612f70578485fd5b612f7c8b838c01612d4f565b909950975060208a0135965060408a0135955060608a0135915080821115612fa2578485fd5b50612faf8a828b01612d4f565b989b979a50959894979596608090950135949350505050565b600060208284031215612fd9578081fd5b5035919050565b600060208284031215612ff1578081fd5b5051919050565b6000806000806000806000806000806101008b8d031215613017578182fd5b8a35995060208b013567ffffffffffffffff80821115613035578384fd5b6130418e838f01612d4f565b909b50995060408d0135915080821115613059578384fd5b506130668d828e01612d4f565b9b9e9a9d50989b989a9960608a0135996080810135995060a0810135985060c0810135975060e0013595509350505050565b600080602083850312156130aa578081fd5b823567ffffffffffffffff8111156130c0578182fd5b6130cc85828601612d98565b90969095509350505050565b6000806000806000606086880312156130ef578283fd5b853567ffffffffffffffff80821115613106578485fd5b612f0289838a01612d98565b600080600080600080600060a0888a03121561312c578081fd5b873567ffffffffffffffff80821115613143578283fd5b61314f8b838c01612d98565b909950975060208a0135965060408a0135955060608a0135915080821115612fa2578283fd5b6000806000806060858703121561318a578182fd5b843567ffffffffffffffff8111156131a0578283fd5b6131ac87828801612d98565b90989097506020870135966040013595509350505050565b60007fff000000000000000000000000000000000000000000000000000000000000008516825282846001840137910160010190815292915050565b9283526020830191909152604082015260600190565b73ffffffffffffffffffffffffffffffffffffffff91909116815260200190565b90815260200190565b7fffffffff0000000000000000000000000000000000000000000000000000000091909116815260200190565b60006020825282602083015282846040840137818301604090810191909152601f9092017fffffffffffffffffffffffffffffffffffffffffffffffffffffffffffffffe0160101919050565b6020808252600a908201527f4e4f545f4c4f434b455200000000000000000000000000000000000000000000604082015260600190565b60208082526015908201527f494e53554646494349454e545f524f4c4c4241434b0000000000000000000000604082015260600190565b60208082526011908201527f524f4c4c4241434b5f5245515549524544000000000000000000000000000000604082015260600190565b60208082526010908201527f494e56414c49445f43414c4c4441544100000000000000000000000000000000604082015260600190565b60208082526013908201527f414c52454144595f494e495449414c495a454400000000000000000000000000604082015260600190565b60208082526012908201527f494e434f52524543545f43414c4c444154410000000000000000000000000000604082015260600190565b6020808252600d908201527f494e56414c49445f50524f4f4600000000000000000000000000000000000000604082015260600190565b60208082526010908201527f56414c49445f5452414e534954494f4e00000000000000000000000000000000604082015260600190565b6020808252600c908201527f494e56414c49445f545245450000000000000000000000000000000000000000604082015260600190565b6020808252600d908201527f494e56414c49445f524f4f545300000000000000000000000000000000000000604082015260600190565b6020808252600c908201527f494e56414c49445f53495a450000000000000000000000000000000000000000604082015260600190565b60208082526010908201527f4143434f554e545f554e4c4f434b454400000000000000000000000000000000604082015260600190565b60208082526014908201527f524f4c4c4241434b5f554e4e4543455353415259000000000000000000000000604082015260600190565b60208082526015908201527f494e53554646494349454e545f43414c4c444154410000000000000000000000604082015260600190565b60208082526011908201527f524f4c4c4241434b5f544f4f5f44454550000000000000000000000000000000604082015260600190565b60208082526013908201527f494e53554646494349454e545f57494e444f5700000000000000000000000000604082015260600190565b60208082526010908201527f494e56414c49445f524f4c4c4241434b00000000000000000000000000000000604082015260600190565b6020808252600e908201527f4143434f554e545f4c4f434b4544000000000000000000000000000000000000604082015260600190565b60208082526011908201527f494e53554646494349454e545f54494d45000000000000000000000000000000604082015260600190565b60208082526014908201527f43414c4c45525f555345525f4d49534d41544348000000000000000000000000604082015260600190565b6020808252600c908201527f494e56414c49445f424f4e440000000000000000000000000000000000000000604082015260600190565b60208082526011908201527f494e53554646494349454e545f424f4e44000000000000000000000000000000604082015260600190565b60008083357fffffffffffffffffffffffffffffffffffffffffffffffffffffffffffffffe18436030181126137a8578283fd5b83018035915067ffffffffffffffff8211156137c2578283fd5b602001915036819003821315612d9157600080fd5b600080858511156137e6578182fd5b838611156137f2578182fd5b5050820193919092039150565b73ffffffffffffffffffffffffffffffffffffffff8116811461058857600080fdfea26469706673582212206d1d68d2eeb281f82d2b9ac4e7d1b824057e5eed7d725288ce449de20350fc0364736f6c63430007030033",
  "immutableReferences": {
    "116": [
      {
        "length": 32,
        "start": 1699
      },
      {
        "length": 32,
        "start": 1856
      },
      {
        "length": 32,
        "start": 7128
      },
      {
        "length": 32,
        "start": 7715
      }
    ],
    "118": [
      {
        "length": 32,
        "start": 3066
      }
    ],
    "120": [
      {
        "length": 32,
        "start": 1512
      },
      {
        "length": 32,
        "start": 1663
      },
      {
        "length": 32,
        "start": 2325
      }
    ],
    "122": [
      {
        "length": 32,
        "start": 1060
      },
      {
        "length": 32,
        "start": 1106
      },
      {
        "length": 32,
        "start": 1243
      },
      {
        "length": 32,
        "start": 4038
      }
    ]
  },
  "source": "// SPDX-License-Identifier: MIT\n\npragma solidity >=0.6.0 <=0.7.3;\npragma experimental ABIEncoderV2;\n\nimport \"merkle-trees/eth/contracts/libraries/calldata/bytes/standard/merkle-library.sol\";\nimport \"./optimistic-roll-in-compatible.sol\";\n\n// TODO: perhaps a owner-controlled sighash whitelist for optimistically performing, and therefore a non-performing exit method\n// TODO: consider verifying being view, or some kind of forced \"come up for air\" mechanism\n// TODO: make required bond queryable\n// TODO: logic_address cannot be immutable if it will be upgradeable\n// TODO: initializer cannot be immutable if it will be upgradeable\n\ncontract Optimistic_Roll_In {\n  event ORI_New_State(address indexed user, bytes32 indexed new_state);\n  event ORI_New_Optimistic_State(address indexed user, uint256 indexed block_time);\n  event ORI_New_Optimistic_States(address indexed user, uint256 indexed block_time);\n  event ORI_Locked(address indexed suspect, address indexed accuser);\n  event ORI_Unlocked(address indexed suspect, address indexed accuser, uint256 indexed block_time);\n  event ORI_Fraud_Proven(address indexed accuser, address indexed suspect, uint256 indexed transition_index);\n  event ORI_Rolled_Back(address indexed user, uint256 indexed tree_size, uint256 indexed block_time);\n\n  Optimistic_Roll_In_Compatible public immutable logic_contract;\n  bytes4 public immutable initializer;\n  uint256 public immutable lock_time;\n  uint256 public immutable required_bond;\n\n  mapping(address => uint256) public balances;\n  mapping(address => bytes32) public account_states;\n  mapping(address => address) public lockers;\n  mapping(address => uint256) public locked_timestamps;\n  mapping(address => uint256) public rollback_sizes;\n\n  constructor(\n    address _logic_address,\n    bytes4 _initializer,\n    uint256 _lock_time,\n    uint256 _required_bond\n  ) {\n    logic_contract = Optimistic_Roll_In_Compatible(_logic_address);\n    initializer = _initializer;\n    lock_time = _lock_time;\n    required_bond = _required_bond;\n  }\n\n  modifier not_initialized(address user) {\n    require(account_states[user] == bytes32(0), \"ALREADY_INITIALIZED\");\n    _;\n  }\n\n  modifier not_locked(address user) {\n    require(lockers[user] == address(0), \"ACCOUNT_LOCKED\");\n    _;\n  }\n\n  modifier is_locked(address user) {\n    require(lockers[user] != address(0), \"ACCOUNT_UNLOCKED\");\n    _;\n  }\n\n  modifier no_rollback_required(address user) {\n    require(rollback_sizes[user] == 0, \"ROLLBACK_REQUIRED\");\n    _;\n  }\n\n  modifier can_exit_optimism(uint256 last_time) {\n    // Check that enough time has elapsed for potential fraud proofs (10 minutes)\n    require(last_time + lock_time < block.timestamp, \"INSUFFICIENT_TIME\");\n    _;\n  }\n\n  modifier sufficient_calldata(bytes[] calldata call_data) {\n    // Check that there is more than 1 call data (if not, user should have called perform_optimistically)\n    require(call_data.length > 1, \"INSUFFICIENT_CALLDATA\");\n    _;\n  }\n\n  modifier lock_expired(address user) {\n    require(locked_timestamps[user] + lock_time <= block.timestamp, \"INSUFFICIENT_WINDOW\");\n    _;\n  }\n\n  // Fallback to receive ETH and bond msg.value for msg.sender\n  receive() external payable {\n    apply_bond(msg.sender);\n  }\n\n  // Bonds amount for user, and reverts if resulting balance less than 1 ETH\n  function apply_bond(address user) internal returns (uint256 remainder) {\n    if (balances[user] == required_bond) return msg.value;\n\n    require(msg.value >= required_bond, \"INSUFFICIENT_BOND\");\n\n    balances[user] = required_bond;\n    return msg.value - required_bond;\n  }\n\n  // Bonds msg.value for user\n  function bond(address user) public payable {\n    require(apply_bond(user) == 0, \"INVALID_BOND\");\n  }\n\n  // Sets user's account state to starting point, and bonds msg.value\n  function initialize() external payable not_initialized(msg.sender) {\n    address user = msg.sender;\n    uint256 remainder = apply_bond(user);\n\n    // call the initializer, passing any remaining amount and get initial state (S_0)\n    bytes32 initial_state = logic_contract.initialize_state{ value: remainder }(user);\n\n    // Set account state to combination of empty call data tree, initial state (S_0), and last time of 0 (not in optimism)\n    account_states[user] = keccak256(abi.encodePacked(bytes32(0), initial_state, bytes32(0)));\n\n    emit ORI_New_State(user, initial_state);\n  }\n\n  // Allows unbonding of ETH if account not locked\n  function unbond(address payable destination) public not_locked(msg.sender) {\n    address user = msg.sender;\n    uint256 amount = balances[user];\n    balances[user] = 0;\n    destination.transfer(amount);\n  }\n\n  // Returns true if calling the logic contract with the call data results in new state\n  function verify_transition(\n    address user,\n    bytes calldata call_data,\n    bytes32 new_state\n  ) internal view returns (bool) {\n    // Check that the user is the user extracted from calldata (20 bytes starting after the function signature)\n    if (user != abi.decode(call_data[4:], (address))) return false;\n\n    // Compute a new state\n    try logic_contract.optimistic_entry_point(call_data) returns (bytes32 state) {\n      return state == new_state;\n    } catch {\n      return false;\n    }\n  }\n\n  // Calls logic contract and updates account state\n  function normal_perform(\n    address caller,\n    bytes calldata call_data,\n    bytes32 call_data_root,\n    uint256 last_time\n  ) internal not_locked(caller) {\n    // Check that the caller is the user extracted from calldata (20 bytes starting after the function signature)\n    require(caller == abi.decode(call_data[4:], (address)), \"CALLER_USER_MISMATCH\");\n\n    // Extract current state (S_n or S_0) from calldata (32 bytes starting after the sig and user)\n    bytes32 state = abi.decode(call_data[36:], (bytes32));\n\n    // Check that the user it not in an optimistic state, which means that their account state is\n    // an empty call data tree, current state (S_n or S_0), and the last block is 0\n    require(\n      keccak256(abi.encodePacked(call_data_root, state, bytes32(last_time))) == account_states[caller],\n      \"INVALID_ROOTS\"\n    );\n\n    // Compute a new state (S_n+1 or S_1), reusing the state variable\n    state = logic_contract.pessimistic_entry_point{ value: msg.value }(call_data);\n\n    // Set the account state to an empty call data tree, the new state (S_n+1 or S_1), and last time 0\n    account_states[caller] = keccak256(abi.encodePacked(bytes32(0), state, bytes32(0)));\n\n    emit ORI_New_State(caller, state);\n  }\n\n  // Set the account state to the on-chain computed new state, if the account is not locked\n  function perform(bytes calldata call_data) external payable {\n    normal_perform(msg.sender, call_data, bytes32(0), 0);\n  }\n\n  // Exits optimism by setting the account state to the on-chain computed new state, if the account is not locked\n  function perform_and_exit(\n    bytes calldata call_data,\n    bytes32 call_data_root,\n    uint256 last_time\n  ) external payable no_rollback_required(msg.sender) can_exit_optimism(last_time) {\n    normal_perform(msg.sender, call_data, call_data_root, last_time);\n  }\n\n  // Updates account state with optimistic transition data\n  function optimistic_perform(\n    address caller,\n    bytes calldata call_data,\n    bytes32 new_state,\n    bytes32 call_data_root,\n    bytes32[] calldata proof,\n    uint256 last_time\n  ) internal not_locked(caller) {\n    // Extract current state (S_0) from call data (32 bytes starting after sig and user)\n    bytes32 state = abi.decode(call_data[36:], (bytes32));\n\n    // Check that the user it not in an optimistic state, which means that their account state is\n    // an empty call data tree, current state (S_0), and the last block is 0\n    require(\n      keccak256(abi.encodePacked(call_data_root, state, bytes32(last_time))) == account_states[caller],\n      \"INVALID_ROOTS\"\n    );\n\n    // Get root of new merkle tree with 1 call data element (CD_0), reusing state as call_data_root\n    state = Merkle_Library_CBS.try_append_one(call_data_root, call_data, proof);\n\n    // Combine call data root, new state (S_1), and current time into account state\n    account_states[caller] = keccak256(abi.encodePacked(state, new_state, bytes32(block.timestamp)));\n\n    emit ORI_New_Optimistic_State(caller, block.timestamp);\n  }\n\n  // Enters optimism by updating the account state optimistically with call data and a new state, if the account is not locked\n  function perform_optimistically_and_enter(\n    bytes calldata call_data,\n    bytes32 new_state,\n    bytes32[] calldata proof\n  ) external {\n    optimistic_perform(msg.sender, call_data, new_state, bytes32(0), proof, 0);\n  }\n\n  // Updates the account state optimistically with call data and a new state, if the account is not locked\n  function perform_optimistically(\n    bytes calldata call_data,\n    bytes32 new_state,\n    bytes32 call_data_root,\n    bytes32[] calldata proof,\n    uint256 last_time\n  ) external {\n    optimistic_perform(msg.sender, call_data, new_state, call_data_root, proof, last_time);\n  }\n\n  // Updates account state with optimistic batch transition data\n  function optimistic_perform_many(\n    address user,\n    bytes[] calldata call_data,\n    bytes32 new_state,\n    bytes32 call_data_root,\n    bytes32[] calldata proof,\n    uint256 last_time\n  ) internal not_locked(user) sufficient_calldata(call_data) {\n    // Extract current state (S_n) from first call data (32 bytes starting after sig and user)\n    bytes32 state = abi.decode(call_data[0][36:], (bytes32));\n\n    // Check that the call data root, current state (S_n), and last time are valid for this user\n    require(\n      keccak256(abi.encodePacked(call_data_root, state, bytes32(last_time))) == account_states[user],\n      \"INVALID_ROOTS\"\n    );\n\n    // Get new merkle root of call data tree, appending several call data (CD_n - CD_n+m), reusing state as call_data_root\n    state = Merkle_Library_CBS.try_append_many(call_data_root, call_data, proof);\n\n    // Combine call data root, new state (S_n+m), and current time into account state\n    account_states[user] = keccak256(abi.encodePacked(state, new_state, bytes32(block.timestamp)));\n\n    emit ORI_New_Optimistic_States(user, block.timestamp);\n  }\n\n  // Enters optimism by updating the account state optimistically with several call data and final state, if the account is not locked\n  function perform_many_optimistically_and_enter(\n    bytes[] calldata call_data,\n    bytes32 new_state,\n    bytes32[] calldata proof\n  ) external {\n    optimistic_perform_many(msg.sender, call_data, new_state, bytes32(0), proof, 0);\n  }\n\n  // Updates the account state optimistically with several call data and final state, if the account is not locked\n  function perform_many_optimistically(\n    bytes[] calldata call_data,\n    bytes32 new_state,\n    bytes32 call_data_root,\n    bytes32[] calldata proof,\n    uint256 last_time\n  ) external {\n    optimistic_perform_many(msg.sender, call_data, new_state, call_data_root, proof, last_time);\n  }\n\n  // Lock two users (suspect and accuser)\n  // Note: accuser and suspect cannot already be locked, but this might have to change so a single accuser isn't overwhelmed with fraud\n  function lock(address suspect) external payable not_locked(msg.sender) not_locked(suspect) {\n    address accuser = msg.sender;\n\n    // Lock both the accuser and the suspect\n    lockers[suspect] = accuser;\n    locked_timestamps[suspect] = block.timestamp;\n    lockers[accuser] = accuser;\n    locked_timestamps[accuser] = block.timestamp;\n\n    // The accuser may be trying to bond at the same time (this also check that have enough bonded)\n    require(apply_bond(accuser) == 0, \"INVALID_BOND\");\n\n    emit ORI_Locked(suspect, accuser);\n  }\n\n  // Unlock two users (suspect and accuser)\n  function unlock(\n    address suspect,\n    bytes32 state,\n    bytes32 call_data_root,\n    uint256 last_time\n  ) external is_locked(suspect) lock_expired(suspect) no_rollback_required(suspect) {\n    // Check that the call data root, current state (S_n), and last time are valid for this user\n    require(\n      keccak256(abi.encodePacked(call_data_root, state, bytes32(last_time))) == account_states[suspect],\n      \"INVALID_ROOTS\"\n    );\n\n    // Unlock both accounts\n    address accuser = lockers[suspect];\n    lockers[suspect] = address(0);\n    locked_timestamps[suspect] = 0;\n    lockers[accuser] = address(0);\n    locked_timestamps[accuser] = 0;\n\n    // Give the suspect the accuser's bond for having not proven fraud within a reasonable time frame\n    // TODO: consider burning some here to prevent self-reporting breakeven\n    uint256 amount = balances[accuser];\n    balances[accuser] = 0;\n    balances[suspect] += amount;\n\n    // If suspect was not in optimistic state, then just emit event and return\n    if (last_time == 0) {\n      emit ORI_Unlocked(suspect, accuser, 0);\n      return;\n    }\n\n    // Combine call data root, current state (S_n), and current time into account state\n    // Note: updating last time is important, to prevent suspect blocking fraud proofs by locking themselves\n    account_states[suspect] = keccak256(abi.encodePacked(call_data_root, state, bytes32(block.timestamp)));\n\n    emit ORI_Unlocked(suspect, accuser, block.timestamp);\n  }\n\n  // Reward accuser for proving fraud in a suspect's transition, and track the expected rolled back account state size\n  function prove_fraud(\n    address suspect,\n    bytes[] calldata call_data,\n    bytes32 state,\n    bytes32 call_data_root,\n    bytes32[] calldata proof,\n    uint256 last_time\n  ) external {\n    address accuser = msg.sender;\n\n    // Only the user that flagged/locked the suspect can prove fraud\n    require(lockers[suspect] == accuser, \"NOT_LOCKER\");\n\n    // Check that the call data root, current state (S_n), and last time are valid for this user\n    require(\n      keccak256(abi.encodePacked(call_data_root, state, bytes32(last_time))) == account_states[suspect],\n      \"INVALID_ROOTS\"\n    );\n\n    // Check that the call data exist\n    require(Merkle_Library_CBS.elements_exist(call_data_root, call_data, proof), \"INVALID_CALLDATA\");\n\n    // get the indices of the call data in the call data tre\n    uint256[] memory call_data_indices = Merkle_Library_CBS.get_indices(call_data, proof);\n\n    // The transition index is the index of the starting call data of the fraud proof\n    uint256 transition_index = call_data_indices[0];\n\n    // If only one call data is provided, the fraud involves the last call data and current state\n    if (call_data.length == 1) {\n      // Check that the call data index is the last (call data tree size minus 1)\n      require(transition_index + 1 == uint256(proof[0]), \"INCORRECT_CALLDATA\");\n\n      // Fail if the state transition was valid\n      require(verify_transition(suspect, call_data[0], state) == false, \"VALID_TRANSITION\");\n    } else {\n      // Check that call data provided are consecutive\n      require(transition_index + 1 == call_data_indices[1]);\n\n      // Extract new state from second call data (32 bytes starting after the sig and user), reusing state var\n      state = abi.decode(call_data[1][36:], (bytes32));\n\n      // Fail if the state transition was valid\n      require(verify_transition(suspect, call_data[0], state) == false, \"VALID_TRANSITION\");\n    }\n\n    // Take the suspect's bond and give it to the accuser, reusing last_time var\n    // TODO: consider burning some here to prevent self-reporting breakeven\n    last_time = balances[suspect];\n    balances[suspect] = 0;\n    balances[accuser] += last_time;\n\n    // Unlock the accuser's account\n    lockers[accuser] = address(0);\n    locked_timestamps[accuser] = 0;\n\n    // Set the rollback size to the amount of elements that should be in the call data tree once rolled back\n    rollback_sizes[suspect] = transition_index;\n\n    // Set the suspect as the reason for their account's lock\n    lockers[suspect] = suspect;\n    locked_timestamps[suspect] = 0;\n\n    emit ORI_Fraud_Proven(accuser, suspect, transition_index);\n  }\n\n  // Rolls a user back, given the current roots, old roots, and a proof of the optimistic transitions between them\n  function rollback(\n    bytes32 rolled_back_call_data_root,\n    bytes[] calldata rolled_back_call_data,\n    bytes32[] calldata roll_back_proof,\n    uint256 current_size,\n    bytes32 current_size_proof,\n    bytes32 call_data_root,\n    bytes32 state,\n    uint256 last_time\n  ) external payable {\n    address user = msg.sender;\n    uint256 expected_size = rollback_sizes[user];\n    require(expected_size != 0, \"ROLLBACK_UNNECESSARY\");\n\n    // Check that the call data root, current state (S_n), and last time are valid for this user\n    require(\n      keccak256(abi.encodePacked(call_data_root, state, bytes32(last_time))) == account_states[user],\n      \"INVALID_ROOTS\"\n    );\n\n    // Check that the provided size of the current call data tree is correct\n    require(Merkle_Library_CBS.verify_size(call_data_root, current_size, current_size_proof), \"INVALID_SIZE\");\n\n    // Allow incremental roll back by checking that the rolled back call data tree is smaller than the current tree\n    uint256 rolled_back_size = uint256(roll_back_proof[0]);\n    require(rolled_back_size < current_size, \"INSUFFICIENT_ROLLBACK\");\n\n    // Check that this is not rolling back too far, though\n    require(rolled_back_size >= expected_size, \"ROLLBACK_TOO_DEEP\");\n\n    // Check that the current call data root is derived by appending the rolled back call data to the rolled back call data root\n    require(\n      Merkle_Library_CBS.try_append_many(rolled_back_call_data_root, rolled_back_call_data, roll_back_proof) ==\n        call_data_root,\n      \"INVALID_ROLLBACK\"\n    );\n\n    // Extract new state from first rolled back call data (32 bytes starting after the sig and user), reusing state var\n    state = abi.decode(rolled_back_call_data[0][36:], (bytes32));\n\n    // Combine rolled back call data root, new state (S_n-m), and current time into account state\n    account_states[user] = keccak256(abi.encodePacked(rolled_back_call_data_root, state, bytes32(block.timestamp)));\n\n    // Unlock the user and clear the rollback flag, if roll back is complete\n    if (rolled_back_size == expected_size) {\n      lockers[user] = address(0);\n      rollback_sizes[user] = 0;\n    }\n\n    // The user may be trying to bond at the same time (this also check that have enough bonded)\n    require(apply_bond(user) == 0, \"INVALID_BOND\");\n\n    emit ORI_Rolled_Back(user, rolled_back_size, block.timestamp);\n  }\n}\n",
  "sourcePath": "/Users/michaeldeluca/Projects/optimistic-roll-in/eth/contracts/optimistic-roll-in.sol",
  "compiler": {
    "name": "solc",
    "version": "0.7.3+commit.9bfce1f6.Emscripten.clang"
  },
  "schemaVersion": "3.3.1",
  "updatedAt": "2020-11-03T07:32:27.975Z",
  "networkType": "ethereum",
  "devdoc": {
    "kind": "dev",
    "methods": {},
    "version": 1
  },
  "userdoc": {
    "kind": "user",
    "methods": {},
    "version": 1
  }
}