{
  "contractName": "Optimistic_Roll_In",
  "abi": [
    {
      "inputs": [
        {
          "internalType": "address",
          "name": "_logic_address",
          "type": "address"
        },
        {
          "internalType": "bytes4",
          "name": "_initializer",
          "type": "bytes4"
        }
      ],
      "stateMutability": "nonpayable",
      "type": "constructor"
    },
    {
      "anonymous": false,
      "inputs": [
        {
          "indexed": true,
          "internalType": "address",
          "name": "accuser",
          "type": "address"
        },
        {
          "indexed": true,
          "internalType": "address",
          "name": "suspect",
          "type": "address"
        },
        {
          "indexed": true,
          "internalType": "uint256",
          "name": "transition_index",
          "type": "uint256"
        },
        {
          "indexed": false,
          "internalType": "uint256",
          "name": "amount",
          "type": "uint256"
        }
      ],
      "name": "ORI_Fraud_Proven",
      "type": "event"
    },
    {
      "anonymous": false,
      "inputs": [
        {
          "indexed": true,
          "internalType": "address",
          "name": "suspect",
          "type": "address"
        },
        {
          "indexed": true,
          "internalType": "address",
          "name": "accuser",
          "type": "address"
        }
      ],
      "name": "ORI_Locked",
      "type": "event"
    },
    {
      "anonymous": false,
      "inputs": [
        {
          "indexed": true,
          "internalType": "address",
          "name": "user",
          "type": "address"
        },
        {
          "indexed": true,
          "internalType": "uint256",
          "name": "block_time",
          "type": "uint256"
        }
      ],
      "name": "ORI_New_Optimistic_State",
      "type": "event"
    },
    {
      "anonymous": false,
      "inputs": [
        {
          "indexed": true,
          "internalType": "address",
          "name": "user",
          "type": "address"
        },
        {
          "indexed": true,
          "internalType": "uint256",
          "name": "block_time",
          "type": "uint256"
        }
      ],
      "name": "ORI_New_Optimistic_States",
      "type": "event"
    },
    {
      "anonymous": false,
      "inputs": [
        {
          "indexed": true,
          "internalType": "address",
          "name": "user",
          "type": "address"
        },
        {
          "indexed": true,
          "internalType": "bytes32",
          "name": "new_state",
          "type": "bytes32"
        }
      ],
      "name": "ORI_New_State",
      "type": "event"
    },
    {
      "anonymous": false,
      "inputs": [
        {
          "indexed": true,
          "internalType": "address",
          "name": "user",
          "type": "address"
        },
        {
          "indexed": true,
          "internalType": "uint256",
          "name": "tree_size",
          "type": "uint256"
        },
        {
          "indexed": true,
          "internalType": "uint256",
          "name": "block_time",
          "type": "uint256"
        }
      ],
      "name": "ORI_Rolled_Back",
      "type": "event"
    },
    {
      "anonymous": false,
      "inputs": [
        {
          "indexed": true,
          "internalType": "address",
          "name": "suspect",
          "type": "address"
        },
        {
          "indexed": true,
          "internalType": "address",
          "name": "accuser",
          "type": "address"
        }
      ],
      "name": "ORI_Unlocked",
      "type": "event"
    },
    {
      "inputs": [
        {
          "internalType": "address",
          "name": "",
          "type": "address"
        }
      ],
      "name": "account_states",
      "outputs": [
        {
          "internalType": "bytes32",
          "name": "",
          "type": "bytes32"
        }
      ],
      "stateMutability": "view",
      "type": "function"
    },
    {
      "inputs": [
        {
          "internalType": "address",
          "name": "",
          "type": "address"
        }
      ],
      "name": "balances",
      "outputs": [
        {
          "internalType": "uint256",
          "name": "",
          "type": "uint256"
        }
      ],
      "stateMutability": "view",
      "type": "function"
    },
    {
      "inputs": [],
      "name": "initializer",
      "outputs": [
        {
          "internalType": "bytes4",
          "name": "",
          "type": "bytes4"
        }
      ],
      "stateMutability": "view",
      "type": "function"
    },
    {
      "inputs": [
        {
          "internalType": "address",
          "name": "",
          "type": "address"
        }
      ],
      "name": "locked_times",
      "outputs": [
        {
          "internalType": "uint256",
          "name": "",
          "type": "uint256"
        }
      ],
      "stateMutability": "view",
      "type": "function"
    },
    {
      "inputs": [
        {
          "internalType": "address",
          "name": "",
          "type": "address"
        }
      ],
      "name": "lockers",
      "outputs": [
        {
          "internalType": "address",
          "name": "",
          "type": "address"
        }
      ],
      "stateMutability": "view",
      "type": "function"
    },
    {
      "inputs": [],
      "name": "logic_address",
      "outputs": [
        {
          "internalType": "address",
          "name": "",
          "type": "address"
        }
      ],
      "stateMutability": "view",
      "type": "function"
    },
    {
      "inputs": [
        {
          "internalType": "address",
          "name": "",
          "type": "address"
        }
      ],
      "name": "rollback_sizes",
      "outputs": [
        {
          "internalType": "uint256",
          "name": "",
          "type": "uint256"
        }
      ],
      "stateMutability": "view",
      "type": "function"
    },
    {
      "stateMutability": "payable",
      "type": "receive"
    },
    {
      "inputs": [
        {
          "internalType": "address",
          "name": "user",
          "type": "address"
        }
      ],
      "name": "bond",
      "outputs": [],
      "stateMutability": "payable",
      "type": "function"
    },
    {
      "inputs": [],
      "name": "initialize",
      "outputs": [],
      "stateMutability": "payable",
      "type": "function"
    },
    {
      "inputs": [
        {
          "internalType": "address payable",
          "name": "destination",
          "type": "address"
        }
      ],
      "name": "withdraw",
      "outputs": [],
      "stateMutability": "nonpayable",
      "type": "function"
    },
    {
      "inputs": [
        {
          "internalType": "bytes",
          "name": "call_data",
          "type": "bytes"
        }
      ],
      "name": "perform",
      "outputs": [],
      "stateMutability": "payable",
      "type": "function"
    },
    {
      "inputs": [
        {
          "internalType": "bytes",
          "name": "call_data",
          "type": "bytes"
        },
        {
          "internalType": "bytes32",
          "name": "call_data_root",
          "type": "bytes32"
        },
        {
          "internalType": "uint256",
          "name": "last_time",
          "type": "uint256"
        }
      ],
      "name": "perform_and_exit",
      "outputs": [],
      "stateMutability": "payable",
      "type": "function"
    },
    {
      "inputs": [
        {
          "internalType": "bytes",
          "name": "call_data",
          "type": "bytes"
        },
        {
          "internalType": "bytes32",
          "name": "new_state",
          "type": "bytes32"
        },
        {
          "internalType": "bytes32[]",
          "name": "proof",
          "type": "bytes32[]"
        }
      ],
      "name": "perform_optimistically_and_enter",
      "outputs": [],
      "stateMutability": "nonpayable",
      "type": "function"
    },
    {
      "inputs": [
        {
          "internalType": "bytes",
          "name": "call_data",
          "type": "bytes"
        },
        {
          "internalType": "bytes32",
          "name": "new_state",
          "type": "bytes32"
        },
        {
          "internalType": "bytes32",
          "name": "call_data_root",
          "type": "bytes32"
        },
        {
          "internalType": "bytes32[]",
          "name": "proof",
          "type": "bytes32[]"
        },
        {
          "internalType": "uint256",
          "name": "last_time",
          "type": "uint256"
        }
      ],
      "name": "perform_optimistically",
      "outputs": [],
      "stateMutability": "nonpayable",
      "type": "function"
    },
    {
      "inputs": [
        {
          "internalType": "bytes[]",
          "name": "call_data",
          "type": "bytes[]"
        },
        {
          "internalType": "bytes32",
          "name": "new_state",
          "type": "bytes32"
        },
        {
          "internalType": "bytes32[]",
          "name": "proof",
          "type": "bytes32[]"
        }
      ],
      "name": "perform_many_optimistically_and_enter",
      "outputs": [],
      "stateMutability": "nonpayable",
      "type": "function"
    },
    {
      "inputs": [
        {
          "internalType": "bytes[]",
          "name": "call_data",
          "type": "bytes[]"
        },
        {
          "internalType": "bytes32",
          "name": "new_state",
          "type": "bytes32"
        },
        {
          "internalType": "bytes32",
          "name": "call_data_root",
          "type": "bytes32"
        },
        {
          "internalType": "bytes32[]",
          "name": "proof",
          "type": "bytes32[]"
        },
        {
          "internalType": "uint256",
          "name": "last_time",
          "type": "uint256"
        }
      ],
      "name": "perform_many_optimistically",
      "outputs": [],
      "stateMutability": "nonpayable",
      "type": "function"
    },
    {
      "inputs": [
        {
          "internalType": "address",
          "name": "suspect",
          "type": "address"
        }
      ],
      "name": "lock_user",
      "outputs": [],
      "stateMutability": "payable",
      "type": "function"
    },
    {
      "inputs": [
        {
          "internalType": "address",
          "name": "suspect",
          "type": "address"
        },
        {
          "internalType": "bytes32",
          "name": "state",
          "type": "bytes32"
        },
        {
          "internalType": "bytes32",
          "name": "call_data_root",
          "type": "bytes32"
        },
        {
          "internalType": "uint256",
          "name": "last_time",
          "type": "uint256"
        }
      ],
      "name": "unlock",
      "outputs": [],
      "stateMutability": "nonpayable",
      "type": "function"
    },
    {
      "inputs": [
        {
          "internalType": "address",
          "name": "suspect",
          "type": "address"
        },
        {
          "internalType": "bytes[]",
          "name": "call_data",
          "type": "bytes[]"
        },
        {
          "internalType": "bytes32",
          "name": "state",
          "type": "bytes32"
        },
        {
          "internalType": "bytes32",
          "name": "call_data_root",
          "type": "bytes32"
        },
        {
          "internalType": "bytes32[]",
          "name": "proof",
          "type": "bytes32[]"
        },
        {
          "internalType": "uint256",
          "name": "last_time",
          "type": "uint256"
        }
      ],
      "name": "prove_fraud",
      "outputs": [],
      "stateMutability": "nonpayable",
      "type": "function"
    },
    {
      "inputs": [
        {
          "internalType": "bytes32",
          "name": "rolled_back_call_data_root",
          "type": "bytes32"
        },
        {
          "internalType": "bytes[]",
          "name": "rolled_back_call_data",
          "type": "bytes[]"
        },
        {
          "internalType": "bytes32[]",
          "name": "roll_back_proof",
          "type": "bytes32[]"
        },
        {
          "internalType": "uint256",
          "name": "current_size",
          "type": "uint256"
        },
        {
          "internalType": "bytes32",
          "name": "current_size_proof",
          "type": "bytes32"
        },
        {
          "internalType": "bytes32",
          "name": "call_data_root",
          "type": "bytes32"
        },
        {
          "internalType": "bytes32",
          "name": "state",
          "type": "bytes32"
        },
        {
          "internalType": "uint256",
          "name": "last_time",
          "type": "uint256"
        }
      ],
      "name": "rollback",
      "outputs": [],
      "stateMutability": "payable",
      "type": "function"
    }
  ],
  "bytecode": "0x60c06040523480156200001157600080fd5b506040516200374d3803806200374d833981016040819052620000349162000072565b60609190911b6001600160601b0319166080527fffffffff000000000000000000000000000000000000000000000000000000001660a052620000dd565b6000806040838503121562000085578182fd5b82516001600160a01b03811681146200009c578283fd5b60208401519092507fffffffff0000000000000000000000000000000000000000000000000000000081168114620000d2578182fd5b809150509250929050565b60805160601c60a05160e01c60e01b61362f6200011e600039806108b55280610d3652508061087d528061112052806119b75280611bc5525061362f6000f3fe6080604052600436106101635760003560e01c80638129fc1c116100c0578063bb6ae2cb11610074578063c45481bb11610059578063c45481bb14610366578063e112420014610386578063e426ed801461039957610173565b8063bb6ae2cb1461033e578063c0c452671461035157610173565b80639ce110d7116100a55780639ce110d7146102dc578063a68f5913146102fe578063af7b5a411461031e57610173565b80638129fc1c146102b45780638ee16d13146102bc57610173565b80632a4154541161011757806351cff8d9116100fc57806351cff8d9146102615780635b1db142146102815780636a8dddef1461029457610173565b80632a415454146102215780632c8e7a211461023457610173565b8063177f15c511610148578063177f15c5146101b8578063247ce85b146101d857806327e235e3146101eb57610173565b806308542bb1146101785780631646d0511461019857610173565b3661017357610171336103b9565b005b600080fd5b34801561018457600080fd5b50610171610193366004612c77565b6104a8565b3480156101a457600080fd5b506101716101b3366004612ec1565b6104c0565b3480156101c457600080fd5b506101716101d3366004612e87565b6104d9565b6101716101e6366004612b87565b6103b9565b3480156101f757600080fd5b5061020b610206366004612b87565b6104ea565b604051610218919061305c565b60405180910390f35b61017161022f366004612f24565b6104fc565b34801561024057600080fd5b5061025461024f366004612b87565b610596565b604051610218919061303b565b34801561026d57600080fd5b5061017161027c366004612b87565b6105be565b61017161028f366004612b87565b610674565b3480156102a057600080fd5b506101716102af366004612cee565b610816565b610171610826565b3480156102c857600080fd5b506101716102d7366004612c3d565b610a51565b3480156102e857600080fd5b506102f1610d34565b6040516102189190613065565b34801561030a57600080fd5b50610171610319366004612ba3565b610d58565b34801561032a57600080fd5b5061020b610339366004612b87565b6110fe565b61017161034c366004612e47565b611110565b34801561035d57600080fd5b5061025461111e565b34801561037257600080fd5b5061020b610381366004612b87565b611142565b610171610394366004612da7565b611154565b3480156103a557600080fd5b5061020b6103b4366004612b87565b6114a0565b34806104355773ffffffffffffffffffffffffffffffffffffffff8216600090815260208190526040902054670de0b6b3a7640000111561042f576040517f08c379a0000000000000000000000000000000000000000000000000000000008152600401610426906134de565b60405180910390fd5b506104a5565b73ffffffffffffffffffffffffffffffffffffffff821660009081526020819052604090208054820190819055670de0b6b3a764000011156104a3576040517f08c379a0000000000000000000000000000000000000000000000000000000008152600401610426906134de565b505b50565b6104b93386868660008787826114b2565b5050505050565b6104d033888888888888886116e9565b50505050505050565b6104b93386868660008787826116e9565b60006020819052908152604090205481565b3360008181526004602052604090205415610543576040517f08c379a000000000000000000000000000000000000000000000000000000000815260040161042690613100565b8142816102580110610581576040517f08c379a0000000000000000000000000000000000000000000000000000000008152600401610426906134a7565b61058e33878787876118a6565b505050505050565b60026020526000908152604090205473ffffffffffffffffffffffffffffffffffffffff1681565b3360008181526002602052604090205473ffffffffffffffffffffffffffffffffffffffff161561061b576040517f08c379a000000000000000000000000000000000000000000000000000000000815260040161042690613470565b336000818152602081905260408082208054908390559051909173ffffffffffffffffffffffffffffffffffffffff86169183156108fc0291849190818181858888f193505050501580156104b9573d6000803e3d6000fd5b3360008181526002602052604090205473ffffffffffffffffffffffffffffffffffffffff16156106d1576040517f08c379a000000000000000000000000000000000000000000000000000000000815260040161042690613470565b73ffffffffffffffffffffffffffffffffffffffff80831660009081526002602052604090205483911615610732576040517f08c379a000000000000000000000000000000000000000000000000000000000815260040161042690613470565b73ffffffffffffffffffffffffffffffffffffffff831660009081526002602081815260408084208054337fffffffffffffffffffffffff000000000000000000000000000000000000000091821681179092556003808552838720429081905583885295855283872080549092168317909155909252909220556107b6816103b9565b8073ffffffffffffffffffffffffffffffffffffffff168473ffffffffffffffffffffffffffffffffffffffff167f8773bde6581ad6ddd421210de867340039fb65ce3df41edba7b5de6d24ae7a5160405160405180910390a350505050565b6104d033888888888888886114b2565b336000818152600160205260409020541561086d576040517f08c379a00000000000000000000000000000000000000000000000000000000081526004016104269061316e565b33610877816103b9565b600060607f000000000000000000000000000000000000000000000000000000000000000073ffffffffffffffffffffffffffffffffffffffff16347f00000000000000000000000000000000000000000000000000000000000000006040516020016108e49190612fc5565b604080517fffffffffffffffffffffffffffffffffffffffffffffffffffffffffffffffe08184030181529082905261091c91613002565b60006040518083038185875af1925050503d8060008114610959576040519150601f19603f3d011682016040523d82523d6000602084013e61095e565b606091505b50915091508161099a576040517f08c379a000000000000000000000000000000000000000000000000000000000815260040161042690613402565b6000818060200190518101906109b09190612d8f565b6040519091506109c99060009083908290602001612faf565b604080517fffffffffffffffffffffffffffffffffffffffffffffffffffffffffffffffe0818403018152828252805160209182012073ffffffffffffffffffffffffffffffffffffffff8816600081815260019093529282205583927f0f5025cc4f20aa47a346d1b7d9da6ba8c68cc8e83b75e813da4b4490d55365ae9190a35050505050565b73ffffffffffffffffffffffffffffffffffffffff808516600090815260026020526040902054859116610ab1576040517f08c379a0000000000000000000000000000000000000000000000000000000008152600401610426906132ef565b73ffffffffffffffffffffffffffffffffffffffff85166000908152600360205260409020548590426102589091011115610b18576040517f08c379a0000000000000000000000000000000000000000000000000000000008152600401610426906133cb565b73ffffffffffffffffffffffffffffffffffffffff8616600090815260046020526040902054869015610b77576040517f08c379a000000000000000000000000000000000000000000000000000000000815260040161042690613100565b73ffffffffffffffffffffffffffffffffffffffff8716600090815260016020908152604091829020549151610bb39188918a91899101612faf565b6040516020818303038152906040528051906020012014610c00576040517f08c379a000000000000000000000000000000000000000000000000000000000815260040161042690613281565b73ffffffffffffffffffffffffffffffffffffffff808816600081815260026020818152604080842080547fffffffffffffffffffffffff00000000000000000000000000000000000000008082169092556003808552838720879055971680865293835281852080549091169055948152848320839055828152848320805490849055938352918490208054840190559251610ca39189918b91429101612faf565b604080517fffffffffffffffffffffffffffffffffffffffffffffffffffffffffffffffe0818403018152828252805160209182012073ffffffffffffffffffffffffffffffffffffffff808e1660008181526001909452938320919091558516927f524512344e535e9bda79e916c2ea8c7b9e5d23d83e1b95181d7622b4ac3d42939190a3505050505050505050565b7f000000000000000000000000000000000000000000000000000000000000000081565b73ffffffffffffffffffffffffffffffffffffffff8881166000908152600260205260409020543391168114610dba576040517f08c379a000000000000000000000000000000000000000000000000000000000815260040161042690613092565b73ffffffffffffffffffffffffffffffffffffffff8916600090815260016020908152604091829020549151610df69188918a91879101612faf565b6040516020818303038152906040528051906020012014610e43576040517f08c379a000000000000000000000000000000000000000000000000000000000815260040161042690613281565b610e508589898787611b34565b610e86576040517f08c379a000000000000000000000000000000000000000000000000000000000815260040161042690613137565b6060610e9489898787611b6c565b9050600081600081518110610ea557fe5b602002602001015190508989905060011415610f715785856000818110610ec857fe5b9050602002013560001c8160010114610f0d576040517f08c379a0000000000000000000000000000000000000000000000000000000008152600401610426906131a5565b610f358a8a6000818110610f1d57fe5b9050602002810190610f2f919061354c565b8a611bbe565b15610f6c576040517f08c379a000000000000000000000000000000000000000000000000000000000815260040161042690613213565b611017565b81600181518110610f7e57fe5b60200260200101518160010114610f9457600080fd5b89896001818110610fa157fe5b9050602002810190610fb3919061354c565b610fc19160049082906135af565b810190610fce9190612d77565b9750610fe08a8a6000818110610f1d57fe5b15611017576040517f08c379a000000000000000000000000000000000000000000000000000000000815260040161042690613213565b73ffffffffffffffffffffffffffffffffffffffff808c16600081815260208181526040808320805490849055948816808452818420805487019055600280845282852080547fffffffffffffffffffffffff00000000000000000000000000000000000000009081169091556003808652848720879055878752600486528487208a905591855283862080549091168717905590925280832092909255905192965083927fa66290bc21cee2ba1a3c6ba2cac21d24511cea1f9ed7efe453736f24fd894886906110e990899061305c565b60405180910390a45050505050505050505050565b60016020526000908152604090205481565b6104a33383836000806118a6565b7f000000000000000000000000000000000000000000000000000000000000000081565b60046020526000908152604090205481565b336000818152600460205260409020548061119b576040517f08c379a000000000000000000000000000000000000000000000000000000000815260040161042690613326565b73ffffffffffffffffffffffffffffffffffffffff82166000908152600160209081526040918290205491516111d79188918891889101612faf565b6040516020818303038152906040528051906020012014611224576040517f08c379a000000000000000000000000000000000000000000000000000000000815260040161042690613281565b61122f858888611c86565b611265576040517f08c379a0000000000000000000000000000000000000000000000000000000008152600401610426906132b8565b60008989600081811061127457fe5b9050602002013560001c90508781106112b9576040517f08c379a0000000000000000000000000000000000000000000000000000000008152600401610426906130c9565b818110156112f3576040517f08c379a000000000000000000000000000000000000000000000000000000000815260040161042690613394565b856113018e8e8e8e8e611cb5565b14611338576040517f08c379a000000000000000000000000000000000000000000000000000000000815260040161042690613439565b8b8b600081811061134557fe5b9050602002810190611357919061354c565b6113659160049082906135af565b8101906113729190612d77565b60405190955061138a908e9087904290602001612faf565b604080517fffffffffffffffffffffffffffffffffffffffffffffffffffffffffffffffe0818403018152918152815160209283012073ffffffffffffffffffffffffffffffffffffffff861660009081526001909352912055808214156114435773ffffffffffffffffffffffffffffffffffffffff8316600090815260026020908152604080832080547fffffffffffffffffffffffff000000000000000000000000000000000000000016905560049091528120555b61144c836103b9565b42818473ffffffffffffffffffffffffffffffffffffffff167f4d7ed8c49e6b03daee23a18f4bd14bd7e4628e5ed54c57bf84407a693867eca960405160405180910390a450505050505050505050505050565b60036020526000908152604090205481565b73ffffffffffffffffffffffffffffffffffffffff80891660009081526002602052604090205489911615611513576040517f08c379a000000000000000000000000000000000000000000000000000000000815260040161042690613470565b87876001811161154f576040517f08c379a00000000000000000000000000000000000000000000000000000000081526004016104269061335d565b60008a8a600081811061155e57fe5b9050602002810190611570919061354c565b61157e9160049082906135af565b81019061158b9190612d77565b73ffffffffffffffffffffffffffffffffffffffff8d1660009081526001602090815260409182902054915192935090916115cc918b9185918a9101612faf565b6040516020818303038152906040528051906020012014611619576040517f08c379a000000000000000000000000000000000000000000000000000000000815260040161042690613281565b611626888c8c8a8a611cb5565b60405190915061163e9082908b904290602001612faf565b60405160208183030381529060405280519060200120600160008e73ffffffffffffffffffffffffffffffffffffffff1673ffffffffffffffffffffffffffffffffffffffff16815260200190815260200160002081905550428c73ffffffffffffffffffffffffffffffffffffffff167f0b87b136840d19f5f25329273082c00833265a189b70137e06df6315ddc7839e60405160405180910390a3505050505050505050505050565b73ffffffffffffffffffffffffffffffffffffffff8089166000908152600260205260409020548991161561174a576040517f08c379a000000000000000000000000000000000000000000000000000000000815260040161042690613470565b6000611759886004818c6135af565b8101906117669190612d77565b73ffffffffffffffffffffffffffffffffffffffff8b1660009081526001602090815260409182902054915192935090916117a79189918591889101612faf565b60405160208183030381529060405280519060200120146117f4576040517f08c379a000000000000000000000000000000000000000000000000000000000815260040161042690613281565b611801868a8a8888611d92565b60405190915061181990829089904290602001612faf565b604080517fffffffffffffffffffffffffffffffffffffffffffffffffffffffffffffffe0818403018152828252805160209182012073ffffffffffffffffffffffffffffffffffffffff8e16600081815260019093529282205542927f4779c4b07abff82b16061ec9a47d081e7f4981c29088395cdb7ff87e322cbbc69190a350505050505050505050565b73ffffffffffffffffffffffffffffffffffffffff80861660009081526002602052604090205486911615611907576040517f08c379a000000000000000000000000000000000000000000000000000000000815260040161042690613470565b600061191685600481896135af565b8101906119239190612d77565b73ffffffffffffffffffffffffffffffffffffffff881660009081526001602090815260409182902054915192935090916119649187918591889101612faf565b60405160208183030381529060405280519060200120146119b1576040517f08c379a000000000000000000000000000000000000000000000000000000000815260040161042690613281565b600060607f000000000000000000000000000000000000000000000000000000000000000073ffffffffffffffffffffffffffffffffffffffff163489896040516119fd929190612ff2565b60006040518083038185875af1925050503d8060008114611a3a576040519150601f19603f3d011682016040523d82523d6000602084013e611a3f565b606091505b509150915081611a7b576040517f08c379a000000000000000000000000000000000000000000000000000000000815260040161042690613515565b80806020019051810190611a8f9190612d8f565b604051909350611aa89060009085908290602001612faf565b604080517fffffffffffffffffffffffffffffffffffffffffffffffffffffffffffffffe0818403018152828252805160209182012073ffffffffffffffffffffffffffffffffffffffff8d16600081815260019093529282205585927f0f5025cc4f20aa47a346d1b7d9da6ba8c68cc8e83b75e813da4b4490d55365ae9190a3505050505050505050565b600085611b5f84846000818110611b4757fe5b90506020020135611b5a88888888611e5d565b612000565b1490505b95945050505050565b6060611bb38484846001818110611b7f57fe5b9050602002013585856002818110611b9357fe5b9050602002013586866003818110611ba757fe5b9050602002013561200f565b90505b949350505050565b60008060607f000000000000000000000000000000000000000000000000000000000000000073ffffffffffffffffffffffffffffffffffffffff168686604051611c0a929190612ff2565b6000604051808303816000865af19150503d8060008114611c47576040519150601f19603f3d011682016040523d82523d6000602084013e611c4c565b606091505b509150915081611c6157600092505050611c7f565b600081806020019051810190611c779190612d8f565b851493505050505b9392505050565b600083158015611c94575082155b15611ca157506001611c7f565b83611cac8484612000565b14949350505050565b60008083836000818110611cc557fe5b60200291909101359150508615811514611d0b576040517f08c379a00000000000000000000000000000000000000000000000000000000081526004016104269061324a565b86611d2657611d1e85611b5a888261232f565b915050611b63565b6000611d3487878787612445565b9350905087611d438383612000565b14611d7a576040517f08c379a0000000000000000000000000000000000000000000000000000000008152600401610426906131dc565b611d8682870184612000565b98975050505050505050565b60008083836000818110611da257fe5b60200291909101359150508615811514611de8576040517f08c379a00000000000000000000000000000000000000000000000000000000081526004016104269061324a565b86611dfc57611d1e6001611b5a8888612655565b6000611e0a8787878761268b565b9350905087611e198383612000565b14611e50576040517f08c379a0000000000000000000000000000000000000000000000000000000008152600401610426906131dc565b611d866001830184612000565b6000806060611e6c8787612755565b90925090506000806004600182898983818110611e8557fe5b90506020020135905060008a8a6002818110611e9d57fe5b90506020020135905060008b8b6003818110611eb557fe5b9050602002013590505b838483161415611f5d57838484161415611f07578760018715611ee25787611ee4565b8a5b0381518110611eef57fe5b60200260200101519950505050505050505050611bb6565b878781518110611f1357fe5b6020026020010151888781518110611f2757fe5b602002602001018181525050888760010181611f3f57fe5b069650888660010181611f4e57fe5b069550600184901b9350611ebf565b8384841614611f84578b8b86806001019750818110611f7857fe5b90506020020135611f9e565b8751600188019789918110611f9557fe5b60200260200101515b9950888781611fa957fe5b0696508384821614611fd757611fd28a898981518110611fc557fe5b6020026020010151612000565b611ff4565b611ff4888881518110611fe657fe5b60200260200101518b612000565b888781518110611f2757fe5b60009182526020526040902090565b60608467ffffffffffffffff8111801561202857600080fd5b50604051908082528060200260200182016040528015612052578160200160208202803683370190505b50905060608567ffffffffffffffff8111801561206e57600080fd5b50604051908082528060200260200182016040528015612098578160200160208202803683370190505b50905060608667ffffffffffffffff811180156120b457600080fd5b506040519080825280602002602001820160405280156120de578160200160208202803683370190505b507fffffffffffffffffffffffffffffffffffffffffffffffffffffffffffffffff90970196905086600160008080805b848c169350848b169250848a16915087868151811061212a57fe5b60200260200101516001901b9050848314156121d15784841415612155575050505050505050611bb6565b87868151811061216157fe5b60209081029190910101805160010190528561217f578c95506121c5565b86517fffffffffffffffffffffffffffffffffffffffffffffffffffffffffffffffff870196889181106121af57fe5b60200260200101516121c0576121c5565b612155565b600185901b945061210f565b84841415612298575b8482141561220257808987815181106121ef57fe5b6020026020010181815117915081815250505b87868151811061220e57fe5b60209081029190910101805160010190528561222c578c9550612298565b86868151811061223857fe5b602002602001015161226e5760018787806001900398508151811061225957fe5b91151560209283029190910190910152612298565b60018787806001900398508151811061228357fe5b911515602092830291909101909101526121da565b8482146122bf57808987815181106122ac57fe5b6020026020010181815117915081815250505b8786815181106122cb57fe5b6020908102919091010180516001019052856122e9578c95506121c5565b86517fffffffffffffffffffffffffffffffffffffffffffffffffffffffffffffffff8701968891811061231957fe5b602002602001015161232a576121c5565b612298565b600080606061233e858561285f565b915091506000805b60018411156124245750600181901b7fffffffffffffffffffffffffffffffffffffffffffffffffffffffffffffffff84018114156123c05782818151811061238b57fe5b602002602001015183838151811061239f57fe5b6020026020010181815250506000915083600116600185901c019350612346565b8381106123dc576000915083600116600185901c019350612346565b6124028382815181106123eb57fe5b6020026020010151848360010181518110611fc557fe5b835160018401938591811061241357fe5b602002602001018181525050612346565b8260008151811061243157fe5b602002602001015194505050505092915050565b6000806000606061245688886129ff565b9150915060008060008888600081811061246c57fe5b60200291909101359586017fffffffffffffffffffffffffffffffffffffffffffffffffffffffffffffffff0195915081905060006124aa82612ac0565b63ffffffff1690508a8a828181106124be57fe5b9050602002013598505b861561262b57841580156124df5750816001166001145b15612579576125068b8b838181106124f357fe5b90506020020135878681518110611fc557fe5b8660008151811061251357fe5b6020908102919091010152600193909301927fffffffffffffffffffffffffffffffffffffffffffffffffffffffffffffffff01801561256c576125698b8b8381811061255c57fe5b905060200201358a612000565b98505b60019450908401906125d4565b868210156125d4576125aa86858060010196508151811061259657fe5b6020026020010151878681518110611fc557fe5b86516001870196889181106125bb57fe5b6020026020010181815250506001840193506002820191505b8682106126265786821415612610578584815181106125ef57fe5b602002602001015186868151811061260357fe5b6020026020010181815250505b600196871c96600095508594509290921c918291505b6124c8565b888660008151811061263957fe5b6020026020010151985098505050505050505094509492505050565b60405160009061266d90829085908590602001612f73565b60405160208183030381529060405280519060200120905092915050565b60008060006126af858560008181106126a057fe5b9050602002013560001c612ac0565b63ffffffff1690508484828181106126c357fe5b90506020020135925061270483600060f81b89896040516020016126e993929190612f73565b60405160208183030381529060405280519060200120612000565b915060005b600182111561274a5760018203915085858381811061272457fe5b9050602002013590506127378184612000565b92506127438185612000565b9350612709565b505094509492505050565b8060608167ffffffffffffffff8111801561276f57600080fd5b50604051908082528060200260200182016040528015612799578160200160208202803683370190505b5090507fffffffffffffffffffffffffffffffffffffffffffffffffffffffffffffffff820160005b838110156128565760008686848181106127d857fe5b90506020028101906127ea919061354c565b6040516020016127fc93929190612f73565b6040516020818303038152906040528051906020012083828151811061281e57fe5b60209081029190910101527fffffffffffffffffffffffffffffffffffffffffffffffffffffffffffffffff909101906001016127c2565b50509250929050565b600181811c908216016060828267ffffffffffffffff8111801561288257600080fd5b506040519080825280602002602001820160405280156128ac578160200160208202803683370190505b5091506000805b848210156129f55750600181901b7fffffffffffffffffffffffffffffffffffffffffffffffffffffffffffffffff83018114156129505760008787838181106128f957fe5b905060200281019061290b919061354c565b60405160200161291d93929190612f73565b6040516020818303038152906040528051906020012084838151811061293f57fe5b6020026020010181815250506129f5565b6129d3600088888481811061296157fe5b9050602002810190612973919061354c565b60405160200161298593929190612f73565b60405160208183030381529060405280519060200120600060f81b8989856001018181106129af57fe5b90506020028101906129c1919061354c565b6040516020016126e993929190612f73565b84516001840193869181106129e457fe5b6020026020010181815250506128b3565b5050509250929050565b8060608167ffffffffffffffff81118015612a1957600080fd5b50604051908082528060200260200182016040528015612a43578160200160208202803683370190505b50905060005b82811015612ab8576000858583818110612a5f57fe5b9050602002810190612a71919061354c565b604051602001612a8393929190612f73565b60405160208183030381529060405280519060200120828281518110612aa557fe5b6020908102919091010152600101612a49565b509250929050565b600181901c6355555555169003600281901c6333333333908116911601600481901c630fffffff1601630f0f0f0f1663010101010260181c60ff1690565b60008083601f840112612b0f578182fd5b50813567ffffffffffffffff811115612b26578182fd5b6020830191508360208083028501011115612b4057600080fd5b9250929050565b60008083601f840112612b58578182fd5b50813567ffffffffffffffff811115612b6f578182fd5b602083019150836020828501011115612b4057600080fd5b600060208284031215612b98578081fd5b8135611c7f816135d7565b60008060008060008060008060c0898b031215612bbe578384fd5b8835612bc9816135d7565b9750602089013567ffffffffffffffff80821115612be5578586fd5b612bf18c838d01612afe565b909950975060408b0135965060608b0135955060808b0135915080821115612c17578485fd5b50612c248b828c01612afe565b999c989b50969995989497949560a00135949350505050565b60008060008060808587031215612c52578384fd5b8435612c5d816135d7565b966020860135965060408601359560600135945092505050565b600080600080600060608688031215612c8e578081fd5b853567ffffffffffffffff80821115612ca5578283fd5b612cb189838a01612afe565b9097509550602088013594506040880135915080821115612cd0578283fd5b50612cdd88828901612afe565b969995985093965092949392505050565b600080600080600080600060a0888a031215612d08578283fd5b873567ffffffffffffffff80821115612d1f578485fd5b612d2b8b838c01612afe565b909950975060208a0135965060408a0135955060608a0135915080821115612d51578485fd5b50612d5e8a828b01612afe565b989b979a50959894979596608090950135949350505050565b600060208284031215612d88578081fd5b5035919050565b600060208284031215612da0578081fd5b5051919050565b6000806000806000806000806000806101008b8d031215612dc6578182fd5b8a35995060208b013567ffffffffffffffff80821115612de4578384fd5b612df08e838f01612afe565b909b50995060408d0135915080821115612e08578384fd5b50612e158d828e01612afe565b9b9e9a9d50989b989a9960608a0135996080810135995060a0810135985060c0810135975060e0013595509350505050565b60008060208385031215612e59578081fd5b823567ffffffffffffffff811115612e6f578182fd5b612e7b85828601612b47565b90969095509350505050565b600080600080600060608688031215612e9e578283fd5b853567ffffffffffffffff80821115612eb5578485fd5b612cb189838a01612b47565b600080600080600080600060a0888a031215612edb578081fd5b873567ffffffffffffffff80821115612ef2578283fd5b612efe8b838c01612b47565b909950975060208a0135965060408a0135955060608a0135915080821115612d51578283fd5b60008060008060608587031215612f39578182fd5b843567ffffffffffffffff811115612f4f578283fd5b612f5b87828801612b47565b90989097506020870135966040013595509350505050565b60007fff000000000000000000000000000000000000000000000000000000000000008516825282846001840137910160010190815292915050565b9283526020830191909152604082015260600190565b7fffffffff0000000000000000000000000000000000000000000000000000000091909116815260040190565b6000828483379101908152919050565b60008251815b818110156130225760208186018101518583015201613008565b818111156130305782828501525b509190910192915050565b73ffffffffffffffffffffffffffffffffffffffff91909116815260200190565b90815260200190565b7fffffffff0000000000000000000000000000000000000000000000000000000091909116815260200190565b6020808252600a908201527f4e4f545f4c4f434b455200000000000000000000000000000000000000000000604082015260600190565b60208082526015908201527f494e53554646494349454e545f524f4c4c4241434b0000000000000000000000604082015260600190565b60208082526011908201527f524f4c4c4241434b5f5245515549524544000000000000000000000000000000604082015260600190565b60208082526010908201527f494e56414c49445f43414c4c4441544100000000000000000000000000000000604082015260600190565b60208082526013908201527f414c52454144595f494e495449414c495a454400000000000000000000000000604082015260600190565b60208082526012908201527f494e434f52524543545f43414c4c444154410000000000000000000000000000604082015260600190565b6020808252600d908201527f494e56414c49445f50524f4f4600000000000000000000000000000000000000604082015260600190565b60208082526010908201527f56414c49445f5452414e534954494f4e00000000000000000000000000000000604082015260600190565b6020808252600c908201527f494e56414c49445f545245450000000000000000000000000000000000000000604082015260600190565b6020808252600d908201527f494e56414c49445f524f4f545300000000000000000000000000000000000000604082015260600190565b6020808252600c908201527f494e56414c49445f53495a450000000000000000000000000000000000000000604082015260600190565b60208082526010908201527f4143434f554e545f554e4c4f434b454400000000000000000000000000000000604082015260600190565b60208082526014908201527f524f4c4c4241434b5f554e4e4543455353415259000000000000000000000000604082015260600190565b60208082526015908201527f494e53554646494349454e545f43414c4c444154410000000000000000000000604082015260600190565b60208082526011908201527f524f4c4c4241434b5f544f4f5f44454550000000000000000000000000000000604082015260600190565b60208082526013908201527f494e53554646494349454e545f57494e444f5700000000000000000000000000604082015260600190565b60208082526011908201527f494e495449414c495a455f4641494c4544000000000000000000000000000000604082015260600190565b60208082526010908201527f494e56414c49445f524f4c4c4241434b00000000000000000000000000000000604082015260600190565b6020808252600e908201527f4143434f554e545f4c4f434b4544000000000000000000000000000000000000604082015260600190565b60208082526011908201527f494e53554646494349454e545f54494d45000000000000000000000000000000604082015260600190565b60208082526011908201527f494e53554646494349454e545f424f4e44000000000000000000000000000000604082015260600190565b6020808252600b908201527f43414c4c5f4641494c4544000000000000000000000000000000000000000000604082015260600190565b60008083357fffffffffffffffffffffffffffffffffffffffffffffffffffffffffffffffe1843603018112613580578283fd5b83018035915067ffffffffffffffff82111561359a578283fd5b602001915036819003821315612b4057600080fd5b600080858511156135be578182fd5b838611156135ca578182fd5b5050820193919092039150565b73ffffffffffffffffffffffffffffffffffffffff811681146104a557600080fdfea26469706673582212203a61cb1a8bc9b46abb08e5c52ccbcf28f9baaa18c22c3b3f6d7afc186949591e64736f6c63430007030033",
  "immutableReferences": {
    "90": [
      {
        "length": 32,
        "start": 2173
      },
      {
        "length": 32,
        "start": 4384
      },
      {
        "length": 32,
        "start": 6583
      },
      {
        "length": 32,
        "start": 7109
      }
    ],
    "92": [
      {
        "length": 32,
        "start": 2229
      },
      {
        "length": 32,
        "start": 3382
      }
    ]
  },
  "source": "// SPDX-License-Identifier: MIT\n\npragma solidity >=0.6.0 <=0.7.3;\npragma experimental ABIEncoderV2;\n\nimport \"merkle-trees/eth/contracts/libraries/calldata/bytes/standard/merkle-library.sol\";\n\n// TODO: perhaps a owner-controlled sighash whitelist for optimistically performing, and therefore a non-performing exit method\n// TODO: consider verifying being view, or some kind of forced \"come up for air\" mechanism\n// TODO: make required bond queryable\n\ncontract Optimistic_Roll_In {\n  event ORI_New_State(address indexed user, bytes32 indexed new_state);\n  event ORI_New_Optimistic_State(address indexed user, uint256 indexed block_time);\n  event ORI_New_Optimistic_States(address indexed user, uint256 indexed block_time);\n  event ORI_Locked(address indexed suspect, address indexed accuser);\n  event ORI_Unlocked(address indexed suspect, address indexed accuser);\n  event ORI_Fraud_Proven(\n    address indexed accuser,\n    address indexed suspect,\n    uint256 indexed transition_index,\n    uint256 amount\n  );\n  event ORI_Rolled_Back(address indexed user, uint256 indexed tree_size, uint256 indexed block_time);\n\n  address public immutable logic_address;\n  bytes4 public immutable initializer;\n\n  mapping(address => uint256) public balances;\n  mapping(address => bytes32) public account_states;\n  mapping(address => address) public lockers;\n  mapping(address => uint256) public locked_times;\n  mapping(address => uint256) public rollback_sizes;\n\n  constructor(address _logic_address, bytes4 _initializer) {\n    logic_address = _logic_address;\n    initializer = _initializer; //1e58e625\n  }\n\n  modifier not_initialized(address user) {\n    require(account_states[user] == bytes32(0), \"ALREADY_INITIALIZED\");\n    _;\n  }\n\n  modifier not_locked(address user) {\n    require(lockers[user] == address(0), \"ACCOUNT_LOCKED\");\n    _;\n  }\n\n  modifier is_locked(address user) {\n    require(lockers[user] != address(0), \"ACCOUNT_UNLOCKED\");\n    _;\n  }\n\n  modifier no_rollback_required(address user) {\n    require(rollback_sizes[user] == 0, \"ROLLBACK_REQUIRED\");\n    _;\n  }\n\n  modifier can_exit_optimism(uint256 last_time) {\n    // Check that enough time has elapsed for potential fraud proofs (10 minutes)\n    require(last_time + 600 < block.timestamp, \"INSUFFICIENT_TIME\");\n    _;\n  }\n\n  modifier sufficient_calldata(bytes[] calldata call_data) {\n    // Check that there is more than 1 call data (if not, user should have called perform_optimistically)\n    require(call_data.length > 1, \"INSUFFICIENT_CALLDATA\");\n    _;\n  }\n\n  modifier lock_expired(address user) {\n    require(locked_times[user] + 600 <= block.timestamp, \"INSUFFICIENT_WINDOW\");\n    _;\n  }\n\n  receive() external payable {\n    bond(msg.sender);\n  }\n\n  // Bonds msg.value, and reverts if resulting balance less than 1 ETH\n  function bond(address user) public payable {\n    uint256 amount = msg.value;\n\n    if (amount == 0) {\n      require(balances[user] >= 1000000000000000000, \"INSUFFICIENT_BOND\");\n      return;\n    }\n\n    balances[user] += amount;\n    require(balances[user] >= 1000000000000000000, \"INSUFFICIENT_BOND\");\n  }\n\n  // Sets user's account state to starting point, and bonds msg.value\n  function initialize() external payable not_initialized(msg.sender) {\n    address user = msg.sender;\n    bond(user);\n\n    (bool success, bytes memory return_bytes) = logic_address.call{ value: msg.value }(abi.encodePacked(initializer));\n    require(success, \"INITIALIZE_FAILED\");\n\n    // Decode initial state (S_0) from returned bytes\n    bytes32 initial_state = abi.decode(return_bytes, (bytes32));\n\n    // Set account state to combination of empty call data tree, initial state (S_0), and last time of 0 (not in optimism)\n    account_states[user] = keccak256(abi.encodePacked(bytes32(0), initial_state, bytes32(0)));\n\n    emit ORI_New_State(user, initial_state);\n  }\n\n  // Allows unbonding of ETH if account not locked\n  function withdraw(address payable destination) public not_locked(msg.sender) {\n    address user = msg.sender;\n    uint256 amount = balances[user];\n    balances[user] = 0;\n    destination.transfer(amount);\n  }\n\n  // Returns true if calling the logic contract with the call data results in new state\n  function verify_transition(bytes calldata call_data, bytes32 new_state) internal returns (bool) {\n    // Compute a new state\n    (bool success, bytes memory state_bytes) = logic_address.call(call_data);\n\n    if (!success) return false;\n\n    // Decode new state from returns bytes, reusing the state variable\n    bytes32 state = abi.decode(state_bytes, (bytes32));\n\n    return state == new_state;\n  }\n\n  // Calls logic contract and updates account state\n  function normal_perform(\n    address user,\n    bytes calldata call_data,\n    bytes32 call_data_root,\n    uint256 last_time\n  ) internal not_locked(user) {\n    // Extract current state (S_n or S_0) from calldata (32 bytes starting after the function signature)\n    bytes32 state = abi.decode(call_data[4:], (bytes32));\n\n    // Check that the user it not in an optimistic state, which means that their account state is\n    // an empty call data tree, current state (S_n or S_0), and the last block is 0\n    require(\n      keccak256(abi.encodePacked(call_data_root, state, bytes32(last_time))) == account_states[user],\n      \"INVALID_ROOTS\"\n    );\n\n    // Compute a new state (S_n+1 or S_1)\n    (bool success, bytes memory state_bytes) = logic_address.call{ value: msg.value }(call_data);\n    require(success, \"CALL_FAILED\");\n\n    // Decode new state (S_n+1 or S_1) from returned bytes, reusing the state variable\n    state = abi.decode(state_bytes, (bytes32));\n\n    // Set the account state to an empty call data tree, the new state (S_n+1 or S_1), and last time 0\n    account_states[user] = keccak256(abi.encodePacked(bytes32(0), state, bytes32(0)));\n\n    emit ORI_New_State(user, state);\n  }\n\n  // Set the account state to the on-chain computed new state, if the account is not locked\n  function perform(bytes calldata call_data) external payable {\n    normal_perform(msg.sender, call_data, bytes32(0), 0);\n  }\n\n  // Exits optimism by setting the account state to the on-chain computed new state, if the account is not locked\n  function perform_and_exit(\n    bytes calldata call_data,\n    bytes32 call_data_root,\n    uint256 last_time\n  ) external payable no_rollback_required(msg.sender) can_exit_optimism(last_time) {\n    normal_perform(msg.sender, call_data, call_data_root, last_time);\n  }\n\n  // Updates account state with optimistic transition data\n  function optimistic_perform(\n    address user,\n    bytes calldata call_data,\n    bytes32 new_state,\n    bytes32 call_data_root,\n    bytes32[] calldata proof,\n    uint256 last_time\n  ) internal not_locked(user) {\n    // Extract current state (S_0) from call data (32 bytes starting after the function signature)\n    bytes32 state = abi.decode(call_data[4:], (bytes32));\n\n    // Check that the user it not in an optimistic state, which means that their account state is\n    // an empty call data tree, current state (S_0), and the last block is 0\n    require(\n      keccak256(abi.encodePacked(call_data_root, state, bytes32(last_time))) == account_states[user],\n      \"INVALID_ROOTS\"\n    );\n\n    // Get root of new merkle tree with 1 call data element (CD_0), reusing state as call_data_root\n    state = Merkle_Library_CBS.try_append_one(call_data_root, call_data, proof);\n\n    // Combine call data root, new state (S_1), and current time into account state\n    account_states[user] = keccak256(abi.encodePacked(state, new_state, bytes32(block.timestamp)));\n\n    emit ORI_New_Optimistic_State(user, block.timestamp);\n  }\n\n  // Enters optimism by updating the account state optimistically with call data and a new state, if the account is not locked\n  function perform_optimistically_and_enter(\n    bytes calldata call_data,\n    bytes32 new_state,\n    bytes32[] calldata proof\n  ) external {\n    optimistic_perform(msg.sender, call_data, new_state, bytes32(0), proof, 0);\n  }\n\n  // Updates the account state optimistically with call data and a new state, if the account is not locked\n  function perform_optimistically(\n    bytes calldata call_data,\n    bytes32 new_state,\n    bytes32 call_data_root,\n    bytes32[] calldata proof,\n    uint256 last_time\n  ) external {\n    optimistic_perform(msg.sender, call_data, new_state, call_data_root, proof, last_time);\n  }\n\n  // Updates account state with optimistic batch transition data\n  function optimistic_perform_many(\n    address user,\n    bytes[] calldata call_data,\n    bytes32 new_state,\n    bytes32 call_data_root,\n    bytes32[] calldata proof,\n    uint256 last_time\n  ) internal not_locked(user) sufficient_calldata(call_data) {\n    // Extract current state (S_n) from first call data (32 bytes starting after the function signature)\n    bytes32 state = abi.decode(call_data[0][4:], (bytes32));\n\n    // Check that the call data root, current state (S_n), and last time are valid for this user\n    require(\n      keccak256(abi.encodePacked(call_data_root, state, bytes32(last_time))) == account_states[user],\n      \"INVALID_ROOTS\"\n    );\n\n    // Get new merkle root of call data tree, appending several call data (CD_n - CD_n+m), reusing state as call_data_root\n    state = Merkle_Library_CBS.try_append_many(call_data_root, call_data, proof);\n\n    // Combine call data root, new state (S_n+m), and current time into account state\n    account_states[user] = keccak256(abi.encodePacked(state, new_state, bytes32(block.timestamp)));\n\n    emit ORI_New_Optimistic_States(user, block.timestamp);\n  }\n\n  // Enters optimism by updating the account state optimistically with several call data and final state, if the account is not locked\n  function perform_many_optimistically_and_enter(\n    bytes[] calldata call_data,\n    bytes32 new_state,\n    bytes32[] calldata proof\n  ) external {\n    optimistic_perform_many(msg.sender, call_data, new_state, bytes32(0), proof, 0);\n  }\n\n  // Updates the account state optimistically with several call data and final state, if the account is not locked\n  function perform_many_optimistically(\n    bytes[] calldata call_data,\n    bytes32 new_state,\n    bytes32 call_data_root,\n    bytes32[] calldata proof,\n    uint256 last_time\n  ) external {\n    optimistic_perform_many(msg.sender, call_data, new_state, call_data_root, proof, last_time);\n  }\n\n  // Lock two users (suspect and accuser)\n  // Note: accuser and suspect cannot already be locked, but this might have to change so a single accuser isn't overwhelmed with fraud\n  function lock_user(address suspect) external payable not_locked(msg.sender) not_locked(suspect) {\n    address accuser = msg.sender;\n\n    // Lock both the accuser and the suspect\n    lockers[suspect] = accuser;\n    locked_times[suspect] = block.timestamp;\n    lockers[accuser] = accuser;\n    locked_times[accuser] = block.timestamp;\n\n    // The accuser may be trying to bond at the same time (this also check that have enough bonded)\n    bond(accuser);\n\n    emit ORI_Locked(suspect, accuser);\n  }\n\n  // Unlock two users (suspect and accuser)\n  function unlock(\n    address suspect,\n    bytes32 state,\n    bytes32 call_data_root,\n    uint256 last_time\n  ) external is_locked(suspect) lock_expired(suspect) no_rollback_required(suspect) {\n    // Check that the call data root, current state (S_n), and last time are valid for this user\n    require(\n      keccak256(abi.encodePacked(call_data_root, state, bytes32(last_time))) == account_states[suspect],\n      \"INVALID_ROOTS\"\n    );\n\n    // Unlock both accounts\n    address accuser = lockers[suspect];\n    lockers[suspect] = address(0);\n    locked_times[suspect] = 0;\n    lockers[accuser] = address(0);\n    locked_times[accuser] = 0;\n\n    // Give the suspect the accuser's bond for having not proven fraud within a reasonable time frame\n    // TODO: consider burning some here to prevent self-reporting breakeven\n    uint256 amount = balances[accuser];\n    balances[accuser] = 0;\n    balances[suspect] += amount;\n\n    // Combine call data root, current state (S_n), and current time into account state\n    // Note: updating last time is important, to prevent user blocking fraud proofs by locking themselves\n    account_states[suspect] = keccak256(abi.encodePacked(call_data_root, state, bytes32(block.timestamp)));\n\n    emit ORI_Unlocked(suspect, accuser);\n  }\n\n  // Reward accuser for proving fraud in a suspect's transition, and track the expected rolled back account state size\n  function prove_fraud(\n    address suspect,\n    bytes[] calldata call_data,\n    bytes32 state,\n    bytes32 call_data_root,\n    bytes32[] calldata proof,\n    uint256 last_time\n  ) external {\n    address accuser = msg.sender;\n\n    // Only the user that flagged/locked the suspect can prove fraud\n    require(lockers[suspect] == accuser, \"NOT_LOCKER\");\n\n    // Check that the call data root, current state (S_n), and last time are valid for this user\n    require(\n      keccak256(abi.encodePacked(call_data_root, state, bytes32(last_time))) == account_states[suspect],\n      \"INVALID_ROOTS\"\n    );\n\n    // Check that the call data exist\n    require(Merkle_Library_CBS.elements_exist(call_data_root, call_data, proof), \"INVALID_CALLDATA\");\n\n    // get the indices of the call data in the call data tre\n    uint256[] memory call_data_indices = Merkle_Library_CBS.get_indices(call_data, proof);\n\n    // The transition index is the index of the starting call data of the fraud proof\n    uint256 transition_index = call_data_indices[0];\n\n    // If only one call data is provided, the fraud involves the last call data and current state\n    if (call_data.length == 1) {\n      // Check that the call data index is the last (call data tree size minus 1)\n      require(transition_index + 1 == uint256(proof[0]), \"INCORRECT_CALLDATA\");\n\n      // Fail if the state transition was valid\n      require(verify_transition(call_data[0], state) == false, \"VALID_TRANSITION\");\n    } else {\n      // Check that call data provided are consecutive\n      require(transition_index + 1 == call_data_indices[1]);\n\n      // Extract new state from second call data (32 bytes starting after the function signature), reusing state var\n      state = abi.decode(call_data[1][4:], (bytes32));\n\n      // Fail if the state transition was valid\n      require(verify_transition(call_data[0], state) == false, \"VALID_TRANSITION\");\n    }\n\n    // Take the suspect's bond and give it to the accuser, reusing last_time var\n    // TODO: consider burning some here to prevent self-reporting breakeven\n    last_time = balances[suspect];\n    balances[suspect] = 0;\n    balances[accuser] += last_time;\n\n    // Unlock the accuser's account\n    lockers[accuser] = address(0);\n    locked_times[accuser] = 0;\n\n    // Set the rollback size to the amount of elements that should be in the call data tree once rolled back\n    rollback_sizes[suspect] = transition_index;\n\n    // Set the suspect as the reason for their account's lock\n    lockers[suspect] = suspect;\n    locked_times[suspect] = 0;\n\n    emit ORI_Fraud_Proven(accuser, suspect, transition_index, last_time);\n  }\n\n  // Rolls a user back, given the current roots, old roots, and a proof of the optimistic transitions between them\n  function rollback(\n    bytes32 rolled_back_call_data_root,\n    bytes[] calldata rolled_back_call_data,\n    bytes32[] calldata roll_back_proof,\n    uint256 current_size,\n    bytes32 current_size_proof,\n    bytes32 call_data_root,\n    bytes32 state,\n    uint256 last_time\n  ) external payable {\n    address user = msg.sender;\n    uint256 expected_size = rollback_sizes[user];\n    require(expected_size != 0, \"ROLLBACK_UNNECESSARY\");\n\n    // Check that the call data root, current state (S_n), and last time are valid for this user\n    require(\n      keccak256(abi.encodePacked(call_data_root, state, bytes32(last_time))) == account_states[user],\n      \"INVALID_ROOTS\"\n    );\n\n    // Check that the provided size of the current call data tree is correct\n    require(Merkle_Library_CBS.verify_size(call_data_root, current_size, current_size_proof), \"INVALID_SIZE\");\n\n    // Allow incremental roll back by checking that the rolled back call data tree is smaller than the current tree\n    uint256 rolled_back_size = uint256(roll_back_proof[0]);\n    require(rolled_back_size < current_size, \"INSUFFICIENT_ROLLBACK\");\n\n    // Check that this is not rolling back too far, though\n    require(rolled_back_size >= expected_size, \"ROLLBACK_TOO_DEEP\");\n\n    // Check that the current call data root is derived by appending the rolled back call data to the rolled back call data root\n    require(\n      Merkle_Library_CBS.try_append_many(rolled_back_call_data_root, rolled_back_call_data, roll_back_proof) ==\n        call_data_root,\n      \"INVALID_ROLLBACK\"\n    );\n\n    // Extract new state from first rolled back call data (32 bytes starting after the function signature), reusing state var\n    state = abi.decode(rolled_back_call_data[0][4:], (bytes32));\n\n    // Combine rolled back call data root, new state (S_n-m), and current time into account state\n    account_states[user] = keccak256(abi.encodePacked(rolled_back_call_data_root, state, bytes32(block.timestamp)));\n\n    // Unlock the user and clear the rollback flag, if roll back is complete\n    if (rolled_back_size == expected_size) {\n      lockers[user] = address(0);\n      rollback_sizes[user] = 0;\n    }\n\n    // The user may be trying to bond at the same time (this also check that have enough bonded)\n    bond(user);\n\n    emit ORI_Rolled_Back(user, rolled_back_size, block.timestamp);\n  }\n}\n",
  "sourcePath": "/Users/michaeldeluca/Projects/optimistic-roll-in/eth/contracts/optimistic-roll-in.sol",
  "compiler": {
    "name": "solc",
    "version": "0.7.3+commit.9bfce1f6.Emscripten.clang"
  },
  "schemaVersion": "3.3.1",
  "updatedAt": "2020-10-21T01:32:37.526Z",
  "devdoc": {
    "kind": "dev",
    "methods": {},
    "version": 1
  },
  "userdoc": {
    "kind": "user",
    "methods": {},
    "version": 1
  }
}