{
  "contractName": "Optimistic_Roll_In",
  "abi": [
    {
      "inputs": [
        {
          "internalType": "address",
          "name": "_logic_address",
          "type": "address"
        },
        {
          "internalType": "bytes4",
          "name": "_initializer",
          "type": "bytes4"
        }
      ],
      "stateMutability": "nonpayable",
      "type": "constructor"
    },
    {
      "anonymous": false,
      "inputs": [
        {
          "indexed": true,
          "internalType": "address",
          "name": "accuser",
          "type": "address"
        },
        {
          "indexed": true,
          "internalType": "address",
          "name": "suspect",
          "type": "address"
        },
        {
          "indexed": true,
          "internalType": "uint256",
          "name": "transition_index",
          "type": "uint256"
        },
        {
          "indexed": false,
          "internalType": "uint256",
          "name": "amount",
          "type": "uint256"
        }
      ],
      "name": "ORI_Fraud_Proven",
      "type": "event"
    },
    {
      "anonymous": false,
      "inputs": [
        {
          "indexed": true,
          "internalType": "address",
          "name": "suspect",
          "type": "address"
        },
        {
          "indexed": true,
          "internalType": "address",
          "name": "accuser",
          "type": "address"
        }
      ],
      "name": "ORI_Locked",
      "type": "event"
    },
    {
      "anonymous": false,
      "inputs": [
        {
          "indexed": true,
          "internalType": "address",
          "name": "user",
          "type": "address"
        },
        {
          "indexed": true,
          "internalType": "uint256",
          "name": "block_time",
          "type": "uint256"
        }
      ],
      "name": "ORI_New_Optimistic_State",
      "type": "event"
    },
    {
      "anonymous": false,
      "inputs": [
        {
          "indexed": true,
          "internalType": "address",
          "name": "user",
          "type": "address"
        },
        {
          "indexed": true,
          "internalType": "uint256",
          "name": "block_time",
          "type": "uint256"
        }
      ],
      "name": "ORI_New_Optimistic_States",
      "type": "event"
    },
    {
      "anonymous": false,
      "inputs": [
        {
          "indexed": true,
          "internalType": "address",
          "name": "user",
          "type": "address"
        },
        {
          "indexed": false,
          "internalType": "bytes32",
          "name": "new_state",
          "type": "bytes32"
        }
      ],
      "name": "ORI_New_State",
      "type": "event"
    },
    {
      "anonymous": false,
      "inputs": [
        {
          "indexed": true,
          "internalType": "address",
          "name": "user",
          "type": "address"
        },
        {
          "indexed": true,
          "internalType": "uint256",
          "name": "tree_size",
          "type": "uint256"
        },
        {
          "indexed": true,
          "internalType": "uint256",
          "name": "block_time",
          "type": "uint256"
        }
      ],
      "name": "ORI_Rolled_Back",
      "type": "event"
    },
    {
      "anonymous": false,
      "inputs": [
        {
          "indexed": true,
          "internalType": "address",
          "name": "suspect",
          "type": "address"
        },
        {
          "indexed": true,
          "internalType": "address",
          "name": "accuser",
          "type": "address"
        }
      ],
      "name": "ORI_Unlocked",
      "type": "event"
    },
    {
      "inputs": [
        {
          "internalType": "address",
          "name": "",
          "type": "address"
        }
      ],
      "name": "account_states",
      "outputs": [
        {
          "internalType": "bytes32",
          "name": "",
          "type": "bytes32"
        }
      ],
      "stateMutability": "view",
      "type": "function"
    },
    {
      "inputs": [
        {
          "internalType": "address",
          "name": "",
          "type": "address"
        }
      ],
      "name": "balances",
      "outputs": [
        {
          "internalType": "uint256",
          "name": "",
          "type": "uint256"
        }
      ],
      "stateMutability": "view",
      "type": "function"
    },
    {
      "inputs": [],
      "name": "initializer",
      "outputs": [
        {
          "internalType": "bytes4",
          "name": "",
          "type": "bytes4"
        }
      ],
      "stateMutability": "view",
      "type": "function"
    },
    {
      "inputs": [
        {
          "internalType": "address",
          "name": "",
          "type": "address"
        }
      ],
      "name": "locked_times",
      "outputs": [
        {
          "internalType": "uint256",
          "name": "",
          "type": "uint256"
        }
      ],
      "stateMutability": "view",
      "type": "function"
    },
    {
      "inputs": [
        {
          "internalType": "address",
          "name": "",
          "type": "address"
        }
      ],
      "name": "lockers",
      "outputs": [
        {
          "internalType": "address",
          "name": "",
          "type": "address"
        }
      ],
      "stateMutability": "view",
      "type": "function"
    },
    {
      "inputs": [],
      "name": "logic_address",
      "outputs": [
        {
          "internalType": "address",
          "name": "",
          "type": "address"
        }
      ],
      "stateMutability": "view",
      "type": "function"
    },
    {
      "inputs": [
        {
          "internalType": "address",
          "name": "",
          "type": "address"
        }
      ],
      "name": "rollback_sizes",
      "outputs": [
        {
          "internalType": "uint256",
          "name": "",
          "type": "uint256"
        }
      ],
      "stateMutability": "view",
      "type": "function"
    },
    {
      "stateMutability": "payable",
      "type": "receive"
    },
    {
      "inputs": [
        {
          "internalType": "address",
          "name": "user",
          "type": "address"
        }
      ],
      "name": "bond",
      "outputs": [],
      "stateMutability": "payable",
      "type": "function"
    },
    {
      "inputs": [],
      "name": "initialize",
      "outputs": [],
      "stateMutability": "payable",
      "type": "function"
    },
    {
      "inputs": [
        {
          "internalType": "address payable",
          "name": "destination",
          "type": "address"
        }
      ],
      "name": "withdraw",
      "outputs": [],
      "stateMutability": "nonpayable",
      "type": "function"
    },
    {
      "inputs": [
        {
          "internalType": "bytes",
          "name": "call_data",
          "type": "bytes"
        }
      ],
      "name": "perform",
      "outputs": [],
      "stateMutability": "payable",
      "type": "function"
    },
    {
      "inputs": [
        {
          "internalType": "bytes",
          "name": "call_data",
          "type": "bytes"
        },
        {
          "internalType": "bytes32",
          "name": "call_data_root",
          "type": "bytes32"
        },
        {
          "internalType": "uint256",
          "name": "last_time",
          "type": "uint256"
        }
      ],
      "name": "perform_and_exit",
      "outputs": [],
      "stateMutability": "payable",
      "type": "function"
    },
    {
      "inputs": [
        {
          "internalType": "bytes",
          "name": "call_data",
          "type": "bytes"
        },
        {
          "internalType": "bytes32",
          "name": "new_state",
          "type": "bytes32"
        },
        {
          "internalType": "bytes32[]",
          "name": "proof",
          "type": "bytes32[]"
        }
      ],
      "name": "perform_optimistically_and_enter",
      "outputs": [],
      "stateMutability": "nonpayable",
      "type": "function"
    },
    {
      "inputs": [
        {
          "internalType": "bytes",
          "name": "call_data",
          "type": "bytes"
        },
        {
          "internalType": "bytes32",
          "name": "new_state",
          "type": "bytes32"
        },
        {
          "internalType": "bytes32",
          "name": "call_data_root",
          "type": "bytes32"
        },
        {
          "internalType": "bytes32[]",
          "name": "proof",
          "type": "bytes32[]"
        },
        {
          "internalType": "uint256",
          "name": "last_time",
          "type": "uint256"
        }
      ],
      "name": "perform_optimistically",
      "outputs": [],
      "stateMutability": "nonpayable",
      "type": "function"
    },
    {
      "inputs": [
        {
          "internalType": "bytes[]",
          "name": "call_data",
          "type": "bytes[]"
        },
        {
          "internalType": "bytes32",
          "name": "new_state",
          "type": "bytes32"
        },
        {
          "internalType": "bytes32[]",
          "name": "proof",
          "type": "bytes32[]"
        }
      ],
      "name": "perform_many_optimistically_and_enter",
      "outputs": [],
      "stateMutability": "nonpayable",
      "type": "function"
    },
    {
      "inputs": [
        {
          "internalType": "bytes[]",
          "name": "call_data",
          "type": "bytes[]"
        },
        {
          "internalType": "bytes32",
          "name": "new_state",
          "type": "bytes32"
        },
        {
          "internalType": "bytes32",
          "name": "call_data_root",
          "type": "bytes32"
        },
        {
          "internalType": "bytes32[]",
          "name": "proof",
          "type": "bytes32[]"
        },
        {
          "internalType": "uint256",
          "name": "last_time",
          "type": "uint256"
        }
      ],
      "name": "perform_many_optimistically",
      "outputs": [],
      "stateMutability": "nonpayable",
      "type": "function"
    },
    {
      "inputs": [
        {
          "internalType": "address",
          "name": "suspect",
          "type": "address"
        }
      ],
      "name": "lock_user",
      "outputs": [],
      "stateMutability": "payable",
      "type": "function"
    },
    {
      "inputs": [
        {
          "internalType": "address",
          "name": "suspect",
          "type": "address"
        },
        {
          "internalType": "bytes32",
          "name": "state",
          "type": "bytes32"
        },
        {
          "internalType": "bytes32",
          "name": "call_data_root",
          "type": "bytes32"
        },
        {
          "internalType": "uint256",
          "name": "last_time",
          "type": "uint256"
        }
      ],
      "name": "unlock",
      "outputs": [],
      "stateMutability": "nonpayable",
      "type": "function"
    },
    {
      "inputs": [
        {
          "internalType": "address",
          "name": "suspect",
          "type": "address"
        },
        {
          "internalType": "bytes[]",
          "name": "call_data",
          "type": "bytes[]"
        },
        {
          "internalType": "bytes32",
          "name": "state",
          "type": "bytes32"
        },
        {
          "internalType": "bytes32",
          "name": "call_data_root",
          "type": "bytes32"
        },
        {
          "internalType": "bytes32[]",
          "name": "proof",
          "type": "bytes32[]"
        },
        {
          "internalType": "uint256",
          "name": "last_time",
          "type": "uint256"
        }
      ],
      "name": "prove_fraud",
      "outputs": [],
      "stateMutability": "nonpayable",
      "type": "function"
    },
    {
      "inputs": [
        {
          "internalType": "bytes32",
          "name": "rolled_back_call_data_root",
          "type": "bytes32"
        },
        {
          "internalType": "bytes[]",
          "name": "rolled_back_call_data",
          "type": "bytes[]"
        },
        {
          "internalType": "bytes32[]",
          "name": "roll_back_proof",
          "type": "bytes32[]"
        },
        {
          "internalType": "uint256",
          "name": "current_size",
          "type": "uint256"
        },
        {
          "internalType": "bytes32",
          "name": "current_size_proof",
          "type": "bytes32"
        },
        {
          "internalType": "bytes32",
          "name": "call_data_root",
          "type": "bytes32"
        },
        {
          "internalType": "bytes32",
          "name": "state",
          "type": "bytes32"
        },
        {
          "internalType": "uint256",
          "name": "last_time",
          "type": "uint256"
        }
      ],
      "name": "rollback",
      "outputs": [],
      "stateMutability": "payable",
      "type": "function"
    }
  ],
  "bytecode": "0x60c06040523480156200001157600080fd5b506040516200376f3803806200376f833981016040819052620000349162000072565b60609190911b6001600160601b0319166080527fffffffff000000000000000000000000000000000000000000000000000000001660a052620000dd565b6000806040838503121562000085578182fd5b82516001600160a01b03811681146200009c578283fd5b60208401519092507fffffffff0000000000000000000000000000000000000000000000000000000081168114620000d2578182fd5b809150509250929050565b60805160601c60a05160e01c60e01b6136516200011e600039806108b55280610d4752508061087d528061113152806119c85280611be752506136516000f3fe6080604052600436106101635760003560e01c80638129fc1c116100c0578063bb6ae2cb11610074578063c45481bb11610059578063c45481bb14610366578063e112420014610386578063e426ed801461039957610173565b8063bb6ae2cb1461033e578063c0c452671461035157610173565b80639ce110d7116100a55780639ce110d7146102dc578063a68f5913146102fe578063af7b5a411461031e57610173565b80638129fc1c146102b45780638ee16d13146102bc57610173565b80632a4154541161011757806351cff8d9116100fc57806351cff8d9146102615780635b1db142146102815780636a8dddef1461029457610173565b80632a415454146102215780632c8e7a211461023457610173565b8063177f15c511610148578063177f15c5146101b8578063247ce85b146101d857806327e235e3146101eb57610173565b806308542bb1146101785780631646d0511461019857610173565b3661017357610171336103b9565b005b600080fd5b34801561018457600080fd5b50610171610193366004612c99565b6104a8565b3480156101a457600080fd5b506101716101b3366004612ee3565b6104c0565b3480156101c457600080fd5b506101716101d3366004612ea9565b6104d9565b6101716101e6366004612ba9565b6103b9565b3480156101f757600080fd5b5061020b610206366004612ba9565b6104ea565b604051610218919061307e565b60405180910390f35b61017161022f366004612f46565b6104fc565b34801561024057600080fd5b5061025461024f366004612ba9565b610596565b604051610218919061305d565b34801561026d57600080fd5b5061017161027c366004612ba9565b6105be565b61017161028f366004612ba9565b610674565b3480156102a057600080fd5b506101716102af366004612d10565b610816565b610171610826565b3480156102c857600080fd5b506101716102d7366004612c5f565b610a62565b3480156102e857600080fd5b506102f1610d45565b6040516102189190613087565b34801561030a57600080fd5b50610171610319366004612bc5565b610d69565b34801561032a57600080fd5b5061020b610339366004612ba9565b61110f565b61017161034c366004612e69565b611121565b34801561035d57600080fd5b5061025461112f565b34801561037257600080fd5b5061020b610381366004612ba9565b611153565b610171610394366004612dc9565b611165565b3480156103a557600080fd5b5061020b6103b4366004612ba9565b6114b1565b34806104355773ffffffffffffffffffffffffffffffffffffffff8216600090815260208190526040902054670de0b6b3a7640000111561042f576040517f08c379a000000000000000000000000000000000000000000000000000000000815260040161042690613500565b60405180910390fd5b506104a5565b73ffffffffffffffffffffffffffffffffffffffff821660009081526020819052604090208054820190819055670de0b6b3a764000011156104a3576040517f08c379a000000000000000000000000000000000000000000000000000000000815260040161042690613500565b505b50565b6104b93386868660008787826114c3565b5050505050565b6104d033888888888888886116fa565b50505050505050565b6104b93386868660008787826116fa565b60006020819052908152604090205481565b3360008181526004602052604090205415610543576040517f08c379a000000000000000000000000000000000000000000000000000000000815260040161042690613122565b8142816102580110610581576040517f08c379a0000000000000000000000000000000000000000000000000000000008152600401610426906134c9565b61058e33878787876118b7565b505050505050565b60026020526000908152604090205473ffffffffffffffffffffffffffffffffffffffff1681565b3360008181526002602052604090205473ffffffffffffffffffffffffffffffffffffffff161561061b576040517f08c379a000000000000000000000000000000000000000000000000000000000815260040161042690613492565b336000818152602081905260408082208054908390559051909173ffffffffffffffffffffffffffffffffffffffff86169183156108fc0291849190818181858888f193505050501580156104b9573d6000803e3d6000fd5b3360008181526002602052604090205473ffffffffffffffffffffffffffffffffffffffff16156106d1576040517f08c379a000000000000000000000000000000000000000000000000000000000815260040161042690613492565b73ffffffffffffffffffffffffffffffffffffffff80831660009081526002602052604090205483911615610732576040517f08c379a000000000000000000000000000000000000000000000000000000000815260040161042690613492565b73ffffffffffffffffffffffffffffffffffffffff831660009081526002602081815260408084208054337fffffffffffffffffffffffff000000000000000000000000000000000000000091821681179092556003808552838720429081905583885295855283872080549092168317909155909252909220556107b6816103b9565b8073ffffffffffffffffffffffffffffffffffffffff168473ffffffffffffffffffffffffffffffffffffffff167f8773bde6581ad6ddd421210de867340039fb65ce3df41edba7b5de6d24ae7a5160405160405180910390a350505050565b6104d033888888888888886114c3565b336000818152600160205260409020541561086d576040517f08c379a000000000000000000000000000000000000000000000000000000000815260040161042690613190565b33610877816103b9565b600060607f000000000000000000000000000000000000000000000000000000000000000073ffffffffffffffffffffffffffffffffffffffff16347f00000000000000000000000000000000000000000000000000000000000000006040516020016108e49190612fe7565b604080517fffffffffffffffffffffffffffffffffffffffffffffffffffffffffffffffe08184030181529082905261091c91613024565b60006040518083038185875af1925050503d8060008114610959576040519150601f19603f3d011682016040523d82523d6000602084013e61095e565b606091505b50915091508161099a576040517f08c379a000000000000000000000000000000000000000000000000000000000815260040161042690613424565b6000818060200190518101906109b09190612db1565b6040519091506109c99060009083908290602001612fd1565b604080517fffffffffffffffffffffffffffffffffffffffffffffffffffffffffffffffe0818403018152828252805160209182012073ffffffffffffffffffffffffffffffffffffffff8816600081815260019093529290912055907f0f5025cc4f20aa47a346d1b7d9da6ba8c68cc8e83b75e813da4b4490d55365ae90610a5390849061307e565b60405180910390a25050505050565b73ffffffffffffffffffffffffffffffffffffffff808516600090815260026020526040902054859116610ac2576040517f08c379a000000000000000000000000000000000000000000000000000000000815260040161042690613311565b73ffffffffffffffffffffffffffffffffffffffff85166000908152600360205260409020548590426102589091011115610b29576040517f08c379a0000000000000000000000000000000000000000000000000000000008152600401610426906133ed565b73ffffffffffffffffffffffffffffffffffffffff8616600090815260046020526040902054869015610b88576040517f08c379a000000000000000000000000000000000000000000000000000000000815260040161042690613122565b73ffffffffffffffffffffffffffffffffffffffff8716600090815260016020908152604091829020549151610bc49188918a91899101612fd1565b6040516020818303038152906040528051906020012014610c11576040517f08c379a0000000000000000000000000000000000000000000000000000000008152600401610426906132a3565b73ffffffffffffffffffffffffffffffffffffffff808816600081815260026020818152604080842080547fffffffffffffffffffffffff00000000000000000000000000000000000000008082169092556003808552838720879055971680865293835281852080549091169055948152848320839055828152848320805490849055938352918490208054840190559251610cb49189918b91429101612fd1565b604080517fffffffffffffffffffffffffffffffffffffffffffffffffffffffffffffffe0818403018152828252805160209182012073ffffffffffffffffffffffffffffffffffffffff808e1660008181526001909452938320919091558516927f524512344e535e9bda79e916c2ea8c7b9e5d23d83e1b95181d7622b4ac3d42939190a3505050505050505050565b7f000000000000000000000000000000000000000000000000000000000000000081565b73ffffffffffffffffffffffffffffffffffffffff8881166000908152600260205260409020543391168114610dcb576040517f08c379a0000000000000000000000000000000000000000000000000000000008152600401610426906130b4565b73ffffffffffffffffffffffffffffffffffffffff8916600090815260016020908152604091829020549151610e079188918a91879101612fd1565b6040516020818303038152906040528051906020012014610e54576040517f08c379a0000000000000000000000000000000000000000000000000000000008152600401610426906132a3565b610e618589898787611b56565b610e97576040517f08c379a000000000000000000000000000000000000000000000000000000000815260040161042690613159565b6060610ea589898787611b8e565b9050600081600081518110610eb657fe5b602002602001015190508989905060011415610f825785856000818110610ed957fe5b9050602002013560001c8160010114610f1e576040517f08c379a0000000000000000000000000000000000000000000000000000000008152600401610426906131c7565b610f468a8a6000818110610f2e57fe5b9050602002810190610f40919061356e565b8a611be0565b15610f7d576040517f08c379a000000000000000000000000000000000000000000000000000000000815260040161042690613235565b611028565b81600181518110610f8f57fe5b60200260200101518160010114610fa557600080fd5b89896001818110610fb257fe5b9050602002810190610fc4919061356e565b610fd29160049082906135d1565b810190610fdf9190612d99565b9750610ff18a8a6000818110610f2e57fe5b15611028576040517f08c379a000000000000000000000000000000000000000000000000000000000815260040161042690613235565b73ffffffffffffffffffffffffffffffffffffffff808c16600081815260208181526040808320805490849055948816808452818420805487019055600280845282852080547fffffffffffffffffffffffff00000000000000000000000000000000000000009081169091556003808652848720879055878752600486528487208a905591855283862080549091168717905590925280832092909255905192965083927fa66290bc21cee2ba1a3c6ba2cac21d24511cea1f9ed7efe453736f24fd894886906110fa90899061307e565b60405180910390a45050505050505050505050565b60016020526000908152604090205481565b6104a33383836000806118b7565b7f000000000000000000000000000000000000000000000000000000000000000081565b60046020526000908152604090205481565b33600081815260046020526040902054806111ac576040517f08c379a000000000000000000000000000000000000000000000000000000000815260040161042690613348565b73ffffffffffffffffffffffffffffffffffffffff82166000908152600160209081526040918290205491516111e89188918891889101612fd1565b6040516020818303038152906040528051906020012014611235576040517f08c379a0000000000000000000000000000000000000000000000000000000008152600401610426906132a3565b611240858888611ca8565b611276576040517f08c379a0000000000000000000000000000000000000000000000000000000008152600401610426906132da565b60008989600081811061128557fe5b9050602002013560001c90508781106112ca576040517f08c379a0000000000000000000000000000000000000000000000000000000008152600401610426906130eb565b81811015611304576040517f08c379a0000000000000000000000000000000000000000000000000000000008152600401610426906133b6565b856113128e8e8e8e8e611cd7565b14611349576040517f08c379a00000000000000000000000000000000000000000000000000000000081526004016104269061345b565b8b8b600081811061135657fe5b9050602002810190611368919061356e565b6113769160049082906135d1565b8101906113839190612d99565b60405190955061139b908e9087904290602001612fd1565b604080517fffffffffffffffffffffffffffffffffffffffffffffffffffffffffffffffe0818403018152918152815160209283012073ffffffffffffffffffffffffffffffffffffffff861660009081526001909352912055808214156114545773ffffffffffffffffffffffffffffffffffffffff8316600090815260026020908152604080832080547fffffffffffffffffffffffff000000000000000000000000000000000000000016905560049091528120555b61145d836103b9565b42818473ffffffffffffffffffffffffffffffffffffffff167f4d7ed8c49e6b03daee23a18f4bd14bd7e4628e5ed54c57bf84407a693867eca960405160405180910390a450505050505050505050505050565b60036020526000908152604090205481565b73ffffffffffffffffffffffffffffffffffffffff80891660009081526002602052604090205489911615611524576040517f08c379a000000000000000000000000000000000000000000000000000000000815260040161042690613492565b878760018111611560576040517f08c379a00000000000000000000000000000000000000000000000000000000081526004016104269061337f565b60008a8a600081811061156f57fe5b9050602002810190611581919061356e565b61158f9160049082906135d1565b81019061159c9190612d99565b73ffffffffffffffffffffffffffffffffffffffff8d1660009081526001602090815260409182902054915192935090916115dd918b9185918a9101612fd1565b604051602081830303815290604052805190602001201461162a576040517f08c379a0000000000000000000000000000000000000000000000000000000008152600401610426906132a3565b611637888c8c8a8a611cd7565b60405190915061164f9082908b904290602001612fd1565b60405160208183030381529060405280519060200120600160008e73ffffffffffffffffffffffffffffffffffffffff1673ffffffffffffffffffffffffffffffffffffffff16815260200190815260200160002081905550428c73ffffffffffffffffffffffffffffffffffffffff167f0b87b136840d19f5f25329273082c00833265a189b70137e06df6315ddc7839e60405160405180910390a3505050505050505050505050565b73ffffffffffffffffffffffffffffffffffffffff8089166000908152600260205260409020548991161561175b576040517f08c379a000000000000000000000000000000000000000000000000000000000815260040161042690613492565b600061176a886004818c6135d1565b8101906117779190612d99565b73ffffffffffffffffffffffffffffffffffffffff8b1660009081526001602090815260409182902054915192935090916117b89189918591889101612fd1565b6040516020818303038152906040528051906020012014611805576040517f08c379a0000000000000000000000000000000000000000000000000000000008152600401610426906132a3565b611812868a8a8888611db4565b60405190915061182a90829089904290602001612fd1565b604080517fffffffffffffffffffffffffffffffffffffffffffffffffffffffffffffffe0818403018152828252805160209182012073ffffffffffffffffffffffffffffffffffffffff8e16600081815260019093529282205542927f4779c4b07abff82b16061ec9a47d081e7f4981c29088395cdb7ff87e322cbbc69190a350505050505050505050565b73ffffffffffffffffffffffffffffffffffffffff80861660009081526002602052604090205486911615611918576040517f08c379a000000000000000000000000000000000000000000000000000000000815260040161042690613492565b600061192785600481896135d1565b8101906119349190612d99565b73ffffffffffffffffffffffffffffffffffffffff881660009081526001602090815260409182902054915192935090916119759187918591889101612fd1565b60405160208183030381529060405280519060200120146119c2576040517f08c379a0000000000000000000000000000000000000000000000000000000008152600401610426906132a3565b600060607f000000000000000000000000000000000000000000000000000000000000000073ffffffffffffffffffffffffffffffffffffffff16348989604051611a0e929190613014565b60006040518083038185875af1925050503d8060008114611a4b576040519150601f19603f3d011682016040523d82523d6000602084013e611a50565b606091505b509150915081611a8c576040517f08c379a000000000000000000000000000000000000000000000000000000000815260040161042690613537565b80806020019051810190611aa09190612db1565b604051909350611ab99060009085908290602001612fd1565b604080517fffffffffffffffffffffffffffffffffffffffffffffffffffffffffffffffe0818403018152828252805160209182012073ffffffffffffffffffffffffffffffffffffffff8d16600081815260019093529290912055907f0f5025cc4f20aa47a346d1b7d9da6ba8c68cc8e83b75e813da4b4490d55365ae90611b4390869061307e565b60405180910390a2505050505050505050565b600085611b8184846000818110611b6957fe5b90506020020135611b7c88888888611e7f565b612022565b1490505b95945050505050565b6060611bd58484846001818110611ba157fe5b9050602002013585856002818110611bb557fe5b9050602002013586866003818110611bc957fe5b90506020020135612031565b90505b949350505050565b60008060607f000000000000000000000000000000000000000000000000000000000000000073ffffffffffffffffffffffffffffffffffffffff168686604051611c2c929190613014565b6000604051808303816000865af19150503d8060008114611c69576040519150601f19603f3d011682016040523d82523d6000602084013e611c6e565b606091505b509150915081611c8357600092505050611ca1565b600081806020019051810190611c999190612db1565b851493505050505b9392505050565b600083158015611cb6575082155b15611cc357506001611ca1565b83611cce8484612022565b14949350505050565b60008083836000818110611ce757fe5b60200291909101359150508615811514611d2d576040517f08c379a00000000000000000000000000000000000000000000000000000000081526004016104269061326c565b86611d4857611d4085611b7c8882612351565b915050611b85565b6000611d5687878787612467565b9350905087611d658383612022565b14611d9c576040517f08c379a0000000000000000000000000000000000000000000000000000000008152600401610426906131fe565b611da882870184612022565b98975050505050505050565b60008083836000818110611dc457fe5b60200291909101359150508615811514611e0a576040517f08c379a00000000000000000000000000000000000000000000000000000000081526004016104269061326c565b86611e1e57611d406001611b7c8888612677565b6000611e2c878787876126ad565b9350905087611e3b8383612022565b14611e72576040517f08c379a0000000000000000000000000000000000000000000000000000000008152600401610426906131fe565b611da86001830184612022565b6000806060611e8e8787612777565b90925090506000806004600182898983818110611ea757fe5b90506020020135905060008a8a6002818110611ebf57fe5b90506020020135905060008b8b6003818110611ed757fe5b9050602002013590505b838483161415611f7f57838484161415611f29578760018715611f045787611f06565b8a5b0381518110611f1157fe5b60200260200101519950505050505050505050611bd8565b878781518110611f3557fe5b6020026020010151888781518110611f4957fe5b602002602001018181525050888760010181611f6157fe5b069650888660010181611f7057fe5b069550600184901b9350611ee1565b8384841614611fa6578b8b86806001019750818110611f9a57fe5b90506020020135611fc0565b8751600188019789918110611fb757fe5b60200260200101515b9950888781611fcb57fe5b0696508384821614611ff957611ff48a898981518110611fe757fe5b6020026020010151612022565b612016565b61201688888151811061200857fe5b60200260200101518b612022565b888781518110611f4957fe5b60009182526020526040902090565b60608467ffffffffffffffff8111801561204a57600080fd5b50604051908082528060200260200182016040528015612074578160200160208202803683370190505b50905060608567ffffffffffffffff8111801561209057600080fd5b506040519080825280602002602001820160405280156120ba578160200160208202803683370190505b50905060608667ffffffffffffffff811180156120d657600080fd5b50604051908082528060200260200182016040528015612100578160200160208202803683370190505b507fffffffffffffffffffffffffffffffffffffffffffffffffffffffffffffffff90970196905086600160008080805b848c169350848b169250848a16915087868151811061214c57fe5b60200260200101516001901b9050848314156121f35784841415612177575050505050505050611bd8565b87868151811061218357fe5b6020908102919091010180516001019052856121a1578c95506121e7565b86517fffffffffffffffffffffffffffffffffffffffffffffffffffffffffffffffff870196889181106121d157fe5b60200260200101516121e2576121e7565b612177565b600185901b9450612131565b848414156122ba575b84821415612224578089878151811061221157fe5b6020026020010181815117915081815250505b87868151811061223057fe5b60209081029190910101805160010190528561224e578c95506122ba565b86868151811061225a57fe5b60200260200101516122905760018787806001900398508151811061227b57fe5b911515602092830291909101909101526122ba565b6001878780600190039850815181106122a557fe5b911515602092830291909101909101526121fc565b8482146122e157808987815181106122ce57fe5b6020026020010181815117915081815250505b8786815181106122ed57fe5b60209081029190910101805160010190528561230b578c95506121e7565b86517fffffffffffffffffffffffffffffffffffffffffffffffffffffffffffffffff8701968891811061233b57fe5b602002602001015161234c576121e7565b6122ba565b60008060606123608585612881565b915091506000805b60018411156124465750600181901b7fffffffffffffffffffffffffffffffffffffffffffffffffffffffffffffffff84018114156123e2578281815181106123ad57fe5b60200260200101518383815181106123c157fe5b6020026020010181815250506000915083600116600185901c019350612368565b8381106123fe576000915083600116600185901c019350612368565b61242483828151811061240d57fe5b6020026020010151848360010181518110611fe757fe5b835160018401938591811061243557fe5b602002602001018181525050612368565b8260008151811061245357fe5b602002602001015194505050505092915050565b600080600060606124788888612a21565b9150915060008060008888600081811061248e57fe5b60200291909101359586017fffffffffffffffffffffffffffffffffffffffffffffffffffffffffffffffff0195915081905060006124cc82612ae2565b63ffffffff1690508a8a828181106124e057fe5b9050602002013598505b861561264d57841580156125015750816001166001145b1561259b576125288b8b8381811061251557fe5b90506020020135878681518110611fe757fe5b8660008151811061253557fe5b6020908102919091010152600193909301927fffffffffffffffffffffffffffffffffffffffffffffffffffffffffffffffff01801561258e5761258b8b8b8381811061257e57fe5b905060200201358a612022565b98505b60019450908401906125f6565b868210156125f6576125cc8685806001019650815181106125b857fe5b6020026020010151878681518110611fe757fe5b86516001870196889181106125dd57fe5b6020026020010181815250506001840193506002820191505b86821061264857868214156126325785848151811061261157fe5b602002602001015186868151811061262557fe5b6020026020010181815250505b600196871c96600095508594509290921c918291505b6124ea565b888660008151811061265b57fe5b6020026020010151985098505050505050505094509492505050565b60405160009061268f90829085908590602001612f95565b60405160208183030381529060405280519060200120905092915050565b60008060006126d1858560008181106126c257fe5b9050602002013560001c612ae2565b63ffffffff1690508484828181106126e557fe5b90506020020135925061272683600060f81b898960405160200161270b93929190612f95565b60405160208183030381529060405280519060200120612022565b915060005b600182111561276c5760018203915085858381811061274657fe5b9050602002013590506127598184612022565b92506127658185612022565b935061272b565b505094509492505050565b8060608167ffffffffffffffff8111801561279157600080fd5b506040519080825280602002602001820160405280156127bb578160200160208202803683370190505b5090507fffffffffffffffffffffffffffffffffffffffffffffffffffffffffffffffff820160005b838110156128785760008686848181106127fa57fe5b905060200281019061280c919061356e565b60405160200161281e93929190612f95565b6040516020818303038152906040528051906020012083828151811061284057fe5b60209081029190910101527fffffffffffffffffffffffffffffffffffffffffffffffffffffffffffffffff909101906001016127e4565b50509250929050565b600181811c908216016060828267ffffffffffffffff811180156128a457600080fd5b506040519080825280602002602001820160405280156128ce578160200160208202803683370190505b5091506000805b84821015612a175750600181901b7fffffffffffffffffffffffffffffffffffffffffffffffffffffffffffffffff830181141561297257600087878381811061291b57fe5b905060200281019061292d919061356e565b60405160200161293f93929190612f95565b6040516020818303038152906040528051906020012084838151811061296157fe5b602002602001018181525050612a17565b6129f5600088888481811061298357fe5b9050602002810190612995919061356e565b6040516020016129a793929190612f95565b60405160208183030381529060405280519060200120600060f81b8989856001018181106129d157fe5b90506020028101906129e3919061356e565b60405160200161270b93929190612f95565b8451600184019386918110612a0657fe5b6020026020010181815250506128d5565b5050509250929050565b8060608167ffffffffffffffff81118015612a3b57600080fd5b50604051908082528060200260200182016040528015612a65578160200160208202803683370190505b50905060005b82811015612ada576000858583818110612a8157fe5b9050602002810190612a93919061356e565b604051602001612aa593929190612f95565b60405160208183030381529060405280519060200120828281518110612ac757fe5b6020908102919091010152600101612a6b565b509250929050565b600181901c6355555555169003600281901c6333333333908116911601600481901c630fffffff1601630f0f0f0f1663010101010260181c60ff1690565b60008083601f840112612b31578182fd5b50813567ffffffffffffffff811115612b48578182fd5b6020830191508360208083028501011115612b6257600080fd5b9250929050565b60008083601f840112612b7a578182fd5b50813567ffffffffffffffff811115612b91578182fd5b602083019150836020828501011115612b6257600080fd5b600060208284031215612bba578081fd5b8135611ca1816135f9565b60008060008060008060008060c0898b031215612be0578384fd5b8835612beb816135f9565b9750602089013567ffffffffffffffff80821115612c07578586fd5b612c138c838d01612b20565b909950975060408b0135965060608b0135955060808b0135915080821115612c39578485fd5b50612c468b828c01612b20565b999c989b50969995989497949560a00135949350505050565b60008060008060808587031215612c74578384fd5b8435612c7f816135f9565b966020860135965060408601359560600135945092505050565b600080600080600060608688031215612cb0578081fd5b853567ffffffffffffffff80821115612cc7578283fd5b612cd389838a01612b20565b9097509550602088013594506040880135915080821115612cf2578283fd5b50612cff88828901612b20565b969995985093965092949392505050565b600080600080600080600060a0888a031215612d2a578283fd5b873567ffffffffffffffff80821115612d41578485fd5b612d4d8b838c01612b20565b909950975060208a0135965060408a0135955060608a0135915080821115612d73578485fd5b50612d808a828b01612b20565b989b979a50959894979596608090950135949350505050565b600060208284031215612daa578081fd5b5035919050565b600060208284031215612dc2578081fd5b5051919050565b6000806000806000806000806000806101008b8d031215612de8578182fd5b8a35995060208b013567ffffffffffffffff80821115612e06578384fd5b612e128e838f01612b20565b909b50995060408d0135915080821115612e2a578384fd5b50612e378d828e01612b20565b9b9e9a9d50989b989a9960608a0135996080810135995060a0810135985060c0810135975060e0013595509350505050565b60008060208385031215612e7b578081fd5b823567ffffffffffffffff811115612e91578182fd5b612e9d85828601612b69565b90969095509350505050565b600080600080600060608688031215612ec0578283fd5b853567ffffffffffffffff80821115612ed7578485fd5b612cd389838a01612b69565b600080600080600080600060a0888a031215612efd578081fd5b873567ffffffffffffffff80821115612f14578283fd5b612f208b838c01612b69565b909950975060208a0135965060408a0135955060608a0135915080821115612d73578283fd5b60008060008060608587031215612f5b578182fd5b843567ffffffffffffffff811115612f71578283fd5b612f7d87828801612b69565b90989097506020870135966040013595509350505050565b60007fff000000000000000000000000000000000000000000000000000000000000008516825282846001840137910160010190815292915050565b9283526020830191909152604082015260600190565b7fffffffff0000000000000000000000000000000000000000000000000000000091909116815260040190565b6000828483379101908152919050565b60008251815b81811015613044576020818601810151858301520161302a565b818111156130525782828501525b509190910192915050565b73ffffffffffffffffffffffffffffffffffffffff91909116815260200190565b90815260200190565b7fffffffff0000000000000000000000000000000000000000000000000000000091909116815260200190565b6020808252600a908201527f4e4f545f4c4f434b455200000000000000000000000000000000000000000000604082015260600190565b60208082526015908201527f494e53554646494349454e545f524f4c4c4241434b0000000000000000000000604082015260600190565b60208082526011908201527f524f4c4c4241434b5f5245515549524544000000000000000000000000000000604082015260600190565b60208082526010908201527f494e56414c49445f43414c4c4441544100000000000000000000000000000000604082015260600190565b60208082526013908201527f414c52454144595f494e495449414c495a454400000000000000000000000000604082015260600190565b60208082526012908201527f494e434f52524543545f43414c4c444154410000000000000000000000000000604082015260600190565b6020808252600d908201527f494e56414c49445f50524f4f4600000000000000000000000000000000000000604082015260600190565b60208082526010908201527f56414c49445f5452414e534954494f4e00000000000000000000000000000000604082015260600190565b6020808252600c908201527f494e56414c49445f545245450000000000000000000000000000000000000000604082015260600190565b6020808252600d908201527f494e56414c49445f524f4f545300000000000000000000000000000000000000604082015260600190565b6020808252600c908201527f494e56414c49445f53495a450000000000000000000000000000000000000000604082015260600190565b60208082526010908201527f4143434f554e545f554e4c4f434b454400000000000000000000000000000000604082015260600190565b60208082526014908201527f524f4c4c4241434b5f554e4e4543455353415259000000000000000000000000604082015260600190565b60208082526015908201527f494e53554646494349454e545f43414c4c444154410000000000000000000000604082015260600190565b60208082526011908201527f524f4c4c4241434b5f544f4f5f44454550000000000000000000000000000000604082015260600190565b60208082526013908201527f494e53554646494349454e545f57494e444f5700000000000000000000000000604082015260600190565b60208082526011908201527f494e495449414c495a455f4641494c4544000000000000000000000000000000604082015260600190565b60208082526010908201527f494e56414c49445f524f4c4c4241434b00000000000000000000000000000000604082015260600190565b6020808252600e908201527f4143434f554e545f4c4f434b4544000000000000000000000000000000000000604082015260600190565b60208082526011908201527f494e53554646494349454e545f54494d45000000000000000000000000000000604082015260600190565b60208082526011908201527f494e53554646494349454e545f424f4e44000000000000000000000000000000604082015260600190565b6020808252600b908201527f43414c4c5f4641494c4544000000000000000000000000000000000000000000604082015260600190565b60008083357fffffffffffffffffffffffffffffffffffffffffffffffffffffffffffffffe18436030181126135a2578283fd5b83018035915067ffffffffffffffff8211156135bc578283fd5b602001915036819003821315612b6257600080fd5b600080858511156135e0578182fd5b838611156135ec578182fd5b5050820193919092039150565b73ffffffffffffffffffffffffffffffffffffffff811681146104a557600080fdfea2646970667358221220807690a6c64d03eff8630da85d6cb6dca4c31d0b617e71a69d9909cb3563754464736f6c63430007030033",
  "immutableReferences": {
    "90": [
      {
        "length": 32,
        "start": 2173
      },
      {
        "length": 32,
        "start": 4401
      },
      {
        "length": 32,
        "start": 6600
      },
      {
        "length": 32,
        "start": 7143
      }
    ],
    "92": [
      {
        "length": 32,
        "start": 2229
      },
      {
        "length": 32,
        "start": 3399
      }
    ]
  },
  "source": "// SPDX-License-Identifier: MIT\n\npragma solidity >=0.6.0 <=0.7.3;\npragma experimental ABIEncoderV2;\n\nimport \"merkle-trees/eth/contracts/libraries/calldata/bytes/standard/merkle-library.sol\";\n\n// TODO: perhaps a owner-controlled sighash whitelist for optimistically performing, and therefore a non-performing exit method\n// TODO: consider verifying being view, or some kind of forced \"come up for air\" mechanism\n// TODO: make required bond queryable\n\ncontract Optimistic_Roll_In {\n  event ORI_New_State(address indexed user, bytes32 new_state);\n  event ORI_New_Optimistic_State(address indexed user, uint256 indexed block_time);\n  event ORI_New_Optimistic_States(address indexed user, uint256 indexed block_time);\n  event ORI_Locked(address indexed suspect, address indexed accuser);\n  event ORI_Unlocked(address indexed suspect, address indexed accuser);\n  event ORI_Fraud_Proven(\n    address indexed accuser,\n    address indexed suspect,\n    uint256 indexed transition_index,\n    uint256 amount\n  );\n  event ORI_Rolled_Back(address indexed user, uint256 indexed tree_size, uint256 indexed block_time);\n\n  address public immutable logic_address;\n  bytes4 public immutable initializer;\n\n  mapping(address => uint256) public balances;\n  mapping(address => bytes32) public account_states;\n  mapping(address => address) public lockers;\n  mapping(address => uint256) public locked_times;\n  mapping(address => uint256) public rollback_sizes;\n\n  constructor(address _logic_address, bytes4 _initializer) {\n    logic_address = _logic_address;\n    initializer = _initializer; //1e58e625\n  }\n\n  modifier not_initialized(address user) {\n    require(account_states[user] == bytes32(0), \"ALREADY_INITIALIZED\");\n    _;\n  }\n\n  modifier not_locked(address user) {\n    require(lockers[user] == address(0), \"ACCOUNT_LOCKED\");\n    _;\n  }\n\n  modifier is_locked(address user) {\n    require(lockers[user] != address(0), \"ACCOUNT_UNLOCKED\");\n    _;\n  }\n\n  modifier no_rollback_required(address user) {\n    require(rollback_sizes[user] == 0, \"ROLLBACK_REQUIRED\");\n    _;\n  }\n\n  modifier can_exit_optimism(uint256 last_time) {\n    // Check that enough time has elapsed for potential fraud proofs (10 minutes)\n    require(last_time + 600 < block.timestamp, \"INSUFFICIENT_TIME\");\n    _;\n  }\n\n  modifier sufficient_calldata(bytes[] calldata call_data) {\n    // Check that there is more than 1 call data (if not, user should have called perform_optimistically)\n    require(call_data.length > 1, \"INSUFFICIENT_CALLDATA\");\n    _;\n  }\n\n  modifier lock_expired(address user) {\n    require(locked_times[user] + 600 <= block.timestamp, \"INSUFFICIENT_WINDOW\");\n    _;\n  }\n\n  receive() external payable {\n    bond(msg.sender);\n  }\n\n  // Bonds msg.value, and reverts if resulting balance less than 1 ETH\n  function bond(address user) public payable {\n    uint256 amount = msg.value;\n\n    if (amount == 0) {\n      require(balances[user] >= 1000000000000000000, \"INSUFFICIENT_BOND\");\n      return;\n    }\n\n    balances[user] += amount;\n    require(balances[user] >= 1000000000000000000, \"INSUFFICIENT_BOND\");\n  }\n\n  // Sets user's account state to starting point, and bonds msg.value\n  function initialize() external payable not_initialized(msg.sender) {\n    address user = msg.sender;\n    bond(user);\n\n    (bool success, bytes memory return_bytes) = logic_address.call{ value: msg.value }(abi.encodePacked(initializer));\n    require(success, \"INITIALIZE_FAILED\");\n\n    // Decode initial state (S_0) from returned bytes\n    bytes32 initial_state = abi.decode(return_bytes, (bytes32));\n\n    // Set account state to combination of empty call data tree, initial state (S_0), and last time of 0 (not in optimism)\n    account_states[user] = keccak256(abi.encodePacked(bytes32(0), initial_state, bytes32(0)));\n\n    emit ORI_New_State(user, initial_state);\n  }\n\n  // Allows unbonding of ETH if account not locked\n  function withdraw(address payable destination) public not_locked(msg.sender) {\n    address user = msg.sender;\n    uint256 amount = balances[user];\n    balances[user] = 0;\n    destination.transfer(amount);\n  }\n\n  // Returns true if calling the logic contract with the call data results in new state\n  function verify_transition(bytes calldata call_data, bytes32 new_state) internal returns (bool) {\n    // Compute a new state\n    (bool success, bytes memory state_bytes) = logic_address.call(call_data);\n\n    if (!success) return false;\n\n    // Decode new state from returns bytes, reusing the state variable\n    bytes32 state = abi.decode(state_bytes, (bytes32));\n\n    return state == new_state;\n  }\n\n  // Calls logic contract and updates account state\n  function normal_perform(\n    address user,\n    bytes calldata call_data,\n    bytes32 call_data_root,\n    uint256 last_time\n  ) internal not_locked(user) {\n    // Extract current state (S_n or S_0) from calldata (32 bytes starting after the function signature)\n    bytes32 state = abi.decode(call_data[4:], (bytes32));\n\n    // Check that the user it not in an optimistic state, which means that their account state is\n    // an empty call data tree, current state (S_n or S_0), and the last block is 0\n    require(\n      keccak256(abi.encodePacked(call_data_root, state, bytes32(last_time))) == account_states[user],\n      \"INVALID_ROOTS\"\n    );\n\n    // Compute a new state (S_n+1 or S_1)\n    (bool success, bytes memory state_bytes) = logic_address.call{ value: msg.value }(call_data);\n    require(success, \"CALL_FAILED\");\n\n    // Decode new state (S_n+1 or S_1) from returned bytes, reusing the state variable\n    state = abi.decode(state_bytes, (bytes32));\n\n    // Set the account state to an empty call data tree, the new state (S_n+1 or S_1), and last time 0\n    account_states[user] = keccak256(abi.encodePacked(bytes32(0), state, bytes32(0)));\n\n    emit ORI_New_State(user, state);\n  }\n\n  // Set the account state to the on-chain computed new state, if the account is not locked\n  function perform(bytes calldata call_data) external payable {\n    normal_perform(msg.sender, call_data, bytes32(0), 0);\n  }\n\n  // Exits optimism by setting the account state to the on-chain computed new state, if the account is not locked\n  function perform_and_exit(\n    bytes calldata call_data,\n    bytes32 call_data_root,\n    uint256 last_time\n  ) external payable no_rollback_required(msg.sender) can_exit_optimism(last_time) {\n    normal_perform(msg.sender, call_data, call_data_root, last_time);\n  }\n\n  // Updates account state with optimistic transition data\n  function optimistic_perform(\n    address user,\n    bytes calldata call_data,\n    bytes32 new_state,\n    bytes32 call_data_root,\n    bytes32[] calldata proof,\n    uint256 last_time\n  ) internal not_locked(user) {\n    // Extract current state (S_0) from call data (32 bytes starting after the function signature)\n    bytes32 state = abi.decode(call_data[4:], (bytes32));\n\n    // Check that the user it not in an optimistic state, which means that their account state is\n    // an empty call data tree, current state (S_0), and the last block is 0\n    require(\n      keccak256(abi.encodePacked(call_data_root, state, bytes32(last_time))) == account_states[user],\n      \"INVALID_ROOTS\"\n    );\n\n    // Get root of new merkle tree with 1 call data element (CD_0), reusing state as call_data_root\n    state = Merkle_Library_CBS.try_append_one(call_data_root, call_data, proof);\n\n    // Combine call data root, new state (S_1), and current time into account state\n    account_states[user] = keccak256(abi.encodePacked(state, new_state, bytes32(block.timestamp)));\n\n    emit ORI_New_Optimistic_State(user, block.timestamp);\n  }\n\n  // Enters optimism by updating the account state optimistically with call data and a new state, if the account is not locked\n  function perform_optimistically_and_enter(\n    bytes calldata call_data,\n    bytes32 new_state,\n    bytes32[] calldata proof\n  ) external {\n    optimistic_perform(msg.sender, call_data, new_state, bytes32(0), proof, 0);\n  }\n\n  // Updates the account state optimistically with call data and a new state, if the account is not locked\n  function perform_optimistically(\n    bytes calldata call_data,\n    bytes32 new_state,\n    bytes32 call_data_root,\n    bytes32[] calldata proof,\n    uint256 last_time\n  ) external {\n    optimistic_perform(msg.sender, call_data, new_state, call_data_root, proof, last_time);\n  }\n\n  // Updates account state with optimistic batch transition data\n  function optimistic_perform_many(\n    address user,\n    bytes[] calldata call_data,\n    bytes32 new_state,\n    bytes32 call_data_root,\n    bytes32[] calldata proof,\n    uint256 last_time\n  ) internal not_locked(user) sufficient_calldata(call_data) {\n    // Extract current state (S_n) from first call data (32 bytes starting after the function signature)\n    bytes32 state = abi.decode(call_data[0][4:], (bytes32));\n\n    // Check that the call data root, current state (S_n), and last time are valid for this user\n    require(\n      keccak256(abi.encodePacked(call_data_root, state, bytes32(last_time))) == account_states[user],\n      \"INVALID_ROOTS\"\n    );\n\n    // Get new merkle root of call data tree, appending several call data (CD_n - CD_n+m), reusing state as call_data_root\n    state = Merkle_Library_CBS.try_append_many(call_data_root, call_data, proof);\n\n    // Combine call data root, new state (S_n+m), and current time into account state\n    account_states[user] = keccak256(abi.encodePacked(state, new_state, bytes32(block.timestamp)));\n\n    emit ORI_New_Optimistic_States(user, block.timestamp);\n  }\n\n  // Enters optimism by updating the account state optimistically with several call data and final state, if the account is not locked\n  function perform_many_optimistically_and_enter(\n    bytes[] calldata call_data,\n    bytes32 new_state,\n    bytes32[] calldata proof\n  ) external {\n    optimistic_perform_many(msg.sender, call_data, new_state, bytes32(0), proof, 0);\n  }\n\n  // Updates the account state optimistically with several call data and final state, if the account is not locked\n  function perform_many_optimistically(\n    bytes[] calldata call_data,\n    bytes32 new_state,\n    bytes32 call_data_root,\n    bytes32[] calldata proof,\n    uint256 last_time\n  ) external {\n    optimistic_perform_many(msg.sender, call_data, new_state, call_data_root, proof, last_time);\n  }\n\n  // Lock two users (suspect and accuser)\n  // Note: accuser and suspect cannot already be locked, but this might have to change so a single accuser isn't overwhelmed with fraud\n  function lock_user(address suspect) external payable not_locked(msg.sender) not_locked(suspect) {\n    address accuser = msg.sender;\n\n    // Lock both the accuser and the suspect\n    lockers[suspect] = accuser;\n    locked_times[suspect] = block.timestamp;\n    lockers[accuser] = accuser;\n    locked_times[accuser] = block.timestamp;\n\n    // The accuser may be trying to bond at the same time (this also check that have enough bonded)\n    bond(accuser);\n\n    emit ORI_Locked(suspect, accuser);\n  }\n\n  // Unlock two users (suspect and accuser)\n  function unlock(\n    address suspect,\n    bytes32 state,\n    bytes32 call_data_root,\n    uint256 last_time\n  ) external is_locked(suspect) lock_expired(suspect) no_rollback_required(suspect) {\n    // Check that the call data root, current state (S_n), and last time are valid for this user\n    require(\n      keccak256(abi.encodePacked(call_data_root, state, bytes32(last_time))) == account_states[suspect],\n      \"INVALID_ROOTS\"\n    );\n\n    // Unlock both accounts\n    address accuser = lockers[suspect];\n    lockers[suspect] = address(0);\n    locked_times[suspect] = 0;\n    lockers[accuser] = address(0);\n    locked_times[accuser] = 0;\n\n    // Give the suspect the accuser's bond for having not proven fraud within a reasonable time frame\n    // TODO: consider burning some here to prevent self-reporting breakeven\n    uint256 amount = balances[accuser];\n    balances[accuser] = 0;\n    balances[suspect] += amount;\n\n    // Combine call data root, current state (S_n), and current time into account state\n    // Note: updating last time is important, to prevent user blocking fraud proofs by locking themselves\n    account_states[suspect] = keccak256(abi.encodePacked(call_data_root, state, bytes32(block.timestamp)));\n\n    emit ORI_Unlocked(suspect, accuser);\n  }\n\n  // Reward accuser for proving fraud in a suspect's transition, and track the expected rolled back account state size\n  function prove_fraud(\n    address suspect,\n    bytes[] calldata call_data,\n    bytes32 state,\n    bytes32 call_data_root,\n    bytes32[] calldata proof,\n    uint256 last_time\n  ) external {\n    address accuser = msg.sender;\n\n    // Only the user that flagged/locked the suspect can prove fraud\n    require(lockers[suspect] == accuser, \"NOT_LOCKER\");\n\n    // Check that the call data root, current state (S_n), and last time are valid for this user\n    require(\n      keccak256(abi.encodePacked(call_data_root, state, bytes32(last_time))) == account_states[suspect],\n      \"INVALID_ROOTS\"\n    );\n\n    // Check that the call data exist\n    require(Merkle_Library_CBS.elements_exist(call_data_root, call_data, proof), \"INVALID_CALLDATA\");\n\n    // get the indices of the call data in the call data tre\n    uint256[] memory call_data_indices = Merkle_Library_CBS.get_indices(call_data, proof);\n\n    // The transition index is the index of the starting call data of the fraud proof\n    uint256 transition_index = call_data_indices[0];\n\n    // If only one call data is provided, the fraud involves the last call data and current state\n    if (call_data.length == 1) {\n      // Check that the call data index is the last (call data tree size minus 1)\n      require(transition_index + 1 == uint256(proof[0]), \"INCORRECT_CALLDATA\");\n\n      // Fail if the state transition was valid\n      require(verify_transition(call_data[0], state) == false, \"VALID_TRANSITION\");\n    } else {\n      // Check that call data provided are consecutive\n      require(transition_index + 1 == call_data_indices[1]);\n\n      // Extract new state from second call data (32 bytes starting after the function signature), reusing state var\n      state = abi.decode(call_data[1][4:], (bytes32));\n\n      // Fail if the state transition was valid\n      require(verify_transition(call_data[0], state) == false, \"VALID_TRANSITION\");\n    }\n\n    // Take the suspect's bond and give it to the accuser, reusing last_time var\n    // TODO: consider burning some here to prevent self-reporting breakeven\n    last_time = balances[suspect];\n    balances[suspect] = 0;\n    balances[accuser] += last_time;\n\n    // Unlock the accuser's account\n    lockers[accuser] = address(0);\n    locked_times[accuser] = 0;\n\n    // Set the rollback size to the amount of elements that should be in the call data tree once rolled back\n    rollback_sizes[suspect] = transition_index;\n\n    // Set the suspect as the reason for their account's lock\n    lockers[suspect] = suspect;\n    locked_times[suspect] = 0;\n\n    emit ORI_Fraud_Proven(accuser, suspect, transition_index, last_time);\n  }\n\n  // Rolls a user back, given the current roots, old roots, and a proof of the optimistic transitions between them\n  function rollback(\n    bytes32 rolled_back_call_data_root,\n    bytes[] calldata rolled_back_call_data,\n    bytes32[] calldata roll_back_proof,\n    uint256 current_size,\n    bytes32 current_size_proof,\n    bytes32 call_data_root,\n    bytes32 state,\n    uint256 last_time\n  ) external payable {\n    address user = msg.sender;\n    uint256 expected_size = rollback_sizes[user];\n    require(expected_size != 0, \"ROLLBACK_UNNECESSARY\");\n\n    // Check that the call data root, current state (S_n), and last time are valid for this user\n    require(\n      keccak256(abi.encodePacked(call_data_root, state, bytes32(last_time))) == account_states[user],\n      \"INVALID_ROOTS\"\n    );\n\n    // Check that the provided size of the current call data tree is correct\n    require(Merkle_Library_CBS.verify_size(call_data_root, current_size, current_size_proof), \"INVALID_SIZE\");\n\n    // Allow incremental roll back by checking that the rolled back call data tree is smaller than the current tree\n    uint256 rolled_back_size = uint256(roll_back_proof[0]);\n    require(rolled_back_size < current_size, \"INSUFFICIENT_ROLLBACK\");\n\n    // Check that this is not rolling back too far, though\n    require(rolled_back_size >= expected_size, \"ROLLBACK_TOO_DEEP\");\n\n    // Check that the current call data root is derived by appending the rolled back call data to the rolled back call data root\n    require(\n      Merkle_Library_CBS.try_append_many(rolled_back_call_data_root, rolled_back_call_data, roll_back_proof) ==\n        call_data_root,\n      \"INVALID_ROLLBACK\"\n    );\n\n    // Extract new state from first rolled back call data (32 bytes starting after the function signature), reusing state var\n    state = abi.decode(rolled_back_call_data[0][4:], (bytes32));\n\n    // Combine rolled back call data root, new state (S_n-m), and current time into account state\n    account_states[user] = keccak256(abi.encodePacked(rolled_back_call_data_root, state, bytes32(block.timestamp)));\n\n    // Unlock the user and clear the rollback flag, if roll back is complete\n    if (rolled_back_size == expected_size) {\n      lockers[user] = address(0);\n      rollback_sizes[user] = 0;\n    }\n\n    // The user may be trying to bond at the same time (this also check that have enough bonded)\n    bond(user);\n\n    emit ORI_Rolled_Back(user, rolled_back_size, block.timestamp);\n  }\n}\n",
  "sourcePath": "/Users/michaeldeluca/Projects/optimistic-roll-in/eth/contracts/optimistic-roll-in.sol",
  "compiler": {
    "name": "solc",
    "version": "0.7.3+commit.9bfce1f6.Emscripten.clang"
  },
  "schemaVersion": "3.3.1",
  "updatedAt": "2020-10-20T20:09:37.923Z",
  "devdoc": {
    "kind": "dev",
    "methods": {},
    "version": 1
  },
  "userdoc": {
    "kind": "user",
    "methods": {},
    "version": 1
  }
}