{
  "contractName": "Optimistic_Roll_In",
  "abi": [
    {
      "inputs": [
        {
          "internalType": "address",
          "name": "_logic_address",
          "type": "address"
        },
        {
          "internalType": "uint256",
          "name": "_lock_time",
          "type": "uint256"
        },
        {
          "internalType": "uint256",
          "name": "_required_bond",
          "type": "uint256"
        }
      ],
      "stateMutability": "nonpayable",
      "type": "constructor"
    },
    {
      "anonymous": false,
      "inputs": [
        {
          "indexed": true,
          "internalType": "address",
          "name": "accuser",
          "type": "address"
        },
        {
          "indexed": true,
          "internalType": "address",
          "name": "suspect",
          "type": "address"
        },
        {
          "indexed": true,
          "internalType": "uint256",
          "name": "transition_index",
          "type": "uint256"
        }
      ],
      "name": "ORI_Fraud_Proven",
      "type": "event"
    },
    {
      "anonymous": false,
      "inputs": [
        {
          "indexed": true,
          "internalType": "address",
          "name": "suspect",
          "type": "address"
        },
        {
          "indexed": true,
          "internalType": "address",
          "name": "accuser",
          "type": "address"
        }
      ],
      "name": "ORI_Locked",
      "type": "event"
    },
    {
      "anonymous": false,
      "inputs": [
        {
          "indexed": true,
          "internalType": "address",
          "name": "user",
          "type": "address"
        },
        {
          "indexed": true,
          "internalType": "uint256",
          "name": "block_time",
          "type": "uint256"
        }
      ],
      "name": "ORI_New_Optimistic_State",
      "type": "event"
    },
    {
      "anonymous": false,
      "inputs": [
        {
          "indexed": true,
          "internalType": "address",
          "name": "user",
          "type": "address"
        },
        {
          "indexed": true,
          "internalType": "uint256",
          "name": "block_time",
          "type": "uint256"
        }
      ],
      "name": "ORI_New_Optimistic_States",
      "type": "event"
    },
    {
      "anonymous": false,
      "inputs": [
        {
          "indexed": true,
          "internalType": "address",
          "name": "user",
          "type": "address"
        },
        {
          "indexed": true,
          "internalType": "bytes32",
          "name": "new_state",
          "type": "bytes32"
        }
      ],
      "name": "ORI_New_State",
      "type": "event"
    },
    {
      "anonymous": false,
      "inputs": [
        {
          "indexed": true,
          "internalType": "address",
          "name": "user",
          "type": "address"
        },
        {
          "indexed": true,
          "internalType": "uint256",
          "name": "tree_size",
          "type": "uint256"
        },
        {
          "indexed": true,
          "internalType": "uint256",
          "name": "block_time",
          "type": "uint256"
        }
      ],
      "name": "ORI_Rolled_Back",
      "type": "event"
    },
    {
      "anonymous": false,
      "inputs": [
        {
          "indexed": true,
          "internalType": "address",
          "name": "suspect",
          "type": "address"
        },
        {
          "indexed": true,
          "internalType": "address",
          "name": "accuser",
          "type": "address"
        },
        {
          "indexed": true,
          "internalType": "uint256",
          "name": "block_time",
          "type": "uint256"
        }
      ],
      "name": "ORI_Unlocked",
      "type": "event"
    },
    {
      "inputs": [
        {
          "internalType": "address",
          "name": "",
          "type": "address"
        }
      ],
      "name": "account_states",
      "outputs": [
        {
          "internalType": "bytes32",
          "name": "",
          "type": "bytes32"
        }
      ],
      "stateMutability": "view",
      "type": "function",
      "constant": true
    },
    {
      "inputs": [
        {
          "internalType": "address",
          "name": "",
          "type": "address"
        }
      ],
      "name": "balances",
      "outputs": [
        {
          "internalType": "uint256",
          "name": "",
          "type": "uint256"
        }
      ],
      "stateMutability": "view",
      "type": "function",
      "constant": true
    },
    {
      "inputs": [],
      "name": "lock_time",
      "outputs": [
        {
          "internalType": "uint256",
          "name": "",
          "type": "uint256"
        }
      ],
      "stateMutability": "view",
      "type": "function",
      "constant": true
    },
    {
      "inputs": [
        {
          "internalType": "address",
          "name": "",
          "type": "address"
        }
      ],
      "name": "locked_timestamps",
      "outputs": [
        {
          "internalType": "uint256",
          "name": "",
          "type": "uint256"
        }
      ],
      "stateMutability": "view",
      "type": "function",
      "constant": true
    },
    {
      "inputs": [
        {
          "internalType": "address",
          "name": "",
          "type": "address"
        }
      ],
      "name": "lockers",
      "outputs": [
        {
          "internalType": "address",
          "name": "",
          "type": "address"
        }
      ],
      "stateMutability": "view",
      "type": "function",
      "constant": true
    },
    {
      "inputs": [],
      "name": "logic_contract",
      "outputs": [
        {
          "internalType": "contract Optimistic_Roll_In_Compatible",
          "name": "",
          "type": "address"
        }
      ],
      "stateMutability": "view",
      "type": "function",
      "constant": true
    },
    {
      "inputs": [],
      "name": "required_bond",
      "outputs": [
        {
          "internalType": "uint256",
          "name": "",
          "type": "uint256"
        }
      ],
      "stateMutability": "view",
      "type": "function",
      "constant": true
    },
    {
      "inputs": [
        {
          "internalType": "address",
          "name": "",
          "type": "address"
        }
      ],
      "name": "rollback_sizes",
      "outputs": [
        {
          "internalType": "uint256",
          "name": "",
          "type": "uint256"
        }
      ],
      "stateMutability": "view",
      "type": "function",
      "constant": true
    },
    {
      "stateMutability": "payable",
      "type": "receive",
      "payable": true
    },
    {
      "inputs": [
        {
          "internalType": "address",
          "name": "user",
          "type": "address"
        }
      ],
      "name": "bond",
      "outputs": [],
      "stateMutability": "payable",
      "type": "function",
      "payable": true
    },
    {
      "inputs": [],
      "name": "initialize",
      "outputs": [],
      "stateMutability": "payable",
      "type": "function",
      "payable": true
    },
    {
      "inputs": [
        {
          "internalType": "address payable",
          "name": "destination",
          "type": "address"
        }
      ],
      "name": "unbond",
      "outputs": [],
      "stateMutability": "nonpayable",
      "type": "function"
    },
    {
      "inputs": [
        {
          "internalType": "address payable",
          "name": "destination",
          "type": "address"
        }
      ],
      "name": "withdraw",
      "outputs": [],
      "stateMutability": "nonpayable",
      "type": "function"
    },
    {
      "inputs": [
        {
          "internalType": "address payable",
          "name": "destination",
          "type": "address"
        },
        {
          "internalType": "bytes32",
          "name": "call_data_root",
          "type": "bytes32"
        },
        {
          "internalType": "bytes32",
          "name": "state",
          "type": "bytes32"
        },
        {
          "internalType": "uint256",
          "name": "last_time",
          "type": "uint256"
        }
      ],
      "name": "archive",
      "outputs": [],
      "stateMutability": "nonpayable",
      "type": "function"
    },
    {
      "inputs": [],
      "name": "unarchive",
      "outputs": [],
      "stateMutability": "payable",
      "type": "function",
      "payable": true
    },
    {
      "inputs": [
        {
          "internalType": "bytes",
          "name": "call_data",
          "type": "bytes"
        }
      ],
      "name": "perform",
      "outputs": [],
      "stateMutability": "payable",
      "type": "function",
      "payable": true
    },
    {
      "inputs": [
        {
          "internalType": "bytes",
          "name": "call_data",
          "type": "bytes"
        },
        {
          "internalType": "bytes32",
          "name": "call_data_root",
          "type": "bytes32"
        },
        {
          "internalType": "uint256",
          "name": "last_time",
          "type": "uint256"
        }
      ],
      "name": "perform_and_exit",
      "outputs": [],
      "stateMutability": "payable",
      "type": "function",
      "payable": true
    },
    {
      "inputs": [
        {
          "internalType": "bytes",
          "name": "call_data",
          "type": "bytes"
        },
        {
          "internalType": "bytes32",
          "name": "new_state",
          "type": "bytes32"
        },
        {
          "internalType": "bytes32[]",
          "name": "proof",
          "type": "bytes32[]"
        }
      ],
      "name": "perform_optimistically_and_enter",
      "outputs": [],
      "stateMutability": "nonpayable",
      "type": "function"
    },
    {
      "inputs": [
        {
          "internalType": "bytes",
          "name": "call_data",
          "type": "bytes"
        },
        {
          "internalType": "bytes32",
          "name": "new_state",
          "type": "bytes32"
        },
        {
          "internalType": "bytes32",
          "name": "call_data_root",
          "type": "bytes32"
        },
        {
          "internalType": "bytes32[]",
          "name": "proof",
          "type": "bytes32[]"
        },
        {
          "internalType": "uint256",
          "name": "last_time",
          "type": "uint256"
        }
      ],
      "name": "perform_optimistically",
      "outputs": [],
      "stateMutability": "nonpayable",
      "type": "function"
    },
    {
      "inputs": [
        {
          "internalType": "bytes[]",
          "name": "call_data",
          "type": "bytes[]"
        },
        {
          "internalType": "bytes32",
          "name": "new_state",
          "type": "bytes32"
        },
        {
          "internalType": "bytes32[]",
          "name": "proof",
          "type": "bytes32[]"
        }
      ],
      "name": "perform_many_optimistically_and_enter",
      "outputs": [],
      "stateMutability": "nonpayable",
      "type": "function"
    },
    {
      "inputs": [
        {
          "internalType": "bytes[]",
          "name": "call_data",
          "type": "bytes[]"
        },
        {
          "internalType": "bytes32",
          "name": "new_state",
          "type": "bytes32"
        },
        {
          "internalType": "bytes32",
          "name": "call_data_root",
          "type": "bytes32"
        },
        {
          "internalType": "bytes32[]",
          "name": "proof",
          "type": "bytes32[]"
        },
        {
          "internalType": "uint256",
          "name": "last_time",
          "type": "uint256"
        }
      ],
      "name": "perform_many_optimistically",
      "outputs": [],
      "stateMutability": "nonpayable",
      "type": "function"
    },
    {
      "inputs": [
        {
          "internalType": "address",
          "name": "suspect",
          "type": "address"
        }
      ],
      "name": "lock",
      "outputs": [],
      "stateMutability": "payable",
      "type": "function",
      "payable": true
    },
    {
      "inputs": [
        {
          "internalType": "address",
          "name": "suspect",
          "type": "address"
        },
        {
          "internalType": "bytes32",
          "name": "state",
          "type": "bytes32"
        },
        {
          "internalType": "bytes32",
          "name": "call_data_root",
          "type": "bytes32"
        },
        {
          "internalType": "uint256",
          "name": "last_time",
          "type": "uint256"
        }
      ],
      "name": "unlock",
      "outputs": [],
      "stateMutability": "nonpayable",
      "type": "function"
    },
    {
      "inputs": [
        {
          "internalType": "address",
          "name": "suspect",
          "type": "address"
        },
        {
          "internalType": "bytes[]",
          "name": "call_data",
          "type": "bytes[]"
        },
        {
          "internalType": "bytes32",
          "name": "state",
          "type": "bytes32"
        },
        {
          "internalType": "bytes32",
          "name": "call_data_root",
          "type": "bytes32"
        },
        {
          "internalType": "bytes32[]",
          "name": "proof",
          "type": "bytes32[]"
        },
        {
          "internalType": "uint256",
          "name": "last_time",
          "type": "uint256"
        }
      ],
      "name": "prove_fraud",
      "outputs": [],
      "stateMutability": "nonpayable",
      "type": "function"
    },
    {
      "inputs": [
        {
          "internalType": "bytes32",
          "name": "rolled_back_call_data_root",
          "type": "bytes32"
        },
        {
          "internalType": "bytes[]",
          "name": "rolled_back_call_data",
          "type": "bytes[]"
        },
        {
          "internalType": "bytes32[]",
          "name": "roll_back_proof",
          "type": "bytes32[]"
        },
        {
          "internalType": "uint256",
          "name": "current_size",
          "type": "uint256"
        },
        {
          "internalType": "bytes32",
          "name": "current_size_proof",
          "type": "bytes32"
        },
        {
          "internalType": "bytes32",
          "name": "call_data_root",
          "type": "bytes32"
        },
        {
          "internalType": "bytes32",
          "name": "state",
          "type": "bytes32"
        },
        {
          "internalType": "uint256",
          "name": "last_time",
          "type": "uint256"
        }
      ],
      "name": "rollback",
      "outputs": [],
      "stateMutability": "payable",
      "type": "function",
      "payable": true
    }
  ],
  "bytecode": "0x60e06040523480156200001157600080fd5b5060405162003e9838038062003e98833981016040819052620000349162000053565b60609290921b6001600160601b03191660805260a05260c05262000096565b60008060006060848603121562000068578283fd5b83516001600160a01b03811681146200007f578384fd5b602085015160409095015190969495509392505050565b60805160601c60a05160c051613da0620000f860003980610460528061048e52806105175280610788528061126352508061062452806106bb5280610b77528061174b5250806106df52806109a3528061208652806122d05250613da06000f3fe60806040526004361061018f5760003560e01c80637ad246f8116100d6578063bb6ae2cb1161007f578063e4da61ab11610059578063e4da61ab146103e5578063e6a6479914610405578063f435f5a714610425576101a0565b8063bb6ae2cb1461039f578063c45481bb146103b2578063e1124200146103d2576101a0565b8063a68f5913116100b0578063a68f59131461034a578063af7b5a411461036a578063b20554001461038a576101a0565b80637ad246f81461031a5780638129fc1c146103225780638ee16d131461032a576101a0565b80632c8e7a211161013857806351cff8d91161011257806351cff8d9146102ba5780636a8dddef146102da5780637a9f05b5146102fa576101a0565b80632c8e7a2114610263578063480bb7c4146102905780634de94320146102a5576101a0565b8063247ce85b11610169578063247ce85b1461020757806327e235e31461021a5780632a41545414610250576101a0565b806308542bb1146101a55780631646d051146101c7578063177f15c5146101e7576101a0565b366101a05761019d33610438565b50005b600080fd5b3480156101b157600080fd5b506101c56101c0366004613407565b610542565b005b3480156101d357600080fd5b506101c56101e2366004613651565b61055a565b3480156101f357600080fd5b506101c5610202366004613617565b610573565b6101c5610215366004613302565b610584565b34801561022657600080fd5b5061023a610235366004613302565b6105c7565b6040516102479190613776565b60405180910390f35b6101c561025e3660046136b4565b6105d9565b34801561026f57600080fd5b5061028361027e366004613302565b610691565b6040516102479190613755565b34801561029c57600080fd5b5061023a6106b9565b3480156102b157600080fd5b506102836106dd565b3480156102c657600080fd5b506101c56102d5366004613302565b610701565b3480156102e657600080fd5b506101c56102f536600461347e565b61083e565b34801561030657600080fd5b5061023a610315366004613302565b61084e565b6101c5610860565b6101c561094a565b34801561033657600080fd5b506101c56103453660046133f2565b610aec565b34801561035657600080fd5b506101c5610365366004613358565b610e58565b34801561037657600080fd5b5061023a610385366004613302565b61124f565b34801561039657600080fd5b5061023a611261565b6101c56103ad3660046135d7565b611285565b3480156103be57600080fd5b5061023a6103cd366004613302565b611297565b6101c56103e0366004613537565b6112a9565b3480156103f157600080fd5b506101c5610400366004613302565b611629565b34801561041157600080fd5b506101c561042036600461331e565b6116ea565b6101c5610433366004613302565b6118fb565b73ffffffffffffffffffffffffffffffffffffffff81166000908152600160205260408120547f0000000000000000000000000000000000000000000000000000000000000000141561048c57503461053d565b7f00000000000000000000000000000000000000000000000000000000000000003410156104ef576040517f08c379a00000000000000000000000000000000000000000000000000000000081526004016104e690613c86565b60405180910390fd5b5073ffffffffffffffffffffffffffffffffffffffff811660009081526001602052604090207f00000000000000000000000000000000000000000000000000000000000000009081905534035b919050565b610553338686866000878782611ad4565b5050505050565b61056a3388888888888888611d08565b50505050505050565b610553338686866000878782611d08565b61058d81610438565b156105c4576040517f08c379a00000000000000000000000000000000000000000000000000000000081526004016104e690613c4f565b50565b60016020526000908152604090205481565b3360008181526004602052604090205415610620576040517f08c379a00000000000000000000000000000000000000000000000000000000081526004016104e69061383a565b81427f000000000000000000000000000000000000000000000000000000000000000082011061067c576040517f08c379a00000000000000000000000000000000000000000000000000000000081526004016104e690613be1565b6106893387878787611ec2565b505050505050565b60026020526000908152604090205473ffffffffffffffffffffffffffffffffffffffff1681565b7f000000000000000000000000000000000000000000000000000000000000000081565b7f000000000000000000000000000000000000000000000000000000000000000081565b3360008181526002602052604090205473ffffffffffffffffffffffffffffffffffffffff161561075e576040517f08c379a00000000000000000000000000000000000000000000000000000000081526004016104e690613baa565b33600081815260208181526040808320546001909252822054901515918261078657816107aa565b7f000000000000000000000000000000000000000000000000000000000000000082035b9050818111156107e6576040517f08c379a00000000000000000000000000000000000000000000000000000000081526004016104e690613b05565b73ffffffffffffffffffffffffffffffffffffffff8085166000908152600160205260408082208486039055519188169183156108fc0291849190818181858888f1935050505015801561056a573d6000803e3d6000fd5b61056a3388888888888888611ad4565b60036020526000908152604090205481565b3360008181526002602052604090205473ffffffffffffffffffffffffffffffffffffffff166108bc576040517f08c379a00000000000000000000000000000000000000000000000000000000081526004016104e690613a29565b336108c681610438565b156108fd576040517f08c379a00000000000000000000000000000000000000000000000000000000081526004016104e690613c4f565b73ffffffffffffffffffffffffffffffffffffffff16600090815260026020526040902080547fffffffffffffffffffffffff000000000000000000000000000000000000000016905550565b3360008181526020819052604090205415610991576040517f08c379a00000000000000000000000000000000000000000000000000000000081526004016104e6906138a8565b33600061099d82610438565b905060007f000000000000000000000000000000000000000000000000000000000000000073ffffffffffffffffffffffffffffffffffffffff16637ed3068983856040518363ffffffff1660e01b81526004016109fb9190613755565b6020604051808303818588803b158015610a1457600080fd5b505af1158015610a28573d6000803e3d6000fd5b50505050506040513d601f19601f82011682018060405250810190610a4d919061351f565b604051909150610a66906000908390829060200161373f565b604080517fffffffffffffffffffffffffffffffffffffffffffffffffffffffffffffffe0818403018152828252805160209182012073ffffffffffffffffffffffffffffffffffffffff87166000818152928390529282205583927f0f5025cc4f20aa47a346d1b7d9da6ba8c68cc8e83b75e813da4b4490d55365ae9190a350505050565b73ffffffffffffffffffffffffffffffffffffffff808516600090815260026020526040902054859116610b4c576040517f08c379a00000000000000000000000000000000000000000000000000000000081526004016104e690613a29565b73ffffffffffffffffffffffffffffffffffffffff85166000908152600360205260409020548590427f00000000000000000000000000000000000000000000000000000000000000009091011115610bd1576040517f08c379a00000000000000000000000000000000000000000000000000000000081526004016104e690613b3c565b73ffffffffffffffffffffffffffffffffffffffff8616600090815260046020526040902054869015610c30576040517f08c379a00000000000000000000000000000000000000000000000000000000081526004016104e69061383a565b73ffffffffffffffffffffffffffffffffffffffff871660009081526020818152604091829020549151610c6a9188918a9189910161373f565b6040516020818303038152906040528051906020012014610cb7576040517f08c379a00000000000000000000000000000000000000000000000000000000081526004016104e6906139bb565b73ffffffffffffffffffffffffffffffffffffffff808816600081815260026020818152604080842080547fffffffffffffffffffffffff000000000000000000000000000000000000000080821690925560038085528387208790559716808652938352818520805490911690559481528483208390556001905283822080549083905592825292902080548201905585610db05760008273ffffffffffffffffffffffffffffffffffffffff168a73ffffffffffffffffffffffffffffffffffffffff167fd896484469c47833eb445d62b95b9dd6b28d0c050a9b7f2ce8902d137316500e60405160405180910390a4505061056a565b604051610dc59088908a90429060200161373f565b604080517fffffffffffffffffffffffffffffffffffffffffffffffffffffffffffffffe0818403018152828252805160209182012073ffffffffffffffffffffffffffffffffffffffff808e1660008181529384905293832091909155429390861692917fd896484469c47833eb445d62b95b9dd6b28d0c050a9b7f2ce8902d137316500e91a4505050505050505050565b73ffffffffffffffffffffffffffffffffffffffff808916600090815260026020526040902054899116610eb8576040517f08c379a00000000000000000000000000000000000000000000000000000000081526004016104e690613a29565b73ffffffffffffffffffffffffffffffffffffffff8981166000908152600260205260409020543391168114610f1a576040517f08c379a00000000000000000000000000000000000000000000000000000000081526004016104e6906137cc565b73ffffffffffffffffffffffffffffffffffffffff8a1660009081526020818152604091829020549151610f549189918b9188910161373f565b6040516020818303038152906040528051906020012014610fa1576040517f08c379a00000000000000000000000000000000000000000000000000000000081526004016104e6906139bb565b610fae868a8a88886121b3565b610fe4576040517f08c379a00000000000000000000000000000000000000000000000000000000081526004016104e690613871565b6060610ff28a8a88886121eb565b905060008160008151811061100357fe5b602002602001015190508a8a9050600114156110d0578686600081811061102657fe5b9050602002013560001c816001011461106b576040517f08c379a00000000000000000000000000000000000000000000000000000000081526004016104e6906138df565b6110948c8c8c600081811061107c57fe5b905060200281019061108e9190613cbd565b8c61223d565b156110cb576040517f08c379a00000000000000000000000000000000000000000000000000000000081526004016104e69061394d565b611177565b816001815181106110dd57fe5b602002602001015181600101146110f357600080fd5b8a8a600181811061110057fe5b90506020028101906111129190613cbd565b611120916024908290613d20565b81019061112d9190613507565b98506111408c8c8c600081811061107c57fe5b15611177576040517f08c379a00000000000000000000000000000000000000000000000000000000081526004016104e69061394d565b73ffffffffffffffffffffffffffffffffffffffff808d166000818152600160209081526040808320805490849055948816808452818420805487019055600280845282852080547fffffffffffffffffffffffff00000000000000000000000000000000000000009081169091556003808652848720879055878752600486528487208a905591855283862080549091168717905590925280832083905551939850849390917f55469cdf3fd81a478fed2a1491832e3d145bf2ab3c6a6fbb187022b3885b90fd91a4505050505050505050505050565b60006020819052908152604090205481565b7f000000000000000000000000000000000000000000000000000000000000000081565b611293338383600080611ec2565b5050565b60046020526000908152604090205481565b33600081815260046020526040902054806112f0576040517f08c379a00000000000000000000000000000000000000000000000000000000081526004016104e690613a60565b73ffffffffffffffffffffffffffffffffffffffff82166000908152602081815260409182902054915161132a918891889188910161373f565b6040516020818303038152906040528051906020012014611377576040517f08c379a00000000000000000000000000000000000000000000000000000000081526004016104e6906139bb565b611382858888612382565b6113b8576040517f08c379a00000000000000000000000000000000000000000000000000000000081526004016104e6906139f2565b6000898960008181106113c757fe5b9050602002013560001c905087811061140c576040517f08c379a00000000000000000000000000000000000000000000000000000000081526004016104e690613803565b81811015611446576040517f08c379a00000000000000000000000000000000000000000000000000000000081526004016104e690613ace565b856114548e8e8e8e8e6123b3565b1461148b576040517f08c379a00000000000000000000000000000000000000000000000000000000081526004016104e690613b73565b8b8b600081811061149857fe5b90506020028101906114aa9190613cbd565b6114b8916024908290613d20565b8101906114c59190613507565b6040519095506114dd908e908790429060200161373f565b604080517fffffffffffffffffffffffffffffffffffffffffffffffffffffffffffffffe0818403018152918152815160209283012073ffffffffffffffffffffffffffffffffffffffff8616600090815292839052912055808214156115955773ffffffffffffffffffffffffffffffffffffffff8316600090815260026020908152604080832080547fffffffffffffffffffffffff000000000000000000000000000000000000000016905560049091528120555b61159e83610438565b156115d5576040517f08c379a00000000000000000000000000000000000000000000000000000000081526004016104e690613c4f565b42818473ffffffffffffffffffffffffffffffffffffffff167f4d7ed8c49e6b03daee23a18f4bd14bd7e4628e5ed54c57bf84407a693867eca960405160405180910390a450505050505050505050505050565b3360008181526002602052604090205473ffffffffffffffffffffffffffffffffffffffff1615611686576040517f08c379a00000000000000000000000000000000000000000000000000000000081526004016104e690613baa565b3360008181526001602090815260408083208054908490559183905280832083905551909173ffffffffffffffffffffffffffffffffffffffff86169183156108fc0291849190818181858888f19350505050158015610553573d6000803e3d6000fd5b3360008181526002602052604090205473ffffffffffffffffffffffffffffffffffffffff1615611747576040517f08c379a00000000000000000000000000000000000000000000000000000000081526004016104e690613baa565b81427f00000000000000000000000000000000000000000000000000000000000000008201106117a3576040517f08c379a00000000000000000000000000000000000000000000000000000000081526004016104e690613be1565b33600081815260208181526040918290205491516117c7918991899189910161373f565b6040516020818303038152906040528051906020012014611814576040517f08c379a00000000000000000000000000000000000000000000000000000000081526004016104e6906139bb565b60405161182a906000908790829060200161373f565b604080517fffffffffffffffffffffffffffffffffffffffffffffffffffffffffffffffe0818403018152828252805160209182012073ffffffffffffffffffffffffffffffffffffffff8086166000818152808552858120939093556002845284832080547fffffffffffffffffffffffff0000000000000000000000000000000000000000169091179055600190925291822080549083905592908a169183156108fc02918491818181858888f193505050501580156118f0573d6000803e3d6000fd5b505050505050505050565b3360008181526002602052604090205473ffffffffffffffffffffffffffffffffffffffff1615611958576040517f08c379a00000000000000000000000000000000000000000000000000000000081526004016104e690613baa565b73ffffffffffffffffffffffffffffffffffffffff808316600090815260026020526040902054839116156119b9576040517f08c379a00000000000000000000000000000000000000000000000000000000081526004016104e690613baa565b73ffffffffffffffffffffffffffffffffffffffff831660009081526002602081815260408084208054337fffffffffffffffffffffffff00000000000000000000000000000000000000009182168117909255600380855283872042908190558388529585528387208054909216831790915590925290922055611a3d81610438565b15611a74576040517f08c379a00000000000000000000000000000000000000000000000000000000081526004016104e690613c4f565b8073ffffffffffffffffffffffffffffffffffffffff168473ffffffffffffffffffffffffffffffffffffffff167f8773bde6581ad6ddd421210de867340039fb65ce3df41edba7b5de6d24ae7a5160405160405180910390a350505050565b73ffffffffffffffffffffffffffffffffffffffff80891660009081526002602052604090205489911615611b35576040517f08c379a00000000000000000000000000000000000000000000000000000000081526004016104e690613baa565b878760018111611b71576040517f08c379a00000000000000000000000000000000000000000000000000000000081526004016104e690613a97565b60008a8a6000818110611b8057fe5b9050602002810190611b929190613cbd565b611ba0916024908290613d20565b810190611bad9190613507565b73ffffffffffffffffffffffffffffffffffffffff8d16600090815260208181526040918290205491519293509091611bec918b9185918a910161373f565b6040516020818303038152906040528051906020012014611c39576040517f08c379a00000000000000000000000000000000000000000000000000000000081526004016104e6906139bb565b611c46888c8c8a8a6123b3565b604051909150611c5e9082908b90429060200161373f565b604051602081830303815290604052805190602001206000808e73ffffffffffffffffffffffffffffffffffffffff1673ffffffffffffffffffffffffffffffffffffffff16815260200190815260200160002081905550428c73ffffffffffffffffffffffffffffffffffffffff167f0b87b136840d19f5f25329273082c00833265a189b70137e06df6315ddc7839e60405160405180910390a3505050505050505050505050565b73ffffffffffffffffffffffffffffffffffffffff80891660009081526002602052604090205489911615611d69576040517f08c379a00000000000000000000000000000000000000000000000000000000081526004016104e690613baa565b6000611d78886024818c613d20565b810190611d859190613507565b73ffffffffffffffffffffffffffffffffffffffff8b16600090815260208181526040918290205491519293509091611dc4918991859188910161373f565b6040516020818303038152906040528051906020012014611e11576040517f08c379a00000000000000000000000000000000000000000000000000000000081526004016104e6906139bb565b611e1e868a8a8888612490565b604051909150611e369082908990429060200161373f565b604080517fffffffffffffffffffffffffffffffffffffffffffffffffffffffffffffffe0818403018152828252805160209182012073ffffffffffffffffffffffffffffffffffffffff8e166000818152928390529282205542927f4779c4b07abff82b16061ec9a47d081e7f4981c29088395cdb7ff87e322cbbc69190a350505050505050505050565b73ffffffffffffffffffffffffffffffffffffffff80861660009081526002602052604090205486911615611f23576040517f08c379a00000000000000000000000000000000000000000000000000000000081526004016104e690613baa565b611f308460048188613d20565b810190611f3d9190613302565b73ffffffffffffffffffffffffffffffffffffffff168673ffffffffffffffffffffffffffffffffffffffff1614611fa1576040517f08c379a00000000000000000000000000000000000000000000000000000000081526004016104e690613c18565b6000611fb08560248189613d20565b810190611fbd9190613507565b73ffffffffffffffffffffffffffffffffffffffff8816600090815260208181526040918290205491519293509091611ffc918791859188910161373f565b6040516020818303038152906040528051906020012014612049576040517f08c379a00000000000000000000000000000000000000000000000000000000081526004016104e6906139bb565b6040517f8517c18700000000000000000000000000000000000000000000000000000000815273ffffffffffffffffffffffffffffffffffffffff7f00000000000000000000000000000000000000000000000000000000000000001690638517c1879034906120bf908a908a9060040161377f565b6020604051808303818588803b1580156120d857600080fd5b505af11580156120ec573d6000803e3d6000fd5b50505050506040513d601f19601f82011682018060405250810190612111919061351f565b60405190915061212a906000908390829060200161373f565b604080517fffffffffffffffffffffffffffffffffffffffffffffffffffffffffffffffe0818403018152828252805160209182012073ffffffffffffffffffffffffffffffffffffffff8b166000818152928390529282205583927f0f5025cc4f20aa47a346d1b7d9da6ba8c68cc8e83b75e813da4b4490d55365ae9190a350505050505050565b6000856121de848460008181106121c657fe5b905060200201356121d98888888861255b565b612571565b1490505b95945050505050565b606061223284848460018181106121fe57fe5b905060200201358585600281811061221257fe5b905060200201358686600381811061222657fe5b90506020020135612580565b90505b949350505050565b600061224c8360048187613d20565b8101906122599190613302565b73ffffffffffffffffffffffffffffffffffffffff168573ffffffffffffffffffffffffffffffffffffffff161461229357506000612235565b6040517f8821e2b100000000000000000000000000000000000000000000000000000000815273ffffffffffffffffffffffffffffffffffffffff7f00000000000000000000000000000000000000000000000000000000000000001690638821e2b190612307908790879060040161377f565b60206040518083038186803b15801561231f57600080fd5b505afa92505050801561236d575060408051601f3d9081017fffffffffffffffffffffffffffffffffffffffffffffffffffffffffffffffe016820190925261236a9181019061351f565b60015b61237957506000612235565b82149050612235565b600083158015612390575082155b1561239d575060016123ac565b836123a88484612571565b1490505b9392505050565b600080838360008181106123c357fe5b60200291909101359150508615811514612409576040517f08c379a00000000000000000000000000000000000000000000000000000000081526004016104e690613984565b866124245761241c856121d988826128a0565b9150506121e2565b6000612432878787876128b4565b93509050876124418383612571565b14612478576040517f08c379a00000000000000000000000000000000000000000000000000000000081526004016104e690613916565b61248482870184612571565b98975050505050505050565b600080838360008181106124a057fe5b602002919091013591505086158115146124e6576040517f08c379a00000000000000000000000000000000000000000000000000000000081526004016104e690613984565b866124fa5761241c60016121d988886128d8565b60006125088787878761290e565b93509050876125178383612571565b1461254e576040517f08c379a00000000000000000000000000000000000000000000000000000000081526004016104e690613916565b6124846001830184612571565b600061223261256a868661294d565b8484612a57565b60009182526020526040902090565b60608467ffffffffffffffff8111801561259957600080fd5b506040519080825280602002602001820160405280156125c3578160200160208202803683370190505b50905060608567ffffffffffffffff811180156125df57600080fd5b50604051908082528060200260200182016040528015612609578160200160208202803683370190505b50905060608667ffffffffffffffff8111801561262557600080fd5b5060405190808252806020026020018201604052801561264f578160200160208202803683370190505b507fffffffffffffffffffffffffffffffffffffffffffffffffffffffffffffffff90970196905086600160008080805b848c169350848b169250848a16915087868151811061269b57fe5b60200260200101516001901b90508483141561274257848414156126c6575050505050505050612235565b8786815181106126d257fe5b6020908102919091010180516001019052856126f0578c9550612736565b86517fffffffffffffffffffffffffffffffffffffffffffffffffffffffffffffffff8701968891811061272057fe5b602002602001015161273157612736565b6126c6565b600185901b9450612680565b84841415612809575b84821415612773578089878151811061276057fe5b6020026020010181815117915081815250505b87868151811061277f57fe5b60209081029190910101805160010190528561279d578c9550612809565b8686815181106127a957fe5b60200260200101516127df576001878780600190039850815181106127ca57fe5b91151560209283029190910190910152612809565b6001878780600190039850815181106127f457fe5b9115156020928302919091019091015261274b565b848214612830578089878151811061281d57fe5b6020026020010181815117915081815250505b87868151811061283c57fe5b60209081029190910101805160010190528561285a578c9550612736565b86517fffffffffffffffffffffffffffffffffffffffffffffffffffffffffffffffff8701968891811061288a57fe5b602002602001015161289b57612736565b612809565b60006123ac6128af8484612bc3565b612d7e565b6000806128cb6128c48787612e90565b8585612f6c565b9150915094509492505050565b6040516000906128f090829085908590602001613703565b60405160208183030381529060405280519060200120905092915050565b600080600060f81b868660405160200161292a93929190613703565b6040516020818303038152906040528051906020012091506128cb828585613167565b6060818067ffffffffffffffff8111801561296757600080fd5b50604051908082528060200260200182016040528015612991578160200160208202803683370190505b5091507fffffffffffffffffffffffffffffffffffffffffffffffffffffffffffffffff810160005b82811015612a4e5760008686848181106129d057fe5b90506020028101906129e29190613cbd565b6040516020016129f493929190613703565b60405160208183030381529060405280519060200120848281518110612a1657fe5b60209081029190910101527fffffffffffffffffffffffffffffffffffffffffffffffffffffffffffffffff909101906001016129ba565b50505092915050565b825160009081806004600182888883818110612a6f57fe5b905060200201359050600089896002818110612a8757fe5b90506020020135905060008a8a6003818110612a9f57fe5b9050602002013590505b838483161415612b4657838484161415612af0578b60018715612acc5787612ace565b895b0381518110612ad957fe5b6020026020010151985050505050505050506123ac565b8b8781518110612afc57fe5b60200260200101518c8781518110612b1057fe5b602002602001018181525050878760010181612b2857fe5b069650878660010181612b3757fe5b069550600184901b9350612aa9565b8384841614612b6d578a8a86806001019750818110612b6157fe5b90506020020135612b87565b8b5160018801978d918110612b7e57fe5b60200260200101515b9850878781612b9257fe5b069650612bb78c8881518110612ba457fe5b60200260200101518a868785161461321b565b8c8781518110612b1057fe5b606081600181811c908216018067ffffffffffffffff81118015612be657600080fd5b50604051908082528060200260200182016040528015612c10578160200160208202803683370190505b5092506000805b82821015612d745750600181901b7fffffffffffffffffffffffffffffffffffffffffffffffffffffffffffffffff8401811415612cb4576000878783818110612c5d57fe5b9050602002810190612c6f9190613cbd565b604051602001612c8193929190613703565b60405160208183030381529060405280519060200120858381518110612ca357fe5b602002602001018181525050612d74565b612d526000888884818110612cc557fe5b9050602002810190612cd79190613cbd565b604051602001612ce993929190613703565b60405160208183030381529060405280519060200120600060f81b898985600101818110612d1357fe5b9050602002810190612d259190613cbd565b604051602001612d3793929190613703565b60405160208183030381529060405280519060200120612571565b8551600184019387918110612d6357fe5b602002602001018181525050612c17565b5050505092915050565b805160009081805b6001831115612e715750600181901b7fffffffffffffffffffffffffffffffffffffffffffffffffffffffffffffffff8301811415612e0057848181518110612dcb57fe5b6020026020010151858381518110612ddf57fe5b6020026020010181815250506000915082600116600184901c019250612d86565b828110612e1c576000915082600116600184901c019250612d86565b612e4f858281518110612e2b57fe5b6020026020010151868360010181518110612e4257fe5b6020026020010151612571565b8551600184019387918110612e6057fe5b602002602001018181525050612d86565b84600081518110612e7e57fe5b60200260200101519350505050919050565b6060818067ffffffffffffffff81118015612eaa57600080fd5b50604051908082528060200260200182016040528015612ed4578160200160208202803683370190505b5091505b8015612f65577fffffffffffffffffffffffffffffffffffffffffffffffffffffffffffffffff016000848483818110612f0e57fe5b9050602002810190612f209190613cbd565b604051602001612f3293929190613703565b60405160208183030381529060405280519060200120828281518110612f5457fe5b602002602001018181525050612ed8565b5092915050565b8251600090819081808087878281612f8057fe5b60200291909101359485017fffffffffffffffffffffffffffffffffffffffffffffffffffffffffffffffff019491508190506000612fbe8261323b565b63ffffffff169050898982818110612fd257fe5b9050602002013597505b851561313f5784158015612ff35750816001166001145b1561308d5761301a8a8a8381811061300757fe5b905060200201358c8681518110612e4257fe5b8b60008151811061302757fe5b6020908102919091010152600193909301927fffffffffffffffffffffffffffffffffffffffffffffffffffffffffffffffff0180156130805761307d8a8a8381811061307057fe5b9050602002013589612571565b97505b60019450908401906130e8565b858210156130e8576130be8b85806001019650815181106130aa57fe5b60200260200101518c8681518110612e4257fe5b8b5160018701968d9181106130cf57fe5b6020026020010181815250506001840193506002820191505b85821061313a5785821415613124578a848151811061310357fe5b60200260200101518b868151811061311757fe5b6020026020010181815250505b600195861c95600095508594509290921c918291505b612fdc565b878b60008151811061314d57fe5b602002602001015197509750505050505050935093915050565b600080600061318b8585600081811061317c57fe5b9050602002013560001c61323b565b63ffffffff16905084848281811061319f57fe5b9050602002013592506131b28387612571565b95505b6001811115613212577fffffffffffffffffffffffffffffffffffffffffffffffffffffffffffffffff018484828181106131ec57fe5b9050602002013591506131ff8287612571565b955061320b8284612571565b92506131b5565b50909492505050565b6000816132315761322c8385612571565b612235565b6122358484612571565b600181901c6355555555169003600281901c6333333333908116911601600481901c630fffffff1601630f0f0f0f1663010101010260181c60ff1690565b60008083601f84011261328a578182fd5b50813567ffffffffffffffff8111156132a1578182fd5b60208301915083602080830285010111156132bb57600080fd5b9250929050565b60008083601f8401126132d3578182fd5b50813567ffffffffffffffff8111156132ea578182fd5b6020830191508360208285010111156132bb57600080fd5b600060208284031215613313578081fd5b81356123ac81613d48565b60008060008060808587031215613333578283fd5b843561333e81613d48565b966020860135965060408601359560600135945092505050565b60008060008060008060008060c0898b031215613373578384fd5b883561337e81613d48565b9750602089013567ffffffffffffffff8082111561339a578586fd5b6133a68c838d01613279565b909950975060408b0135965060608b0135955060808b01359150808211156133cc578485fd5b506133d98b828c01613279565b999c989b50969995989497949560a00135949350505050565b60008060008060808587031215613333578384fd5b60008060008060006060868803121561341e578081fd5b853567ffffffffffffffff80821115613435578283fd5b61344189838a01613279565b9097509550602088013594506040880135915080821115613460578283fd5b5061346d88828901613279565b969995985093965092949392505050565b600080600080600080600060a0888a031215613498578283fd5b873567ffffffffffffffff808211156134af578485fd5b6134bb8b838c01613279565b909950975060208a0135965060408a0135955060608a01359150808211156134e1578485fd5b506134ee8a828b01613279565b989b979a50959894979596608090950135949350505050565b600060208284031215613518578081fd5b5035919050565b600060208284031215613530578081fd5b5051919050565b6000806000806000806000806000806101008b8d031215613556578182fd5b8a35995060208b013567ffffffffffffffff80821115613574578384fd5b6135808e838f01613279565b909b50995060408d0135915080821115613598578384fd5b506135a58d828e01613279565b9b9e9a9d50989b989a9960608a0135996080810135995060a0810135985060c0810135975060e0013595509350505050565b600080602083850312156135e9578182fd5b823567ffffffffffffffff8111156135ff578283fd5b61360b858286016132c2565b90969095509350505050565b60008060008060006060868803121561362e578283fd5b853567ffffffffffffffff80821115613645578485fd5b61344189838a016132c2565b600080600080600080600060a0888a03121561366b578081fd5b873567ffffffffffffffff80821115613682578283fd5b61368e8b838c016132c2565b909950975060208a0135965060408a0135955060608a01359150808211156134e1578283fd5b600080600080606085870312156136c9578182fd5b843567ffffffffffffffff8111156136df578283fd5b6136eb878288016132c2565b90989097506020870135966040013595509350505050565b60007fff000000000000000000000000000000000000000000000000000000000000008516825282846001840137910160010190815292915050565b9283526020830191909152604082015260600190565b73ffffffffffffffffffffffffffffffffffffffff91909116815260200190565b90815260200190565b60006020825282602083015282846040840137818301604090810191909152601f9092017fffffffffffffffffffffffffffffffffffffffffffffffffffffffffffffffe0160101919050565b6020808252600a908201527f4e4f545f4c4f434b455200000000000000000000000000000000000000000000604082015260600190565b60208082526015908201527f494e53554646494349454e545f524f4c4c4241434b0000000000000000000000604082015260600190565b60208082526011908201527f524f4c4c4241434b5f5245515549524544000000000000000000000000000000604082015260600190565b60208082526010908201527f494e56414c49445f43414c4c4441544100000000000000000000000000000000604082015260600190565b60208082526013908201527f414c52454144595f494e495449414c495a454400000000000000000000000000604082015260600190565b60208082526012908201527f494e434f52524543545f43414c4c444154410000000000000000000000000000604082015260600190565b6020808252600d908201527f494e56414c49445f50524f4f4600000000000000000000000000000000000000604082015260600190565b60208082526010908201527f56414c49445f5452414e534954494f4e00000000000000000000000000000000604082015260600190565b6020808252600c908201527f494e56414c49445f545245450000000000000000000000000000000000000000604082015260600190565b6020808252600d908201527f494e56414c49445f524f4f545300000000000000000000000000000000000000604082015260600190565b6020808252600c908201527f494e56414c49445f53495a450000000000000000000000000000000000000000604082015260600190565b60208082526010908201527f4143434f554e545f554e4c4f434b454400000000000000000000000000000000604082015260600190565b60208082526014908201527f524f4c4c4241434b5f554e4e4543455353415259000000000000000000000000604082015260600190565b60208082526015908201527f494e53554646494349454e545f43414c4c444154410000000000000000000000604082015260600190565b60208082526011908201527f524f4c4c4241434b5f544f4f5f44454550000000000000000000000000000000604082015260600190565b60208082526014908201527f554e45585045435445445f554e444552464c4f57000000000000000000000000604082015260600190565b60208082526013908201527f494e53554646494349454e545f57494e444f5700000000000000000000000000604082015260600190565b60208082526010908201527f494e56414c49445f524f4c4c4241434b00000000000000000000000000000000604082015260600190565b6020808252600e908201527f4143434f554e545f4c4f434b4544000000000000000000000000000000000000604082015260600190565b60208082526011908201527f494e53554646494349454e545f54494d45000000000000000000000000000000604082015260600190565b60208082526014908201527f43414c4c45525f555345525f4d49534d41544348000000000000000000000000604082015260600190565b6020808252600c908201527f494e56414c49445f424f4e440000000000000000000000000000000000000000604082015260600190565b60208082526011908201527f494e53554646494349454e545f424f4e44000000000000000000000000000000604082015260600190565b60008083357fffffffffffffffffffffffffffffffffffffffffffffffffffffffffffffffe1843603018112613cf1578283fd5b83018035915067ffffffffffffffff821115613d0b578283fd5b6020019150368190038213156132bb57600080fd5b60008085851115613d2f578182fd5b83861115613d3b578182fd5b5050820193919092039150565b73ffffffffffffffffffffffffffffffffffffffff811681146105c457600080fdfea2646970667358221220ee8dcc6ce26db0f4c4d7e1604a521a2687d729eb06434c49dd688aafb09a77f564736f6c63430007030033",
  "immutableReferences": {
    "116": [
      {
        "length": 32,
        "start": 1759
      },
      {
        "length": 32,
        "start": 2467
      },
      {
        "length": 32,
        "start": 8326
      },
      {
        "length": 32,
        "start": 8912
      }
    ],
    "118": [
      {
        "length": 32,
        "start": 1572
      },
      {
        "length": 32,
        "start": 1723
      },
      {
        "length": 32,
        "start": 2935
      },
      {
        "length": 32,
        "start": 5963
      }
    ],
    "120": [
      {
        "length": 32,
        "start": 1120
      },
      {
        "length": 32,
        "start": 1166
      },
      {
        "length": 32,
        "start": 1303
      },
      {
        "length": 32,
        "start": 1928
      },
      {
        "length": 32,
        "start": 4707
      }
    ]
  },
  "source": "// SPDX-License-Identifier: MIT\n\npragma solidity >=0.6.0 <=0.7.3;\npragma experimental ABIEncoderV2;\n\nimport \"merkle-trees/eth/contracts/internal-merkle-library.sol\";\nimport \"./optimistic-roll-in-compatible.sol\";\n\n// TODO: perhaps a owner-controlled sighash whitelist for optimistically performing, and therefore a non-performing exit method\n// TODO: consider verifying being view, or some kind of forced \"come up for air\" mechanism\n// TODO: make required bond queryable\n// TODO: logic_address cannot be immutable if it will be upgradeable\n\ncontract Optimistic_Roll_In {\n  event ORI_New_State(address indexed user, bytes32 indexed new_state);\n  event ORI_New_Optimistic_State(address indexed user, uint256 indexed block_time);\n  event ORI_New_Optimistic_States(address indexed user, uint256 indexed block_time);\n  event ORI_Locked(address indexed suspect, address indexed accuser);\n  event ORI_Unlocked(address indexed suspect, address indexed accuser, uint256 indexed block_time);\n  event ORI_Fraud_Proven(address indexed accuser, address indexed suspect, uint256 indexed transition_index);\n  event ORI_Rolled_Back(address indexed user, uint256 indexed tree_size, uint256 indexed block_time);\n\n  Optimistic_Roll_In_Compatible public immutable logic_contract;\n  uint256 public immutable lock_time;\n  uint256 public immutable required_bond;\n\n  mapping(address => bytes32) public account_states;\n  mapping(address => uint256) public balances;\n  mapping(address => address) public lockers;\n  mapping(address => uint256) public locked_timestamps;\n  mapping(address => uint256) public rollback_sizes;\n\n  constructor(\n    address _logic_address,\n    uint256 _lock_time,\n    uint256 _required_bond\n  ) {\n    logic_contract = Optimistic_Roll_In_Compatible(_logic_address);\n    lock_time = _lock_time;\n    required_bond = _required_bond;\n  }\n\n  modifier initialized(address user) {\n    require(account_states[user] != bytes32(0), \"ALREADY_INITIALIZED\");\n    _;\n  }\n\n  modifier not_initialized(address user) {\n    require(account_states[user] == bytes32(0), \"ALREADY_INITIALIZED\");\n    _;\n  }\n\n  modifier not_locked(address user) {\n    require(lockers[user] == address(0), \"ACCOUNT_LOCKED\");\n    _;\n  }\n\n  modifier is_locked(address user) {\n    require(lockers[user] != address(0), \"ACCOUNT_UNLOCKED\");\n    _;\n  }\n\n  modifier no_rollback_required(address user) {\n    require(rollback_sizes[user] == 0, \"ROLLBACK_REQUIRED\");\n    _;\n  }\n\n  modifier can_exit_optimism(uint256 last_time) {\n    // Check that enough time has elapsed for potential fraud proofs (10 minutes)\n    require(last_time + lock_time < block.timestamp, \"INSUFFICIENT_TIME\");\n    _;\n  }\n\n  modifier sufficient_calldata(bytes[] calldata call_data) {\n    // Check that there is more than 1 call data (if not, user should have called perform_optimistically)\n    require(call_data.length > 1, \"INSUFFICIENT_CALLDATA\");\n    _;\n  }\n\n  modifier lock_expired(address user) {\n    require(locked_timestamps[user] + lock_time <= block.timestamp, \"INSUFFICIENT_WINDOW\");\n    _;\n  }\n\n  // Fallback to receive ETH and bond msg.value for msg.sender\n  receive() external payable {\n    apply_bond(msg.sender);\n  }\n\n  // Bonds amount for user, and reverts if resulting balance less than 1 ETH\n  function apply_bond(address user) internal returns (uint256 remainder) {\n    if (balances[user] == required_bond) return msg.value;\n\n    require(msg.value >= required_bond, \"INSUFFICIENT_BOND\");\n\n    balances[user] = required_bond;\n    return msg.value - required_bond;\n  }\n\n  // Bonds msg.value for user\n  function bond(address user) external payable {\n    require(apply_bond(user) == 0, \"INVALID_BOND\");\n  }\n\n  // Sets user's account state to starting point, and bonds msg.value\n  function initialize() external payable not_initialized(msg.sender) {\n    address user = msg.sender;\n    uint256 remainder = apply_bond(user);\n\n    // call the initializer, passing any remaining amount and get initial state (S_0)\n    bytes32 initial_state = logic_contract.initialize_state{ value: remainder }(user);\n\n    // Set account state to combination of empty call data tree, initial state (S_0), and last time of 0 (not in optimism)\n    account_states[user] = keccak256(abi.encodePacked(bytes32(0), initial_state, bytes32(0)));\n\n    emit ORI_New_State(user, initial_state);\n  }\n\n  // Allows unbonding of ETH if account not locked (clears account state)\n  function unbond(address payable destination) external not_locked(msg.sender) {\n    address user = msg.sender;\n    uint256 amount = balances[user];\n    balances[user] = 0;\n    account_states[user] = bytes32(0);\n    destination.transfer(amount);\n  }\n\n  // Withdraws entire balance if no account state, or all minus bond if an account state exists\n  function withdraw(address payable destination) external not_locked(msg.sender) {\n    address user = msg.sender;\n    bool account_exists = account_states[user] != bytes32(0);\n    uint256 account_balance = balances[user];\n    uint256 amount = account_exists ? account_balance - required_bond : account_balance;\n\n    // Check for underflow\n    require(amount <= account_balance, \"UNEXPECTED_UNDERFLOW\");\n\n    balances[user] = account_balance - amount;\n    destination.transfer(amount);\n  }\n\n  // Allows unbonding of all user's ETH balance if account has or can have non-optimistic state\n  function archive(\n    address payable destination,\n    bytes32 call_data_root,\n    bytes32 state,\n    uint256 last_time\n  ) external not_locked(msg.sender) can_exit_optimism(last_time) {\n    address user = msg.sender;\n\n    // Check that the user it not in an optimistic state, which means that their account state is\n    // a call data tree, current state (S_n), and the last block\n    require(\n      keccak256(abi.encodePacked(call_data_root, state, bytes32(last_time))) == account_states[user],\n      \"INVALID_ROOTS\"\n    );\n\n    // Set the account state to an empty call data tree, current state (S_n), and last time 0\n    account_states[user] = keccak256(abi.encodePacked(bytes32(0), state, bytes32(0)));\n\n    // Make user their own locker, requiring them to unlock if they wish to unarchive\n    lockers[user] = user;\n    \n    uint256 amount = balances[user];\n    balances[user] = 0;\n    destination.transfer(amount);\n  }\n\n  // Bonds msg.value for user of an archived account (that they have locked)\n  function unarchive() is_locked(msg.sender) external payable {\n    address user = msg.sender;\n\n    require(apply_bond(user) == 0, \"INVALID_BOND\");\n\n    lockers[user] = address(0);\n  }\n\n  // Returns true if calling the logic contract with the call data results in new state\n  function verify_transition(\n    address user,\n    bytes calldata call_data,\n    bytes32 new_state\n  ) internal view returns (bool) {\n    // Check that the user is the user extracted from calldata (20 bytes starting after the function signature)\n    if (user != abi.decode(call_data[4:], (address))) return false;\n\n    // Compute a new state\n    try logic_contract.optimistic_call(call_data) returns (bytes32 state) {\n      return state == new_state;\n    } catch {\n      return false;\n    }\n  }\n\n  // Calls logic contract and updates account state\n  function normal_perform(\n    address caller,\n    bytes calldata call_data,\n    bytes32 call_data_root,\n    uint256 last_time\n  ) internal not_locked(caller) {\n    // Check that the caller is the user extracted from calldata (20 bytes starting after the function signature)\n    require(caller == abi.decode(call_data[4:], (address)), \"CALLER_USER_MISMATCH\");\n\n    // Extract current state (S_n or S_0) from calldata (32 bytes starting after the sig and user)\n    bytes32 state = abi.decode(call_data[36:], (bytes32));\n\n    // Check that the user it not in an optimistic state, which means that their account state is\n    // a call data tree, current state (S_n or S_0), and the last block is 0\n    require(\n      keccak256(abi.encodePacked(call_data_root, state, bytes32(last_time))) == account_states[caller],\n      \"INVALID_ROOTS\"\n    );\n\n    // Compute a new state (S_n+1 or S_1), reusing the state variable\n    state = logic_contract.pessimistic_call{ value: msg.value }(call_data);\n\n    // Set the account state to an empty call data tree, the new state (S_n+1 or S_1), and last time 0\n    account_states[caller] = keccak256(abi.encodePacked(bytes32(0), state, bytes32(0)));\n\n    emit ORI_New_State(caller, state);\n  }\n\n  // Set the account state to the on-chain computed new state, if the account is not locked\n  function perform(bytes calldata call_data) external payable {\n    normal_perform(msg.sender, call_data, bytes32(0), 0);\n  }\n\n  // Exits optimism by setting the account state to the on-chain computed new state, if the account is not locked\n  function perform_and_exit(\n    bytes calldata call_data,\n    bytes32 call_data_root,\n    uint256 last_time\n  ) external payable no_rollback_required(msg.sender) can_exit_optimism(last_time) {\n    normal_perform(msg.sender, call_data, call_data_root, last_time);\n  }\n\n  // Updates account state with optimistic transition data\n  function optimistic_perform(\n    address caller,\n    bytes calldata call_data,\n    bytes32 new_state,\n    bytes32 call_data_root,\n    bytes32[] calldata proof,\n    uint256 last_time\n  ) internal not_locked(caller) {\n    // Extract current state (S_0) from call data (32 bytes starting after sig and user)\n    bytes32 state = abi.decode(call_data[36:], (bytes32));\n\n    // Check that the user it not in an optimistic state, which means that their account state is\n    // a call data tree, current state (S_0), and the last block\n    require(\n      keccak256(abi.encodePacked(call_data_root, state, bytes32(last_time))) == account_states[caller],\n      \"INVALID_ROOTS\"\n    );\n\n    // Get root of new merkle tree with 1 call data element (CD_0), reusing state as call_data_root\n    state = Internal_Merkle_Library.try_append_one_c(call_data_root, call_data, proof);\n\n    // Combine call data root, new state (S_1), and current time into account state\n    account_states[caller] = keccak256(abi.encodePacked(state, new_state, bytes32(block.timestamp)));\n\n    emit ORI_New_Optimistic_State(caller, block.timestamp);\n  }\n\n  // Enters optimism by updating the account state optimistically with call data and a new state, if the account is not locked\n  function perform_optimistically_and_enter(\n    bytes calldata call_data,\n    bytes32 new_state,\n    bytes32[] calldata proof\n  ) external {\n    optimistic_perform(msg.sender, call_data, new_state, bytes32(0), proof, 0);\n  }\n\n  // Updates the account state optimistically with call data and a new state, if the account is not locked\n  function perform_optimistically(\n    bytes calldata call_data,\n    bytes32 new_state,\n    bytes32 call_data_root,\n    bytes32[] calldata proof,\n    uint256 last_time\n  ) external {\n    optimistic_perform(msg.sender, call_data, new_state, call_data_root, proof, last_time);\n  }\n\n  // Updates account state with optimistic batch transition data\n  function optimistic_perform_many(\n    address user,\n    bytes[] calldata call_data,\n    bytes32 new_state,\n    bytes32 call_data_root,\n    bytes32[] calldata proof,\n    uint256 last_time\n  ) internal not_locked(user) sufficient_calldata(call_data) {\n    // Extract current state (S_n) from first call data (32 bytes starting after sig and user)\n    bytes32 state = abi.decode(call_data[0][36:], (bytes32));\n\n    // Check that the call data root, current state (S_n), and last time are valid for this user\n    require(\n      keccak256(abi.encodePacked(call_data_root, state, bytes32(last_time))) == account_states[user],\n      \"INVALID_ROOTS\"\n    );\n\n    // Get new merkle root of call data tree, appending several call data (CD_n - CD_n+m), reusing state as call_data_root\n    state = Internal_Merkle_Library.try_append_many_c(call_data_root, call_data, proof);\n\n    // Combine call data root, new state (S_n+m), and current time into account state\n    account_states[user] = keccak256(abi.encodePacked(state, new_state, bytes32(block.timestamp)));\n\n    emit ORI_New_Optimistic_States(user, block.timestamp);\n  }\n\n  // Enters optimism by updating the account state optimistically with several call data and final state, if the account is not locked\n  function perform_many_optimistically_and_enter(\n    bytes[] calldata call_data,\n    bytes32 new_state,\n    bytes32[] calldata proof\n  ) external {\n    optimistic_perform_many(msg.sender, call_data, new_state, bytes32(0), proof, 0);\n  }\n\n  // Updates the account state optimistically with several call data and final state, if the account is not locked\n  function perform_many_optimistically(\n    bytes[] calldata call_data,\n    bytes32 new_state,\n    bytes32 call_data_root,\n    bytes32[] calldata proof,\n    uint256 last_time\n  ) external {\n    optimistic_perform_many(msg.sender, call_data, new_state, call_data_root, proof, last_time);\n  }\n\n  // Lock two users (suspect and accuser)\n  // Note: accuser and suspect cannot already be locked, but this might have to change so a single accuser isn't overwhelmed with fraud\n  function lock(address suspect) external payable not_locked(msg.sender) not_locked(suspect) {\n    address accuser = msg.sender;\n\n    // Lock both the accuser and the suspect\n    lockers[suspect] = accuser;\n    locked_timestamps[suspect] = block.timestamp;\n    lockers[accuser] = accuser;\n    locked_timestamps[accuser] = block.timestamp;\n\n    // The accuser may be trying to bond at the same time (this also check that have enough bonded)\n    require(apply_bond(accuser) == 0, \"INVALID_BOND\");\n\n    emit ORI_Locked(suspect, accuser);\n  }\n\n  // Unlock two users (suspect and accuser)\n  function unlock(\n    address suspect,\n    bytes32 state,\n    bytes32 call_data_root,\n    uint256 last_time\n  ) external is_locked(suspect) lock_expired(suspect) no_rollback_required(suspect) {\n    // Check that the call data root, current state (S_n), and last time are valid for this user\n    require(\n      keccak256(abi.encodePacked(call_data_root, state, bytes32(last_time))) == account_states[suspect],\n      \"INVALID_ROOTS\"\n    );\n\n    // Unlock both accounts\n    address accuser = lockers[suspect];\n    lockers[suspect] = address(0);\n    locked_timestamps[suspect] = 0;\n    lockers[accuser] = address(0);\n    locked_timestamps[accuser] = 0;\n\n    // Give the suspect the accuser's bond for having not proven fraud within a reasonable time frame\n    // TODO: consider burning some here to prevent self-reporting breakeven\n    uint256 amount = balances[accuser];\n    balances[accuser] = 0;\n    balances[suspect] += amount;\n\n    // If suspect was not in optimistic state, then just emit event and return\n    if (last_time == 0) {\n      emit ORI_Unlocked(suspect, accuser, 0);\n      return;\n    }\n\n    // Combine call data root, current state (S_n), and current time into account state\n    // Note: updating last time is important, to prevent suspect blocking fraud proofs by locking themselves\n    account_states[suspect] = keccak256(abi.encodePacked(call_data_root, state, bytes32(block.timestamp)));\n\n    emit ORI_Unlocked(suspect, accuser, block.timestamp);\n  }\n\n  // Reward accuser for proving fraud in a suspect's transition, and track the expected rolled back account state size\n  function prove_fraud(\n    address suspect,\n    bytes[] calldata call_data,\n    bytes32 state,\n    bytes32 call_data_root,\n    bytes32[] calldata proof,\n    uint256 last_time\n  ) external is_locked(suspect) {\n    address accuser = msg.sender;\n\n    // Only the user that flagged/locked the suspect can prove fraud\n    require(lockers[suspect] == accuser, \"NOT_LOCKER\");\n\n    // Check that the call data root, current state (S_n), and last time are valid for this user\n    require(\n      keccak256(abi.encodePacked(call_data_root, state, bytes32(last_time))) == account_states[suspect],\n      \"INVALID_ROOTS\"\n    );\n\n    // Check that the call data exist\n    require(Internal_Merkle_Library.elements_exist_c(call_data_root, call_data, proof), \"INVALID_CALLDATA\");\n\n    // get the indices of the call data in the call data tre\n    uint256[] memory call_data_indices = Internal_Merkle_Library.get_indices(call_data, proof);\n\n    // The transition index is the index of the starting call data of the fraud proof\n    uint256 transition_index = call_data_indices[0];\n\n    // If only one call data is provided, the fraud involves the last call data and current state\n    if (call_data.length == 1) {\n      // Check that the call data index is the last (call data tree size minus 1)\n      require(transition_index + 1 == uint256(proof[0]), \"INCORRECT_CALLDATA\");\n\n      // Fail if the state transition was valid\n      require(verify_transition(suspect, call_data[0], state) == false, \"VALID_TRANSITION\");\n    } else {\n      // Check that call data provided are consecutive\n      require(transition_index + 1 == call_data_indices[1]);\n\n      // Extract new state from second call data (32 bytes starting after the sig and user), reusing state var\n      state = abi.decode(call_data[1][36:], (bytes32));\n\n      // Fail if the state transition was valid\n      require(verify_transition(suspect, call_data[0], state) == false, \"VALID_TRANSITION\");\n    }\n\n    // Take the suspect's bond and give it to the accuser, reusing last_time var\n    // TODO: consider burning some here to prevent self-reporting breakeven\n    last_time = balances[suspect];\n    balances[suspect] = 0;\n    balances[accuser] += last_time;\n\n    // Unlock the accuser's account\n    lockers[accuser] = address(0);\n    locked_timestamps[accuser] = 0;\n\n    // Set the rollback size to the amount of elements that should be in the call data tree once rolled back\n    rollback_sizes[suspect] = transition_index;\n\n    // Set the suspect as the reason for their account's lock\n    lockers[suspect] = suspect;\n    locked_timestamps[suspect] = 0;\n\n    emit ORI_Fraud_Proven(accuser, suspect, transition_index);\n  }\n\n  // Rolls a user back, given the current roots, old roots, and a proof of the optimistic transitions between them\n  function rollback(\n    bytes32 rolled_back_call_data_root,\n    bytes[] calldata rolled_back_call_data,\n    bytes32[] calldata roll_back_proof,\n    uint256 current_size,\n    bytes32 current_size_proof,\n    bytes32 call_data_root,\n    bytes32 state,\n    uint256 last_time\n  ) external payable {\n    address user = msg.sender;\n    uint256 expected_size = rollback_sizes[user];\n    require(expected_size != 0, \"ROLLBACK_UNNECESSARY\");\n\n    // Check that the call data root, current state (S_n), and last time are valid for this user\n    require(\n      keccak256(abi.encodePacked(call_data_root, state, bytes32(last_time))) == account_states[user],\n      \"INVALID_ROOTS\"\n    );\n\n    // Check that the provided size of the current call data tree is correct\n    require(Internal_Merkle_Library.verify_size(call_data_root, current_size, current_size_proof), \"INVALID_SIZE\");\n\n    // Allow incremental roll back by checking that the rolled back call data tree is smaller than the current tree\n    uint256 rolled_back_size = uint256(roll_back_proof[0]);\n    require(rolled_back_size < current_size, \"INSUFFICIENT_ROLLBACK\");\n\n    // Check that this is not rolling back too far, though\n    require(rolled_back_size >= expected_size, \"ROLLBACK_TOO_DEEP\");\n\n    // Check that the current call data root is derived by appending the rolled back call data to the rolled back call data root\n    require(\n      Internal_Merkle_Library.try_append_many_c(rolled_back_call_data_root, rolled_back_call_data, roll_back_proof) ==\n        call_data_root,\n      \"INVALID_ROLLBACK\"\n    );\n\n    // Extract new state from first rolled back call data (32 bytes starting after the sig and user), reusing state var\n    state = abi.decode(rolled_back_call_data[0][36:], (bytes32));\n\n    // Combine rolled back call data root, new state (S_n-m), and current time into account state\n    account_states[user] = keccak256(abi.encodePacked(rolled_back_call_data_root, state, bytes32(block.timestamp)));\n\n    // Unlock the user and clear the rollback flag, if roll back is complete\n    if (rolled_back_size == expected_size) {\n      lockers[user] = address(0);\n      rollback_sizes[user] = 0;\n    }\n\n    // The user may be trying to bond at the same time (this also check that have enough bonded)\n    require(apply_bond(user) == 0, \"INVALID_BOND\");\n\n    emit ORI_Rolled_Back(user, rolled_back_size, block.timestamp);\n  }\n}\n",
  "sourcePath": "/Users/michaeldeluca/Projects/optimistic-roll-in/eth/contracts/optimistic-roll-in.sol",
  "compiler": {
    "name": "solc",
    "version": "0.7.3+commit.9bfce1f6.Emscripten.clang"
  },
  "schemaVersion": "3.3.2",
  "updatedAt": "2020-12-11T10:00:43.252Z",
  "networkType": "ethereum",
  "devdoc": {
    "kind": "dev",
    "methods": {},
    "version": 1
  },
  "userdoc": {
    "kind": "user",
    "methods": {},
    "version": 1
  }
}