{
  "contractName": "Some_Logic_Contract",
  "abi": [
    {
      "anonymous": false,
      "inputs": [
        {
          "indexed": false,
          "internalType": "bytes32",
          "name": "data",
          "type": "bytes32"
        }
      ],
      "name": "Impure_Transition",
      "type": "event"
    },
    {
      "inputs": [
        {
          "internalType": "address",
          "name": "user",
          "type": "address"
        }
      ],
      "name": "initialize_state",
      "outputs": [
        {
          "internalType": "bytes32",
          "name": "",
          "type": "bytes32"
        }
      ],
      "stateMutability": "payable",
      "type": "function",
      "payable": true
    },
    {
      "inputs": [
        {
          "internalType": "bytes",
          "name": "call_data",
          "type": "bytes"
        }
      ],
      "name": "optimistic_entry_point",
      "outputs": [
        {
          "internalType": "bytes32",
          "name": "new_state",
          "type": "bytes32"
        }
      ],
      "stateMutability": "view",
      "type": "function",
      "constant": true
    },
    {
      "inputs": [
        {
          "internalType": "bytes",
          "name": "call_data",
          "type": "bytes"
        }
      ],
      "name": "pessimistic_entry_point",
      "outputs": [
        {
          "internalType": "bytes32",
          "name": "new_state",
          "type": "bytes32"
        }
      ],
      "stateMutability": "payable",
      "type": "function",
      "payable": true
    },
    {
      "inputs": [
        {
          "internalType": "address",
          "name": "user",
          "type": "address"
        },
        {
          "internalType": "bytes32",
          "name": "current_state",
          "type": "bytes32"
        },
        {
          "internalType": "bytes32",
          "name": "some_arg",
          "type": "bytes32"
        }
      ],
      "name": "some_pure_transition",
      "outputs": [
        {
          "internalType": "bytes32",
          "name": "",
          "type": "bytes32"
        }
      ],
      "stateMutability": "pure",
      "type": "function",
      "constant": true
    },
    {
      "inputs": [
        {
          "internalType": "address",
          "name": "user",
          "type": "address"
        },
        {
          "internalType": "bytes32",
          "name": "current_state",
          "type": "bytes32"
        },
        {
          "internalType": "bytes32",
          "name": "some_arg",
          "type": "bytes32"
        }
      ],
      "name": "some_impure_transition",
      "outputs": [
        {
          "internalType": "bytes32",
          "name": "new_state",
          "type": "bytes32"
        }
      ],
      "stateMutability": "payable",
      "type": "function",
      "payable": true
    }
  ],
  "bytecode": "0x608060405234801561001057600080fd5b50610917806100206000396000f3fe60806040526004361061005a5760003560e01c8063816ef0b611610043578063816ef0b61461009b578063a27f4a3e146100ae578063ef6f6a42146100ce5761005a565b80633f65f1711461005f5780637ed3068914610088575b600080fd5b61007261006d366004610697565b6100ee565b60405161007f91906107c5565b60405180910390f35b61007261009636600461062c565b610249565b6100726100a936600461064d565b6102bc565b3480156100ba57600080fd5b506100726100c9366004610697565b61034f565b3480156100da57600080fd5b506100726100e936600461064d565b610480565b6000806100fb8484610516565b90507f816ef0b6000000000000000000000000000000000000000000000000000000007fffffffff00000000000000000000000000000000000000000000000000000000821614610181576040517f08c379a000000000000000000000000000000000000000000000000000000000815260040161017890610873565b60405180910390fd5b600060603073ffffffffffffffffffffffffffffffffffffffff163487876040516101ad9291906107b5565b60006040518083038185875af1925050503d80600081146101ea576040519150601f19603f3d011682016040523d82523d6000602084013e6101ef565b606091505b50915091508161022b576040517f08c379a0000000000000000000000000000000000000000000000000000000008152600401610178906108aa565b8080602001905181019061023f919061067f565b9695505050505050565b60006706f05b59d3b2000034101561028d576040517f08c379a000000000000000000000000000000000000000000000000000000000815260040161017890610805565b8160405160200161029e9190610704565b6040516020818303038152906040528051906020012090505b919050565b6040517fffffffffffffffffffffffffffffffffffffffffffffffffffffffffffffffff430140907f1fdf57a7aa589b03313e245649cc4692a47de92b1968dfa2bc236d1f3d808383906103119083906107c5565b60405180910390a1828483836040516020016103309493929190610767565b6040516020818303038152906040528051906020012090509392505050565b60008061035c8484610516565b90507fef6f6a42000000000000000000000000000000000000000000000000000000007fffffffff000000000000000000000000000000000000000000000000000000008216146103d9576040517f08c379a0000000000000000000000000000000000000000000000000000000008152600401610178906107ce565b600060603073ffffffffffffffffffffffffffffffffffffffff1686866040516104049291906107b5565b600060405180830381855afa9150503d806000811461043f576040519150601f19603f3d011682016040523d82523d6000602084013e610444565b606091505b50915091508161022b576040517f08c379a00000000000000000000000000000000000000000000000000000000081526004016101789061083c565b60008284604051602001610495929190610734565b60405160208183030381529060405280519060200120925060005b6103e881101561050d5783836040516020016104cd9291906107a7565b604080517fffffffffffffffffffffffffffffffffffffffffffffffffffffffffffffffe0818403018152919052805160209091012093506001016104b0565b50919392505050565b600060188383600381811061052757fe5b909101357fff000000000000000000000000000000000000000000000000000000000000001690911c905060108484600281811061056157fe5b909101357fff000000000000000000000000000000000000000000000000000000000000001690911c905060088585600181811061059b57fe5b909101357fff000000000000000000000000000000000000000000000000000000000000001690911c905085856000816105d157fe5b9050013560f81c60f81b7effffffffffffffffffffffffffffffffffffffffffffffffffffffffffffff1916171717905092915050565b803573ffffffffffffffffffffffffffffffffffffffff811681146102b757600080fd5b60006020828403121561063d578081fd5b61064682610608565b9392505050565b600080600060608486031215610661578182fd5b61066a84610608565b95602085013595506040909401359392505050565b600060208284031215610690578081fd5b5051919050565b600080602083850312156106a9578182fd5b823567ffffffffffffffff808211156106c0578384fd5b818501915085601f8301126106d3578384fd5b8135818111156106e1578485fd5b8660208285010111156106f2578485fd5b60209290920196919550909350505050565b60609190911b7fffffffffffffffffffffffffffffffffffffffff00000000000000000000000016815260140190565b91825260601b7fffffffffffffffffffffffffffffffffffffffff00000000000000000000000016602082015260340190565b93845260609290921b7fffffffffffffffffffffffffffffffffffffffff0000000000000000000000001660208401526034830152605482015260740190565b918252602082015260400190565b6000828483379101908152919050565b90815260200190565b60208082526017908201527f494e56414c49445f4f5054494d49535449435f43414c4c000000000000000000604082015260600190565b60208082526014908201527f494e53554646494349454e545f4445504f534954000000000000000000000000604082015260600190565b60208082526012908201527f5354415449435f43414c4c5f4641494c45440000000000000000000000000000604082015260600190565b60208082526018908201527f494e56414c49445f50455353494d49535449435f43414c4c0000000000000000604082015260600190565b6020808252600b908201527f43414c4c5f4641494c454400000000000000000000000000000000000000000060408201526060019056fea264697066735822122022b36203ceab3e5d1c0c011d9749df4864194a2d184ffc0eebc0993bfe7df8b664736f6c63430007030033",
  "immutableReferences": {},
  "source": "// SPDX-License-Identifier: MIT\n\npragma solidity >=0.6.0 <=0.7.3;\npragma experimental ABIEncoderV2;\n\nimport \"./optimistic-roll-in-compatible.sol\";\n\n// TODO: Build a Logic Proxy that checks and embeds the version of the state, and directs to other contracts\n\ncontract Some_Logic_Contract is Optimistic_Roll_In_Compatible {\n  event Impure_Transition(bytes32 data);\n\n  function get_selector(bytes calldata call_data) internal pure returns (bytes4) {\n    return call_data[0] | (bytes4(call_data[1]) >> 8) | (bytes4(call_data[2]) >> 16) | (bytes4(call_data[3]) >> 24);\n  }\n\n  function initialize_state(address user) external payable override returns (bytes32) {\n    require(msg.value >= 500000000000000000, \"INSUFFICIENT_DEPOSIT\");\n    return keccak256(abi.encodePacked(user));\n  }\n\n  function optimistic_entry_point(bytes calldata call_data) external view override returns (bytes32 new_state) {\n    bytes4 selector = get_selector(call_data);\n    require(selector == 0xef6f6a42, \"INVALID_OPTIMISTIC_CALL\");\n\n    // Call (staticcall) local function\n    // TODO: jump or low level function call would be more efficient\n    (bool success, bytes memory state_bytes) = address(this).staticcall(call_data);\n    require(success, \"STATIC_CALL_FAILED\");\n\n    // Decode returned new_state\n    new_state = abi.decode(state_bytes, (bytes32));\n  }\n\n  function pessimistic_entry_point(bytes calldata call_data) external payable override returns (bytes32 new_state) {\n    bytes4 selector = get_selector(call_data);\n    require(selector == 0x816ef0b6, \"INVALID_PESSIMISTIC_CALL\");\n\n    // Call (staticcall) local function\n    // TODO: jump or low level function call would be more efficient\n    (bool success, bytes memory state_bytes) = address(this).call{ value: msg.value }(call_data);\n    require(success, \"CALL_FAILED\");\n\n    // Decode returned new_state\n    new_state = abi.decode(state_bytes, (bytes32));\n  }\n\n  function some_pure_transition(\n    address user,\n    bytes32 current_state,\n    bytes32 some_arg\n  ) external pure returns (bytes32) {\n    // Just do some expensive work for the sake of the proof of concept\n    current_state = keccak256(abi.encodePacked(current_state, user));\n\n    for (uint256 i; i < 1000; ++i) {\n      current_state = keccak256(abi.encodePacked(current_state, some_arg));\n    }\n\n    return current_state;\n  }\n\n  function some_impure_transition(\n    address user,\n    bytes32 current_state,\n    bytes32 some_arg\n  ) external payable returns (bytes32 new_state) {\n    // Just do some impure work for the sake of the proof of concept\n    new_state = blockhash(block.number - 1);\n    emit Impure_Transition(new_state);\n\n    return keccak256(abi.encodePacked(current_state, user, some_arg, new_state));\n  }\n}\n",
  "sourcePath": "/Users/michaeldeluca/Projects/optimistic-roll-in/eth/contracts/some-logic-contract.sol",
  "compiler": {
    "name": "solc",
    "version": "0.7.3+commit.9bfce1f6.Emscripten.clang"
  },
  "schemaVersion": "3.3.1",
  "updatedAt": "2020-11-03T07:32:27.990Z",
  "networkType": "ethereum",
  "devdoc": {
    "kind": "dev",
    "methods": {},
    "version": 1
  },
  "userdoc": {
    "kind": "user",
    "methods": {},
    "version": 1
  }
}