{
  "contractName": "Some_Logic_Contract",
  "abi": [
    {
      "inputs": [],
      "name": "initialize_state",
      "outputs": [
        {
          "internalType": "bytes32",
          "name": "",
          "type": "bytes32"
        }
      ],
      "stateMutability": "payable",
      "type": "function"
    },
    {
      "inputs": [
        {
          "internalType": "bytes32",
          "name": "current_state",
          "type": "bytes32"
        },
        {
          "internalType": "bytes32",
          "name": "some_arg",
          "type": "bytes32"
        }
      ],
      "name": "some_pure_transition",
      "outputs": [
        {
          "internalType": "bytes32",
          "name": "",
          "type": "bytes32"
        }
      ],
      "stateMutability": "pure",
      "type": "function"
    }
  ],
  "bytecode": "0x608060405234801561001057600080fd5b506101cd806100206000396000f3fe6080604052600436106100295760003560e01c8063052f1ef01461002e578063268a690d14610064575b600080fd5b34801561003a57600080fd5b5061004e610049366004610128565b61006c565b60405161005b9190610157565b60405180910390f35b61004e6100d5565b6000805b6103e88110156100cd57838360405160200161008d929190610149565b604080517fffffffffffffffffffffffffffffffffffffffffffffffffffffffffffffffe081840301815291905280516020909101209350600101610070565b509192915050565b60006706f05b59d3b20000341015610122576040517f08c379a000000000000000000000000000000000000000000000000000000000815260040161011990610160565b60405180910390fd5b50600090565b6000806040838503121561013a578182fd5b50508035926020909101359150565b918252602082015260400190565b90815260200190565b60208082526014908201527f494e53554646494349454e545f4445504f53495400000000000000000000000060408201526060019056fea2646970667358221220b13e6983cd892f4179cd11553bdd39af04c9e8d4659398e8d698aff6a3c91a6864736f6c63430007030033",
  "immutableReferences": {},
  "source": "// SPDX-License-Identifier: MIT\n\npragma solidity >=0.6.0 <=0.7.3;\npragma experimental ABIEncoderV2;\n\n// TODO: Build a Logic Proxy that checks and embeds the version of the state, and directs to other contracts\n\ncontract Some_Logic_Contract {\n  function initialize_state() external payable returns (bytes32) {\n    require(msg.value >= 500000000000000000, \"INSUFFICIENT_DEPOSIT\");\n    return bytes32(0);\n  }\n\n  function some_pure_transition(bytes32 current_state, bytes32 some_arg) external pure returns (bytes32) {\n    // Just do some expensive work for the sake of the proof of concept\n    for (uint256 i; i < 1000; ++i) {\n      current_state = keccak256(abi.encodePacked(current_state, some_arg));\n    }\n\n    return current_state;\n  }\n}\n",
  "sourcePath": "/Users/michaeldeluca/Projects/optimistic-roll-in/eth/contracts/some-logic-contract.sol",
  "compiler": {
    "name": "solc",
    "version": "0.7.3+commit.9bfce1f6.Emscripten.clang"
  },
  "schemaVersion": "3.3.1",
  "updatedAt": "2020-10-21T19:46:22.229Z",
  "devdoc": {
    "kind": "dev",
    "methods": {},
    "version": 1
  },
  "userdoc": {
    "kind": "user",
    "methods": {},
    "version": 1
  }
}