{
  "contractName": "Some_Logic_Contract",
  "abi": [
    {
      "inputs": [],
      "name": "get_initial_state",
      "outputs": [
        {
          "internalType": "bytes32",
          "name": "",
          "type": "bytes32"
        }
      ],
      "stateMutability": "pure",
      "type": "function"
    },
    {
      "inputs": [
        {
          "internalType": "bytes32",
          "name": "current_state",
          "type": "bytes32"
        },
        {
          "internalType": "bytes32",
          "name": "some_arg",
          "type": "bytes32"
        }
      ],
      "name": "some_pure_transition",
      "outputs": [
        {
          "internalType": "bytes32",
          "name": "",
          "type": "bytes32"
        }
      ],
      "stateMutability": "pure",
      "type": "function"
    }
  ],
  "bytecode": "0x608060405234801561001057600080fd5b50610148806100206000396000f3fe608060405234801561001057600080fd5b50600436106100365760003560e01c8063052f1ef01461003b5780631e58e62514610064575b600080fd5b61004e6100493660046100da565b61006c565b60405161005b9190610109565b60405180910390f35b61004e6100d5565b6000805b6103e88110156100cd57838360405160200161008d9291906100fb565b604080517fffffffffffffffffffffffffffffffffffffffffffffffffffffffffffffffe081840301815291905280516020909101209350600101610070565b509192915050565b600090565b600080604083850312156100ec578182fd5b50508035926020909101359150565b918252602082015260400190565b9081526020019056fea2646970667358221220a5c8d9ddc025498cb6a66b30eba8c4a92501568c8391675ee8443a1f83bb5a2964736f6c63430007030033",
  "immutableReferences": {},
  "source": "// SPDX-License-Identifier: MIT\n\npragma solidity >=0.6.0 <=0.7.3;\npragma experimental ABIEncoderV2;\n\n// TODO: Build a Logic Proxy that checks and embeds the version of the state, and directs to other contracts\n\ncontract Some_Logic_Contract {\n  function get_initial_state() external pure returns (bytes32) {\n    return bytes32(0);\n  }\n\n  function some_pure_transition(bytes32 current_state, bytes32 some_arg) external pure returns (bytes32) {\n    // Just do some expensive work for the sake of the proof of concept\n    for (uint256 i; i < 1000; ++i) {\n      current_state = keccak256(abi.encodePacked(current_state, some_arg));\n    }\n\n    return current_state;\n  }\n}\n",
  "sourcePath": "/Users/michaeldeluca/Projects/optimistic-roll-in/eth/contracts/some-logic-contract.sol",
  "compiler": {
    "name": "solc",
    "version": "0.7.3+commit.9bfce1f6.Emscripten.clang"
  },
  "schemaVersion": "3.3.1",
  "updatedAt": "2020-10-20T20:01:30.644Z",
  "devdoc": {
    "kind": "dev",
    "methods": {},
    "version": 1
  },
  "userdoc": {
    "kind": "user",
    "methods": {},
    "version": 1
  }
}