{
  "contractName": "Some_Logic_Contract",
  "abi": [
    {
      "inputs": [
        {
          "internalType": "address",
          "name": "user",
          "type": "address"
        }
      ],
      "name": "initialize_state",
      "outputs": [
        {
          "internalType": "bytes32",
          "name": "",
          "type": "bytes32"
        }
      ],
      "stateMutability": "payable",
      "type": "function",
      "payable": true
    },
    {
      "inputs": [
        {
          "internalType": "address",
          "name": "user",
          "type": "address"
        },
        {
          "internalType": "bytes32",
          "name": "current_state",
          "type": "bytes32"
        },
        {
          "internalType": "bytes32",
          "name": "some_arg",
          "type": "bytes32"
        }
      ],
      "name": "some_pure_transition",
      "outputs": [
        {
          "internalType": "bytes32",
          "name": "",
          "type": "bytes32"
        }
      ],
      "stateMutability": "pure",
      "type": "function",
      "constant": true
    }
  ],
  "bytecode": "0x608060405234801561001057600080fd5b506102e7806100206000396000f3fe6080604052600436106100295760003560e01c80637ed306891461002e578063ef6f6a4214610057575b600080fd5b61004161003c3660046101ad565b610077565b60405161004e9190610271565b60405180910390f35b34801561006357600080fd5b506100416100723660046101ce565b6100f3565b60006706f05b59d3b200003410156100c4576040517f08c379a00000000000000000000000000000000000000000000000000000000081526004016100bb9061027a565b60405180910390fd5b816040516020016100d59190610200565b6040516020818303038152906040528051906020012090505b919050565b60008284604051602001610108929190610230565b60405160208183030381529060405280519060200120925060005b6103e8811015610180578383604051602001610140929190610263565b604080517fffffffffffffffffffffffffffffffffffffffffffffffffffffffffffffffe081840301815291905280516020909101209350600101610123565b50919392505050565b803573ffffffffffffffffffffffffffffffffffffffff811681146100ee57600080fd5b6000602082840312156101be578081fd5b6101c782610189565b9392505050565b6000806000606084860312156101e2578182fd5b6101eb84610189565b95602085013595506040909401359392505050565b60609190911b7fffffffffffffffffffffffffffffffffffffffff00000000000000000000000016815260140190565b91825260601b7fffffffffffffffffffffffffffffffffffffffff00000000000000000000000016602082015260340190565b918252602082015260400190565b90815260200190565b60208082526014908201527f494e53554646494349454e545f4445504f53495400000000000000000000000060408201526060019056fea26469706673582212205eb5f6cc1d1c8a95a8bcc46f2d9931b8e6fd0513dfe5e06df576b9933f6040eb64736f6c63430007030033",
  "immutableReferences": {},
  "source": "// SPDX-License-Identifier: MIT\n\npragma solidity >=0.6.0 <=0.7.3;\npragma experimental ABIEncoderV2;\n\n// TODO: Build a Logic Proxy that checks and embeds the version of the state, and directs to other contracts\n\ncontract Some_Logic_Contract {\n  // User (address) is a mandatory first field\n  function initialize_state(address user) external payable returns (bytes32) {\n    require(msg.value >= 500000000000000000, \"INSUFFICIENT_DEPOSIT\");\n    return keccak256(abi.encodePacked(user));\n  }\n\n  // User (address) is a mandatory first field\n  // Current State (bytes32) is a mandatory second field\n  function some_pure_transition(\n    address user,\n    bytes32 current_state,\n    bytes32 some_arg\n  ) external pure returns (bytes32) {\n    // Just do some expensive work for the sake of the proof of concept\n    current_state = keccak256(abi.encodePacked(current_state, user));\n\n    for (uint256 i; i < 1000; ++i) {\n      current_state = keccak256(abi.encodePacked(current_state, some_arg));\n    }\n\n    return current_state;\n  }\n}\n",
  "sourcePath": "/Users/michaeldeluca/Projects/optimistic-roll-in/eth/contracts/some-logic-contract.sol",
  "compiler": {
    "name": "solc",
    "version": "0.7.3+commit.9bfce1f6.Emscripten.clang"
  },
  "schemaVersion": "3.3.1",
  "updatedAt": "2020-10-28T01:58:08.175Z",
  "networkType": "ethereum",
  "devdoc": {
    "kind": "dev",
    "methods": {},
    "version": 1
  },
  "userdoc": {
    "kind": "user",
    "methods": {},
    "version": 1
  }
}